:020000021000EC
:10C000000080002009C40100297602006D000200B2
:10C010000000000000000000000000000000000020
:10C02000000000000000000000000000297602006F
:10C0300000000000000000002976020029760200BE
:10C04000297602002976020029760200297602006C
:10C0500029760200000000002976020029760200FD
:10C06000297602002976020029760200297602004C
:10C07000297602002976020029760200297602003C
:10C080002976020015800200297602002976020036
:10C09000817F0200E97A0200294702002976020026
:10C0A000297602002976020000000000000000004E
:10C0B0000000000000000000000000000000000080
:10C0C000FFFFFFFFFFFFFFFFFFFFFFFFFFFFFFFF80
:10C0D000FFFFFFFFFFFFFFFFFFFFFFFFFFFFFFFF70
:10C0E000FFFFFFFFFFFFFFFFFFFFFFFFFFFFFFFF60
:04C400000000000038
:10C4080080B500AF0CF076F90C4A0D4B9A4207D074
:10C418000C4B0A490A4A081C111C1A1C15F038FE54
:10C42800094B0A4A101C00211A1C15F04EFE15F083
:10C43800DBFD0CF053F904F093FAFEE70028002026
:10C44800DC7F0300540100001C0A0000542900206E
:10C45800F8B5C046F8BC08BC9E467047F8B5C0465B
:10C46800F8BC08BC9E46704710B5064C2378002BD4
:10C4780007D1054B002B02D0044800E000BF012380
:10C48800237010BD5429002000000000DC7F030049
:10C4980008B5084B002B03D00748084900E000BF47
:10C4A80007480368002B00D108BD064B002BFBD0C2
:10C4B8009847F9E700000000DC7F030058290020B6
:10C4C80054290020000000002BDF704770B582B0AF
:10C4D800061C031C114A083204C344685D680DE059
:10C4E80020680C380E4B984207D083685A1E826029
:10C4F800002B02DC01A90CF01BFB0434A542EFD190
:10C508007068002801D00CF09BF9301C0BF05AF928
:10C51800301C0CF095F9301C02B070BD6049030066
:10C528002832002070B582B0061C031C104A08325D
:10C5380004C344685D680DE020680C380D4B9842D0
:10C5480007D083685A1E8260002B02DC01A90CF018
:10C55800EFFA0434A542EFD17068002801D00CF03E
:10C568006FF9301C0BF02EF9301C02B070BDC046BC
:10C57800604903002832002030B583B0104B114ABF
:10C5880008321A605C689D680DE020680C380E4B14
:10C59800984207D083685A1E8260002B02DC01A9EA
:10C5A8000CF0C6FA0434A542EFD1054B58680028B0
:10C5B80001D00CF045F902480BF004F903B030BD86
:10C5C800FC2D00206049030028320020F0B55746B2
:10C5D8004E464546E0B4041C8A46161C0B1A1B112D
:10C5E80099465EE0A0462068031C0C3B1A68316837
:10C5F8000B1C0C3B1B689A4205D115F03AFD00282C
:10C6080003D0002502E0002500E00125002D01D01F
:10C61800201C9DE043461F1D3C1C5868031C0C3B16
:10C628001A6831680B1C0C3B1B689A4204D115F040
:10C6380020FD002800D10125002D01D0201C87E015
:10C648003B1D98461C1C7868031C0C3B1A68316813
:10C658000B1C0C3B1B689A4204D115F00AFD0028FC
:10C6680000D10125002D01D0201C71E043461F1D7B
:10C678003C1C5868031C0C3B1A6831680B1C0C3BAB
:10C688001B689A4204D115F0F4FC002800D101255A
:10C69800002D01D0201C5BE03C1D01235B429C4621
:10C6A800E1444B46002B9DDC251C53461B1B9B106D
:10C6B800022B1CD0032B02D0012B48D130E020687C
:10C6C800031C0C3B1A6831680B1C0C3B1B689A4214
:10C6D80005D115F0CEFC002803D0002302E000238A
:10C6E80000E00123002B01D0201C31E02C1D251C6B
:10C6F8002068031C0C3B1A6831680B1C0C3B1B6838
:10C708009A4205D115F0B5FC002803D0002302E0B9
:10C71800002300E00123002B01D0201C18E02C1D71
:10C728002068031C0C3B1A6831680B1C0C3B1B6807
:10C738009A4205D115F09DFC002803D0002302E0A1
:10C74800002300E00123002B01D0201C00E050460C
:10C758001CBC90469946A246F0BDC046F0B5474677
:10C7680080B4041C8846161C0F1A3F1124E0201CB4
:10C7780031680CF0CAF8002801D1201C43E00434C9
:10C78800201C31680CF0C1F8002801D1201C3AE0C7
:10C79800251D281C31680CF0B8F8002801D1281C88
:10C7A80031E00435281C31680CF0AFF8002801D1BD
:10C7B800281C28E02C1D013F002FD8DC43461B1BFA
:10C7C8009B10022B0DD0032B02D0012B1AD111E0A4
:10C7D800201C31680CF099F8002801D1201C12E0C7
:10C7E8000434201C31680CF090F8002801D1201C7A
:10C7F80009E004343168201C0CF087F8002801D1C6
:10C80800201C00E0404604BC9046F0BDF0B585B061
:10C81800051C01910C1D4368A3420DD0271C0E1C5A
:10C828001C1BA41006E0301C391C0CF05AF8043705
:10C838000436013C002CF6DC6B68043B6B6018681E
:10C848000C38074B984207D083685A1E8260002B29
:10C8580002DC03A90CF06CF9019805B0F0BDC046E4
:10C8680028320020F0B54F464646C0B485B0051CB6
:10C878000C1C01230193436802689E1AB6100396A4
:10C88800012E01D201AA00E003AA1268B6182A688C
:10C898009B1A9B109E4204D3294B9E4202D91E1C10
:10C8A80000E0274E002E09D0254B9E4201D90BF0FF
:10C8B800DBFFB0000BF0B2FF814601E00023994690
:10C8C8006B682A68981A801080004844002802D0B3
:10C8D800211C0CF060F92B6868684A4607E0002ABA
:10C8E80003D0196811601749196004330432834270
:10C8F800F5D1131D98462F686C680DE038680C3820
:10C90800114B984207D083685A1E8260002B02DCC4
:10C9180002A90CF00DF90437BC42EFD128680028B1
:10C9280001D00BF08DFF4B462B6043466B60B60081
:10C938004E44AE6005B00CBC90469946F0BDC0466A
:10C94800FFFFFF3F343200202832002010B5041CBE
:10C958000023038341608B188360828101614161F8
:10C96800FFF7B2FD002362691370201C10BDC0469A
:10C978002DDF70472CDF704770B582B0061C046845
:10C9880045680DE020680C380A4B984207D0836848
:10C998005A1E8260002B02DC01A90CF0C9F804348D
:10C9A800A542EFD13068002801D00BF049FF301CB8
:10C9B80002B070BD28320020F8B5041C0E1C151CEE
:10C9C8001F1C05E000202056B847287001340135A7
:10C9D800B442F7D1281CF8BDF8B5051C0C1C0B682F
:10C9E8000C3B9B68002B02DB081C0CF03BF827680B
:10C9F8003B1C0C3B9B68002B02DB201C0CF032F824
:10CA08002668331C0C3B1A68944666449B68002BC6
:10CA180002DB201C0CF026F8381C311C2268154B50
:10CA2800FFF7CAFFAE686868311C221C0023FFF7B5
:10CA3800CDFD2861864212D104356868AB6883420F
:10CA480008D0002802D0211C0CF0A5F86B6804332C
:10CA58006B600DE0281C211CFFF704FF08E02A1D6D
:10CA68006B68C11A891089005918101CFFF7CEFE8F
:10CA7800F8BDC046CD86020005280BD88000074BBC
:10CA88001B589F46064808E0064806E0064804E0AA
:10CA9800064802E0064800E006487047D43503001F
:10CAA80064380300A4380300CC380300F8380300C6
:10CAB8002039030090380300F0B5474680B482B0AF
:10CAC800061C071D436898467D681C1C0DE02068FD
:10CAD8000C380C4B984207D083685A1E8260002B92
:10CAE80002DC01A90CF024F80434A542EFD1434636
:10CAF8007B600022D2235B00F25402B004BC904653
:10CB0800F0BDC04628320020F8B50F1C161C1D1CAD
:10CB180000240BE0731EA34201D9064900E0064930
:10CB28003A5D281C15F018FC2D180134B442F1D3D5
:10CB3800F8BDC04638390300403803000E23FF33E0
:10CB4800984200D17AE029D80623FF33984265D06D
:10CB580013D80223FF33984258D008D8012800D1AF
:10CB68008EE000284ED0013B98424DD086E0042349
:10CB7800FF3398424ED04BD94EE00A23FF339842F8
:10CB880054D005D80823FF3398424BD048D94BE0FE
:10CB98000C23FF3398424DD04AD94DE0A023FF33F0
:10CBA80098425BD015D81223FF3398424ED005D84F
:10CBB8001023FF33984245D042D945E08023FF3304
:10CBC800984247D00133984246D06E3B984255D19F
:10CBD8003EE0FE235B00984248D00AD8E023FF33AA
:10CBE80098423FD0013398423ED0403B984245D1CD
:10CBF80036E0FF235B0098423CD039D3214B984262
:10CC08003AD03BE020483CE020483AE0204838E071
:10CC1800204836E0204834E0204832E0204830E020
:10CC280020482EE020482CE020482AE0204828E030
:10CC3800204826E0204824E0204822E0204820E040
:10CC480020481EE020481CE020481AE01E4818E052
:10CC58001F4816E01F4814E01F4812E01F4810E064
:10CC68001F480EE01F480CE01F480AE01F4808E074
:10CC78001F4806E01F4804E01F4802E01F4800E084
:10CC88001F487047FF010000403903006C3903005A
:10CC98008C390300B0390300D0390300F0390300A0
:10CCA800183A0300403A0300703A0300B03A030010
:10CCB800E83A0300183B0300483B0300983B030095
:10CCC800CC3B0300EC3B03000C3C0300303C03006E
:10CCD800703C0300A43C0300D43C0300F83C030070
:10CCE8001C3D0300503D0300803D0300B43D03009C
:10CCF800E43D0300503E0300943E0300C83E030099
:10CD0800483903003E2835D880001C4B1B589F46E5
:10CD18001B4832E01B4830E01B482EE01B482CE043
:10CD28001B482AE01B4828E01B4826E01B4824E053
:10CD38001B4822E01B4820E01B481EE01B481CE063
:10CD48001B481AE01B4818E01B4816E01B4814E073
:10CD58001B4812E01B4810E01B480EE01B480CE083
:10CD68001B480AE01B4808E01B4806E01B4804E093
:10CD78001B4802E01B4800E01B487047EC350300E5
:10CD880040390300F03E0300103F0300283F030032
:10CD98004C3F0300703F03009C3F0300B03F03007B
:10CDA800C03F0300E03F03000040030010400300C1
:10CDB800344003005040030074400300B0400300B7
:10CDC800E84003000C4103002041030040410300F8
:10CDD800584103006C41030084410300984103005B
:10CDE800AC410300C8410300DC3E0300552843D88A
:10CDF8008000234B1B589F46224840E022483EE0D3
:10CE080022483CE022483AE0224838E0224836E00E
:10CE1800224834E0224832E0224830E022482EE01E
:10CE280022482CE022482AE0224828E0224826E02E
:10CE3800224824E0224822E0224820E022481EE03E
:10CE480022481CE022481AE0224818E0224816E04E
:10CE5800224814E0224812E0224810E022480EE05E
:10CE680022480CE022480AE0224808E0224806E06E
:10CE7800224804E0224802E0224800E022487047A5
:10CE8800E8360300DC4103000C420300284203009B
:10CE9800404203005C4203007C4203009C420300C2
:10CEA800BC420300D8420300F842030010430300C9
:10CEB8002C430300404303005C4303007443030016
:10CEC8008C430300B4430300D8430300F443030036
:10CED800104403002C440300544403006C44030032
:10CEE80090440300A8440300BC440300D444030056
:10CEF800E84403000C4503002C45030040450300AB
:10CF08005C45030074450300F0410300F8B5051CB7
:10CF18000C1C0B680C3B9B68002B02DB081C0BF0FD
:10CF2800A1FD27683B1C0C3B9B68002B02DB201CE7
:10CF38000BF098FD2668331C0C3B1A68944666442F
:10CF48009B68002B02DB201C0BF08CFD381C311C6D
:10CF580022680B4BFFF730FD04356868AB689842D0
:10CF680008D0002802D0211C0BF015FE6B68043392
:10CF78006B6003E0281C211CFFF774FCF8BDC04659
:10CF8800CD860200F0B587B0041C0E1C171C039355
:10CF9800002912D0D2235B00C55C002D12D1254B8D
:10CFA8000C9A9A420BD04068A1680CAA0023FFF79C
:10CFB800D5FBA368834204D104E0012502E00125E2
:10CFC80000E00125002D32D0251C1435281C002135
:10CFD800C82215F07AF8DC34201C0021C82215F08C
:10CFE80074F80EAA0592281C0D9915F0FFFB012E66
:10CFF8000CD10C9B00930195201C0F493A1C039BF4
:10D0080015F0AAF9201C07F0D7FE10E0022E03D174
:10D01800281C07F0D1FE0AE0002E08D1201C074981
:10D028000C9A2B1C15F098F9201C07F0C5FE07B0C8
:10D03800F0BDC046844703008C470300A0470300A7
:10D04800F0B5574680B486B0061C0F1C02920393B5
:10D058000CAC08CC9A46051C1435281C0021C822A3
:10D0680015F033F80594281C5146221C15F0BEFB18
:10D07800002F0CD0341CDC340095201C0749029A80
:10D08800039B15F069F9201C07F096FE02E0281CA6
:10D0980007F092FE06B004BC9246F0BDA847030014
:10D0A80038B5041C0AF0CCFB0D4B0833236000256F
:10D0B8006560A560E5602561201C14300021C82248
:10D0C80015F003F8201CDC300021C82214F0FDFF05
:10D0D800D2235B00E554201C0AF0B8FB201C38BDA5
:10D0E8006049030008B5074B1B68DB0708D40648EE
:10D0F800FFF7D6FF0122034B1A60044814F005FF1E
:10D10800014808BDF82D0020FC2D002081C5010034
:10D11800F0B5474680B484B0041C0291151C1F1C4E
:10D12800FFF728FC002816D0304B1B68DB0708D413
:10D138002F48FFF7B5FF01222C4B1A602D4814F039
:10D14800E4FE2D4B00932D4B0193294801212C4AD5
:10D158003923FFF717FFEB1CDBB2626921698A42AA
:10D168000DD3A068861A03939E4208DC6668881B64
:10D178008046434503DC66610023337014E08A422D
:10D1880008D3D018A668B04204D3201CFFF7F0FBE0
:10D19800002027E08A4207D2D318994204D8201CDD
:10D1A800FFF7E6FB00201DE06B1C626913706369E2
:10D1B800002F01D0012200E000225A706369981CF8
:10D1C80002992A1C14F064FF023563699C46654481
:10D1D800656100232B70238B01332383201CFFF709
:10D1E800C7FB012004B004BC9046F0BDF82D002018
:10D1F800FC2D002081C5010084470300D8470300A7
:10D20800C7470300F0B5474680B482B00F1C90466C
:10D218001C1C081C15F018F90130032114F09EFAA3
:10D22800061C844216D2154B1B68DB0708D4144829
:10D23800FFF736FF0122114B1A60124814F065FE01
:10D24800114B0093114B01930D480121104A114BCA
:10D25800FFF798FE00240AE043461D1960000019F4
:10D2680038180021102215F08DFA28700134B442C4
:10D27800F2D302B004BC9046F0BDC046F82D0020A1
:10D28800FC2D002081C501008447030004480300E9
:10D29800F74703001702000030B585B0051CD223FC
:10D2A8005B00C35C002B14D0224B1B68DB0708D43F
:10D2B8002148FFF7F5FE01221E4B1A601F4814F0A3
:10D2C80024FE1F4B00931C4800211E4A9023FFF7A1
:10D2D800B7FE6C68AD6828E002A8211C0BF05BFC67
:10D2E800144B1B68DB0708D41348FFF7D9FE01224B
:10D2F800104B1A60114814F008FE134B0093029B60
:10D3080001930D4800210F4A9323FFF799FE0298D5
:10D318000C380E4B984207D083685A1E8260002B47
:10D3280002DC03A90BF004FC0434A542D4D105B0F7
:10D3380030BDC046F82D0020FC2D002081C501001D
:10D348001C480300F7470300304803002832002038
:10D35800F0B583B0061C0D1C171C081C29490BF0DE
:10D36800D4FA002807D17B683A689B1A9B10012BD6
:10D3780003D0002402E0002400E00124002C2CD07B
:10D38800386821490BF0C1FA002806D1D222520090
:10D39800B15C01234B40B35431E038681B490BF0B2
:10D3A800B4FA002803D1301CFFF786FB27E0396860
:10D3B80068460BF0F0FB301C6946FFF70DFB009840
:10D3C8000C38134B98421AD083685A1E8260002B7F
:10D3D80015DC01A90BF0ACFB11E0281C0D490BF082
:10D3E80094FA002804D1301CFFF756FF012406E008
:10D3F800281C09490BF089FA002800D10124201CB7
:10D4080003B0F0BD38480300404803004448030017
:10D41800283200204C4803005848030000B583B068
:10D4280001291AD0002902D002292CD041E02C4B26
:10D438001B68DB0708D42B48FFF732FE0122284B74
:10D448001A60294814F061FD284B009325480021F3
:10D45800274A6A23FFF7F4FD40E0214B1B68DB07EE
:10D4680008D42048FFF71CFE01221D4B1A601E48F5
:10D4780014F04BFD1F4B00931A4800211C4A6D23E2
:10D48800FFF7DEFD2AE0164B1B68DB0708D41548BA
:10D49800FFF706FE0122124B1A60134814F035FDFF
:10D4A800154B00930F480021114A7023FFF7C8FD60
:10D4B80014E00B4B1B68DB0708D40A48FFF7F0FDA4
:10D4C8000122074B1A60084814F01FFD0B4B00930C
:10D4D80004480021064A7323FFF7B2FD03B000BDDC
:10D4E800F82D0020FC2D002081C5010064480300B0
:10D4F800F747030098480300DC480300204903006D
:10D508004379002B0ED00379002B05D00168064B18
:10D51800A022D205D15005E00168A123DB00A0229A
:10D52800D205D1507047C0460C0500004379002B46
:10D538000ED00379002B06D00168A123DB00A022BE
:10D54800D205D15004E00168024BA022D205D15087
:10D558007047C0460C050000002902D10023437122
:10D5680001E001234371027101238B40191C036000
:10D57800A323DB00A022D205D1500023836070478B
:10D5880010B58A8A002A02D10023838014E0CB6870
:10D598001C68002C04D10C69A34201D90B68CB602C
:10D5A800CC6808CC9BB2838004600433CC68A44662
:10D5B8006344CB60013A8A8210BDC04610B58B8A9D
:10D5C800002B01D1838010E0CB681A68002A09D1AA
:10D5D8000C69A34206D90B681B6883800B68043367
:10D5E800036002E082800433036010BD10B500239D
:10D5F800838201608C1844600281C16001610B6004
:10D6080010BDC046C0887047C3888B4205D90368DF
:10D61800002B04D08900C85802E0002000E0002058
:10D628007047C04610B5041C044B083303600AF069
:10D63800C9F8201C0BF004F9201C10BD484B03004E
:10D6480010B5041C034B083303600AF0BBF8201C18
:10D6580010BDC046484B030008B50348034B0833C8
:10D6680003600AF0AFF808BDD82B0020484B030030
:10D6780070B584B0061C141C1D1C144B1B68DB07FA
:10D6880008D41348FFF70CFD0122104B1A6011480B
:10D6980014F03BFC104B0093104B0193029503943C
:10D6A8000B4801210E4A7623FFF76CFC1634E40080
:10D6B8003019A9B207F0E0FB002803D07A21094A03
:10D6C80002F0B2FD012004B070BDC046F82D002064
:10D6D800FC2D002081C50100944903009C490300EA
:10D6E8008749030078490300F0B585B0071C0E1C74
:10D6F800141C1D1C114B1B68DB0708D41048FFF7CE
:10D70800CFFC01220D4B1A600E4814F0FEFB0E4BA5
:10D7180000930E4B019302950394094801210C4A8A
:10D728006C23FFF72FFC1634E4003919AAB2301C19
:10D73800002307F0FBFB012005B0F0BDF82D002009
:10D74800FC2D002081C5010094490300B84903005D
:10D7580087490300F0B5474680B488B006AF7860C3
:10D768000D1C161C081C4A490BF0CFF8002843D1A1
:10D77800E8463368186814F0D0FB051C33685B680A
:10D788003B60181C14F060FE041C830707D0011DC1
:10D79800C3179B0FC21803201040C01A0C1AE31DB0
:10D7A800DB08DB006A46D31A9D4606AE301C396892
:10D7B80015F084FE7868311C2A1C231CFFF758FFDB
:10D7C800344B1B68DB0708D43348FFF769FC012298
:10D7D800304B1A60314814F098FB314B0093314BB1
:10D7E8000193029403952C4801212F4AB723FFF790
:10D7F800C9FBC546012045E0281C2C490BF085F8DB
:10D8080000283ED1E8463368186814F086FB051CEA
:10D818003368586814F081FB061C830707D0011D84
:10D82800C217920F831803261E40B61A8E1BF31DCB
:10D83800DB08DB006A46D31A9D4606AC7868211CD3
:10D848002A1C331CFFF750FF124B1B68DB0708D458
:10D858001148FFF725FC01220E4B1A600F4814F0FF
:10D8680054FB0F4B0093124B0193029403960495BB
:10D87800094801210C4AC123FFF784FBC546012052
:10D8880000E00020BD4602B004BC9046F0BDC04692
:10D8980088510300F82D0020FC2D002081C50100CF
:10D8A80094490300D849030087490300AC51030099
:10D8B800F849030010B582B080235B00C35C002BDD
:10D8C8001FD1A433C1588B8A002B1AD0041C012203
:10D8D80080235B00C2546846FFF770FE009B1A88DD
:10D8E800002A06D199685A685B88201CFFF7FCFE5D
:10D8F80007E0012A05D199685A685B88201CFFF760
:10D90800B7FE02B010BDC046F8B5551D0369C4681E
:10D91800A3420BD34668F61AAE4207D80668A71B7F
:10D92800AF4203D30661002333600AE0A34203D366
:10D938005E194768BE4218D2A34202D25B199C42C4
:10D9480015D9141C051C03691A600369181D14F005
:10D958009FFB04342B699C4664442C61002323609C
:10D96800AB8A0133AB82012002E0002000E00020F6
:10D97800F8BDC04638B5041C0D1C880014F05AFBCD
:10D9880020600023E380A580201C38BDF0B55746F1
:10D998004E464546E0B48AB0984B1B78002B00D120
:10D9A80025E1974900230B70002007F017FA00289B
:10D9B80000D11CE1934B1B78002B06D0924807F04E
:10D9C800FBF98F4B187807F0CFF98D48FA2101221F
:10D9D80009F0F4FF8D4803680C3B1A680021002306
:10D9E8000AF0F0FF8A4B1E685D68341C0DE0206861
:10D9F8000C38884B984207D083685A1E8260002BE7
:10DA080002DC08A90BF094F80434A542EFD1804B4E
:10DA18005E607B48804914F033FD041E06D014F084
:10DA280013FD021C7948211C0BF046F8774B1B6844
:10DA38000C3B9B68002B02DB74480BF013F8734B0C
:10DA48001E68331C0C3B9B68002B02DB6F480BF0F5
:10DA580009F86E4B1D682B1C0C3B1A6894466544EC
:10DA68009B68002B02DB69480AF0FCFF674B1A68C9
:10DA7800301C291C694BFEF79FFF1BE000206649FC
:10DA880014F0FEFC041E15D06846211C01AA0BF0F8
:10DA9800B3F85F48694609F081FE00980C385D4B81
:10DAA800984207D083685A1E8260002B02DC06A9C0
:10DAB8000BF03EF8002CE1D1544859490AF025FFF3
:10DAC80000286FD11B3007F04FF9564807F074F95A
:10DAD8001B2007F049F9544807F06EF987E0534BCB
:10DAE8001868B1B2FFF790FD804603689B689946B5
:10DAF80002A846490BF04FF8454A536814681C1BA6
:10DB0800A4100023039304930593002C09D0484BD9
:10DB18009C4201D90AF0A8FEA0000AF07FFE051C6D
:10DB280000E0002503950495A4002C190594384BB2
:10DB38001C685F6807E0002D03D0281C211C0BF02F
:10DB48002AF804340435BC42F5D10495404602A9AC
:10DB580003AAC8478244039C049D0DE020680C3842
:10DB68002C4B984207D083685A1E8260002B02DC37
:10DB780009A90AF0DDFF0434A542EFD10398002873
:10DB880001D00AF05DFE02980C38224B984207D06B
:10DB980083685A1E8260002B02DC07A90AF0C8FFBE
:10DBA800013602E0002600239A46204B1868FFF74A
:10DBB80029FD864293D35346002B18D1114B1B786D
:10DBC800002B03D01B4807F0F7F810E01A4B1B682E
:10DBD800DB0708D41948FFF763FA0122164B1A60CD
:10DBE800174814F092F915480121FFF717FC0AB0FD
:10DBF8001CBC90469946A246F0BDC046BC300020E9
:10DC0800702900201A280020184A0300F03100204B
:10DC1800E431002028320020D85A0300CD860200C3
:10DC2800244A0300284A03002C4A0300D831002064
:10DC3800FFFFFF3F304A0300F82D0020FC2D002095
:10DC480081C5010010B582B008200AF0E7FD041C68
:10DC58001421FFF78FFE1B4B1C6001230093082043
:10DC680009210A220A3307F035F8174B1B78002BD5
:10DC780023D01B2007F078F8144807F09DF81B20E4
:10DC880007F072F8124807F097F8124807F094F86E
:10DC9800114807F091F8114807F08EF8104807F07E
:10DCA8008BF8104807F088F80F4807F085F80F48F8
:10DCB80007F082F80E4807F07FF801220D4B1A7022
:10DCC80002B010BDD83100201A280020284A0300CD
:10DCD8002C4A0300444A03007C4A0300A04A03007C
:10DCE800AC4A0300B04A0300BC4A0300C84A030018
:10DCF800D04A0300BC30002010B584B0041C029147
:10DD080069464A800193069B039301230B80A33342
:10DD1800C0581022FFF7F8FD201CFFF7CBFD04B018
:10DD280010BDC04610B584B0041C029169464A80F3
:10DD38000193069B039300230B80A433C058102241
:10DD4800FFF7E2FD201CFFF7B5FD04B010BDC0468B
:10DD580070B584B0061C09F073FD284B0833336096
:10DD6800301C09F073FD18200AF058FD041C311D01
:10DD7800A022FFF73BFCA423F45000225C33F254AA
:10DD880002AB80329A80783ADA801D4B029307F012
:10DD980053FA002803D03A211A4A02F045FA341CF3
:10DDA800A83402A8211C07F0C5F9002816D0164B84
:10DDB8001B68DB0708D41548FFF772F90122124BDC
:10DDC8001A60134814F0A1F8124B0093124B0193F8
:10DDD8000E480121114A3E23FFF7D4F8002508E038
:10DDE800A9B22A1C1632D200B218201C07F064F916
:10DDF8000135092DF4D9301C04B070BD484B03001F
:10DE080055DE010078490300F82D0020FC2D002084
:10DE180081C5010094490300084B030087490300AA
:10DE280008B5074B1B68DB0708D40648FFF790FFC7
:10DE38000122034B1A60044814F067F8014808BD32
:10DE4800DC2C0020D82B002061D6010030B58BB027
:10DE58000C1C151C6E4B1B68DB0708D46D48FFF7BC
:10DE68001FF901226A4B1A606B4814F04EF86B4B8D
:10DE780000936B4B0193029403950E9B04936548A2
:10DE88000121684A4723FFF77DF8002D27D0604B12
:10DE98001B68DB0708D45F48FFF702F901225C4BD7
:10DEA8001A605D4814F031F8594B1B68DB0708D439
:10DEB8005848FFF7F5F80122554B1A60564814F0F8
:10DEC80024F8A0B2FEF7D8FD544B0093564B0193AB
:10DED800029050480121534A4823FFF753F8042C75
:10DEE8002DD1002D2BD1514B1B68DB0708D450488E
:10DEF800FFF72EFF01224D4B1A604E4814F005F82B
:10DF0800A4234B4AD15806A8FFF758FB069C474B59
:10DF18001B68DB0708D44648FFF71AFF0122434B6A
:10DF28001A60444813F0F1FF60681630C000404B97
:10DF3800C018A1686288002307F060F866E0023C18
:10DF4800012C3FD8002D3DD1384B1B68DB0708D486
:10DF58003748FFF7FDFE0122344B1A60354813F0AD
:10DF6800D4FFA423324AD15808A8FFF709FB089B1D
:10DF78001A88002A03D1D86803689B6898472B4BF6
:10DF88001B68DB0708D42A48FFF7E2FE0122274B6B
:10DF98001A60284813F0B9FF002180235B00244A47
:10DFA800D154224B1B68DB0708D4101CFFF7D0FEA6
:10DFB80001221E4B1A601F4813F0A7FF1C48FFF7E9
:10DFC80079FC23E0002D21D0184B1B68DB0708D40F
:10DFD8001748FFF7BDFE0122144B1A60154813F0CD
:10DFE80094FF002180235B00114AD1540F4B1B681A
:10DFF800DB0708D4101CFFF7ABFE01220B4B1A609D
:10E008000C4813F082FF0A48FFF754FC0BB030BDF0
:10E01800F82D0020FC2D002081C501009449030043
:10E02800244B030087490300C0590300DC2C00205F
:10E03800D82B002061D60100C3888288934209D278
:10E048000268002A08D09B00D150C3880133C380DE
:10E05800012002E0002000E0002070470023038236
:10E0680003688360C3607047038A8B4204D90368DE
:10E07800C0884143581800E0002070478288036830
:10E088009C466244C368D21AC1888A4206DB5B1880
:10E09800C360028A01320282581A00E000207047E9
:10E0A80010B50024048201608280C3808160C16051
:10E0B80010BDC04600230383436803614361002207
:10E0C8001A70704710B582B0041CFEF753FC002884
:10E0D80016D0124B1B68DB0708D41148FEF7E0FF87
:10E0E80001220E4B1A600F4813F00FFF0E4B0093DE
:10E0F8000E4B01930A4801210D4A8523FEF742FF82
:10E10800226913780133D3182361238B013B2383BE
:10E11800201CFEF72DFC02B010BDC046F82D0020D3
:10E12800FC2D002081C5010084470300D847030067
:10E13800C747030030B583B0051C0C1C081CFEF74C
:10E1480019FC002816D0194B1B68DB0708D418489F
:10E15800FEF7A6FF0122154B1A60164813F0D5FEEC
:10E16800154B0093154B019311480121144A69235B
:10E17800FEF708FF238B002B04D1AB80201CFEF791
:10E18800F7FB10E023691A78002A04D162699342E8
:10E1980001D96368236123691A78AA8001332B6047
:10E1A800201CFEF7E5FB281C03B030BDF82D00202D
:10E1B800FC2D002081C5010084470300D8470300D7
:10E1C800C747030038B5051C002407E0231D9B0042
:10E1D800EB185868037A002B4DD00134264B1B6886
:10E1E800002B41D138200AF019FB0123037043703A
:10E1F80000228270C8214160783901814181828181
:10E2080096229200C281B93AFF3A028242821039BC
:10E218008182FA214901C182C821C90001830821EC
:10E2280041838283203AC2837B3A02840532428446
:10E23800FA21890081841149C184FA21C900018524
:10E2480041858285243283540132835401328354B8
:10E25800438633330122C25403220133C2540132AC
:10E268000133C254044B1860034B1A683523D35C3E
:10E278009C42ABDB002038BD08300020102700008E
:10E2880070B582B0051C161C1C1C06AB1B78D0226E
:10E2980052008858E2B2311CFEF73AFF002803D03A
:10E2A8006B8901336B8116E00C4B1B68DB0708D4C4
:10E2B8000B48FEF7F5FE0122084B1A60094813F0D7
:10E2C80024FE094B0093094B019305480121084A94
:10E2D800A123FEF757FE02B070BDC046F82D0020FE
:10E2E800FC2D002081C5010084470300844B0300F6
:10E2F8006C4B0300F0B557464E464546E0B484B033
:10E30800051C0124644200260134904B1B68002B35
:10E3180041D138200AF082FA0123037043700022A9
:10E328008270C821416078390181418182819622B9
:10E338009200C281B93AFF3A028242821039818240
:10E34800FA214901C182C821C900018308214183FA
:10E358008283203AC2837B3A028405324284FA21BE
:10E36800890081847A49C184FA21C90001854185DF
:10E378008285243283540132835401328354438684
:10E3880033330122C25403220133C2540132013310
:10E39800C2546E4B18606D4B1A683623D15C201C32
:10E3A80013F052FB0C1E00D10026231C08339B00DF
:10E3B800EB185B681A7A002A00D1BAE0D022520022
:10E3C80099580B8B002B00D1B3E002AF381CFFF734
:10E3D800B1FE029801784B1E9941C9B2431C9A4676
:10E3E800BB88013B9BB2142B04D842780127BA435F
:10E3F800427000E0012100296BD0211C08318900FE
:10E40800691849680F7B002F00D192E0142B34D98A
:10E41800D2277F00C95D00292AD08A44591A1429B5
:10E4280002DD0121884601E000218846012291464B
:10E43800524611780127B94347460F431770417870
:10E448004908480011784A46114001435246117064
:10E458004A4611420AD1211C0831890069184868C6
:10E46800D2214900415C5B1A9BB206E0142304E008
:10E47800417801230B4343701423211C0831890080
:10E48800691849689C208000085A324FC95B0127E7
:10E498000097524602F0AAFB071E04D0F621FF316E
:10E4A8002D4A01F0C1FE002F07D1231C08339B0021
:10E4B800EB185A68137B013B1373231C08339B002A
:10E4C800EB185A68D0235B00D3581B8B002B2DD137
:10E4D8002FE0297B00292CD0211C083189006918DC
:10E4E80049689C208000085A1A4FC95B002700978A
:10E4F800524602F07BFB00280CD12B7B013B2B738F
:10E50800231C08339B00EB185A68D0235B00D058B3
:10E51800FFF7D8FD231C08339B00EB185A68D0235B
:10E528005B00D3581B8B002B02D102E0012600E0D0
:10E538000126032C00D0E7E6002E00D0E4E604B064
:10E548001CBC90469946A246F0BDC0460830002043
:10E55800102700007A020000604B030070B5061C0B
:10E568000D1C00240CE0231C08339B00F31858688A
:10E57800A84204D0037A002B01D007F029F901340E
:10E58800264B1B68002B41D138200AF047F901239C
:10E598000370437000228270C8214160783901817C
:10E5A8004181828196229200C281B93AFF3A028261
:10E5B800428210398182FA214901C182C821C900E9
:10E5C8000183082141838283203AC2837B3A0284F3
:10E5D80005324284FA21890081841149C184FA21D3
:10E5E800C9000185418582852432835401328354D0
:10E5F80001328354438633330122C2540322013348
:10E60800C25401320133C254044B1860034B1A68D8
:10E618003523D35C01339C42A5DB70BD0830002054
:10E6280010270000F0B58DB0041C0F1C151C1E1C13
:10E63800837B002B4BD00268002A4AD1013B8373AD
:10E64800FFF7C0FD2060244BC6522068291C321CED
:10E6580007F0AEFD214B1B68DB0708D42048FEF706
:10E668001FFD01221D4B1A601E4813F04EFC236843
:10E678001D4A94466344191C1948062207ABFEF745
:10E6880043FA281C02F05EFC051C144B1B68DB07D0
:10E6980008D41348FEF704FD0122104B1A601148F4
:10E6A80013F033FC002D01D0104B00E0104B114A41
:10E6B8000092114A0192029707AA0392049308480C
:10E6C80001210E4ADA23FEF75DFC206802E00020F3
:10E6D80000E000200DB0F0BD7A020000F82D002007
:10E6E800FC2D002081C5010073020000B4780300EE
:10E6F800AC780300A04B0300A84B03006C4B03004D
:10E7080070B503699C2292009A5A8A425AD00E1C0C
:10E71800051C002409E0231D9B00EB185B689C2264
:10E7280092009A5AB2424DD00134274B1B68002BF5
:10E7380041D138200AF072F8012303704370002297
:10E748008270C82141607839018141818281962295
:10E758009200C281B93AFF3A02824282103981821C
:10E76800FA214901C182C821C900018308214183D6
:10E778008283203AC2837B3A028405324284FA219A
:10E78800890081841149C184FA21C9000185418524
:10E798008285243283540132835401328354438660
:10E7A80033330122C25403220133C25401320133EC
:10E7B800C254054B1860044B1A683523D35C9C423D
:10E7C800A9DB0023181C70BD0830002010270000AA
:10E7D800F0B585B0071C0D1C029203930AAB1C7898
:10E7E800002610E0331C08339B00FB185968A94227
:10E7F80008D04B7A002B05D00094381C029A039B52
:10E80800FFF73EFD0136284B1B68002B41D138200D
:10E818000AF004F801230370437000228270C821B3
:10E828004160783901814181828196229200C281BA
:10E83800B93AFF3A0282428210398182FA214901AB
:10E84800C182C821C9000183082141838283203AFB
:10E85800C2837B3A028405324284FA21890081848A
:10E868001249C184FA21C900018541858285243273
:10E878008354013283540132835443863333012253
:10E88800C25403220133C25401320133C254064B2D
:10E898001860054B1A683623D35C9E42A2DB381CED
:10E8A800FFF728FD05B0F0BD083000201027000054
:10E8B80010B582B0041C04A800780090201CFFF753
:10E8C800DFFC201CFFF716FD012002B010BDC0467A
:10E8D800F0B589B003900D1C141C1E1C0EAB1F78DC
:10E8E800D27823791B0213431E4A1068428D934243
:10E8F80005D0002905D1002B05D0002304E0012311
:10E9080002E0002300E00123002B08D005A9002322
:10E918000B804C600E818F700368DB699847E27842
:10E9280023791B021343104A93420CD10398002108
:10E9380001F0ACF9011E12D000970398221C331C79
:10E94800FFF7B6FF0BE0074A1268528D934206D0D4
:10E9580000970398291C221C331CFFF739FF09B0C4
:10E96800F0BDC046B82F002019790000F0B583B07B
:10E97800041C0025456002F03BFD02F08FF90123DD
:10E98800237265812560944B1B68002B41D1382088
:10E9980009F044FF01230370437000228270C821EC
:10E9A8004160783901814181828196229200C28139
:10E9B800B93AFF3A0282428210398182FA2149012A
:10E9C800C182C821C9000183082141838283203A7A
:10E9D800C2837B3A028405324284FA218900818409
:10E9E8007E49C184FA21C900018541858285243286
:10E9F80083540132835401328354438633330122D2
:10EA0800C25403220133C25401320133C254724B3F
:10EA18001860714B1B6835229A5CA273002B41D198
:10EA2800382009F0FBFE0123037043700022827036
:10EA3800C821416078390181418182819622920002
:10EA4800C281B93AFF3A0282428210398182FA21A0
:10EA58004901C182C821C9000183082141838283F9
:10EA6800203AC2837B3A028405324284FA21890023
:10EA780081845A49C184FA21C9000185418582856A
:10EA8800243283540132835401328354438633330E
:10EA98000122C25403220133C25401320133C25449
:10EAA8004D4B18604C4B1A683423D35C63734C4B42
:10EAB8001E68A220800009F0B1FE051C0023009307
:10EAC8000021221C331C07F08DFB6562256101259E
:10EAD80017E0434B1F68A220800009F09FFE061C28
:10EAE800E9B201230093221C3B1C07F07BFBEB1CC3
:10EAF8009B00E3185E602B1C08339B00E3185E60E4
:10EB08000135354B1B68002B41D1382009F086FEB2
:10EB180001230370437000228270C8214160783954
:10EB280001814181828196229200C281B93AFF3ADD
:10EB38000282428210398182FA214901C182C821A8
:10EB4800C9000183082141838283203AC2837B3A2A
:10EB5800028405324284FA21890081841F49C184D4
:10EB6800FA21C90001854185828524328354013206
:10EB7800835401328354438633330122C25403221F
:10EB88000133C25401320133C254134B1860124B83
:10EB98001A683523D35C9D429BDD201C0C3006F09F
:10EBA8006BFC002803D045210E4A01F03DFB0E48BE
:10EBB80002F034F90D4802F037F90D4802F03AF93D
:10EBC8000C4802F065F80C4802F05CF80B4802F0BB
:10EBD80053F8201C03B0F0BD0830002010270000B7
:10EBE800B82F0020604B0300E5EE010051EF010053
:10EBF800A9EE01005DEC010009EC010031F3010010
:10EC080070B5051C0E1C114B1B68002B07D1342056
:10EC180009F004FE041CFFF7A9FE0C4B1C600B4B0B
:10EC28001C68201C291CFFF76BFD00280CD0084B22
:10EC3800C652237A002B02D006F0C2FC04E06068BA
:10EC48000368DB680021984770BDC0466C2A002025
:10EC58007A020000F0B5A3B0041C844B1B68002B9B
:10EC680007D1342009F0DAFD051CFFF77FFE7F4B42
:10EC78001D607E4B1868A188FFF742FD051E00D174
:10EC8800F2E07B4BC05C002865D12023E35CDB0706
:10EC980061D4784B1B68DB0708D47748FEF700FA85
:10ECA8000122744B1A60754813F02FF9261C203680
:10ECB800E28B7148311C09ABFDF726FF6D4B1B68D1
:10ECC800DB0708D46C48FEF7EBF90122694B1A60A0
:10ECD8006A4813F01AF92023E35C5808DB07DB0FB6
:10ECE800DBB2E18B227A664F0097664F019702905C
:10ECF80003930491059260480121634AAD235B00A8
:10ED0800FEF740F95B4B1B68DB0708D45A48FEF74F
:10ED1800C7F90122574B1A60584813F0F6F8584BB8
:10ED280000935A4B019309AB029353480121564A69
:10ED38005C23FF33FEF726F906A9A3880B804E60F3
:10ED4800E38B0B81237A023B5A1E93418B70281C5C
:10ED580006F046FD88E0002829D12023E35CDB0784
:10ED680025D5281CA630FF30211C2031E28B13F05A
:10ED78008FF93F4AE18BAB5CCB18AB543D4B1B681A
:10ED8800DB0708D43C48FEF78BF90122394B1A609F
:10ED98003A4813F0BAF83E4B00933E4B019336487D
:10EDA8000121394ABA235B00FEF7ECF85CE0002841
:10EDB8005AD02818A630FF30E28B013A211C2131A5
:10EDC80013F066F92023E35CDB071ED5284AE18BA4
:10EDD800AB5CCB18013BAB54264B1B68DB0708D454
:10EDE8002548FEF75DF90122224B1A60234813F0EB
:10EDF8008CF8274B0093284B01931F480121224A86
:10EE08008423FF33FEF7BEF82EE01A4B1B68DB079E
:10EE180008D41948FEF744F90122164B1A6017481E
:10EE280013F073F81A4B00931C4B019312480121FD
:10EE3800154A8823FF33FEF7A5F809A9A3880B8094
:10EE48002B1CA633FF334B60094AA85CE38BC3181D
:10EE5800013B0B81237A023B581E83418B700023B0
:10EE6800AB54281C06F0BCFC23B0F0BD6C2A002073
:10EE78006D020000F82D0020FC2D002081C5010046
:10EE8800A04B0300C84B03006C4B0300C0590300A0
:10EE9800004C0300044C0300244C0300444C0300C2
:10EEA80038B5041C0C4B1B68002B07D1342009F023
:10EEB800B5FC051CFFF75AFD074B1D60064B1B6888
:10EEC80000221A609A7B01329A73586803681B699A
:10EED800211C984738BDC0466C2A002070B5061C16
:10EEE800184B1B68002B07D1342009F097FC041C31
:10EEF800FFF73CFD134B1C60124B1C68B188201CAB
:10EF0800FFF7FEFB051E1BD0C37A002B03D1637BE2
:10EF18000133637302E0A37B0133A373D0235B0047
:10EF2800EA586389128B9B1A638100232B726068ED
:10EF380003689B68311C9847281C311C06F004FBA9
:10EF480070BDC0466C2A002070B582B0051C394BD4
:10EF58001B68DB0708D43848FEF7A2F80122354BB6
:10EF68001A60364812F0D1FF354B0093354B0193A8
:10EF780031480121344AFC23FEF704F8334B1A6860
:10EF88006C23D35C062B17D12A4B1B68DB0708D4EC
:10EF98002948FEF785F80122264B1A60274812F007
:10EFA800B4FF2B4B00932B4B019323480121264A96
:10EFB8000423FF33FDF7E6FF274B1B68002B07D11F
:10EFC800342009F02BFC041CFFF7D0FC224B1C60FA
:10EFD800214B1C682B7D012B12D12669637B013BD9
:10EFE8006373301C291C06F09DFB60680368DB68AE
:10EFF800291C9847237A002B17D10133737214E028
:10F00800022B12D12668301C291C06F08BFB606885
:10F018000368DB68291C9847237A002B03D0301C2F
:10F0280006F0CEFA01E0012373720023236002B0D8
:10F0380070BDC046F82D0020FC2D002081C50100C0
:10F04800004C0300644C03006C4B0300B82F0020F5
:10F0580084470300784C03006C2A00203ADF70478D
:10F0680070DF70474160704710B582B0041C0E4BCA
:10F078001B68DB0708D40D48FEF712F801220A4B7B
:10F088001A600B4812F041FF0A4B00930A4B019398
:10F0980006480121094AC223FDF774FF201C0221FA
:10F0A80003F0EAFE02B010BDF82D0020FC2D002070
:10F0B80081C50100545903009C3F0300A84C03007C
:10F0C80008B4024B9C46043808BC604771F0010044
:10F0D80010B582B0041C0E4B1B68DB0708D40D4822
:10F0E800FDF7DEFF01220A4B1A600B4812F00DFFF4
:10F0F8000A4B00930A4B019306480121094AAE23A3
:10F10800FDF740FF201C062103F0B6FE02B010BD3B
:10F11800F82D0020FC2D002081C501005459030062
:10F12800B44C0300A84C030008B4024B9C460438B6
:10F1380008BC6047D9F0010030B587B0041C202313
:10F14800C35CFF2B74D1694B1B68DB0708D4684884
:10F15800FDF7A6FF0122654B1A60664812F0D5FE3E
:10F16800654B0093654B019361480121644A7A23FA
:10F17800FDF708FF00232022A354A387614B1B68D7
:10F18800002B41D1382009F049FB0123037043705B
:10F1980000228270C82141607839018141818281D1
:10F1A80096229200C281B93AFF3A0282428210390D
:10F1B8008182FA214901C182C821C900018308213D
:10F1C80041838283203AC2837B3A02840532428497
:10F1D800FA21890081844C49C184FA21C90001853A
:10F1E8004185828524328354013283540132835409
:10F1F800438633330122C25403220133C2540132FD
:10F208000133C2543F4B18603E4B1B685B8E23850D
:10F2180000224023E25204E0201C3C300221FFF788
:10F228001DFFA38F002BF7D0201C04F0D1FD1FE099
:10F238002E4B1B68DB0708D42D48FDF731FF012250
:10F248002A4B1A602B4812F060FE608DA18F228D28
:10F258004023E35A284D00952C4D019502900391C7
:10F268000492059322480121254A8A23FDF78AFE44
:10F27800201C04F061FE8023E0500020211C213175
:10F28800FFF7EEFE002803D09321214A00F0CCFFBF
:10F2980001F000FC208D04F055FC201C002103F037
:10F2A8007BFC124B1B68DB0708D41148FDF7F8FEFE
:10F2B80001220E4B1A600F4812F027FE618DA28FB3
:10F2C8004023E35A0C48009012480190029103929F
:10F2D8000493074801210A4A9D23FDF753FE201C89
:10F2E800022103F0C9FD07B030BDC046F82D00204B
:10F2F800FC2D002081C5010054590300CC4C0300AB
:10F30800A84C03000830002010270000E04C030040
:10F318009C4C0300284D030008B4024B9C46083857
:10F3280008BC604741F10100F0B5474680B48AB097
:10F33800041C684B1B68002B07D1342009F06EFAB7
:10F34800051CFFF713FB634B1D60624B1D68238888
:10F35800012B28D1604B1B68DB0708D45F48FDF7F9
:10F368009FFE01225C4B1A605D4812F0CEFD237AA5
:10F378005C4A00925C4A01920293584801215B4A18
:10F388005B4BFDF7FFFD2A7B237AD3182B73227A78
:10F398006B899B1A9BB26B81002B00D196E0281CCD
:10F3A800FEF7A8FF92E0372B00D08FE0E388002B10
:10F3B8001DD0494B1B68DB0708D44848FDF770FE91
:10F3C8000122454B1A60464812F09FFDE488201C34
:10F3D800FDF7B4FB434B0093464B01930294039013
:10F3E8003E480121414A444BFDF7CCFD6EE03A4BC3
:10F3F8001B68DB0708D43948FDF752FE0122364B5B
:10F408001A60374812F081FD364B00933B4B01934D
:10F4180032480121354A3A4BFDF7B4FDA188281C32
:10F42800FFF76EF9071CD0235B00C15806A8FEF74A
:10F4380081FED2235B00FE5C0136069B9C46664437
:10F44800254B1B68DB0708D42448FDF729FE012259
:10F45800214B1A60224812F058FD33785A0890461A
:10F46800DB07DB0FDCB2D0235B00F95808A8FEF7F6
:10F4780061FE1C4B0093234B019343460293039474
:10F48800089B0493059615480121184A1E4BFDF761
:10F4980079FD3378DB070BD40022D2235B00FA54C2
:10F4A800043BF858FEF70EFE6B89013B6B8104E0C4
:10F4B800D2225200BB5C1333BB543B7B01333B73FA
:10F4C8006B89002B02D0281CFEF714FF0AB004BC7D
:10F4D8009046F0BD6C2A0020F82D0020FC2D00205D
:10F4E80081C50100A04B0300604D03006C4B030075
:10F4F800220200007C4D030033020000984D0300F7
:10F508003E020000AC4D030042020000F0B585B099
:10F51800051C0E1C141CD27B237C1B0213431AB23D
:10F52800002A02DB01339BB200E03A4B3A4AB3525D
:10F53800627BA37B1B0213433AD0384B1B68DB0763
:10F5480008D43748FDF7ACFD0122344B1A60354822
:10F5580012F0DBFC7E27E95F627BA37B1B0213436F
:10F568001B041B14CB18304A0092304A01920291B6
:10F5780003932B4801212E4A2823FF33FDF702FD70
:10F58800627BA37B1B0213431B041B14EA5BD31887
:10F59800EB53A0218900627BA37B1B0213431B044E
:10F5A8001B14725AD3187352281C002103F0F4FA62
:10F5B8006079A27912020243E3791B0413431A1CEF
:10F5C800237A1B0613438022AA5893421FD1607ADC
:10F5D800A27A12020243E37A1B0413431A1C237B08
:10F5E8001B06134313D08022AB50607AA27A120212
:10F5F8000243E37A1B0413431A1C237B1B061343A1
:10F608009F229200B350281C002103F0C5FA05B0D0
:10F61800F0BDC046FFFF000082020000F82D002068
:10F62800FC2D002081C50100D84D0300E44D0300E6
:10F63800A84C030010B582B0041C0E4B1B68DB07F6
:10F6480008D40D48FDF72CFD01220A4B1A600B481F
:10F6580012F05BFC0A4B00930A4B01930648012108
:10F66800094AB923FDF78EFC201C022103F004FC93
:10F6780002B010BDF82D0020FC2D002081C501002E
:10F6880054590300084E0300A84C030035DF7047A7
:10F6980071DF7047F0B587B0071C0E1C5A4B1A680B
:10F6A8003E23D35C022B36D1584B1B68DB0708D4AA
:10F6B8005748FDF7F5FC0122544B1A60554812F0E3
:10F6C80024FC554B0093554B019351480121544A52
:10F6D8009E239B00FDF756FC002091E0002E06D0EB
:10F6E8002B1C08339B00FB185B68B34211D02B1C02
:10F6F80008339B00FB1859684A4BCB5A1AB2002AA8
:10F7080007DB6A461420125E18B2824201DD0C1C27
:10F718000593013503E000250024434B0593434B33
:10F728001B68002B41D1382009F078F801230370B9
:10F73800437000228270C82141607839018141817B
:10F74800828196229200C281B93AFF3A02824282AD
:10F7580010398182FA214901C182C821C900018377
:10F76800082141838283203AC2837B3A028405328E
:10F778004284FA21890081842D49C184FA21C90073
:10F7880001854185828524328354013283540132B4
:10F798008354438633330122C25403220133C254B3
:10F7A80001320133C254214B1860204B1A683623AA
:10F7B800D35C9D4292DB154B1B68DB0708D41448C9
:10F7C800FDF76EFC0122114B1A60124812F09DFBE6
:10F7D800002C02D0134BE25E01E0012252420E4B94
:10F7E8000093144B01930292094801210C4A124BD1
:10F7F800FDF7C8FB002C02D00A4BE05A00E00F4886
:10F8080000B207B0F0BDC046B82F0020F82D002088
:10F81800FC2D002081C5010084470300184E030019
:10F828006C4B030082020000FF7F000008300020BC
:10F8380010270000204E030086020000FFFF000092
:10F84800F0B58BB0041C838F01338387BF4B1868D6
:10F858008988FEF755FF051C437A002B00D1F9E192
:10F86800A0239B00C25E7E23E35E9B1A9A4207DCBC
:10F8780000D0F4E0628DB64BC35A9A4200D3EEE052
:10F88800201C04F059FB8023E050B24B1B68DB07B7
:10F8980008D4B148FDF704FC0122AE4B1A60AF480A
:10F8A80012F033FB7E27E25FA026B600AB5FD31AC7
:10F8B800AB490091AB49019102920393A6480121FB
:10F8C800A94AD523FDF75EFBE35BAA5B9B1AE353CA
:10F8D80005A90B78012213402E2213430B70152320
:10F8E8006B442A22A25C1A702B22A25C5A7017233E
:10F8F8006B4400221A705A7019236B449F2292009D
:10F90800AA5C1A709F229200AA18517859709178AF
:10F918009970D278DA701D236B448022A25C1A7029
:10F92800221C80325178597091789970D278DA70A7
:10F93800AB5B5B4221226A449BB213701B0A537073
:10F94800844B1B68DB0708D48348FDF7A9FB012219
:10F95800804B1A60814812F0D8FA7D4BEA5A089B0E
:10F968001B021B147E490091804901910292039366
:10F97800794801217C4AE623FDF704FB002621E0B3
:10F98800724B1868331C08339B00C3185968A94286
:10F9980017D04B7A002B14D0FFF77CFE23236B443F
:10F9A80080B21870000A5870684B1868331C083306
:10F9B8009B00C31859680123009305AA1033FEF76A
:10F9C80077FF01366A4B1B68002B41D1382008F0BD
:10F9D80025FF01230370437000228270C821416013
:10F9E800783901814181828196229200C281B93A97
:10F9F800FF3A0282428210398182FA214901C1828A
:10FA0800C821C9000183082141838283203AC28327
:10FA18007B3A028405324284FA218900818455495F
:10FA2800C184FA21C9000185418582852432835425
:10FA38000132835401328354438633330122C25442
:10FA480003220133C25401320133C254484B1860B7
:10FA5800474B1A683623D35C9E4291DBFAE03D4B54
:10FA68001B68DB0708D43C48FDF71AFB0122394B19
:10FA78001A603A4812F049FA7E27E25FA026B600DB
:10FA8800AB5FD31A3649009136490191029203932C
:10FA980031480121344AF323FDF774FAE35BAA5B8A
:10FAA8009B1AE35305A90B78012213402E22134316
:10FAB8000B7015236B442A22A25C1A702B22A25CBD
:10FAC8005A7017236B4400221A705A7019236B441A
:10FAD8009F229200AA5C1A709F229200AA1851785D
:10FAE800597091789970D278DA701D236B4400228E
:10FAF8001A705A709A70DA70AB5B5B4221326A44B2
:10FB08009BB213701B0A5370124B1B68DB0708D497
:10FB18001148FDF7C5FA01220E4B1A600F4812F082
:10FB2800F4F90B4BEA5A089B1B021B140C49009171
:10FB38000E49019102920393074801210A4A812341
:10FB48005B00FDF71FFA002638E0C046C0300020F1
:10FB58006E020000F82D0020FC2D002081C5010058
:10FB6800D84D0300E44D0300A84C0300284E0300C1
:10FB780008300020102700003D4B1868331C08335C
:10FB88009B00C3185968A94217D04B7A002B14D090
:10FB9800FFF780FD23236B4480B21870000A587069
:10FBA800334B1868331C08339B00C318596801236A
:10FBB800009305AA1033FEF77BFE01362D4B1B6818
:10FBC800002B41D1382008F029FE0123037043702F
:10FBD80000228270C8214160783901814181828187
:10FBE80096229200C281B93AFF3A028242821039C3
:10FBF8008182FA214901C182C821C90001830821F3
:10FC080041838283203AC2837B3A0284053242844C
:10FC1800FA21890081841849C184FA21C900018523
:10FC280041858285243283540132835401328354BE
:10FC3800438633330122C25403220133C2540132B2
:10FC48000133C2540B4B18600A4B1A683623D35C35
:10FC58009E4291DB201C002102F09EFF00227C23A3
:10FC6800E254201C022103F007F90BB0F0BDC04696
:10FC7800C0300020083000201027000008B4024BD4
:10FC88009C46043808BC604749F80100F0B583B0C9
:10FC9800051C0F1C002600230193374C1CE0002F85
:10FCA80006D0331C08339B00EB185B68BB4212D0AC
:10FCB800331C08339B00EB185B685A7A002A0AD079
:10FCC8002E4A9A5A11B2002905DB21B210B281429C
:10FCD80001DD0193141C0136294B1B68002B41D10F
:10FCE800382008F09BFD01230370437000228270C6
:10FCF800C821416078390181418182819622920030
:10FD0800C281B93AFF3A0282428210398182FA21CD
:10FD18004901C182C821C900018308214183828326
:10FD2800203AC2837B3A028405324284FA21890050
:10FD380081841449C184FA21C900018541858285DD
:10FD4800243283540132835401328354438633333B
:10FD58000122C25403220133C25401320133C25476
:10FD6800074B1860064B1A683623D35C9E4296DB15
:10FD7800019803B0F0BDC046FF7F0000820200007A
:10FD88000830002010270000014B0833036070473B
:10FD9800704E0300014B083303607047704E030038
:10FDA80070B582B0041C07F04BFD261D301CFFF710
:10FDB800F1FF8D4B23601A1C283262604833A36020
:10FDC8000023A3736364A364E36423656365A36585
:10FDD800E36523666366A366844A14600022A381F0
:10FDE80080216350012002396052023962540E3971
:10FDF80063521F31625405396350043963502367D5
:10FE080018396054013162546367A3670C2008F005
:10FE180005FD051C15210022FDF79EFB25610C2020
:10FE280008F0FCFC051C16210022FDF795FB656116
:10FE38000C2008F0F3FC051C17210022FDF78CFBB1
:10FE4800A5612069FDF75CFB6069FDF759FBA069B6
:10FE5800FDF756FB201C07F0F9FC8C230122E25425
:10FE6800634B1B68002B07D1342008F0D7FC051C16
:10FE7800FEF77CFD5E4B1D605D4B18685D4D28608C
:10FE8800311CFFF7EFF83C2008F0C8FC061C2B6873
:10FE9800594A0092012201925849221C02F0AEFBF5
:10FEA8006664342008F0BAFC061C2B68544A009299
:10FEB800032201921E21221C02F0ECFBE664502072
:10FEC80008F0ACFC061C2B684E4A009204220192F2
:10FED8000A21221C04F0AEFE26659220400008F09C
:10FEE8009DFC061C2B68484A0092052201921421A9
:10FEF800221C07F013F86665142008F08FFC051C17
:10FF08004249B42252002423FEF7CAF8E561404B67
:10FF18001B68002B41D1382008F080FC01230370B6
:10FF2800437000228270C821416078390181418183
:10FF3800828196229200C281B93AFF3A02824282B5
:10FF480010398182FA214901C182C821C90001837F
:10FF5800082141838283203AC2837B3A0284053296
:10FF68004284FA21890081842A49C184FA21C9007E
:10FF780001854185828524328354013283540132BC
:10FF88008354438633330122C25403220133C254BB
:10FF980001320133C2541E4B18601D4B1B681B787D
:10FFA800002B06D0FF222023E254201CFFF7C4F8C0
:10FFB80016E0194B1B68DB0708D41848FDF7C8FE84
:10FFC8000122154B1A60164811F09FFF211C2031A1
:10FFD800231C08330093114822220023FDF7A2FEB8
:10FFE800201C02B070BDC046B8550300B82F0020D1
:08FFF8006C2A0020C03000203B
:020000022000DC
:10000000544E0300307500005C4E0300644E030044
:10001000684E0300702A00200830002010270000DE
:10002000DC2C0020D82B002061D6010070B5051C07
:100030000C1C002614E00C4B1A68002A0FD0331C4D
:1000400010339B00D3185868002808D0036ADB7867
:10005000002B04D003685B6A291C221C98470136D8
:10006000092EE8DD70BDC04628300020FEE7C046FE
:1000700048DF704747DF70473BDF704732DF70472C
:1000800061DF704760DF704787DF704786DF70474A
:1000900008B5024B1B68984708BDC04634300020A5
:1000A00001225242014B1A837047C0460C30002097
:1000B0008288014B1A8370470C30002008B5284B0A
:1000C0001B68002B41D1382008F0ACFB01230370E2
:1000D000437000228270C8214160783901814181DA
:1000E000828196229200C281B93AFF3A028242820C
:1000F00010398182FA214901C182C821C9000183D6
:10010000082141838283203AC2837B3A02840532EC
:100110004284FA21890081841249C184FA21C900EC
:100120000185418582852432835401328354013212
:100130008354438633330122C25403220133C25411
:1001400001320133C254064B1860054B1B68064A46
:1001500011686E2258688B5AC3188B5208BDC0466E
:1001600008300020102700002830002030B583B070
:100170008389002B27D0C289144B9A4223D1027C59
:10018000134B9B7D9A421ED1041CC58A114B1B68E0
:10019000DB0708D41048FCF787FF01220D4B1A60DB
:1001A0000E4811F0B6FE0E4B00930E4B01930A4819
:1001B00001210D4A0A23FF33FCF7E8FEA0880B4B10
:1001C0001B68291C984703B030BDC04624150000A9
:1001D0000C300020F82D0020FC2D002081C50100EE
:1001E0003C450300C04E0300AC4E0300B42F00207A
:1001F00038B5041C05F098F8002513E00B4B1A687D
:10020000002A0ED02B1C10339B00D31858680028EE
:1002100007D0036ADB78002B03D003681B6A211C1C
:1002200098470135092DE9DD38BDC046283000204A
:10023000044B984200D1FEE7082802D0112800D0D4
:10024000FEE77047EFBEADDE10B582B0002300932D
:100250000020012102221A4B08F0C0F9002804D026
:100260004221FF31174AFFF7E3FF17480121174AE0
:1002700008F088F9002804D0A2214900114AFFF7AC
:10028000D7FF114B1C6807F0E3F94368590CD803FA
:10029000FA225200002380185941FA2292000023CA
:1002A00011F0E2FB011C201C002208F039F90028A3
:1002B00004D04821FF31034AFFF7BAFF02B010BD56
:1002C000E02C0020D84E0300BC2F0020BD0002000F
:1002D00008B5034800210022FFF7AAFF08BDC04669
:1002E000EFBEADDE00B583B008201C4947220023D5
:1002F00004F0CEFC002803D0A821194AFFF798FF8C
:10030000184804F0BBFC002803D0AC21144AFFF7C6
:100310008FFF0023009380239B00019301236A46F3
:1003200013706846FFF7AEFE002803D0B5210C4AD3
:10033000FFF77EFF0120FFF79DFE002803D0B921C3
:10034000074AFFF775FF0120FFF796FE002803D04C
:10035000BD21034AFFF76CFF03B000BDC02F002092
:10036000D84E0300F101020010B584B08389002B40
:1003700025D0041C134B1B68DB0708D41248FCF77C
:1003800093FE01220F4B1A60104811F0C2FD104B72
:100390000093104B01930C4801210F4AF323FCF703
:1003A000F5FD03A9638A0B80A38A4B80A08800F027
:1003B00031FD002803D0FB21084AFFF739FF04B0C4
:1003C00010BDC046F82D0020FC2D002081C5010085
:1003D0003C450300E84E0300AC4E0300A04E030072
:1003E00008B5808800210022002300F015FD0028B8
:1003F00003D0CA21014AFFF71BFF08BDA04E03002E
:1004000008B50388302B27D006D8102B0FD0112B1E
:1004100011D0012B2DD11AE0372B25D002D8322B49
:100420001ED026E0502B0AD0522B0CD021E0FFF733
:100430003FFE00201EE0FFF733FE00201AE0FFF72A
:1004400027FE012016E0FFF7CBFF002012E00A4B49
:100450001B68984701200DE0FFF786FF012009E0A7
:10046000FFF784FE012005E0034B1B68984701203D
:1004700000E0002008BDC0462C30002010B582B03E
:10048000041CBF4B1B88984200D177E1002B1ED083
:10049000FFF7FAFD002803D03221BA4AFFF7C8FE61
:1004A000B94B1B68DB0708D4B848FCF7FDFD0122F7
:1004B000B54B1A60B64811F02CFDB64B0093B64B05
:1004C0000193B2480121B54A3323FCF75FFD802335
:1004D000DB009C4200D094E0B14B1B68002B41D163
:1004E000382008F09FF901230370437000228270C6
:1004F000C821416078390181418182819622920030
:10050000C281B93AFF3A0282428210398182FA21CD
:100510004901C182C821C900018308214183828326
:10052000203AC2837B3A028405324284FA21890050
:1005300081849C49C184FA21C90001854185828555
:10054000243283540132835401328354438633333B
:100550000122C25403220133C25401320133C25476
:100560008F4B18608E4B1B68598A8F4A1181002B64
:1005700041D1382008F056F901230370437000225E
:100580008270C8214160783901814181828196223F
:100590009200C281B93AFF3A0282428210398182C6
:1005A000FA214901C182C821C90001830821418380
:1005B0008283203AC2837B3A028405324284FA2144
:1005C000890081847749C184FA21C9000185418568
:1005D000828524328354013283540132835443860A
:1005E00033330122C25403220133C2540132013396
:1005F000C2546B4B18606A4B1B689A8A6A4B5A81CB
:1006000098E0F0231B019C4200D093E0644B1B68F0
:10061000002B41D1382008F005F901230370437005
:1006200000228270C8214160783901814181828134
:1006300096229200C281B93AFF3A02824282103970
:100640008182FA214901C182C821C90001830821A0
:1006500041838283203AC2837B3A028405324284FA
:10066000FA21890081844F49C184FA21C90001859A
:10067000418582852432835401328354013283546C
:10068000438633330122C25403220133C254013260
:100690000133C254424B1860414B1B68198B424ACC
:1006A0001181002B41D1382008F0BCF801230370E0
:1006B000437000228270C8214160783901814181F4
:1006C000828196229200C281B93AFF3A0282428226
:1006D00010398182FA214901C182C821C9000183F0
:1006E000082141838283203AC2837B3A0284053207
:1006F0004284FA21890081842A49C184FA21C900EF
:10070000018541858285243283540132835401322C
:100710008354438633330122C25403220133C2542B
:1007200001320133C2541E4B18601D4B1B685A8B9B
:100730001D4B5A81002C1FD01B48FFF7A7FC002837
:1007400003D046210F4AFFF773FD0F4B1B68DB07F1
:1007500008D40E48FCF7A8FC01220B4B1A600C4889
:1007600011F0D7FB0B4B0093104B0193074801216D
:100770000A4A4723FCF70AFC014B1C8002B010BD5B
:1007800030300020F84E0300F82D0020FC2D002012
:1007900081C501003C450300184F0300044F0300CE
:1007A0000830002010270000A42F00202C4F030049
:1007B00010B582B0011C0388192B34D01B2B02D03A
:1007C000102B4CD129E0837B572B18D9031C027DB9
:1007D0000F339B791B021343254A934211D1837D2A
:1007E000F02B10D1031CC27D0F335B7A1B02134325
:1007F000204A1268128D934207D0002406E000249C
:1008000004E0002402E0002400E00124002C28D0B1
:10081000184B186802F004F826E08020C000FFF7AB
:100820002DFE002420E08379022B1CD1124B1B6883
:10083000DB0708D41148FCF737FC01220E4B1A6085
:100840000F4811F066FB0F4B00930F4B01930B48C1
:1008500001210E4A8E23FCF799FB002404E00024BA
:1008600002E0012400E00024201C02B010BDC046BC
:100870004D020000B82F0020F82D0020FC2D002094
:1008800081C50100684E0300404F0300044F030080
:1008900030B585B0041C05882B4B1B68DB0708D4DA
:1008A0002A48FCF701FC0122274B1A60284811F066
:1008B00030FB281CFCF79EFA264B0093264B019335
:1008C0000290039521480121244A89235B00FCF70B
:1008D0005DFB201C00F0B8FA201CFFF769FF201C0C
:1008E000FFF78EFD002513E01D4B1A68002A0ED07D
:1008F0002B1C10339B00D3185868002807D0036ABC
:10090000DB78002B03D003689B6A211C98470135D4
:10091000092DE9DD0C4B1B68DB0708D40B48FCF7FD
:10092000C3FB0122084B1A60094811F0F2FA094B87
:1009300000930C4B019305480121084A2223FF3301
:10094000FCF724FB05B030BDF82D0020FC2D002065
:1009500081C50100504F0300584F0300DF4E0300D4
:10096000283000206C4F030030B595B0FDF76EF9CC
:10097000FFF7B8FCFCF7BAFB041C0BA840490CAA13
:1009800008F03EF9201C0BA9FCF7C4FA0B980C38B0
:1009900011A908F00DF8FCF7A9FB041C0DA83949B2
:1009A0000EAA08F02DF9201C0DA9FCF7B3FA0D983A
:1009B0000C3812A907F0FCFFFCF798FB041C0FA8E9
:1009C000314910AA08F01CF9201C0FA9FCF7A2FA63
:1009D0000F980C3813A907F0EBFFFDF725FA06F086
:1009E00037FE458E902007F01DFF041C291CFFF7E1
:1009F000DBF9264B1C60102007F014FF06F034FFD3
:100A000001A811F06FFB089A059BD3180093FFF71C
:100A10001BFCFCF7BFFF1E4947230B801D48FFF757
:100A20002FFB002803D11B48FFF732FFF3E705280F
:100A30001FD1164B186800280FD06E23C15A002909
:100A40000BD002F029FD114D2B686E24185B596FF5
:100A5000FFF7ECFA2B6800221A53FFF709FB002876
:100A600003D092210C4AFFF7E3FB1620FFF706FBA9
:100A7000CFE70028CDD09821074AFFF7D9FBC8E778
:100A800054590300944903007C4F03002830002090
:100A900018280020C02F0020D84E030008B5514A66
:100AA000137801218B4301318B4313700023536072
:100AB0004D4B1B68002B41D1382007F0B3FE0123BA
:100AC0000370437000228270C8214160783901812F
:100AD0004181828196229200C281B93AFF3A028214
:100AE000428210398182FA214901C182C821C9009C
:100AF0000183082141838283203AC2837B3A0284A6
:100B000005324284FA21890081843849C184FA215E
:100B1000C900018541858285243283540132835482
:100B200001328354438633330122C25403220133FA
:100B3000C25401320133C2542B4B18602A4B1B683C
:100B4000598A284A1181002B41D1382007F06AFECA
:100B500001230370437000228270C82141607839FC
:100B600001814181828196229200C281B93AFF3A85
:100B70000282428210398182FA214901C182C82150
:100B8000C9000183082141838283203AC2837B3AD2
:100B9000028405324284FA21890081841349C18488
:100BA000FA21C900018541858285243283540132AE
:100BB000835401328354438633330122C2540322C7
:100BC0000133C25401320133C254074B1860064B43
:100BD0001B68044A9B8A538100239381044A138033
:100BE00008BDC046A42F00200830002010270000B8
:100BF0003030002070B584B008AC25781A4CA04283
:100C000029D01A4CA14228D0002B28D001AC0026B4
:100C1000019602966180E3800392002D0DD0211C85
:100C20000123237000F0F4F8041E1AD09621490025
:100C30000F4AFFF7FDFA201C14E001A902230B70F4
:100C400000F0E6F8041E0DD09B214900084AFFF78A
:100C5000EFFA201C06E0002004E0002002E0002063
:100C600000E0FFE704B070BD023000000330000078
:100C7000A04E0300014B58897047C0460C3000203D
:100C8000014B18607047C0462C300020014B1860A3
:100C90007047C046B42F0020014B18607047C04613
:100CA0003430002070B596B0354C01235B4223836D
:100CB00006A83449102211F0EFF9211C163106A8BC
:100CC00000F0A4F8002803D036212F4AFFF7B0FA2D
:100CD0002B4A111C1431012000F0A2F8002803D087
:100CE0003A21294AFFF7A4FA002511236A46137016
:100CF00001230F2410221121684641700220011C9B
:100D000019436E46B17001A98870201C1840104329
:100D1000087048700FAC0F951195129513951595A5
:100D20000E231A432270149103AE184B321C03CBCE
:100D300003C21B8813801096301C11F089FB2081A0
:100D4000301C11F085FB60810AAA9560D5601561A1
:100D500002A90B4B987D88700D4808800A9169465E
:100D600051606421918118880A33211C00F056F8E3
:100D7000002803D07221044AFFF75AFA16B070BD5A
:100D80000C300020904E0300A04E0300844F03005F
:100D90002415000088DF70477CDF70477ADF7047DA
:100DA00078DF704776DF704700B583B00F4B1B6864
:100DB000DB0708D40E48FCF777F901220B4B1A60C9
:100DC0000C4811F0A6F80C4B00930C4B019308480B
:100DD00001210B4AF223FCF7D9F80022094B1A80B3
:100DE0000232094B1A7003B000BDC046F82D002036
:100DF000FC2D002081C50100644E0300B84F0300A4
:100E00009C4F030066300020A430002063DF704751
:100E100097DF704792DF7047A9DF7047A2DF704706
:100E2000A0DF7047014B18607047C0466830002053
:100E3000014B18607047C046A0300020014B18607D
:100E40007047C0469430002010B584B0041C03885D
:100E5000112B28D0192B45D0102B4ED10022294B15
:100E60001A70037D012B01D1FFF79EFF264B1B68F3
:100E7000DB0708D42548FCF717F90122224B1A603A
:100E8000234811F046F8234B0093234B01931F484E
:100E90000121224A9A23FCF779F8214B1B68201C78
:100EA000984701202CE0184B1B68DB0708D4174833
:100EB000FCF7FAF80122144B1A60154811F029F8D2
:100EC000A379144A0092174A019202930F48012114
:100ED000124AA423FCF75AF8134B1B68201C9847AE
:100EE00001200DE08379032B09D10022054B1A70F4
:100EF0000E4B1B689847002002E0002000E0002015
:100F000004B010BD65300020F82D0020FC2D00201D
:100F100081C501003C450300F04F0300DC4F030096
:100F2000A0300020045003006830002094300020DE
:100F300008B51321FFF736FF002803D08021024AAD
:100F4000FFF776F908BDC046D04F030010B588B052
:100F5000E44B1B78002B00D037E2041C0121E14B4D
:100F6000197004AA1378022083438B431370DE4B5D
:100F70001B68002B41D1363007F054FC012303706D
:100F8000437000228270C82141607839018141811B
:100F9000828196229200C281B93AFF3A028242824D
:100FA00010398182FA214901C182C821C900018317
:100FB000082141838283203AC2837B3A028405322E
:100FC0004284FA2189008184C849C184FA21C90078
:100FD0000185418582852432835401328354013254
:100FE0008354438633330122C25403220133C25453
:100FF00001320133C254BC4B1860BB4B1B68998B48
:1010000004AA1181002B41D1382007F00BFC0123E9
:101010000370437000228270C821416078390181D9
:101020004181828196229200C281B93AFF3A0282BE
:10103000428210398182FA214901C182C821C90046
:101040000183082141838283203AC2837B3A028450
:1010500005324284FA2189008184A449C184FA219D
:10106000C90001854185828524328354013283542D
:1010700001328354438633330122C25403220133A5
:10108000C25401320133C254974B1860964B1B680F
:10109000D98B04AA5181002B41D1382007F0C2FB23
:1010A00001230370437000228270C82141607839A7
:1010B00001814181828196229200C281B93AFF3A30
:1010C0000282428210398182FA214901C182C821FB
:1010D000C9000183082141838283203AC2837B3A7D
:1010E000028405324284FA21890081847F49C184C7
:1010F000FA21C90001854185828524328354013259
:10110000835401328354438633330122C254032271
:101110000133C25401320133C254734B1860724B15
:101120001B68198C04AA9181002B41D1382007F04B
:1011300079FB01230370437000228270C821416053
:10114000783901814181828196229200C281B93A27
:10115000FF3A0282428210398182FA214901C1821A
:10116000C821C9000183082141838283203AC283B8
:101170007B3A028405324284FA21890081845B49EA
:10118000C184FA21C90001854185828524328354B6
:101190000132835401328354438633330122C254D3
:1011A00003220133C25401320133C2544E4B186042
:1011B0004D4B1B68198902AA1180002B41D13820A0
:1011C00007F030FB01230370437000228270C821B6
:1011D0004160783901814181828196229200C281E9
:1011E000B93AFF3A0282428210398182FA214901DA
:1011F000C182C821C9000183082141838283203A2A
:10120000C2837B3A028405324284FA2189008184B8
:101210003649C184FA21C90001854185828524327D
:101220008354013283540132835443863333012281
:10123000C25403220133C25401320133C2542A4B37
:101240001860294B1B68598902AA5180002B41D193
:10125000382007F0E7FA0123037043700022827000
:10126000C8214160783901814181828196229200B2
:10127000C281B93AFF3A0282428210398182FA2150
:101280004901C182C821C9000183082141838283A9
:10129000203AC2837B3A028405324284FA218900D3
:1012A00081841249C184FA21C90001854185828562
:1012B00024328354013283540132835443863333BE
:1012C0000122C25403220133C25401320133C254F9
:1012D000054B1860044B1B68998902AA9180002B6A
:1012E00048D105E0653000200830002010270000BC
:1012F000382007F097FA01230370437000228270B0
:10130000C821416078390181418182819622920011
:10131000C281B93AFF3A0282428210398182FA21AF
:101320004901C182C821C900018308214183828308
:10133000203AC2837B3A028405324284FA21890032
:1013400081842349C184FA21C900018541858285B0
:10135000243283540132835401328354438633331D
:101360000122C25403220133C25401320133C25458
:10137000184B1860174B1B6802AADB89D380201C0E
:1013800004A9FFF707FD002803D06F21124AFEF7DA
:101390004FFF0022114B1A80114B1B68DB0708D44A
:1013A0001048FBF781FE01220D4B1A600E4810F029
:1013B000B0FD0E4B00930E4B01930A4801210D4ADC
:1013C0007423FBF7E3FD012000E0002008B010BD0E
:1013D0001027000008300020D04F030030300020DC
:1013E000F82D0020FC2D002081C50100A04B03003A
:1013F0001C500300DC4F030000B585B001A8037842
:101400000F229343012213430F2213401022134350
:101410000370A3490622FFF7BFFC002803D0422136
:10142000A04AFEF705FF8020FFF7BAFC002803D092
:1014300046219C4AFEF7FCFE0023029303939A4B3D
:101440001B68002B41D1382007F0ECF90123037011
:10145000437000228270C821416078390181418146
:10146000828196229200C281B93AFF3A0282428278
:1014700010398182FA214901C182C821C900018342
:10148000082141838283203AC2837B3A0284053259
:101490004284FA21890081848449C184FA21C900E7
:1014A000018541858285243283540132835401327F
:1014B0008354438633330122C25403220133C2547E
:1014C00001320133C254784B1860774B1B6819897D
:1014D00002AA1180002B41D1382007F0A3F9012383
:1014E0000370437000228270C82141607839018105
:1014F0004181828196229200C281B93AFF3A0282EA
:10150000428210398182FA214901C182C821C90071
:101510000183082141838283203AC2837B3A02847B
:1015200005324284FA21890081846049C184FA210C
:10153000C900018541858285243283540132835458
:1015400001328354438633330122C25403220133D0
:10155000C25401320133C254534B1860524B1B68C2
:10156000598902AA5180002B41D1382007F05AF93D
:1015700001230370437000228270C82141607839D2
:1015800001814181828196229200C281B93AFF3A5B
:101590000282428210398182FA214901C182C82126
:1015A000C9000183082141838283203AC2837B3AA8
:1015B000028405324284FA21890081843B49C18436
:1015C000FA21C90001854185828524328354013284
:1015D000835401328354438633330122C25403229D
:1015E0000133C25401320133C2542F4B18602E4BC9
:1015F0001B68998902AA9180002B41D1382007F0FD
:1016000011F901230370437000228270C8214160E8
:10161000783901814181828196229200C281B93A52
:10162000FF3A0282428210398182FA214901C18245
:10163000C821C9000183082141838283203AC283E3
:101640007B3A028405324284FA2189008184174959
:10165000C184FA21C90001854185828524328354E1
:101660000132835401328354438633330122C254FE
:1016700003220133C25401320133C2540A4B1860B1
:10168000094B1B6802A8DB89C380FFF787FB002892
:1016900003D05021034AFEF7CBFD05B000BDC04684
:1016A00024500300D04F0300083000201027000012
:1016B00030B583B0041C824B1B88984200D1FDE0FA
:1016C000002B20D002F082FB051E03D0CF217D4AE3
:1016D000FEF7AEFD002D16D17B4B1B68DB0708D44F
:1016E0007A48FBF7E1FC0122774B1A60784810F04A
:1016F00010FC784B0093784B019374480121774A92
:10170000D123FBF743FC8023DB009C424BD1744B7D
:101710001B68002B41D1382007F084F801230370A7
:10172000437000228270C821416078390181418173
:10173000828196229200C281B93AFF3A02824282A5
:1017400010398182FA214901C182C821C90001836F
:10175000082141838283203AC2837B3A0284053286
:101760004284FA21890081845E49C184FA21C9003A
:1017700001854185828524328354013283540132AC
:101780008354438633330122C25403220133C254AB
:1017900001320133C254524B1860514B1B681A8AF4
:1017A000514B1A824EE0F0231B019C424AD14C4B14
:1017B0001B68002B41D1382007F034F80123037057
:1017C000437000228270C8214160783901814181D3
:1017D000828196229200C281B93AFF3A0282428205
:1017E00010398182FA214901C182C821C9000183CF
:1017F000082141838283203AC2837B3A02840532E6
:101800004284FA21890081843649C184FA21C900C1
:10181000018541858285243283540132835401320B
:101820008354438633330122C25403220133C2540A
:1018300001320133C2542A4B1860294B1B68DA8AE3
:10184000294B1A82294B1B78002B11D0284B197871
:1018500028480022002302F0BDFA051E03D0DD2136
:10186000184AFEF7E5FC002D02D100221F4B1A702A
:10187000002C21D01C4802F0ABFA051E03D0E62153
:10188000104AFEF7D5FC002D16D10F4B1B68DB0765
:1018900008D40E48FBF708FC01220B4B1A600C48D9
:1018A00010F037FB0B4B0093134B019307480121BA
:1018B0000A4AE823FBF76AFB014B1C8003B030BDEA
:1018C00066300020904F0300F82D0020FC2D0020F2
:1018D00081C50100644E03002C5003009C4F03009F
:1018E0000830002010270000A430002064300020C1
:1018F000983000206C30002040500300F0B589B0D3
:10190000041C0D1C03AA117801230B405E214942DF
:101910000B4313700D236B4400228831415C197016
:101920002B21415C59700F236B441A705A702B683D
:101930000C3B1A68002A03D0142A03D9012302E0C1
:10194000012300E00023002B06D0FBF7CFFB022190
:10195000FBF768FD00201BE0D2B203AE72711220CB
:101960006844296810F098FB05F060FE0127009795
:101970000021321C1423FCF72FFF29687279201CE8
:1019800000F0CEFFFBF7B2FB0021FBF74BFD381C4C
:1019900009B0F0BD38B5041C0D4B1A6883880333B9
:1019A000137182880B4D281C0830216810F074FBDD
:1019B000A3880833DBB2002000212A1C02F00AFAB7
:1019C000002803D0A821044AFEF732FC38BDC046E7
:1019D0006030002038300020904F030070B582B096
:1019E000061C0C1C002A1FD0394B1B78002B1BD067
:1019F000384B1B68DB0708D43748FBF755FB01223F
:101A0000344B1A60354810F084FA354B0093354B4F
:101A1000019331480121344A8023FBF7B7FA0022B1
:101A20002B4B1A70012524E0002A1FD1284B1B786C
:101A3000022B1DD0274B1B68DB0708D42648FBF779
:101A400033FB0122234B1A60244810F062FA244B26
:101A50000093264B019320480121234A8623FBF75C
:101A600095FA02221A4B1A70012502E0002500E0C7
:101A70000025A3880B331E4A13701E4A11688E720C
:101A8000A3880733CB7010680B30A288216810F050
:101A900003FBA1880B31C9B217480022002302F0D2
:101AA00099F9041E03D09321144AFEF7C1FB002DBF
:101AB00007D0134B1D880020FFF7FAFD281CFFF705
:101AC000F7FD002C02D001220E4B1A7002B070BD3F
:101AD000A4300020F82D0020FC2D002081C501003D
:101AE000644E0300545003009C4F03007C500300DD
:101AF000983000209C3000206C300020904F030074
:101B000066300020643000200322014B1A707047B9
:101B1000A4300020038AC384002329228354012196
:101B2000013A81540363024A828543857047C04667
:101B30003075000000B583B02B23C35C002B18D098
:101B4000C36A002B15D0934213D2FBF7CFFA0A4B8E
:101B500000930A4B01930121094A4623FBF716FA29
:101B6000BFF34F8F074A084BDA60BFF34F8FC04671
:101B7000FDE703B000BDC046544E0300785103009A
:101B8000675103000400FA0500ED00E0F0B5474698
:101B900080B49EB080460591171C18A806F0FFFF80
:101BA0007B683A689C1AA410002319931A931B931C
:101BB000002C09D06D4B9C4201D906F059FEA000C3
:101BC00006F030FE061C00E0002619961A96A400C6
:101BD00034191B943C687D6807E0002E03D0301C4C
:101BE000211C06F0DCFF04340436AC42F5D11A9611
:101BF000404618A919AA04F093FE199C1A9E0DE0FC
:101C000020680C385A4B984207D083685A1E82606D
:101C1000002B02DC1DA906F08FFF0434A642EFD191
:101C20001998002801D006F00FFE18980C38504B78
:101C3000984207D083685A1E8260002B02DC1CA9E0
:101C400006F07AFF05984B4906F063FE002838D16C
:101C5000494B1B68DB0708D44848FBF725FA0122EB
:101C6000454B1A60464810F054F941462831434824
:101C7000142206ABFAF74CFF424B4246D3623E4B6E
:101C80001B68DB0708D43D48FBF70EFA01223A4BEC
:101C90001A603B4810F03DF93B4B00933B4B0193DE
:101CA00006AB02931423039334480121384A4D3381
:101CB000FBF76CF943461B68DB68404698470120F8
:101CC0004FE00598334906F024FE002806D143462C
:101CD0001B681B6940469847012042E005982E4941
:101CE00006F017FE00283BD17B6838681B1A9B1052
:101CF00006D02A4906F00DFE002803D1013002E08B
:101D0000002000E0002006AA137801210B406A2180
:101D10000B43137043469968112302ACA4466344F5
:101D20002A240C5D1C702B24095D59701323634415
:101D3000002119705970152363444146097C1970BC
:101D40004146497C59700023D37110724346D868CC
:101D50000123009300210833FCF73EFD012000E041
:101D600000201EB004BC9046F0BDC046FFFFFF3F00
:101D70002832002084510300F82D0020FC2D002083
:101D800081C50100E02E0000544E03009051030075
:101D900067510300A8510300B4510300BC51030074
:101DA00008B4024B9C46043808BC60478D1B0200F7
:101DB000F0B587B0061C171C684606F0F0FE7B687D
:101DC0003A689C1AA4100023019302930393002CF9
:101DD00009D0264B9C4201D906F04AFDA00006F02E
