:020000021000EC
:10B0000000800020497B0200897B02000D7A02004B
:10B010000000000000000000000000000000000030
:10B020000000000000000000000000008D7B020016
:10B0300000000000000000008F7B0200917B0200F6
:10B04000937B0200937B020055790200937B020000
:10B05000937B020000000000F1D50100937B020009
:10B06000937B0200937B0200937B0200937B0200A0
:10B07000937B0200937B0200937B0200937B020090
:10B08000937B020041D10100937B0200937B02007D
:10B0900079D2010061DE01007D670200937B02002E
:10B0A000937B0200937B0200000000000000000080
:10B0B0000000000000000000000000000000000090
:10B0C000FFFFFFFFFFFFFFFFFFFFFFFFFFFFFFFF90
:10B0D000FFFFFFFFFFFFFFFFFFFFFFFFFFFFFFFF80
:10B0E000FFFFFFFFFFFFFFFFFFFFFFFFFFFFFFFF70
:04B400006275000071
:10B40800F8B5C046F8BC08BC9E467047F8B5C046BB
:10B41800F8BC08BC9E46704710B5064C2378002B34
:10B4280007D1054B002B02D0044800E000BF0123E0
:10B43800237010BDA42F002000000000BCDA020019
:10B4480008B5084B002B03D00748084900E000BFA7
:10B4580007480368002B00D108BD064B002BFBD022
:10B468009847F9E700000000BCDA0200A82F002086
:10B47800A42F002000000000164B002B00D1144B15
:10B488009D46402292029A1A924600218B460F4608
:10B498001348144A121A0CF006FF0F4B002B00D069
:10B4A80098470E4B002B00D098470020002104003D
:10B4B8000D000D48002802D00C480CF05EFE0CF080
:10B4C80081FE2000290000F013F80CF065FEC0464C
:10B4D80000000800008000200000000000000000BC
:10B4E800A42F00203C4300208381020000000000BC
:10B4F800F0B599B00AF066FF846C002C34D10AF0DC
:10B5080061FF15233A3003700AF05CFF16233B30C5
:10B5180003700AF057FF17233C3003700AF052FFFC
:10B528003D3004700AF04EFF11233E3003700AF0DC
:10B5380049FF3F3004700AF045FF0B234030037089
:10B548000AF040FF0923413003700AF03BFF0A2349
:10B55800423003700AF036FF0823433003700AF0C4
:10B5680031FFC123443003700AF02CFF836C032B96
:10B5780035D10AF027FF11233A3003700AF022FF71
:10B5880012233B3003700AF01DFF13233C30037075
:10B598000AF018FF00243D3004700AF013FF0D2351
:10B5A8003E3003700AF00EFF3F3004700AF00AFFC5
:10B5B8000823403003700AF005FF0623413003706A
:10B5C8000AF000FF0723423003700AF0FBFE052350
:10B5D800433003700AF0F6FEC423443003700AF0C7
:10B5E800F1FE836C042B35D10AF0ECFE11233A30BE
:10B5F80003700AF0E7FE12233B3003700AF0E2FE04
:10B6080013233C3003700AF0DDFE00243D30047043
:10B618000AF0D8FE0D233E3003700AF0D3FE3F3007
:10B6280004700AF0CFFE0823403003700AF0CAFE07
:10B638000623413003700AF0C5FE07234230037029
:10B648000AF0C0FE0523433003700AF0BBFEC42392
:10B65800443003700AF0B6FE836C062B24D10AF03E
:10B66800B1FE00243A3004700AF0ACFE01253B30EC
:10B6780005700AF0A7FE3C3005700AF0A3FE3D30C5
:10B6880005700AF09FFE03233E3003700AF09AFE0D
:10B698003F3004700AF096FEFF23403003700AF032
:10B6A80091FEBF23443003700AF08CFE836C052B97
:10B6B80033D10AF087FE00243A3004700AF082FE83
:10B6C80001253B3005700AF07DFE3C3005700AF01C
:10B6D80079FE3D3005700AF075FE03233E30037095
:10B6E8000AF070FE3F3004700AF06CFE0B23403005
:10B6F80003700AF067FE0923413003700AF062FE06
:10B708000A23423003700AF05DFE082343300370B9
:10B718000AF058FEBF23443003700AF053FE836CCE
:10B72800022B33D10AF04EFE00243A3004700AF09E
:10B7380049FE01253B3005700AF044FE3C30057097
:10B748000AF040FE3D3005700AF03CFE03233E300F
:10B7580003700AF037FE3F3004700AF033FE082306
:10B76800403003700AF02EFE0623413003700AF0C1
:10B7780029FE0723423003700AF024FE05234330D4
:10B7880003700AF01FFEBF23443003700AF01AFE4C
:10B79800856C072D25D10AF015FE0F233A3003706A
:10B7A8000AF010FEFF243B3004700AF00BFE0E2353
:10B7B8003C3003700AF006FE01233D3003700AF0A6
:10B7C80001FE3E3005700AF0FDFD00233F30037096
:10B7D8000AF0F8FD403004700AF0F4FDC423443048
:10B7E80003700AF0EFFD856C082D38D10AF0EAFDE8
:10B7F8000F233A3003700AF0E5FDFF233B30037056
:10B808000AF0E0FD0E233C3003700AF0DBFD012353
:10B818003D3003700AF0D6FD07233E3003700AF06E
:10B82800D1FD00243F3004700AF0CCFD0B234030DA
:10B8380003700AF0C7FD0923413003700AF0C2FD06
:10B848000A23423003700AF0BDFD433005700AF048
:10B85800B9FDC423443003700AF0B4FD84710AF0C2
:10B86800B1FD3A3005780AF0ADFD3D300478082086
:10B878000CF08CF96BB25A1C0AD0012242719A4022
:10B88800A021131C0260A322C905D20004718B50A9
:10B89800D34C20600AF096FD3B3006780AF092FD02
:10B8A8003D30057808200CF071F973B25A1C0AD0A3
:10B8B800012242719A40A021131C0260A322C905EB
:10B8C800D20005718B50C74B18600AF07BFD3C30E5
:10B8D80006780AF077FD3D30057808200CF056F917
:10B8E80073B25A1C0AD0012242719A40A021131C3B
:10B8F8000260A322C905D20005718B50BA4D13AE60
:10B90800286020680BF0A6FEB64B18680BF0B4FE52
:10B9180028680BF09FFE08200CF038F9041C502012
:10B928000CF076FC0023E3801433A380AF4B206037
:10B938001C600AF047FD807909F032FC0123AC4C09
:10B9480023700AF03FFD0430C76FAA49381C0DF078
:10B95800CDFB051CA848A9496843C0190DF0C6FBD2
:10B96800D322D2016A43D119A54A83B25043081899
:10B9780080B22A1C0090A349301C0CF0CFFD0AF0BD
:10B9880021FD8579002D44D02378002B02D01B207F
:10B9980008F018F89C4809F037FD2378002B02D0EE
:10B9A8001B2008F00FF8994809F02EFD984809F077
:10B9B8002BFD984809F028FD974809F025FD974880
:10B9C80009F022FD964809F01FFD964809F01CFD74
:10B9D800301C09F019FD944809F016FD0AF0F2FC34
:10B9E800453003789148002B0DD00AF0EBFC453028
:10B9F80003788F48012B06D00AF0E4FC4530037821
:10BA0800022B02D18B4809F0FFFC8B4809F0FCFCA3
:10BA180008E00AF0B7FB894B291C0093884A732376
:10BA280007F04CFF0AF0AEFB864B874C0021221C26
:10BA380000936E2307F042FF0AF0A4FB051C12AA2C
:10BA48008249301C0CF0B8FA311C281C07F0BAFCEB
:10BA5800301C0CF065F90AF095FB051C12AA7C490C
:10BA6800301C0CF0A9FA311C281C07F0ABFC301C68
:10BA78000CF056F90AF086FB051C12AA7549301C11
:10BA88000CF09AFA311C281C07F09CFC301C0CF0B6
:10BA980047F90AF077FB051C12AA6F49301C0CF015
:10BAA8008BFA311C281C07F08DFC301C0CF038F97F
:10BAB8000AF068FB051C12AA6849301C0CF07CFAD5
:10BAC800281C311C07F07EFC301C0CF029F9644D51
:10BAD8002B1C3A331B78002B29D1FF22E91801339C
:10BAE8000A76202BF9D1291C213B38310B702B60A9
:10BAF8006B60AB60EB602B616B612B1CC121393330
:10BB08001A70584A89005058574B0340C020000407
:10BB18000343C02053504023400013501360802239
:10BB2800524B12065A502B1C01223A331A700AF053
:10BB380049FC3E30007842B2AB181B7E7F2B1ED9E1
:10BB48002B69013304D06B69013318D1052300E058
:10BB58000423A918464F0B7699006F50E918343121
:10BB68000870A0210C20C132FF329200C905505044
:10BB78004021EB1834331A7849420A431A700AF004
:10BB880021FC3E228256AB1809931B7E59B2032929
:10BB980072DD6D1834352B789B09032B0CD1A22349
:10BBA800A021DB00C905C85801210B1C93400340A4
:10BBB800591E8B41023304E0013B5942594103238A
:10BBC8005B1AA0219200C9055218E021C9005558F6
:10BBD80028481B04284050505058034353506BE0EA
:10BBE800783C0020743C00207C3C0020583C00201D
:10BBF800713C002080969800806967FF102700003C
:10BC0800F0D8FFFF369A02003F9A0200439A0200DA
:10BC1800C79A0200469A0200679A0200739A0200C5
:10BC2800769A02007F9A02008B9A0200939A020089
:10BC3800A39A0200B19A0200C59A0200159B02005D
:10BC4800089B0200369B02002D9B0200469B0200C7
:10BC5800139C0200E5C302004B9B02004F9B0200AD
:10BC6800A831002000E100E0FFFF00FF0060004075
:10BC7800DD770200FFFFFCFF032B1DD8A227664AD1
:10BC88008B009B18FF00DA59944601226046104346
:10BC9800D8510B1C002740339B005F489BB21F50B4
:10BCA800099B1B7E5BB29B00EB58BB4204D08A40C9
:10BCB800C123151C9B00C5500AF064FA574B099024
:10BCC8001D680AF07FFB564B564FADB202950097A0
:10BCD8000193836C0121039306230998221CFF33E7
:10BCE80007F09AFB032211A84F49C2704F4A00235C
:10BCF8001160482101254E4A057011804D4A4E4970
:10BD080043708370136001F013FA0990002801D082
:10BD180001F08FF8494B4A4A1D708023DB031360FA
:10BD28000AF030FA474B009701931623291C221C6E
:10BD3800FF3307F071FB444A444B09991A60301CE1
:10BD480014220CF0B0FA052333800AF03BFB35309F
:10BD5800037833720AF036FB36300378B5727372A3
:10BD6800337B2B433373099B3361394B12930AF0AE
:10BD780009FA384B384F0193129B291C02939723D9
:10BD8800221C5B00009707F047FB301C12A90AF041
:10BD980007FB2B4B0993002810D1129B2C4A934286
:10BDA8001ED00AF0EFF92D4B129A0193284B0097F9
:10BDB8009B1A0293291C221C34230EE03A210428E2
:10BDC80001D001F03EF80AF0DDF9254B291C01935A
:10BDD800129B221C029338230097FF3307F01CFBA9
:10BDE80001200AF0D7FA002804D09F2149001D4AF3
:10BDF8000BF034FE01200AF0CFFAA1210028F5D17A
:10BE08000AF0E0FA8430007840B20AF0CBFA071E54
:10BE18002AD0A321EAE7C046006000400C300000A9
:10BE2800599B0200469B0200B4360020E8350020EA
:10BE3800E2300020C42F00202D660200E0300020F0
:10BE480000E100E0889B0200A5770200A4360020EC
:10BE5800802E00209B9B0200BEC40200AC9B020007
:10BE6800C99B0200299B02000AF0B4F90AF08AF97A
:10BE7800041C12AAF549301C0CF09EF8311C201C39
:10BE880007F0A0FA301C0BF04BFF18200BF07EFED9
:10BE9800EF4B391C1A1CBE324260BE220360C360DD
:10BEA8001F705F709F70DF700361EA4B87820281A9
:10BEB80018604232E8480CF0F6F90322E74B1A7092
:10BEC8000AF080FAA0200BF061FE041CE44B391C38
:10BED8000360E44B07744360E34B28228360E34B21
:10BEE800251DC36044300CF0DEF9E14B01221C60D3
:10BEF800231C94331F60043B1A80023BA7610A3B52
:10BF08009F729F761F8014331F60203B27670C3B6E
:10BF18009F816767EF671A705F701C33E7671F6060
:10BF28009F80DF75D34B18680BF094FBD24B1868D1
:10BF38000BF090FBD14B18680BF08CFB231C9C3347
:10BF48001F70201C07F006FD0AF03CFA231C4279FA
:10BF58009D331A7002F0E4FAC94B856018604020DE
:10BF68000BF014FEC74B051C009301230193C44B2F
:10BF78000721221C1B6804F033FBC34B2B60C34B07
:10BF88006B60C34BAB600AF0FDF812AA0A90C14976
:10BF9800301C0CF011F8311C0A9807F013FA301C09
:10BFA8000BF0BEFE2B1C34336B620C232B852B1C31
:10BFB8002A331F70281CEF622F6309F035FB281CF9
:10BFC80003F0CCFC6564E0200BF0E0FDB24B051CEF
:10BFD80000930323191C0193A94B221C1B6804F02E
:10BFE800FFFAAE4B2B60AE4B6B60AE4BAB600AF00A
:10BFF800C9F812AA0A90AC49301C0BF0DDFF311CBD
:10C008000A9807F0DFF9301C0BF08AFE2B1C2C3342
:10C018006B621223281C2B8503F0A0FCE5646420C6
:10C028000BF0B4FDA14B051C009304230193944B22
:10C038000121221C1B6804F0D3FA9D4B01222B60BE
:10C048009C4BEF626B609C4B281CAB602B1C6033D5
:10C058001A80303B6B622D232B8503F07FFC8D20EB
:10C068002565C0000BF092FD944B051C0093052339
:10C078000193834B0221221C1B6804F0B1FA904BF8
:10C088002B60904B6B60904BAB600AF07BF812AA68
:10C098000A908E49301C0BF08FFF311C0A9807F06C
:10C0A80091F9301C0BF03CFE2B1C2C336B620D23DA
:10C0B800281C2B852B1C29303C331F70391C7822F7
:10C0C800FF300CF0F0F8281C03F048FC65653C20B4
:10C0D8000BF05CFD7E4B051C009306230193684B17
:10C0E8000521221C1B6804F07BFA7A4B2B607A4BE3
:10C0F8006B607A4BAB600AF045F812AA0A9078494F
:10C10800301C0BF059FF311C0A9807F05BF9301C02
:10C118000BF006FE2B1C2C336B620923AF632B85B7
:10C12800281C03F01BFCA56534200BF02FFD6D4B7C
:10C13800051C009307230193514B0621221C1B6801
:10C1480004F04EFA684B2B60684B6B60684BAB6031
:10C158000AF018F8071C12AA6649301C0BF02CFFCD
:10C16800311C381C07F02EF9301C0BF0D9FD2B1CA4
:10C178002C336B620823281C2B8503F0EFFBE56545
:10C188000AF020F938300378394A0F92002B24D06E
:10C19800594A5A4B09991A608022C02392035B00BE
:10C1A800CA50C521099B89005858554B0340C020E7
:10C1B8000002034309984350099B5B585B040CD564
:10C1C800504B5968002901D100F036FE19680A431E
:10C1D8001A600320012101F04FFE14200BF0D6FC59
:10C1E8000021051CB4222423052601824648AA8082
:10C1F800EB802860A860E8600CF055F86561AA88B3
:10C208002B68E9889A18EB68D01A884204DB5B1817
:10C21800EB602B8A01332B82013E002EF3D10AF00A
:10C22800D1F80378002B77D009F0ACFF374B012108
:10C238000093374B374A01938D2307F0EDF801231C
:10C248005B42E361201C01F049FF7CE0109C020086
:10C25800E8300020F0400020E4310020EC400020CD
:10C2680080CE0200ACCE0200CCCE0200E0CE0200AE
:10C27800503C0020783C0020743C00207C3C00208E
:10C288006C3C002032D20200F8CE020040CF0200FF
:10C2980054CF02001B9C02000FB7020088B70200AF
:10C2A800D0B70200E4B70200249C02002E9C0200D2
:10C2B80080D30200C8D30200DCD30200329C020003
:10C2C80050A6020098A60200ACA60200379C020005
:10C2D8003F9C0200C0A8020008A902001CA9020095
:10C2E800469C0200509C0200A0BC0200E8BC020070
:10C2F800FCBC0200539C0200F1390200FC3600200D
:10C30800FF00FFFFA8360020EC350020469B020006
:10C318006B9C0200629C020009F05CFF231C13A9BD
:10C328001C338B6028234B80231C0833CB60031CF1
:10C33800051CA433186810224E600E800AF08FFE88
:10C34800281C0AF0C3FED74BFF251C6000F054FFE1
:10C3580000220321D44BD54C1A60D54B1970D54B0C
:10C368000139181C18309970997299745860191C01
:10C37800181C783148301A705A701A725A721A7426
:10C388005A742360D8605961CB4B80211A60CB4B1B
:10C3980009981A70CA4B49031A70C0235B00C15030
:10C3A800C520099B80001B58AB433F3D2B43099D8B
:10C3B8002B50099B1960A123C249DB00CA50C42233
:10C3C800099B92009858C04B0340C02000020343C9
:10C3D80009988350BD48BE4B0A581A60BD4B1A7C59
:10C3E8001D1C0A910B90002A01D000F028FD1A7438
:10C3F80001325A74B84A5A6109F0E4FF6423028989
:10C408005343DE175A0CF1031143FA22D8030023D1
:10C41800520080185941FA22002392000CF0E8FFDC
:10C428002468002C01D100F012FD002903D1042852
:10C4380001D800F009FD6B69002B01D100F007FD60
:10C448006B7C0026012B00D1061CEFF30581C90582
:10C45800C90D0223002925D01039CBB25AB2002ABF
:10C468000CDA0F221A40083A9C4992089200521896
:10C4780003210B408B405268DA4008E09208099B80
:10C48800C03292009A58032319409940CA40D2B248
:10C498009209D2B20023012A04D0033A57425741E5
:10C4A8000233DB1BDB00E3185F789C787A1CD2B27E
:10C4B800A41A611E8C41197864422240914218D016
:10C4C80018214F435968CF19002F12D001210B9C16
:10C4D80039700A997D600959F860B96000213E6198
:10C4E80079615A7080227E4B52035A607D4B1960E5
:10C4F80008E00420FD2179E48022C0230999D203B1
:10C508005B00CA50784C2378002B7AD009F05AFF88
:10C518008379002B37D0754BDA68012A01D1744929
:10C528000A70DB68012B2ED12378002B2BD07148A1
:10C5380007F022FA704C261C21786C4A6F4BD068A1
:10C54800012801D000F086FC00272170D760A322C3
:10C55800D2009D58EDB27F2D01D100F087FC68B262
:10C5680007F030FA664A0D2D01D000F090FC00214A
:10C5780033786448D15407F0FFF93378002B02D0A0
:10C588000122614B1A70604D2B78002B39D001269F
:10C598005B4C574B201C5D491E700BF0E1FF0028D7
:10C5A8000CD11B3007F00EFA594807F0E5F91B20AB
:10C5B80007F008FA574807F0DFF913E0201C56493E
:10C5C8000BF0CEFF002801D1301C05E0201C534998
:10C5D8000BF0C6FF002802D108F0E2FD11E0201C94
:10C5E80008F01CFF0023444A2B70137009F0EAFE80
:10C5F8008379002B05D18121C123404A89009B0002
:10C60800D1504823464C4749201C0B8009F0C6FEF0
:10C61800002800D012E2258809F0B4FD6B1E9BB2F9
:10C62800414A542B02D8414A9B009A58404B0292E7
:10C638000093404B03950193A82301213E4AFF3301
:10C6480006F0EAFE208810380B2800D9E8E00CF044
:10C6580043FD0689E7E7A1E7E7E7E7E7CE99002585
:10C66800364B1D70A67D012E0FD109F08BFD344B82
:10C67800344A0093344B311C0193FF2306F0CCFE5F
:10C688000222324B1D80324B1A7009F07BFD314B70
:10C6980001210093304B314A0193A32306F0BCFEDD
:10C6A8002F4B6DE0FC410020C02F002000370020F8
:10C6B800E4350020F02F0020E4300020C82F0020AF
:10C6C800B036002000100140FF00FFFF0405000005
:10C6D800CC2F0020D02F0020B577020018ED00E005
:10C6E800FCE100E0F8400020713C0020FC20004004
:10C6F800543C0020879C0200723C0020002000402F
:10C708000041002072C90200733C0020909C020086
:10C718003F9A0200439A0200949C02009E9C0200E9
:10C72800B4360020982E0020289A0200D4980200DF
:10C73800A79C0200AE9C02002D9B0200703C0020CA
:10C74800E39C0200C99C0200E79C0200E440002030
:10C75800C03F00204D9B02001A9D0200089D020068
:10C768007037002009F00EFDBA4B01210093BA4B37
:10C77800BA4A0193237A0293AD2306F04DFEB84BD3
:10C788001B684BE0237A032B4AD10022B54B1A7061
:10C79800B54BF5E7022213AD2B7C281C13432B74F1
:10C7A8000F9B0E321B68191C2C310A930BF05EFD8F
:10C7B80003232A7C291C13404022134300222B7494
:10C7C800A088131C02F02AFA051E03D0D521A74A17
:10C7D800FFF70EFB09F0D6FCA54B02950093A54B7D
:10C7E800012101939D4AD72306F016FE18E0257A09
:10C7F800677A09F0C7FC9E4B2E0900932D079E4BC4
:10C808002D0F01930297E323039604950121934A80
:10C8180006F002FE994B1B68002B01D098489847F8
:10C8280023881B2B1ED01D2B06D0102B28D180202F
:10C83800C0000BF00BF823E0227CD2080A2A1FDD87
:10C84800E18A904B99421BD1237EF02B18D18E4B55
:10C858001B680B930B99A369098D1B021B0C8B4258
:10C868000ED139E3237A022B0AD109F08BFC874BCE
:10C8780001210093864B874A01939A2306F0CCFD49
:10C888007F4C2388322B48D00AD8102B13D002D8DB
:10C89800012B60D07BE0112B0FD0302B21D076E01C
:10C8A8003A2B5DD002D8382B55D070E0502B09D0E8
:10C8B800522B0CD06BE0A28801E001225242764B49
:10C8C8001A8364E0E3880E2B61D1744B44E00021A5
:10C8D800A0880A1C0B1C02F005F9002857D0B621C5
:10C8E80018E0A389002B52D009F04CFC594B0121C8
:10C8F80000936B4B6B4A0193CE2306F08DFD638A40
:10C9080013A90B80A38A4B80A08802F0E9F80028BD
:10C918003DD0D621644AFFF76BFAA389002B36D0A5
:10C92800E289624B9A4232D15B4B227C9B7D9A42D0
:10C938002DD1E58A09F026FC464B012100935C4B7A
:10C94800584A0193E42306F067FD5A4BA0881B68F8
:10C95800291C98471BE0584B1B68201C984716E079
:10C9680009F010FC554B01210093554B4D4A01939A
:10C978005023FF3306F050FD09F004FC0221012288
:10C98800002306F005FDA088132102F049F94D4B5C
:10C998001B68002B01D100242DE001F0C1FD00240B
:10C9A800071C09F00FFD373003789C42F3DAA30027
:10C9B800FB181D6A2B7A002B1BD0314E33881A1CAA
:10C9C800103A1E2A15D8404AB188AA5A914210D165
:10C9D800122B0ED109F0D6FB3C4B3D4A00933D4B40
:10C9E80001210193DE23FF3306F016FD72893A4BCD
:10C9F800EA520134D5E7334B1A68002A0ED0231CBB
:10CA080010339B00D3185868002807D0436A9B78D6
:10CA1800002B03D003681A499B6A984701340A2CF3
:10CA2800E9D109F0AFFB2D4B012100932C4B2D4A86
:10CA38000193C023FF3306F0EFFCE2E5052800D0A0
:10CA4800F4E1294B1F4D1E68002E4FD12C68002C95
:10CA58006BD197E14D9B02002B9D0200089D0200BF
:10CA680058370020703C00206C370020FF9C0200E3
:10CA78004B9B0200429D02007A9D02005037002025
:10CA8800B43600204D020000503C0020A79E020052
:10CA9800AC9E0200949E020084370020603700207C
:10CAA800D89E0200C59E0200BC9E0200241500000C
:10CAB800E69E0200683700204C370020BEC4020002
:10CAC800FB9E0200FC41002062030000299F020037
:10CAD8001A9F02002E9F02006E030000A79C02000E
:10CAE800489F02002D9B0200F44000200024286883
:10CAF8001C600368211CDB68321C98472A68002ADE
:10CB08000FD0231C10339B00D3185868002808D076
:10CB1800436A9B78002B04D003680021DB6B321C2E
:10CB2800984701340A2CE9D190E7231C84331B88E9
:10CB3800251D0A93002B00D124E1E36F0A9A201CDB
:10CB48009B18E367EB6F9B1AEB6707F0F3FC231C5A
:10CB58006D331978002905D0EB6F002B02DC201CFF
:10CB680005F0BCFC231C9D331B78022B74D1CD4DE2
:10CB78009C342B681A69127A0B925A69127A0C92B1
:10CB88009A69DB69177A1B7A0D93267809F01AFCE3
:10CB9800373003787608B34251D92378DB0742D47B
:10CBA8002B680836B200D3581B7A032B03D9BE4B27
:10CBB80018680AF061FDBB4BB6001B68F3581B7A76
:10CBC800023B012B00D866E203220D99BA429B4131
:10CBD8008A4289415B42494259180C9B01209A427A
:10CBE8009B415B425B180B998A4292415242D3188F
:10CBF8000D9AB8428941904292414942524289185D
:10CC08000C9A9042BF417F427A180B998842BF41E3
:10CC18007F42BF183B43DBB2002B10D1A34B1868EF
:10CC28000AF02AFD0BE0A14B18680AF013FDA04B8F
:10CC380018680AF00FFD9C4B18680AF00BFD257860
:10CC480009F0C0FB37300178013502314900281C52
:10CC58000CF0C2FB217074E0042B46D1231C002584
:10CC68009C330C931B780C9A01331370231C943358
:10CC78001E6809F0A7FB8F4B6A00D35AB6B26A1C2C
:10CC88000B92B3422DD1131C884F3868DB0702D5AD
:10CC98000AF0F2FC01E00AF0DDFC854B0B9A1868FB
:10CCA800920702D50AF0E8FC01E00AF0D3FC7E4EB8
:10CCB8000B9B30685B0702D50AF0DEFC01E00AF046
:10CCC800C9FC072D0DDD0C9B1B78DB0709D43868E0
:10CCD8000AF0C0FC764B18680AF0BCFC30680AF011
:10CCE800B9FC0B9D0C2DC1D12BE0012B0CD16F4B46
:10CCF80018680AF0C1FC6E4B18680AF0BDFC6A4B54
:10CD080018680AF0B9FC1CE0002B0CD1674B1868B6
:10CD18000AF0A0FC664B18680AF09CFC624B186885
:10CD28000AF098FC0DE0052B0BD1604B18680AF04F
:10CD380083FC5F4B18680AF07FFC5B4B18680AF0AD
:10CD48007BFC5D4D00242F1C2B68DE6F3A68002A9F
:10CD58000FD0231C10339B00D3185868002808D024
:10CD6800436A9B78002B04D003680A995B6A321CDB
:10CD7800984701340A2CE9D12B680A9984331A8818
:10CD8800521A1A804D4B1C68002C08D109F000FB80
:10CD9800002801D1FFF7B0FBEB21FFF728F80022AC
:10CDA800201C1A600AF08EFA454D04262A78131CB6
:10CDB800B3431ED0022C1ED0032C1AD1414B1B6842
:10CDC8001B0718D440490B6801330B60032B04D0B0
:10CDD800022A0CD100F0D6FC0BE014223B4B0D20AC
:10CDE80019785143C918043100F0B6FC2E7000F0D0
:10CDF8000BFD00250CE000F0DDFEFAE72B1C1033DC
:10CE08009B00D3185868002807D101350A2DBDD0DA
:10CE1800294B1A68002AF1D1F7E7436A9B78002B5F
:10CE2800F3D00368211C1B6A9847EEE7F221FEF74E
:10CE3800DEFF0998142104E0254BFFF7C9F9082003
:10CE4800F821FF31FEF7D3FF0720FFF753FB082037
:10CE5800FFF750FB926A002A01D1FFF76EFB902280
:10CE6800D200995899500021FFF767FB2378BB42FD
:10CE780001D1FFF75FFB281C06F0A4FD2278154BB3
:10CE88009B18013B013A1F702270FFF753FB237870
:10CE9800F82B01D9FFF76BFBD55401332370FFF74B
:10CEA80049FBC0466C3C00207C3C0020783C0020BC
:10CEB800743C0020A8A20200FC410020F840002099
:10CEC800BD3F0020E83F0020A0360020EC3F0020B6
:10CED80000E100E000410020E57E012D00D0CFE414
:10CEE8001F2A00D0CCE4002609F04CF96C4B291C11
:10CEF80000936C4B351C0193A38B6B4F0293238CCF
:10CF0800E28B1B04134303932222A35E0493674B13
:10CF18000533DB7F5A07520FDB0805920693E36A55
:10CF28003A1C0793624B06F077FA0B9B5B690A93EE
:10CF38001B8A0C93A38B0D970E930C9B9E4214DABD
:10CF4800B1B20A9808F066FB0E9A038A051C934250
:10CF580009D109F017F9524B01210093554B0D9A4D
:10CF68000193554B40E00136E7E700260C9B9E42B3
:10CF780009D0B1B20A9808F04DFB038A002B00D102
:10CF8800051C0136F2E72E1E09D009F0FBF8444BC8
:10CF980001210093494B0D9A0193494B24E0012745
:10CFA8007F420C9B9D4213D0A9B20A9808F032FB2D
:10CFB800838A428A1B0413430B9A94321268934261
:10CFC80004D1C368BB4201D21F1C061C0135E8E727
:10CFD800351E0DD009F0D6F8314B01210093394B9D
:10CFE8000D9A0193EB239B0006F016FA2E1C1FE006
:10CFF8000127351C7F420C9B9D420AD0A9B20A9892
:10D0080008F008FBC368BB4201D21F1C061C01358F
:10D01800F1E709F0B7F8224B012100932A4B0D9A4A
:10D0280001932A4B06F0F8F9002E01D1FFF728FCEE
:10D038001E4906220931701C0BF018F9237A337047
:10D04800238CE28B1B041343072273821B0CB382CD
:10D05800638CF382154B591DCB7F1340181C337E0C
:10D0680093431D1CCB7FDB08D9002B1C03431340C3
:10D078000B433376A38B3382638DF383E36A336286
:10D08800237C5B079B0FF371E37B33720B9BDB6F96
:10D09800F360FFF7F5FB0E4B18680AF0EDFA93E51D
:10D0A800B49D0200BE9D0200629C0200B4360020BE
:10D0B800660300000E9E02008D030000289E0200F9
:10D0C8009B030000399E02005C9E0200BD03000025
:10D0D800743C0020802252051169142208B50E48BC
:10D0E80089B203785343C3181A69501EDA881B891A
:10D0F8008018C0180BF0FAFF084A031C12680120B8
:10D108009A4207D300209A4204D1054B1B68584223
:10D118005841C0B208BDC046EC3F0020843C002006
:10D128000437002028DF704729DF704761DF704728
:10D1380010DF704752DF704770B50024234B5C64E2
:10D148009C64DC641C655C609C60214B1B68A3428A
:10D158003BD02049204A8A5820490D68551B2D028A
:10D168002D0A1A6895421CD3AD1AA4181A7CDE69D8
:10D17800002A12D000221A74194A1268002A09D00B
:10D18800586999699047002807D06621154AFF31E8
:10D198000AF064FC5A6998699047002E01D0331C44
:10D1A800DFE7114B114A197813788B4205D1013307
:10D1B800DBB2022B00D10023137013780C4A9B00BA
:10D1C8009C5080220B4B52035A6070BDFC100140EA
:10D1D800E43000200010014004050000CC2F00209E
:10D1E800C02F0020D4A20200C82F0020B036002093
:10D1F80018370020FCE100E08022194B9202DA6720
:10D20800D2218022174B520289005A5040395A5075
:10D2180001212F225960101C0138C046C046C04663
:10D22800C046C046C046C046C046C046C046C046C6
:10D23800C046F1D1996000230B49101C0B600138DE
:10D24800C046C046C046C046C046C046C046C046A6
:10D25800C046C046C046C046F1D1044A1370704764
:10D2680004E100E000100140CC2F0020203700200E
:10D27800F0B5BF48BF4A0368BF4989B0049309782D
:10D288001378994211D00133DBB2022B00D100236D
:10D2980013701378B94A9B009958049BCB181B024A
:10D2A8001B0A03600123039301E000210391B44B9F
:10D2B8001B680693B34B1B780193B34B019A1B6809
:10D2C80002920793AA4B1E68B04B1B780593069BE6
:10D2D80002980138C2B20292FF2A2DD0029AD400D5
:10D2E800079A1419227865789542F1D01825554384
:10D2F800A77801326068D2B2BF1A4519381C471E98
:10D30800B84147423A402F78022F02D0032FEAD182
:10D318000CE09C461F1C6D6860460028E3D0AC45B5
:10D3280000D148E16746F8698446F5E7002BDAD072
:10D3380000251D74DB69F9E76846944A007D904D25
:10D348008B4C1070039A2B602660002A06D1069A2F
:10D358009B1A5A1E9341039ADBB221E00022161C45
:10D36800002B1AD01868814204D2411A2B60196028
:10D37800012315E0091A36180020DF681860D869FB
:10D388008446002F07D0DA611A1C04989F60301871
:10D398000002000A58606346E2E779490B600133EE
:10D3A80077490968029178490298096805912168C6
:10D3B800049176490978069101990139C9B2019118
:10D3C800FF296CD00199CD0005994D19002A02D08A
:10D3D800111CD26922E029786C788C42ECD0182490
:10D3E8004C436E6801313419AE78C9B229708E4247
:10D3F80000D12A7027786168061C012F4DD10F7C57
:10D40800002F4AD1A6684E60E6688E602669CE6015
:10D4180064698C61069C002C00D04F604C68049EA7
:10D428000394A61B5A4C3602360A8F68A64202D8C5
:10D43800F6190E600BE0049C039EA41B2402240A28
:10D44800A74202D93F1B0F6001E000240C600024B2
:10D4580001264C600E748C60CC610E1CA0421CD05E
:10D468000E680468A64204D8A61B0660C8610E1C94
:10D4780013E08446041C2768BE4206D9F61BE769F8
:10D48800A446002F05D03C1CF5E7BF1B2760271CCE
:10D4980064460E60061CCF61E161301C96E7384A8D
:10D4A8001060029A904202D1002B00D17EE0002841
:10D4B80000D179E00568374937482D4B0C581B686F
:10D4C800364EE21A1202120A37780332019202909B
:10D4D800002F1FD18020D1274002BF00C851403FF4
:10D4E800C851C02280272E48BF02520087500760CB
:10D4F80001272F200F600138C046C046C046C046ED
:10D50800C046C046C046C046C046C046C046C046E3
:10D51800F1D13770019AAA4200D22A1CA820D31848
:10D528001B021B0AC000029A0B508958194D091B8F
:10D538000902090A1C1B24020331240AA14235D915
:10D54800154BEB582B502F200138C046C046C0461B
:10D55800C046C046C046C046C046C046C046C04693
:10D56800C046F1D180220F4B92025A601EE0C0469D
:10D57800CC2F0020C82F0020B036002018370020FC
:10D58800E4300020E4350020003700200837002070
:10D59800FEFF7F0000100140040500002037002036
:10D5A80000E100E0FCE100E0FFF726FE00220C4B62
:10D5B8001A7009B0F0BDAF4207D1DB69002B04D166
:10D5C80001260848866005961E1C2868ED69844671
:10D5D800FD61002D00D186E628686044286082E657
:10D5E8000837002000100140F0B501220025524BF9
:10D5F80085B01968012908D1C121504889004158CE
:10D60800114202D00021154319604D4904335200DC
:10D618008B42EED14B4B00241A68012A08D11C60BA
:10D6280080231B061D43A022A223D205DB00D45869
:10D638002B0707D1002D7CDA01235B4202930023DC
:10D6480001932BE0012700263D420DD03B4AB30051
:10D658009918A222D200885889583B4AC0048903E5
:10D66800C00E890FD358984701367F00042EEBD19E
:10D67800E0E729784BB2013314D1344B01359D4290
:10D68800F7D1009B002B54D0A223A022DB00D205A7
:10D69800D358A3424DD01C1C019A029200232C4D52
:10D6A8000093E6E7C9B2C023081C9843029BC34015
:10D6B800DB07E2D5244A890913181B7E5BB29B005D
:10D6C8009B589C46002B01D10329D6D101278740BE
:10D6D800032902D1019B3B430193A0228300D20579
:10D6E8009B18E022D2009E58B603B60F3C4202D0E7
:10D6F800022EC2D102E0032EBFD103E0032913D1C9
:10D70800039103E003290FD1022603969F583E1C7C
:10D71800104F37409F50039E9F5836043E439E50FB
:10D72800009B0133DBB200936346002BA5D0E04792
:10D73800A3E705B0F0BDC0460061004000600040AE
:10D74800106100407C610040A8310020E2310020D7
:10D75800E0310020FFFFFCFF0B1C37B50C24021C36
:10D76800181C8968054D4C432D6819780095044D9F
:10D77800083064591B69A04737BDC0460C370020E4
:10D78800D83F002008B5034B034A1B789B009B58E1
:10D79800984708BD0937002018A3020008B50823D8
:10D7A800034A116899431160FFF7ECFF08BDC046B2
:10D7B800E83F002008B5064B1B681B0705D401226B
:10D7C800044B1A70FFF7DEFF01E0FFF7E7FF08BD23
:10D7D800E83F002009370020094A08B513681907EF
:10D7E8000AD4990702D501210B4313600222054B85
:10D7F8001A70FFF7C7FF01E0FFF7D0FF08BDC0466A
:10D80800E83F002009370020F0B52C4B85B0187888
:10D81800032850D80BF060FC020E114B0023284A55
:10D828001360284A1360284B5B78002B43D000F024
:10D8380001F940E000F050F93DE0244C80272368CE
:10D848007F0501930123019A9A43142322600292CF
:10D858001D4A3969157889B25D4355192B69181C19
:10D8680003930BF043FC1A4B061C1860039B3969A1
:10D87800581EEB8889B2C0180BF038FC864203D1D9
:10D888000223029A134303E00323019A9A43131CC9
:10D898002360104B1A68104B002A03D1216802320A
:10D8A800114200D000221A70FFF76CFF03E0084B0A
:10D8B800186800F0FDF805B0F0BDC046BD3F002077
:10D8C800A0360020803C0020EC3F0020E83F0020EC
:10D8D800843C002014370020093700201422F0B5BA
:10D8E8004E4985B00B7880255343CB181A1C083253
:10D8F80052686D0501920C220198296942434848F3
:10D908001C698218508916895268704382180292DD
:10D91800DA88444E03921F8989B2D3191B190093E0
:10D928000023201C33600BF067FC2A1C00290BD154
:10D938002B6903999BB2994209D0009B02998B42AB
:10D9480051D1002F5CD102E0019B022B08D1116953
:10D95800201C89B20BF0CAFB334B186003233CE050
:10D968002969381989B20BF047FC304B89081960CE
:10D97800029A009B296993422ED089B200980BF035
:10D988003BFC002928D080246B46640521691F8848
:10D99800236989B201936B4618890BF0A7FB6B4684
:10D9A800051C9988381C0BF0A1FBADB280B28542EA
:10D9B80007D16B466A461B8912889B1A9B083360FD
:10D9C8000AE023692169381C89B29CB20BF014FC67
:10D9D80089B2641AA40834600223154A1370FFF749
:10D9E80013FF05B0F0BD019B022BB0D0296938198F
:10D9F80089B20BF001FC0D4B890819602969BCE755
:10DA0800019B022BA3D02969381989B20BF0F4FBCA
:10DA1800064B890819602B69DEE7C046EC3F0020F9
:10DA2800D83F002004370020843C00201437002011
:10DA3800BD3F0020142208B50A490B785343CB1880
:10DA4800D988094A11601B79032B08D0042B06D00A
:10DA5800012B06D1054A1370FFF7D6FE01E0FFF748
:10DA68003DFF08BDEC3F00200C370020BD3F0020E3
:10DA780008B5002814D0112805D10823094A1168CF
:10DA88000B4313600CE01422074B19785143C91853
:10DA98000431FFF761FE0422044B1A70FFF7B4FE4D
:10DAA80008BDC046E83F0020EC3F0020BD3F0020F5
:10DAB80008B5FFF737FBFFF7DBFF08BD08B5024BDA
:10DAC8001868FFF7F5FF08BD843C002008B5FFF78C
:10DAD8002BFBFFF7CDFF08BDF8B51423144A8024AB
:10DAE800167864055E439619371C331C2169F28841
:10DAF80089B23089083710330E4D8A420FD921690F
:10DB0800266989B2521AB968401859688018891864
:10DB1800B2B29208FFF7DAFF23699BB206E0B96850
:10DB2800920840185968FFF7D1FFF3882B60F8BDB9
:10DB3800EC3F0020803C002038B51424104D002014
:10DB48002978614349190431FFF706FE2978002234
:10DB58004C432B1901241A71DA80DC601A615A616E
:10DB68001A816B780919013B6B70CBB20A2B01D073
:10DB78002B7000E02A70034B1A70FFF745FE38BD82
:10DB8800EC3F0020BD3F0020142208B507490B7860
:10DB98005343CB181B79042B02D0FFF7CDFF04E0C9
:10DBA8000122034B1A70FFF72FFE08BDEC3F00203F
:10DBB800BD3F002008B51E4B1B78022B30D0032B2D
:10DBC80019D0012B32D108211A4A13680B4222D1ED
:10DBD800142319490A785A43184B8A181968D388A4
:10DBE8005B1A9BB2D380002B02D1FFF7A5FF1DE083
:10DBF800FFF772FF1AE008210E4A13680B420AD198
:10DC08000F4A136801331360FFF764FA002804D140
:10DC1800FFF7BAFF0AE08B431360FFF7F5FD05E055
:10DC2800084B094A1B789B009B58984708BDC0467B
:10DC3800BD3F0020E83F0020EC3F0020803C002052
:10DC4800843C002009370020C0A2020010B5174C00
:10DC580023681B0726D4164A136801331360154B33
:10DC680004221B68002B04D1FFF734FA002803D0E4
:10DC78000222114B1A700FE0104B1B68002B0ED0BC
:10DC880023680120191C0C4A014003D10343236077
:10DC9800117001E003231370FFF774FD04E0FFF730
:10DCA80073FF01E0FFF77AFD10BDC046E83F002092
:10DCB800843C002014370020093700200437002056
:10DCC80008B5054B1B681B0702D4FFF75DFF01E091
:10DCD800FFF764FD08BDC046E83F0020F8B50824FA
:10DCE8001D4E35682C4022D114221C491C4F0B783C
:10DCF8003F685343CB18802149051869DA880969B8
:10DD08001B89002F16D001388018C01889B20BF073
:10DD1800EDF9144B1B6883420CD1134B1C60012393
:10DD28001D43124B35601C70FFF72CFD13E0FFF705
:10DD380035FD10E0FFF7CEF9002804D000220A4B89
:10DD48001A60023202E0002F03D00322074B1A7038
:10DD5800EAE7FFF719FFF8BDE83F0020EC3F002095
:10DD680004370020843C00201437002009370020A5
:10DD780008B5064B586980235B05421C04D0196915
:10DD880089B20BF0B3F900E0586908BD0010001023
:10DD980038B580256D052C69084AA3B21468013C82
:10DDA8005C43FFF7E5FF2B69411E9BB25943044BC7
:10DDB800201C1A68FFF78AFE38BDC046843C002044
:10DDC80014370020142270B580260E4976050B788A
:10DDD8005343CB181A89DC881B69A4183169E418E5
:10DDE800201C89B20BF008FA0D1CFFF7C1FF33693C
:10DDF80001389BB25843044B41191A68201CFFF79D
:10DE080065FE70BDEC3F00200437002008B5FFF721
:10DE1800AFFF80225205136901389BB25843054B66
:10DE2800116912691B6889B292B259439208FFF7C7
:10DE38004DFE08BD843C002008B5FFF799FF8022FD
:10DE48005205136911699BB20138584389B20BF026
:10DE58004DF9FFF72DFE08BD0120054A08B51378D6
:10DE68005840044B10701B68002B00D0984708BD21
:10DE780010370020FC3600204CDF70477047704791
:10DE880070DF704774DF704773DF704763DF704778
:10DE980098DF7047A2DF7047A0DF70478CDF7047BC
:10DEA80085DF70477CDF70477ADF704778DF70471F
:10DEB80013B5041C08F066F9074B084A0093084B91
:10DEC800012101934023FF3305F0A6FA201C02210B
:10DED80004F004FB13BDC046469B0200629C02008E
:10DEE8003CA3020008B4024B9C46043808BC6047B7
:10DEF800B9DE010013B5041C08F044F9064B074AC3
:10DF08000093074B01210193DA2305F085FA201CC1
:10DF1800062104F0E3FA13BD469B0200629C02004E
:10DF28004FA3020008B4024B9C46043808BC604763
:10DF3800FDDE0100F0B5838F8BB0013383878B7AC8
:10DF4800041C0D1C032B00D897E0E6239B00CB5C38
:10DF58000593002B47D1261C05F080FD271C94361D
:10DF68009037306008F00EF90022BB5E534A0293E6
:10DF78000092534A0192E8229200AA5E01219B1A5C
:10DF8800039356234F4AFF3305F046FAE8239B00D4
:10DF9800EB5A059904933B88049A9B1A3B8006AF79
:10DFA8000E22381C0AF07FF901233A7813402E22FA
:10DFB80013433B70112302AA9B18221C2A321278A1
:10DFC8001A70221C2B3212785A70152302AA9B1839
:10DFD80032781A7072785A70B2789A70F278DA7069
:10DFE800049B5E423DE0271CE826903708F0CAF8FB
:10DFF8000022BB5E314AB6000092314A0293019278
:10E00800AA5F01219B1A0393B6232E4A5B0005F0F1
:10E0180003FAAE5B3B8800219B1B3B8006AF0E22B8
:10E02800381C0AF040F92E2302AA3B701D3B9B18AE
:10E03800221C2A32127876421A70221C2B3212784D
:10E048005A70152302AA9B18E7229200AA5C1A703C
:10E05800E7229200AA18517859709178D27899706D
:10E06800DA70192302AA9B18B6B21E70360A5E70BF
:10E07800201C291C3A1C04F071FD08F083F8124B8F
:10E0880000210093231C903300229B5E0D4A0193CC
:10E098008623FF3305F012FC201C04F0ABF9231C87
:10E0A80000228E331A70223B1B780A2B03D1201CC6
:10E0B800022104F013FA0BB0F0BDC0464F9B0200DA
:10E0C80064A30200629C020085A3020008B4024B0C
:10E0D8009C46043808BC60473DDF0100F0B5C369C1
:10E0E80089B0041C764D774E013335D108F04AF8D3
:10E0F800754B01212A1C019300969E2305F08CF98B
:10E108000023E361A38708F05DF96C300388238559
:10E1180008F058F9011C201C5B3110222C300AF041
:10E12800A5F8231C0A2240331A70013B1A7008F024
:10E1380049F9231C703002783E331A7008F042F90E
:10E148006E300388638508F03DF9011C201C71318D
:10E15800203007220AF08AF8608D64210BF04CF811
:10E16800231C8C331980201C05F040FC08F00AF8A9
:10E17800638D071C079308F025F9544B4C30019325
:10E18800079B01212A1C02930390B123381C009697
:10E1980005F042F907F01AFAA087201C05F05EFC8A
:10E1A800231C94331860631CDB7FFF2B04D0211CD5
:10E1B80000202031FFF764FE012202270026444D8B
:10E1C8002B786E609343BB432B7008F0FBF8C38A2F
:10E1D8002B8108F0F7F8038BAE816B813D4B3E4DE8
:10E1E8001E80238D2F7007933C4B6E601E703C4B36
:10E1F8002E721E7080239B00EE602B826E8208F0C8
:10E20800E1F83230037801215A425A412B7D8B4381
:10E2180013432B7508F0D6F8333002785342534134
:10E228005A002B7DBB4313432B7508F0CBF83430D1
:10E2380002780421534253419A002B7DFF208B43DF
:10E2480013432B75274B284A1E80284B49311360EE
:10E2580001225A7005329A70EA32DA716A46127FE0
:10E2680059711A72079A1F70120A18719F715A729F
:10E278001F4B204A0925136003225D703D351A7033
:10E288009D70D9701A7158719971DF71201C04F052
:10E29800B1F807F077FF0B4B094A0093164B0121A1
:10E2A8000193638D0293A38F0393238D0493C82353
:10E2B80005F0B2F8201C391C04F010F909B0F0BDC3
:10E2C800629C0200469B0200AFA30200D4A3020096
:10E2D8007437002054370020C03F0020BC3F002086
:10E2E800E43F0020E4400020B8400020BC4000206B
:10E2F8002137002064370020EDA3020008B4024B48
:10E308009C46083808BC6047E5E00100F0B58BB0D2
:10E318000C1C0592071C07F035FF724B0121009376
:10E32800714B724A0193059B0293E52305F074F83B
:10E33800059B002B6BD03A1C903213880133138055
:10E348006B4BE25C0133E35C1B0213431AB2002AF5
:10E3580002DB01339BB200E0664B674A0126A352F9
:10E3680007F010FF3B1C903300229B5E5D4A03932D
:10E378000092624A012101925A1E0292EE235B4AE0
:10E3880005F04AF8E4239B00E5580C33E5505C4B54
:10E398000021E25C0133E35C06A81B021343D82288
:10E3A8009200A352E8239B00E6520E2209F07BFF5D
:10E3B8002E2302AA13741D3B9B183A1C2A3212788A
:10E3C8001A703A1C2B3212785A70192302AA9B1819
:10E3D80000221E705A70152302AA9B182A0A1D7063
:10E3E8005A702A0C2D0E9A70DD7007F0CBFE3D4B4B
:10E3F800311C0093434B3D4A01930223FF3305F040
:10E408000BF8381C211C06AA04F0A8FB3BE0E2220A
:10E418003D4B9200A658E35C36021E43E7239B005F
:10E42800E6500432394BA55CE35C2D021D43E8231A
:10E438006A1E9B00E252364B0E22E018059909F03D
:10E4480032FF3B1C94331E603E1CE32390369B0036
:10E458003580E2581202130C002A02DB01339BB20A
:10E4680000E0244B244AA35207F08CFE1D4B0121E7
:10E478000093284B01930022B35E1C4A0293162393
:10E48800FF3304F0C9FF07F07DFE234B0021009302
:10E49800059B3D1C01933B1C903300229B5E134A55
:10E4A80002938C235B0005F009FA04232372DC2312
:10E4B8003E1CFA6F9B00E25044356C3628680028F1
:10E4C80003D00368211CDB6A98470435B542F5D1AF
:10E4D800381C03F08FFF381C022103F0FFFF0BB03C
:10E4E800F0BDC0464F9B020025A40200629C0200BA
:10E4F8007F030000FFFF0000A203000064A30200E6
:10E508007B0300005FA40200870300008B03000068
:10E518008902000099A40200AFA4020071DF7047CD
:10E52800F0B5AB4B99B01D68002D00D04BE1302001
:10E5380009F02CFBA74B01261B688560436010235C
:10E54800A5493343041C06220CA80370FFF7AAFC54
:10E558000F354521002805D18020FFF7A7FC0028AA
:10E5680003D049219D4A09F079FA11AF11907860DA
:10E5780007F028FF43893B8007F024FF83897B80CD
:10E5880007F020FFC389BB8007F01CFF038A381CF3
:10E59800FB80FFF789FC53210028E3D10123904F2A
:10E5A8005B429049102208A83B8309F05FFE8E4920
:10E5B80008A8FFF76BFC372100287AD18B49301C5B
:10E5C8003A1CFFF769FC3B21002872D102AB188086
:10E5D800987007F0F7FE02AB1B785A30AB4301780E
:10E5E80002AA334352782B40002909D02021AA439C
:10E5F80016430B4302A8354003700D43031C09E082
:10E6080010210B4302A90B701023AA43164335406F
:10E618001D430B1C062210265D7002AB9B7803AFCE
:10E628009343043A134306329343B343073A1343DD
:10E6380002AA93700223BB70013B33433B70012352
:10E6480011AD334300211C22281C7B7009F02BFEDE
:10E65800022208231343921813431E432E7005AE5B
:10E6680063490632301C6F6109F000FE301C6E6091
:10E6780009F080FF2881301C09F07CFF0CAE68810E
:10E6880000211422301C09F00EFE554A04AB917D7E
:10E698000C93997057491088198002AB73606423F2
:10E6A800291CB381321C544BFFF7F4FB071E02D020
:10E6B8007E21524A57E701232060237307F082FE28
:10E6C80036300378A37307F07DFE35300378EC20ED
:10E6D8006373800009F05AFA6368051C03600773C6
:10E6E80047734460182009F051FA9B23061C281C24
:10E6F80096229B00EB187360414B1530391CB7828A
:10E70800338192003060F060306109F0CCFD9C23C9
:10E718009B00EE50281C02F03BFB0123271C0093B2
:10E72800374B256225611437019307F04BFE3630CD
:10E738000378009A9A422FDCEC20800009F026FA30
:10E748006368051C03606B461B78446003730123F0
:10E758004373182009F01AFA9B23061C9B00EB1838
:10E7680073606B46281C002196229B881530B18265
:10E77800338192003060F060306109F094FD9C2391
:10E788009B00EE50281C02F003FB009B3D60013308
:10E798003D6100930437C8E71A4A1B4B1A601B4AAD
:10E7A8001B4B1A601B4A1C4B1A601C4A1C4B1A60F4
:10E7B8001C4A1D4B1A601D4A1D4B1A601D4B1E4AF0
:10E7C8001A60034B1C60024B186819B0F0BDC046B4
:10E7D8005C370020503C0020E4A40200FF9C0200AB
:10E7E800843700202CA302009A3700209837002095
:10E7F800EBA40200241500008E370020BC9E020006
:10E8080057020000694C020058370020DD4502001D
:10E8180070370020294D020050370020B94502000A
:10E828006C370020254A020060370020F54C0200B2
:10E83800683700204C3700207513020072DF7047DC
:10E8480073B5254D041C2B88984244D0002B0ED05C
:10E85800FFF718FB00280AD107F094FC1F4B012191
:10E8680000931F4B1F4A0193D72304F0D5FD802343
:10E87800DB009C4203D107F0A5FD828A06E0F02365
:10E888001B019C4204D107F09DFD428B164B1A8256
:10E89800164E3378002B09D00022154B15481978ED
:10E8A800131CFFF7CBFF002800D13070002C01D1DA
:10E8B80000240FE00C48FFF7E7FA0028F8D107F02A
:10E8C80061FC064B012100930B4B064A0193F2238E
:10E8D80004F0A2FD2C8073BDE4400020E39C0200FC
:10E8E800F5A40200C99C0200C03F0020BC3F0020E4
:10E8F800E43F0020BC40002009A5020038B50B4CBD
:10E908000B4B051C1A688388201C03331371AA88D3
:10E918002968083009F0AAFC0020AB88011C0833DC
:10E92800DBB2221CFFF78AFF38BDC0462137002022
:10E9380064370020F0B55E2201268BB005AD2B7838
:10E94800524233401343021C2B7015232A3212788B
:10E958006B441A702B30027800245A7017230F1C4E
:10E9680009686B441C705C700B1C0C3B1A68531EC6
:10E97800132B20D81A2068446A7109F077FCFFF736
:10E98800CFFD211C2A1C1423009606F075FA6B791A
:10E998003A6803A803928380FFF7B0FF07F0F2FB01
:10E9A80007F0F0FB0B4B211C00930B4A852304F066
:10E9B80085FF301C0BE007F0E5FB07F0E3FB074B96
:10E9C800211C0093044A8B2304F078FF201C0BB011
:10E9D800F0BDC04634A5020029A502005CA50200CE
:10E9E800F0B5A5B01E1C2AAB1B78151C079313782D
:10E9F800041C5B081A1C143A0691032A23D9191C13
:10EA08007F226231114001291DD9191C4E31114054
:10EA1800032918D9191C48311140012913D9191C87
:10EA28004431114002290ED930331340012B0AD941
:10EA380007F0A8FB244B01210093244B244A01939F
:10EA4800F72304F0E9FC07F09DFB224B204F0093CD
:10EA5800214B3A1C0193069B01210493079B0296C4
:10EA680005930394FA2304F0D7FC07F08BFB642387
:10EA7800291C321C00930BAB04F05EFC07F082FBF0
:10EA8800144B3A1C0093154B08AF01930BAB029340
:10EA98000121FE2304F0C0FC381C00210C2209F0DF
:10EAA80002FC6B461B8BFE807B80079BBD60002BA6
:10EAB80001D0012300E00223201C391C3B70FFF722
:10EAC800E7F925B0F0BDC046BEC4020091A502001A
:10EAD800C59E0200BFA50200C9A50200FBCC02002A
:10EAE80092DF7047A9DF7047F0B50124161C022297
:10EAF8008DB0214B08AD1C702B780F1C9343A3439A
:10EB08002B70059007F05EFC038C2B8107F05AFCF4
:10EB1800438CAE8106AE6B813780778007F052FC5C
:10EB2800C389B38007F04EFC038A291C321C059860
:10EB3800F380FFF7B3F9114E051E0DD007F022FB45
:10EB48000F4B029500930F4B211C0193321C73232A
:10EB580004F062FC00200DE00B4B188007F012FB5C
:10EB68000A4B211C00930A4B321C01937B2304F0AF
:10EB780053FC201C0DB0F0BD703C0020089D020025
:10EB8800BEC40200F8A5020054370020299F0200E5
:10EB980005A6020070B5051C122000218CB004AE39
:10EBA80010226844318009F07EFB022207AC237CE6
:10EBB800201C13432374144B0E3219682C3109F0AE
:10EBC80055FB0323227C281C13404022311C13438D
:10EBD800221C2374FFF764F9041E04D08E210B4A0B
:10EBE800490008F03BFF07F0CDFA094B0295009366
:10EBF800084B039401938F230121074A5B0004F01B
:10EC08000BFC0CB070BDC046503C0020FF9C0200BD
:10EC18004B9B02000DA60200089D020086DF70478C
:10EC280076DF704775DF7047031C027D2C331A703E
:10EC3800021C01232E322D30137003707047704769
:10EC480070477047F0B516258BB002ABED18031C62
:10EC5800041C061C4D332934FF33FF3405932288E6
:10EC68002789AB1E60681A80391C0AF03FFA059B99
:10EC780040420C3428706F7004359C42EFD107ABCA
:10EC8800002201930C23009202930392301C352139
:10EC98000B3B01F05FFC0BB0F0BD08B500F0AEFE19
:10ECA80008BD000010B5041C00F0A8FED023002207
:10ECB8005B00E2543133FF33E218C833E318002114
:10ECC80002C29A42FBD18C22D200A118002204C3AE
:10ECD8008B42FBD18C23DB00E250014BE25010BD8C
:10ECE80064040000074B10B51A1C083202601A1C95
:10ECF800041C503264334260836000F0DFFD201C46
:10ED080010BDC04648A6020008B4024B9C46043811
:10ED180008BC6047EDEC010008B4024B9C4608387B
:10ED280008BC6047EDEC010010B5041CFFF7DAFFE2
:10ED3800201C08F03DFF201C10BD000008B4024B49
:10ED48009C46043808BC604731ED010008B4024B0A
:10ED58009C46083808BC604731ED010008B5092910
:10ED680003D1F020000108F071FD08BD031C30B587
:10ED7800027D2C331A70021C01232E321370013AC3
:10ED880013701E224286DC320286021CBA213432FB
:10ED98001170117A083200290DD1011C041C3D3173
:10EDA8009C250B70FF213E34E5714730383D2170BA
:10EDB80025720170137030BDF0B595B006AF531AC7
:10EDC800FA60BB60058E041C291C181C0AF014FA92
:10EDD800F8680E1C291C0AF00FFA8E4200D2C2E015
:10EDE800D0235B00E65C6B463B610023FB619E42DF
:10EDF80025D06A46B3007B610A33DB08DB00D31AEF
:10EE08009D46002506ABBB61B422E6216319890043
:10EE180092009A185B18196810680AF067F9BB69BC
:10EE280058517B6904359D42EED100252B1CB969E8
:10EE38009A008A580133AD18B342F8DBFD613B698B
:10EE48009D4607F09FF9574B01210093564B574AAF
:10EE580001938B2304F0E0FAB4239B00E518231CEC
:10EE6800A233FF333B6100237D61BB61D0235B008C
:10EE7800E35CBA699A4222DA7B69C8331B687B6013
:10EE88007B69796801CB7B610AF030F9386007F05B
:10EE980079F9444B01210093454B444A01933B695E
:10EEA80002933B6803937B680493912304F0B4FABC
:10EEB800BB690133BB613B6906333B61D6E707F0A9
:10EEC80061F9384B029600933A4B01210193FB6993
:10EED800364A0393942304F09FFA002E2CD024235F
:10EEE800FB181A780123134066221343423ABA18D2
:10EEF8001370E2682520131C2A331978381801701A
:10EF080026212B32127879180A7027220023BA1882
:10EF1800137028222921BA181370227D79180A70D3
:10EF28002B22BA181370FA6920693A632422B91897
:10EF3800143AFE6207F09AFED02300225B00E254E6
:10EF4800F933FF33E318002204C59D42FBD18C221C
:10EF5800D200A118002204C38B42FBD18C23DB0012
:10EF6800E250154BE250658EB868291C0AF044F946
:10EF7800F8680E1C291C0AF03FF98E420ED3231C98
:10EF8800FE335B8D002B02D0201CFFF75BFE201C9C
:10EF98002930FF300021782209F085F9BD460FB0ED
:10EFA800F0BDC046379C0200D7A60200C4A60200E6
:10EFB80004A7020017A7020064040000031CF0B5B0
:10EFC8002E331B7899B0002B00D103E20B881D2B40
:10EFD80000D0FFE10B7CDA080B920A2A15DD0A1C27
:10EFE800CC7D8D7D24022C43BB4D1132AC420CD11B
:10EFF800D479F02C09D1B94D147A2D68527A2D8D17
:10F0080012022243954200D1E4E1DA0700D5E1E19A
:10F018005B079B0F11930B1C11330C93CB7B0E1CBE
:10F02800097E071C0D93412912D1737E6E2B0FD1D7
:10F03800B37E642B0CD1F37E722B09D1337F6F2BF7
:10F0480006D1737F692B03D1B37F642B00D157E1BD
:10F05800B07D4C2805D1F37D002B02D1012901D1C7
:10F068004EE100230B9A934213DA0C9AD218547883
:10F07800092C09D19478692C06D1D4784F2C03D166
:10F088001279532A00D13BE10C9AD25C01329B18C9
:10F09800E8E7422802D1F37D632B08D02E2008AB85
:10F0A800C0180023727D0380FF2A2ED10EE06E293E
:10F0B800F4D107F067F88A4B01210093894B8A4AFB
:10F0C8000193FE23FF3304F0A7F919E1B27D4D2A1D
:10F0D8001BD1F27D022A18D1327E022A15D1727E06
:10F0E800002A26D1B27E002A23D1F27E002A20D11E
:10F0F800327F002A09D01CE00C9AD21851780929CD
:10F1080007D00C9AD25C01329B180B9A9342F3DB1E
:10F1180014E091786129F4D1D1787429F1D1117969
:10F128006929EED151794F29EBD19279532AE8D147
:10F13800C0E0311C0222193109F098F82E2308AAE0
:10F148009B181D88002D2DD03B1C00242933FF332C
:10F158001A88AA4220D107F015F8614B039400934E
:10F16800624B614A0193982302955B00012104F0E8
:10F1780053F90C235C433C19231CFE335A8E5D85DE
:10F1880001325A8634226B469B18FC341B78226B5A
:10F198005BB2D31A236305E0002ADCD001340C33B8
:10F1A8000A2CD5D13B1C3C331B78002B00D111E134
:10F1B8003B1C3E331B78FF2B03D0327A9A4200D097
:10F1C80008E13B1C47331B78FF2B03D0119A93426D
:10F1D80000D0FFE03B1C6A463421002445331B78ED
:10F1E800521814575BB2A34200DDF3E03B1C4633D0
:10F1F8001B785BB2A34200DAECE03B1C3D331B7882
:10F20800022B3BD106F0BEFF394B01210093394B4D
:10F21800354A01935223FF3304F0FEF8012214AD5E
:10F228002B7808A91340773213432B70FB68473AB1
:10F238005218191C2A3109782B3311701B78352084
:10F248005370332308AA9B180022311C1A705A7075
:10F2580008ABC0180931063209F008F801233B222F
:10F2680008A96B73634252189BB213701B0A537040
:10F278003869291C0E22002307F0F8FC06F082FFEB
:10F288001B4B029400931C4B012101930B9B164AC4
:10F298000393737A0493B37A0593F37A0693337BD3
:10F2A8000793737B0893B37B09936223FF3304F0BE
:10F2B800B3F88FE006F066FF094B012100930F4B6E
:10F2C800094A01932823FF3304F0A6F82E230722C6
:10F2D80008A95B181A8031E74D020000503C002055
:10F2E800379C020034A70200C4A6020048A7020007
:10F2F800A79E020065A702006DA70200B8A702003A
:10F308003B1C6A463421343352181B7812785BB29E
:10F3180052B21092934200DBC0E68C22D200BB5856
:10F3280006240133BB502C4A109BB9585B18BB50BC
:10F33800331C09330E93D0235B00FB5C0F933B1CFB
:10F34800A233FF330A930F9B0A9D5C43A234FF3418
:10F358003C19A54208D0281C0E99062208F077FF10
:10F3680006350028F5D110E00F9B312B0DD8062269
:10F378000F9B0E995343F818A230FF3008F076FF20
:10F38800D0225200BB5C0133BB54B4239B00FC1851
:10F39800313BFF3BFD5C9B3BFF3B5D43A235FF35AB
:10F3A8007D190A9BAB4200D178E60A980E9906228D
:10F3B80008F04DFF002808D12368109A9B1A221CD8
:10F3C8002360C8321368013313600A9B0434063380
:10F3D8000A93E6E719B0F0BD64040000F0B51C1C00
:10F3E8008BB010AB1B88051C0093231C00F026FF74
:10F3F800012223789343662B27D162792B7D9A4289
:10F4080073D1E679002E70D1211C08A80831042296
:10F4180008F02CFF211C04220C3109A808F026FF53
:10F4280006F0B0FE324B62780093A378311C1B02C1
:10F43800134301932B7D2F4A0293089B0393099B47
:10F448000493D62304F03AFA4FE06A2B4DD1E379BE
:10F45800012B4AD106F096FE274B62780093A378D9
:10F46800244D1B02134301936379002102932A1C44
:10F47800E12304F023FA231C00270A330793BE0074
:10F48800A619737A327A1B0213431FD0002F08D0B3
:10F4980006F078FE194B002100932A1CE42304F09F
:10F4A8000DFA06F06FFE164B00210093737A327A3C
:10F4B8001B0213430193079B2A1C1B785BB2029320
:10F4C800079B5B780393E52304F0F8F9079B013762
:10F4D80004330793032FD2D106F054FE094B0021C1
:10F4E80000932A1CE82304F0E9F90BB0F0BDC046EC
:10F4F800BFA70200C4A6020007A80200A2BA020021
:10F5080043A80200DFB90200F8B50A684B68051C79
:10F518009E1A00230F1CB4100360436083609C4252
:10F5280008D00E4B9C4201D908F04CFB301C08F067
:10F538002DFB041CA6192C606C60AE607E683F68C9
:10F54800B74208D0002C03D0201C391C08F003FD5A
:10F5580004340437F4E7281C6C60F8BDFFFFFF3F54
:10F56800F0B593B004AF7862536810680E1C141C91
:10F578001B1A072B0DD97D6A04301835291C05F094
:10F58800B4FC002805D0301C7F4905F0AEFC0028EB
:10F598001AD12823311CF81808F0DDFC2C23211C73
:10F5A800F818FFF7B1FF2823F9180433FA18786A16
:10F5B80000F072FA2C23051CF81808F0A4F9282387
:10F5C800F81808F0ADFBDAE02368291C181D05F0CF
:10F5D8008CFC051E00D1D2E020686C4905F085FC42
:10F5E800002804D07B6ADB683B625B8D04E02368FB
:10F5F800186808F0CAFD83B2FB61206863681B1AAB
:10F60800132B66D90830624905F06FFC051E60D0DF
:10F618006B4621687B6063685B1A9B10D81EC0B27A
:10F6280042087A610122104051D0013B9B00585892
:10F6380008F0ABFDC3B2BB616A467B695B00FB6047
:10F648000733DB08DB00D31A9D4604ABBB600023FD
:10F658003B623B6AFA68934228D03A6ABB68D01C7E
:10F668009E1883003B613A692368002198580A2252
:10F6780009F00AF91F223378104093431843602396
:10F68800727818432033134073703B693070181D2B
:10F6980023684049181805F028FC7F22C3017078B8
:10F6A800104018433B6A70700233D1E7BB693321BD
:10F6B8000093BB6801937B695B000293002303936B
:10F6C800786AFA6900F046FF7B689D4657E0B861A2
:10F6D800B2E7206863681B1A9B10032B05D108301A
:10F6E8002D4905F002FC051E0BD1206863681B1A22
:10F6F8000F2B43D90830294905F0F7FB051E13D114
:10F708003CE00CCC00209B1A172B03D9506908F059
:10F718003CFDC0B200230090019302930393786AE2
:10F728003321FA69013326E020681D490C3005F0C1
:10F73800DCFB2C23FE180123002808D12068194976
:10F748000C3005F0D2FB0423002800D102233370CB
:10F7580000200CCC9B1A132B03D9106908F015FD57
:10F76800C0B2012302930023332103930090019632
:10F77800786AFA69033300F0EDFE00E00025281CE2
:10F78800BD460FB0F0BDC0467BA8020062A80200CB
:10F7980067A802006EA8020073A8020077A80200FA
:10F7A80052C70200549E020008B4024B9C4604381B
:10F7B80008BC604769F50100F0B5061C8DB0081C4F
:10F7C8000C1C2B49171C05F090FB051E0FD0331C91
:10F7D800FE335B8D002B02D0301CFFF733FA301C50
:10F7E800293000217822FF3008F05DFD3CE0201C24
:10F7F800204905F07AFB051E22D0341C4D362934E9
:10F80800FF36FF34079606F0BDFC1B4B2689009394
:10F818001A4B071C01932388311C0293606809F076
:10F8280065FC922340420390FF330496381C012163
:10F83800134A03F0F1FD079B0C349C42E3D113E01B
:10F84800211C08A808F087FB391C09A8FFF75CFEF3
:10F8580008A909AA301C00F01FF9051C09A808F01E
:10F8680052F808A808F05CFA281C0DB0F0BDC04694
:10F8780082A802008FA80200379C02009BA8020001
:10F88800C4A6020008B4024B9C46043808BC604772
:10F89800C1F70100031C027D2C331A70021C0123DE
:10F8A8002E322D30137003707047704708B4024B26
:10F8B8009C46083808BC6047B3F801007047000050
:10F8C80008B4024B9C46043808BC6047C5F80100E0
:10F8D80008B4024B9C46083808BC6047C5F80100CC
:10F8E8007047000008B4024B9C46043808BC6047C7
:10F8F800E9F8010008B4024B9C46083808BC604788
:10F90800E9F8010010B5041C08F052F9201C10BDDC
:10F9180008B4024B9C46043808BC60470DF9010046
:10F9280008B4024B9C46083808BC60470DF9010032
:10F9380010B5041C08F03CF9201C10BD08B4024B9B
:10F948009C46043808BC604739F9010008B4024BEA
:10F958009C46083808BC604739F9010070B5041C9A
:10F9680006F030FD4378606A002B06D0FF23037051
:10F978002368201C5B69984713E080220B4B5205D3
:10F988005969013101D05B6902E0516913694B4340
:10F998001669E18A228DCD017100691AC91808F02B
:10F9A80065FC2368201C9B68984770BD00100010F8
:10F9B800836B07B5002B15D0934213D206F0E2FBF8
:10F9C800094B01210093094B094A01934B2303F08A
:10F9D80023FDBFF34F8F074A074BDA60BFF34F8F02
:10F9E800C046FDE707BDC046469C0200B9A9020013
:10F9F800A4A902000400FA0500ED00E030B5436A4E
:10FA080085B01B78041C1C4DFF2B11D106F0BAFBE6
:10FA18001A4B012100931A4B2A1C0193237D029350
:10FA2800542303F0F9FC2368201C5B69984721E004
:10FA3800027D9A420ED006F0A5FB124B01210093DD
:10FA4800114B2A1C0193636A1B780293237D03934D
:10FA58005A230DE006F096FB084B012100930B4B4F
:10FA68002A1C0193237D0293636A5B7803935E23C8
:10FA780003F0D2FC05B030BDCFA90200DAA902001C
:10FA8800E1A90200BEC402000AAA02002CAA0200D0
:10FA980008B5FFF7B3FF08BDF0B5136854688DB01B
:10FAA80000AFE41A072C20D9061C0D1C311C181DA8
:10FAB8001831141C05F019FA002816D020686E4970
:10FAC80005F013FA002813D0F3685B8D281C6B49E6
:10FAD8003B6105F00AFA7861002859D02368656807
:10FAE800FB60ED1AAD10022D08D800237B61BEE043
:10FAF8002368186808F049FB83B2E7E76B463B6068
:10FB0800FB6803219B68BB600C3B1868013009F057
:10FB1800EDFA83B27B60041C0023032D04D0FB683C
:10FB2800D86808F032FBC3B26A46A4B20F34E408BE
:10FB3800E400121B012464209546117821400143FA
:10FB48001170F16868460D1C2A352D78001905706A
:10FB58002B31097841706946387CC8703869000AC9
:10FB680008710021D171317D9371517106F00AFB42
:10FB780002AAB9687B6803F0CDFC7A686946083246
:10FB8800231C92B2306907F071F83B689D466EE01D
:10FB9800281C3B4905F0A9F97861002827D00CCC2E
:10FBA8009B1A9B10022BA0D13A7F013B1340642281
:10FBB80013433B77F3681A1C2A3212782B337A776F
:10FBC8001B782122BB773B7CBA18FB773B69180A64
:10FBD8002023FB181870337D306913702322042307
:10FBE800BA1813701833F918082200233DE0281CAE
:10FBF800244905F07AF97861002800D175E7206872
:10FC08002149083005F071F90CCC051C9B1A00211C
:10FC18000F2B03D9D06808F0B8FAC1B201236420C9
:10FC28003A7F1A4002433A77F268101C2A3000786B
:10FC38002B3278771278BA773A7CFA773A69100AD1
:10FC48002022BA1810702120327D38180270232023
:10FC58000222381802702032BA1811702422BA18F9
:10FC680015701C223069B918133A06F0FFFFBD461B
:10FC780078690DB0F0BDC04662A802004FAA020024
:10FC88005AAA020065AA020052C7020008B4024B31
:10FC98009C46043808BC6047A1FA0100F0B55368D7
:10FCA800061C106891B00D1C141C1B1A072B15D9C3
:10FCB800311C0430183105F018F900280ED02068DE
:10FCC800A44905F012F900281DD0F3685B8D281CA3
:10FCD800A149019305F009F900281AD1291C06A8A1
:10FCE80008F039F9211C07A8FFF70EFC06A907AA96
:10FCF800301CFFF7D1FE029007A807F004FE06A803
:10FD080008F00EF823E12368186808F03EFA83B279
:10FD1800DDE7206863681B1A132B4BD908308F491D
:10FD280005F0E3F80290002844D0236807ADD868AE
:10FD380008F02BFA236887B2186908F026FA83B20C
:10FD4800039301232A7800201340662213432B7063
:10FD5800F36806AA191C2A3109782B3351711B78CC
:10FD680093716A46127906ABDA71019A120A1A720D
:10FD7800337D22686B716368E8719B1A172B03D96E
:10FD8800506908F002FAC0B26B469B8922686B8101
:10FD98006368A8712F819B1A172B07D906F0F2F90F
:10FDA80023680AAA5969102303F0B4FB3069291C97
:10FDB8001C2263E0206863681B1A1B2B62D9083079
:10FDC800674905F092F8029000285BD0236800216B
:10FDD800D8680A2208F058FD236800210A22071C67
:10FDE800186908F051FD23680390586908F0CDF9A7
:10FDF80083B20493236807AD986908F0C6F9012215
:10FE0800662183B205932B7813400B432B70F3685C
:10FE180006A9181C2A3000782B3348711B788B717F
:10FE28006946097906ABD9710199080A1872337DB8
:10FE3800EA716B712268636800209B1A1F2B03D933
:10FE4800D06908F0A2F9C0B2039B2268EB606B4648
:10FE58001B8AA8712B826B469B8AAF606B82636892
:10FE68009B1A1F2B07D906F08DF923680CAAD969AC
:10FE7800102303F04FFB2422306907A9012306F061
:10FE8800F5FE64E0206863681B1A172B00D825E785
:10FE98000830344905F029F80290002800D11DE700
:10FEA800236807AF186908F070F9236885B25869A4
:10FEB80008F06BF983B2039301233A781340662262
:10FEC80013433B70F36806AA191C2A3109782B33AF
:10FED80051711B7893716A46127906ABDA71019AEF
:10FEE800100A1872337D22687B710223FB716368E4
:10FEF80000209B1A1B2B03D9906908F046F9C0B261
:10FF0800B87127680522F96809A808F0AFF9112324
:10FF180006AA9B181D702D0A5D7013239B186A464C
:10FF2800127B1A70039A120A5A706368DF1B1B2F20
:10FF380009D906F027F915222368996906ABD21862
:10FF4800102303F0E7FA306907A9212296E70298FF
:10FF580011B0F0BD62A802007BA80200A1CB02008C
:10FF680070AA020077AA020008B4024B9C46043823
:10FF780008BC6047A5FC0100F0B5A84C5379A5441E
:10FF8800041C007D04AF9C46984200D041E10B89D7
:10FF9800161C083B9BB2FB60D579002D5FD1606AC7
:10FFA800527A43789A423DD1228DF968131F9942BB
:10FFB80044D10378291CBB6008F075F9311CFA6834
:10FFC800606A083108F052F9636A3A7A01211A70B6
:10FFD80064223B7C20690B4013433B74E3681A1C82
:10FFE8002A3212782B337A741B787278BB74B37800
:08FFF8001B021343FB741B0AFA
:020000022000DC
:100000003B753B7A09227B75B379F975BB75102373
:10001000F9182B1C3D7606F02DFE2368201C9B68EA
:1000200098472368201CDB68984790E006F0AEF8FC
:100030007D4B291C0093237D7C4A0193FB2303F015
:1000400041FC84E006F0A2F8794B291C0093237D43
:10005000764A0193FB680293238D043B0393FC23B0
:1000600003F030FC73E0042D3BD16B467B60228DA6
:100070006946131C08333B600733DB08DB00CB1AEF
:100080009D46012304AD29780B4064210B432B705E
:10009000E36853392A331B7869440B70E3682B33C8
:1000A0001B784B70B178737809028C461321694430
:1000B000B96061460B43B9680B701B0A4B706871DD
:1000C000B37906A8AB710523616AEB7108F0D2F829
:1000D00000233A882069291C06F0CCFD7B689D46E8
:1000E00035E0022D33D1E3681A1C6C3344321168B9
:1000F000002929D0087D604526D14B6A327A9A7052
:1001000001233A7C2069134064221343E2683B7464
:10011000131C2A3319782B32797412787178BA74D7
:10012000B278002312020A43FA74120A3A75227D49
:100130007A75B2793B76BA750322FA750D32B91821
:10014000073A06F097FD02E004329A42CFD1F379E4
:10015000012B1ED106F01AF8364B344C0093B378BD
:1001600072781B0213430193737900210293992340
:10017000221C5B0003F0A6FB06F008F82E4B0021C2
:100180000093B379221C0193337A02933423FF3313
:100190001FE0032B20D105F0F9FF284B234C0093DF
:1001A000B37872781B021343019373790021029391
:1001B0003823221CFF3303F085FB05F0E7FF1E4BBD
:1001C00000210093B379221C0193337A02939C237C
:1001D0005B0003F077FB20E0052B1ED105F0D6FF76
:1001E000C823311C0093B83B0831FA68FB1803F0B0
:1001F000A7F805F0CBFF124B00210093B37872787B
:100200001B0213430193237D084A02931023FB181A
:1002100003934023FF3303F055FBBD46CD239B00E2
:100220009D44F0BDBCFCFFFF7EAA0200CFA90200E6
:10023000C5AA02001CAB020051AB020071AB020068
:10024000A6AB020010B501241A78A243642A02D199
:100250001A1CFFF795FE10BDF0B51C1C01278DB0D0
:1002600012AB1B88051C0093231CFFF7EBFF2378C0
:10027000BB43662B00D0B3E062792B7D9A4200D05D
:10028000AEE0E679002E28D105F080FF9C4B227A63
:1002900000939C4B391C0193637A1B021343029316
:1002A000E37AA27A1B0213430393974AE32303F0F2
:1002B000B7F8E86804F05CF9637A227AE8681B0210
:1002C00013434385E37AA27A1B021343038502F0AA
:1002D00087F8EB689D331E70FBE0012E1FD180274D
:1002E0007F053B6E627A9C46207AA37A1202024313
:1002F0001B0413431A1CE37A1B06134363456FD197
:10030000627B207BA37B120202431B0413431A1C53
:10031000E37B7F6E1B061343BB4261D1A2E0022E3A
:100320005ED106F053F8011C201C4C310830052228
:1003300007F091FF0990002852D105F027FF704B7C
:10034000627B0093714B391C0193A37B1B02134307
:100350000293237CE27B1B0213430393637C6A4A70
:100360000493E37E0593631CDB7F06938D235B0080
:1003700003F056F8E86804F0FBF8211CA37B627BCD
:10038000E8681B0213434385237CE27B1B02134373
:100390000385113110222C3007F06CFFE86802F061
:1003A0001FF824216A46EB68521812789D331A70A0
:1003B000574B186807F064F9564B186807F060F956
:1003C000554B186807F05CF9A77905F0FFFF281C6A
:1003D000311C3A1C06F0CDFDEB68DB6F5033AB638C
:1003E000012223789343682B00D087E062792B7D2C
:1003F0009A4200D082E0E379002B7FD1237A474EE6
:10040000002B06D0464E012B03D0464E022B00D1C6
:10041000454E211C0AAF0A310522381C07F02AFF7D
:1004200000237B7105F0B2FE404B62780093A37805
:1004300000211B02134301932B7D334A03934E2368
:100440000296FF3303F03EFA05F0A0FE384B029708
:100450000093A37900210193A7232B4A5B0003F0AB
:1004600031FA4BE005F092FE254B227C0093314B94
:10047000311C0193637C1B0213430293E37CA27C37
:100480001B0213430393237D1F4A0493A37F059309
:10049000231DDB7F0693FD2302F0C2FFE86804F012
:1004A00067F8211C637C227CE8681B0213434385A8
:1004B000E37CA27C1B0213430385102214312C30F1
:1004C00007F0D8FEE86801F08BFF0022EB689D334F
:1004D0001A700F4B186807F0C1F80E4B186807F038
:1004E000CFF80D4B186807F0B9F8A77905F06EFF43
:1004F000281C311C3A1C06F03CFD71E70DB0F0BD24
:10050000469C0200F0AB0200A4A9020028AC020045
:10051000783C0020743C00207C3C0020E0AB0200D2
:10052000E8AB020028C8020077AA020083AC0200F0
:10053000B9AC0200DFAC0200032337B5051C048D03
:100540009C4305F04BFEEB8A0095696AA2B206F067
:10055000E9FD37BD77DF704772DF7047F0B585B0D2
:1005600000AFFB602823FB18061C18781023B86026
:100570002420FB18181800783C8E7860201C6D46EB
:100580000F30C008C000281A85466D4628784900FB
:10059000844601206346184001432970F1683B7A84
:1005A0002A3109786970F1682B310978EA70120AEA
:1005B000A9702A71327DAB713B7B6A71EB71FB6A6A
:1005C000002B06D0002C04D002A8191C221C07F016
:1005D00051FE0834A2B23069291C7B6806F04AFB40
:1005E000BD4605B0F0BD0000F7B5041C08A80E1C00
:1005F00002C82361058814480023071C08372760B8
:10060000071C6430A060201C50376362238567603C
:10061000E26026750A22E582183007F02BFE201DC5
:1006200003F09CF905F0B2FD051C6A4601A80749D4
:1006300007F0C6FC281C01A902F0C8FE01A807F0BB
:1006400073FB201CFEBDC04628A90200DAA90200E7
:1006500070B5437B90B0041C204D002B00D0204D82
:1006600005F094FD9C2300219B00E2581668938AB4
:1006700000911C4902950191D8218900615A03918A
:10068000217A0491E721890061580591E8218900C8
:10069000615E06911449615E0791D168891B0891DA
:1006A00012690A93921B0992227D01210B92E27C2E
:1006B0000C92E6229200A25C0D920C4AA25C8A4344
:1006C0002E3A544254411B199BB20E93EE23032140
:1006D000074AFF3302F0A4FE10B070BD3AAD02002D
:1006E00040AD020046AD0200A203000089020000F6
:1006F0001A9F0200F0B5037A8BB0041C3D4E3E4FAA
:10070000022B0CD905F042FD3C4B00970193237B53
:1007100001210293321CBB2302F082FE68E005F047
:1007200035FD374B01210193321CC023009702F0A5
:1007300077FE0323012206AD23722B781340273264
:1007400013432B7023680F3A191C2A3109786A4425
:1007500011702B331B7853701B2331226B441A709A
:1007600044325A70E4221D239200A25C6B441A703A
:10077000E4229200A218517859709178D278997039
:10078000DA70E52221239200A25C6B441A70E52204
:100790009200A21852785A7023231A4A6B44917A15
:1007A0001970D27A5A702523174A6B44A25C1A70CA
:1007B000154AA21852785A7005F0E8FC134B0097BE
:1007C0000193237B012102936B681A0A2B7A1B0683
:1007D00013430393AB68321C1B021B140493D623F0
:1007E00002F01EFE6068211C2A1C102306F07EFA0F
:1007F0000BB0F0BD1A9F02004F9B0200AFAD02008C
:10080000EAAD020084370020960300001AAE020011
:10081000002208B5037A011C83720272052B03D1F2
:10082000406803F0CFFF04E0024B1321C05AFEF7EB
:10083000FBF908BD62030000F0B5041C8DB0079100
:100840000B894D6806938F7805F0A0FC9B4B9C4E5E
:1008500000939C4B012101932B78321C5B0802937F
:10086000069B0393F32302F0DBFD2B79EA781B024E
:1008700013432268518D994230D093498B422DD039
:1008800092498B420FD13E321378022B26D06068FA
:1008900006F0CCF9011E21D0009760682A1C069B47
:1008A00004F016FB1AE0AB786A781B021343884AFF
:1008B00088499A1892B28A4204D8013B9BB26B7065
:1008C0001B0AAB7001222B7893432E2B06D0009786
:1008D0006068211C2A1C069B04F0D2FA01272B78A1
:1008E000BB43282B00D007E1069B102B00D0DBE098
:1008F0002B7BEA7A1B021343DB229200A3520323D1
:10090000237205F043FC744B391C0093734B321C6B
:1009100001933823FF3302F083FD05F037FC6E4B63
:10092000391C00936E4B0193AB786A781B0213431A
:100930000293AA796B7912021A43EB791B041343D1
:100940001A1C2B7A1B0613430393AB7A6A7A1B0299
:1009500013431B041B140493AB7B6A7B1B021343DE
:100960001B041B1405939D23321C5B0002F058FDF1
:10097000AA796879EB79120202431B0413431A1C0B
:100980002B7A1B061343E4229200A058834211D114
:1009900005F0FCFB504B391C0093524B321C019369
:1009A000237B02934023FF3302F03AFD201CFFF724
:1009B0002FFFC3E1AA7A697A12020A43E52189006E
:1009C000615E12B28A4202DB15D1834213D205F076
:1009D000DDFB414B01210093434B321C0193A323C8
:1009E0005B0002F01DFD637B002B00D0A6E1201C04
:1009F000FFF780FEA2E105F0C9FB374B321C0093E4
:100A00003A4B01210193A9235B0002F009FD211C4F
:100A1000606803F067FF276801223B1C90331A804F
:100A2000381C03F01FF894373860AB786A781B02E3
:100A30001343D822012108AD9200A3522A7802A8BC
:100A40000A4029310A432A70226811390918101CFA
:100A50002A3000782B32087012784A701B2202A9C3
:100A6000521813701B0A53701D2301225B18524247
:100A70001A705A7005F08AFB174B012100931C4B2A
:100A800001932B79EA781B02134302936B68321CA3
:100A90001B021B1403936C23FF3302F0C1FC60683C
:100AA000211C2A1C0823C9E005F070FB034B391CEC
:100AB0000093104B321C019374231EE1299F020006
:100AC0001A9F02004CAE0200317500001979000037
:100AD000CF8AFFFF167900004F9B0200EAAD0200AB
:100AE0006CAE0200A9AE0200F1AE0200FDAE020043
:100AF0000AAF02002BAF02002A2B00D0ABE0069B0E
:100B0000082B00D09DE08E4BE35CBB4304D12368EF
:100B10006C331B78062B0BD005F038FB894B012179
:100B20000093894B321C0193BF235B0002F078FCD9
:100B3000291CDF25824B0822E01807F09BFB05F0FB
:100B400025FB824BAD000093814B824E0193635D88
:100B5000A25D1B02134302937F4B804FE25C013383
:100B6000E35C01211B0213431B041B140393C223E8
:100B70003A1C5B0002F054FC635DA25D1B02134350
:100B8000D82201262C219200A35208AD3832A65457
:100B90002A7802A832400A432A70226813390918B9
:100BA000101C2A3000782B32087012784A701B22F1
:100BB00002A9521813701B0A5370E4221D239200DD
:100BC000A25C5B181A70E4229200A2185178597046
:100BD0009178D2789970DA70E52321229B00E35A4C
:100BE00002A99B1952189BB213701B0A537023233E
:100BF0005B4A5B18A25C1A70594AA21852785A7064
:100C000005F0C4FA514B311C0093564B0193D82385
:100C10009B00E35A02936B681A0A2B7A1B06134354
:100C20000393AB683A1C1B021B1404939823FF33F5
:100C300002F0F6FB211C2A1C0D23606806F056F812
:100C40007CE005F0A3FA484B391C0093474B321C5B
:100C50000193A22351E02C2B53D1069B0D2B43D1A2
:100C6000434BE35CBB4304D123686C331B78062BF6
:100C70000BD005F08BFA334B012100933D4B321C16
:100C80000193D6235B0002F0CBFB394B291CE01803
:100C90000D2207F0EFFA05F079FA2C4B01210093B1
:100CA000354B0193354BE25C0133E35C1B0213438C
:100CB0000293334BE25C0133E3581B02134303936B
:100CC000304BE25C0133E35C1B0213431B041B1437
:100CD0000493D923321C5B0002F0A2FB2068211C84
:100CE0000022FDF717FB29E005F050FA1E4B391CD6
:100CF0000093254B321C0193BC23FF3302F090FB81
:100D00001CE02B79EA781B0213432268518D99422B
:100D10000ED0002B0CD01D491D48591889B28142B4
:100D200006D91C498B4209D13E321378022B05D1DA
:100D300063680799986803685B6998470DB0F0BDD0
:100D40007A030000BEC402004AAF02004F9B0200BB
:100D500069AF02007B0300007F0300001A9F0200BE
:100D6000960300008AAF0200299F0200BBAF020079
:100D700082030000CFAF0200EEAF02008303000049
:100D8000870300008B03000022B00200D08AFFFF1F
:100D9000E703000019790000E72370B500259B00E8
:100DA000C55001230375D82301269B00C574C55285
:100DB000284B7642C6523E33C552274B041CC554BD
:100DC000EB3BC554254BC5520633C55005F0FEFA22
:100DD000DE23428A9B00E252203325726572E5547D
