:020000021000EC
:10B000000080002009B401005D1F020055540200B9
:10B010000000000000000000000000000000000030
:10B020000000000000000000000000005D1F0200A2
:10B0300000000000000000005D1F02005D1F020014
:10B040005D1F02005D1F02005D1F02005D1F020008
:10B050005D1F0200000000005D1F02005D1F020076
:10B060005D1F02005D1F02005D1F02005D1F0200E8
:10B070005D1F02005D1F02005D1F02005D1F0200D8
:10B080005D1F0200311602005D1F02005D1F0200FD
:10B09000E51B0200FD150200D52202005D1F020023
:10B0A0005D1F02005D1F02000000000000000000A4
:10B0B0000000000000000000000000000000000090
:10B0C000FFFFFFFFFFFFFFFFFFFFFFFFFFFFFFFF90
:10B0D000FFFFFFFFFFFFFFFFFFFFFFFFFFFFFFFF80
:10B0E000FFFFFFFFFFFFFFFFFFFFFFFFFFFFFFFF70
:04B400000000000048
:10B4080080B500AF0AF000FE104A114B9A4207D0EF
:10B41800104B0E490E4A081C111C1A1C0BF0D2FDC9
:10B428000D4B0E4A101C00211A1C0BF0E8FD0AF007
:10B43800D3FD0B4B1B68181C0A490BF073F9031C4E
:10B448001A1C094B1A6000F04DF8FEE7802E002008
:10B45800F8BA0200540100005C160000D42F002046
:10B46800682F00200024F400642F0020F8B5C0469F
:10B47800F8BC08BC9E467047F8B5C046F8BC08BC86
:10B488009E46704710B5064C2378002B07D1054B14
:10B49800002B02D0044800E000BF0123237010BD38
:10B4A800D42F002000000000F8BA020008B5084BAD
:10B4B800002B03D00748084900E000BF074803688D
:10B4C800002B00D108BD064B002BFBD09847F9E7AD
:10B4D80000000000F8BA0200D82F0020D42F002066
:10B4E80000000000164B002B00D1144B9D46402253
:10B4F80092029A1A924600218B460F461348144A24
:10B50800121A0BF07CFD0F4B002B00D098470E4B06
:10B51800002B00D098470020002104000D000D48A2
:10B52800002802D00C480BF0D4FC0BF0F7FC2000EC
:10B53800290000F013F80BF0DBFCC04600000800FF
:10B54800008000200000000000000000D42F002030
:10B5580030460020DB6E020000000000F0B59BB012
:10B5680008F0E4F915235030037008F0DFF91623CA
:10B578005130037008F0DAF917235230037008F0DD
:10B58800D5F900235330037008F0D0F90B23543059
:10B59800037008F0CBF909235530037008F0C6F999
:10B5A8000A235630037008F0C1F908235730037096
:10B5B80008F0BCF901245830047008F0B7F9C12329
:10B5C8005930037008F0B2F95030057808F0AEF938
:10B5D800533006780C200AF0ABFD231CAB40A027A3
:10B5E80003601D1CA323FF05DB0006714471FD5099
:10B5F80000238360DF4B186008F098F95130057814
:10B6080008F094F9533006780C200AF091FD231CB9
:10B61800AB4003601D1CA323DB0006714471FD5081
:10B628000023D54E8360306008F080F952300578E9
:10B6380008F07CF9533003780C2009930AF078FD60
:10B6480024226B469B181B7844710371231CAB4062
:10B6580003601D1CA323DB00FD500023C74D83603E
:10B66800C44B2860186802F0B5FB306802F0C4FBD0
:10B67800286802F0AFFB08200AF05AFD051C50208C
:10B688000BF072FC0023EB801433AB80BC4B2860BA
:10B698001D6008F04BF957300378099308F046F914
:10B6A8005530067808F042F9563003780A9308F0C6
:10B6B8003DF95430057808F039F9331C0321C133BA
:10B6C800FF3358309B000278D9512B1C0020C1331E
:10B6D800FF339B00D851AB4BAB481E50AB481D50B5
:10B6E800002A13D0099AC132FF329200D1510021A9
:10B6F8000A9AC132FF329200D151A2220A99D2008D
:10B7080099500999083A9950A14A9C50A149A24ACE
:10B71800A24E99500421243A995001229A601A6045
:10B728000023F36008F002F9046E9D49201C0AF01A
:10B73800F9FF051C9B489C49684300190AF0F2FF71
:10B74800D322D2016A431419984A83B2504320186D
:10B7580080B20090964915A82A1C0BF08BFD954BDA
:10B7680010961C78002C27D01B2006F00BFF92485F
:10B7780006F02CFF1B2006F005FF904806F026FF78
:10B788008F4806F023FF8F4806F020FF8E4806F00A
:10B798001DFF8E4806F01AFF8D4806F017FF8D48EA
:10B7A80006F014FF15A806F011FF8B4806F00EFFEF
:10B7B8008A4806F00BFF08E001F0E2FE884B211CE6
:10B7C8000093884A4E2301F0ABFE0122864B15AE4A
:10B7D8001A7001F0D5FE854C854B0021221C009380
:10B7E8006F2301F09DFE01F0CBFE071C814D14AACA
:10B7F800291C301C0AF0B2FE311C381C01F0F2FD85
:10B80800301C0AF05FFD01F0BBFE071C14AA7A4940
:10B81800301C0AF0A3FE311C381C01F0E3FD301C7B
:10B828000AF050FD01F0ACFE071C14AA7349301C45
:10B838000AF094FE311C381C01F0D4FD301C0AF0CB
:10B8480041FD01F09DFE071C14AA6D49301C0AF049
:10B8580085FE311C381C01F0C5FD301C0AF032FD94
:10B8680001F08EFE674B00950193674B01211B6821
:10B87800221C9BB20293DB2301F0DEFD032201238D
:10B8880013A86249C270624A0370116048210023FC
:10B89800604A43701180604A60498370136006F003
:10B8A800A5FE002801D001F0BAF901225C4B1A70FC
:10B8B80080225C4BD2031A6001F062FE5A4B00955D
:10B8C80001930121221CEB2301F0B6FD574A584B86
:10B8D80000211A60301C14220BF091FB05233380E1
:10B8E80008F024F83A3003780125337208F01EF87E
:10B8F8003B300378B5727372337B2B433373002369
:10B9080033614C4B149301F03BFE4B4B4B4F01936F
:10B91800149B291C029382230097221C5B0001F0D0
:10B928008BFD301C14A90AF0D9F8002811D1149BFA
:10B93800404A934200D18CE001F022FE404B149A19
:10B9480001933C4B00979B1A0293291C221C0A2343
:10B958000BE0042878D101F013FE3A4B291C01931F
:10B96800149B221C02930E230097FF3301F064FD01
:10B978006FE0C04658440020544400208C44002006
:10B98800EC3B0020002000400C05000014050000DE
:10B998006C05000000509D0024050000FC200040BC
:10B9A80080969800806967FF10270000F0D8FFFF95
:10B9B800568202009A2E00205F82020063820200F3
:10B9C800B58202006682020087820200938202002A
:10B9D800968202009F820200AB820200B3820200BC
:10B9E80006830200F9820200E63400202183020067
:10B9F8002A8302003A830200F38302005D8C02006E
:10BA08003F830200438302000C300000B83D002051
:10BA1800F8350020E434002008360020A92302006D
:10BA2800F02F002000E100E06883020029540200A2
:10BA3800CC300020802E00207B830200368D02004F
:10BA48008C830200A98302001021F14AFF3109F01A
:10BA580061FF01200AF03CF8002804D08A21EC4A52
:10BA6800490009F057FF01200AF034F8002804D0F3
:10BA78008C21E74A490009F04DFF07F057FF643071
:10BA8800007840B20AF02CF8002804D08E21E04A51
:10BA9800490009F03FFF01F0A5FD01F071FD041C0C
:10BAA80014AADC49301C0AF059FD311C201C01F095
:10BAB80099FC301C0AF006FC18200AF039FBD64B1A
:10BAC80000271A1CBE324260BE220360C3601F708A
:10BAD8005F709F70DF700361D04B391C87820281D1
:10BAE80018604232CE480BF08AFA0322CD4B1A7006
:10BAF80007F01CFFA8200AF01BFBCB4B041C1A1CE8
:10BB0800083202601A1C50333032391C426083609C
:10BB18000773282248300BF072FAC44B01221C60CC
:10BB2800231C98331F60023B1A80023B6761103B5D
:10BB38001F741F8022331F70063B1F60043B1F6069
:10BB480000220023251DEF67A267E367231C8833C3
:10BB58001F600132183B1A705F701C331F605F60F2
:10BB6800DF76B34B186802F035F9B24B186802F06B
:10BB780031F9B14B186802F02DF9231CA4331F705A
:10BB8800201C07F0C1FE07F0D1FE231C4279A53323
:10BB98001A7007F045FFA94B8560186044200AF029
:10BBA800C7FAA74B0721009301230193A34B221C3B
:10BBB8001B68051C08F08AFEA24B1A1C4C3308327D
:10BBC8006B602A6001F0DCFC14AA09909E49301CC5
:10BBD8000AF0C4FC311C099801F004FC301C0AF07E
:10BBE80071FB2B1C30332B621423AB84EB1DDF77E6
:10BBF800281CAF62EF6203F045F8281C08F036FCF9
:10BC0800A564DC200AF094FA904B221C00930323CD
:10BC1800191C0193894B051C1B6808F057FE8C4BB7
:10BC28001A1C4C3308326B602A6001F0A9FC14AA74
:10BC380009908849301C0AF091FC311C099801F0E0
:10BC4800D1FB301C0AF03EFB2B1C26332B620C2345
:10BC58006F63AB84AF63281C08F008FC256550208F
:10BC68000AF066FA7C4B051C009304230193734B7E
:10BC78000121221C1B6808F029FE784B281C1A1C7D
:10BC88004C336B600123EB842B1C28332B62282355
:10BC980008322A60AB8408F0E9FB656530200AF0B9
:10BCA80047FA6F4B06370093644B01970521221C16
:10BCB8001B68051C08F00AFE6A4B1A1C4C33083234
:10BCC8006B602A6001F05CFC14AA09906649301C7C
:10BCD8000AF044FC311C099801F084FB301C0AF07E
:10BCE800F1FA2B1C26332B620823281CAB8408F09E
:10BCF800BDFBE5652C200AF01BFA5C4B391C009350
:10BD0800072301934D4B221C1B68051C08F0DEFD20
:10BD1800574B1A1C4C3308326B602A6001F030FC18
:10BD2800071C14AA5349301C0AF018FC311C381C93
:10BD380001F058FB301C0AF0C5FA2B1C26332B6285
:10BD48000423281CAB8408F091FB256607F0EEFD60
:10BD58003D300378002B21D0474A484B80211A6098
:10BD6800C022C520464B52008903995080001D58B7
:10BD7800444A2A40C0252D022A431A501A58520410
:10BD88000CD5414A5068002801D100F04EFF1368D5
:10BD9800194311600320012105F0E2FE14200AF086
:10BDA800C7F90021051CB42224230526018237483F
:10BDB800AA80EB802860A860E8600BF020F9256174
:10BDC800AA882B68E9889A18EB68D01A884204DB9D
:10BDD8005B18EB602B8A01332B82013E002EF3D1D6
:10BDE80007F0A4FD0378002B58D001F0C9FB284BBD
:10BDF80001210093274B284A01938C2301F01CFB57
:10BE080001235B42A361201C03F0C4FF5DE0C04630
:10BE18001A830200F0830200F12F0020B0440020B2
:10BE2800D0300020E83B002098800200C830002075
:10BE380058440020544400208C440020E034002062
:10BE48003CA9020098810200FB83020008A40200BA
:10BE580040810200048402000E840200F081020086
:10BE68001284020040800200198402002384020028
:10BE7800D07F02002684020065490200B03D002000
:10BE880000E100E0FF00FFFFB4300020F83C002094
:10BE98003A830200418402003884020001F0A2FBC8
:10BEA800231C15A918338B6030234B80231C0833BF
:10BEB800CB60031C051CA433186810224E600E804A
:10BEC80001F0AFF8281C07F03DFFD24B10201C6092
:10BED8000AF02EF9D04B00251A1C2C334360CF4BA7
:10BEE80008321860CE4B02601B68C560DA8CCD4BF7
:10BEF800041C1A6007F008FD01F042FB061C14AA96
:10BF0800C94915A80AF02AFB15A9301C01F06AFADC
:10BF180015A80AF0D7F901F033FB061C14AAC34987
:10BF280015A80AF01BFB15A9301C01F05BFA15A82F
:10BF38000AF0C8F901F024FB061C14AABC4915A88C
:10BF48000AF00CFB15A9301C01F04CFA15A80AF0F0
:10BF5800B9F907F065FDA06005F004FE0322B54BB2
:10BF6800C5201D60B44BFF261A70B44B013A191C4A
:10BF780018319A709A729A7459601A1C191C78327E
:10BF88004831D9605A618021C022AD4C1D705D7066
:10BF98001D725D721D745D742360AA4B49031D6098
:10BFA800A94B52001D70A94B80001D70A84B9950D9
:10BFB8001A58B2433F3E32431A501960A121A54A8C
:10BFC800C900555004381D58A3492940C0252D02E1
:10BFD80029431950A1481558A1490D60A14D297C44
:10BFE80011930B920C90002901D000F039FE012327
:10BFF8006B749D4B29746B6107F098FC8368FA2277
:10C00800590CD8030023520080185941FA22002302
:10C0180092000AF009FD2468002C01D100F028FEE6
:10C02800072304285CD96B69002B01D100F020FE9E
:10C038006B7C0026012B00D1061CEFF30581C90596
:10C04800C90D0223002925D01039CBB25AB2002AD3
:10C058000CDA0F221A40083A8449920892005218C2
:10C0680003210B408B405268DA4008E09208119B8C
:10C07800C03292009A58032319409940CA40D2B25C
:10C088009209D2B20023012A04D0033A57425741F9
:10C098000233DB1BDB00E3185F789C787A1CD2B292
:10C0A800A41A611E8C41197864422240914216D02C
:10C0B80018214F435968CF19002F10D001210C9C2B
:10C0C80039700B997D600959F860B96000213E61AB
:10C0D80079615A708022664B52035A6006E0042345
:10C0E800E221181CFF31634A09F014FC0022624B5C
:10C0F8001A60624C2378002B00D184E10023604F42
:10C1080010993B70C9685F4A012901D100F0B3FD5D
:10C11800FA2080000138C046C046C046C046C04626
:10C12800C046C046C046C046C046C046C046F1D11B
:10C13800D368012B00D066E1534B1E78002E05D042
:10C14800524806F043FA387806F01CFA237801249E
:10C15800002B39D04E4B1B78002B1ED1109BDB686F
:10C16800012BFBD10022474BDA60A323494ADB00AD
:10C17800D558EDB27F2D0DD1002CEBD0002E02D07A
:10C18800281C06F0FFF900223D4B1B19013B1A70D1
:10C19800013C17E0002E06D002E0351E0DD0002528
:10C1A800281C06F0EFF90D2D07D100233B559E42C0
:10C1B8000AD0394806F00AFA06E0F92CF5D8304BCF
:10C1C8001D550134E4B2C5E7FA222D4933480AF077
:10C1D800F9FE334D281C0AF0FEF8324C26686168D7
:10C1E800301C00F06AFF666025482F490BF076F88E
:10C1F8000A95041E0AD0281C211C0AF043F905E000
:10C20800002029490BF06AF8041E4FD1002CF7D101
:10C218009FE0C04690440020F8800200BC3A00200D
:10C22800C8300020C03A00205D8402006784020004
:10C2380072840200C0300020B43D00200835002080
:10C24800EC3C0020E43B0020BC300020DC34002023
:10C2580000E100E000100140FF00FFFF04050000BE
:10C26800D8340020E83400203954020018ED00E0EA
:10C27800FCE100E01A83020084430020E634002039
:10C28800F03B0020FC2000409A2E00207984020018
:10C29800D0340020002000407DB30200E83A00209E
:10C2A800F03C0020FC3500209482020014AA15A856
:10C2B800211C0AF053F9C44D6B68AA68934209D04F
:10C2C800002B04D0159A1A600992C04A15920433BB
:10C2D8006B603AE0281C09F0E5F8099000280AD0BC
:10C2E800BB4B984201D909F03FFF099B980009F020
:10C2F8001FFF061C00E0099E05CD131AF318002B3A
:10C3080003D015991960B14B1593011C331C914248
:10C3180008D0002B03D00D681D60AC4D0D600433B0
:10C328000431F4E70D1A00F0C8FEA74FAD08AD00C0
:10C33800386804357519002801D009F00BFF099BEE
:10C348003E609B00F6187D60BE6015A809F0BAFF34
:10C358005CE70A989F4900F009FF251C002824D0B3
:10C368001B2006F00FF99C4806F030F91B2006F058
:10C3780009F99A482CE0A3B2002693421BD33368EC
:10C38800974914A89F680AF0B8F88F4915A807F0CC
:10C398008FFA14A915AA301CB8472D1815A800F053
:10C3A8003FFF14A809F08EFF01348E4B1968CA8824
:10C3B8009442E0D305E00B681E1EE0D0A200D658D8
:10C3C800DDE7894B002D10D11B78002B03D087485F
:10C3D80006F0FCF817E001F0D3F801F0D1F8844B2F
:10C3E800291C0093834A82230BE01C78002C0AD175
:10C3F80001F0C6F801F0C4F87F4B211C00937F239D
:10C408007C4A01F08DF848237C4C7D49201C0B8028
:10C4180009F062FB251C002800D069E2278801F09A
:10C42800AFF87B1E9BB2774A542B02D8764A9B0002
:10C438009A58764B764E0093764B02920193C72317
:10C4480003975B000121321C00F0F6FF23881C3B98
:10C45800012B0BD901F094F8002300936E4B0321B4
:10C4680001939423321CFF3300F0E6FF2088103834
:10C478000B2800D986E00AF04BF906298585418505
:10C48800858585856C390026644B1E70A47D012C3A
:10C498000FD101F075F8624B624A0093624B211C80
:10C4A8000193FB2300F0C8FF0222604B1E80604B03
:10C4B8001A7001F065F85F4B012100935E4B5F4AEB
:10C4C8000193A22300F0B8FF5D4B0DE001F058F88E
:10C4D800584B012100935B4B584A0193237A0293EE
:10C4E800AC2300F0A9FF584B1B6849E0237A032BC3
:10C4F80048D10022494B1A70544BF5E7022215AD7A
:10C508002B7C281C13432B74514B0E321968303185
:10C518000AF058FD03232A7C291C134040221343A8
:10C5280000222B74A088131C09F00CFC041E03D0F5
:10C53800D421484A09F0EEF901F022F8464B02945A
:10C548000093464B012101933C4AD62300F074FF27
:10C5580018E0667A247A01F013F83F4B2709009314
:10C5680024073F4B240F01930296E2230397049478
:10C578000121324A00F060FF3A4B1B68002B01D0C2
:10C58800281C98471D4C23881B2B6FD01D2B06D0C9
:10C59800102B79D18020C00009F0B2FA74E0227C17
:10C5A800D2080A2A70DDE18A2F4B99426CD1237E8A
:10C5B800F02B69D1264B1F68A369B98C1B021B0C91
:10C5C8008B4261D161E3C046FC3500200445002060
:10C5D800FFFFFF3F848402005F8202006382020043
:10C5E800F03C0020EC3B00209A2E002088840200BA
:10C5F800B6840200AB840200FB840200B83D002030
:10C60800982E002048820200787E020031850200C0
:10C6180021830200388502004A850200C4300020C8
:10C62800728502005885020076850200B444002015
:10C638009844002041830200AC8502009A850200DC
:10C64800B0300020BD850200AC3D0020D43400206D
:10C65800C83000208E8502003F830200D485020086
:10C668000C860200043E00204D020000237A022BB3
:10C678000AD100F085FF824B01210093814B824A49
:10C6880001939A2300F0D8FE804C2388322B46D0A1
:10C698000AD8102B13D002D8012B5ED084E0112BBE
:10C6A8000FD0302B1ED07FE03A2B5BD002D8382B2E
:10C6B80053D079E0502B09D0522B09D074E0A288CE
:10C6C80001E001225242724B1A836DE0714B45E042
:10C6D8000021A0880A1C0B1C09F0E8FAB6210028E2
:10C6E80062D018E0A389002B5ED000F049FF6A4BA6
:10C6F80001210093694B6A4A0193CE2300F09CFE06
:10C70800638A15A90B80A38A4B80A08809F0CCFA0C
:10C71800002849D0D621634A09F0FCF844E0A389EF
:10C72800002B41D0E289604B9A423DD1584B227C84
:10C738009B7D9A4238D1E58A00F022FF564B0121B1
:10C7480000935A4B564A0193E42300F075FE584B68
:10C75800A0881B68291C984726E0564B1B68201C9C
:10C76800984721E000F00CFF534B01210093534BF5
:10C778004B4A01935023FF3300F05EFE00F000FFA8
:10C788000C2302254E494F480A7853431D54C318B9
:10C798000120586000209860622A01D801320A708E
:10C7A800A088132109F0D6FA474B1B68002B01D14A
:10C7B800002436E007F034F90024071C07F0B6F827
:10C7C8003C3003789C42F3DAA300FB181D6A2B7AED
:10C7D800002B1BD02D4E33881A1C103A1E2A15D850
:10C7E8003A4AB188AA5A914210D1122B0ED100F0C0
:10C7F800C7FE374B374A0093374B01210193C423B7
:10C80800FF3300F019FE7289344BEA520134D5E740
:10C81800231C12339B009858002807D101340A2C96
:10C828000DD0294B1A68002AF2D1F7E7036A9B78E2
:10C83800002BF3D0036815499B6A9847EEE700F090
:10C848009FFE274B274C0093274B01210193D323AD
:10C85800221C5B0000F0F0FD0C4B1B881C3B012BDD
:10C8680000D8D0E500F08CFE002300931F4B032175
:10C878000193AC23221CFF3300F0DEFDC3E5C04664
:10C888003C8702004187020029870200B83D00204A
:10C89800CC3A0020C83A0020418302007087020089
:10C8A8005D87020051870200241500007E87020080
:10C8B800C43A0020003E0020368D02009387020013
:10C8C800083E00200C36002090440020620300003F
:10C8D800C4870200B5870200C98702006E03000002
:10C8E8003185020021830200E3870200538D020094
:10C8F800052800D08DE1CE4B1C68002C00D12DE11D
:10C90800231C84331A88251D002A00D126E1211C06
:10C918008C310B68D3180B60231C883319688A1A6A
:10C928001A600C990B9B5B58E96F5B1A1B021B0A78
:10C938000E930023A06FE16F0F930E9E0F9F801937
:10C9480079410B9BA067E1670C995B58EB67231C47
:10C9580071331978002904D0002A02DC201C03F066
:10C9680085FF231CA5331B78022B71D1B14EA4344B
:10C9780033681A69127A09925A69127A0A929A697C
:10C98800DB69127A1D7A0D92277806F0CFFF3C30CA
:10C9980003787F08BB424ED92378DB073FD433683E
:10C9A800BF00DF193B6A1B7A032B03D9A24B186817
:10C9B80001F022FA3B6A1B7A023B012B00D840E2C5
:10C9C80003220D9B9A4289414842AA4289414B421F
:10C9D800C1180A9B01209A429B415B425B18099946
:10C9E800A842AD418A4292415242D3180D9A6D42F3
:10C9F80090429241524251190A9A9042AD416D4279
:10CA08006A1809998842AD416D42AD182B43DBB2D3
:10CA1800002B10D1894B186801F0EEF90BE0874B19
:10CA2800186801F0D7F9864B186801F0D3F9824BE2
:10CA3800186801F0CFF9257806F078FF3C300178C6
:10CA4800013502314900281C09F0E2FF217062E03B
:10CA5800042B43D1231C0025A4330A931B780A9A7C
:10CA680001331370774B6A00D25A231C98331B8802
:10CA7800691C09919A422DD10B1C704F3868DB074D
:10CA880002D501F0B9F901E001F0A4F96C4B099A5B
:10CA98001868920702D501F0AFF901E001F09AF9A0
:10CAA800654E099B30685B0702D501F0A5F901E0E6
:10CAB80001F090F9072D0DDD0A9B1B78DB0709D4DF
:10CAC800386801F087F95E4B186801F083F930681F
:10CAD80001F080F9099D0C2DC4D11CE0012B0CD16B
:10CAE800564B186801F088F9554B186801F084F91D
:10CAF800514B186801F080F90DE0002B0BD14F4B1A
:10CB0800186801F067F94E4B186801F063F94A4B51
:10CB1800186801F05FF9464D00242B682F1C1A1C79
:10CB2800843212888C331E6809923A68002A0ED023
:10CB3800231C12339B009858002808D0036A9B785E
:10CB4800002B04D0036809995B6A321C98470134AA
:10CB58000A2CEAD100222B6884331A803A4B1C68CD
:10CB6800002C08D108F0B2FF00284AD0C121374A6A
:10CB780008F0D0FE45E00022201C1A6000F0E6FE16
:10CB8800334D04262A78131CB3431ED0022C1ED022
:10CB9800032C1AD12F4B1B681B0718D42E490B687E
:10CBA80001330B60032B04D0022A0CD105F036FDAB
:10CBB8000BE01422294B0D2019785143C918043170
:10CBC80005F016FD2E7005F06BFD00250BE005F055
:10CBD800B1FEFAE72B1C12339B009858002807D1A6
:10CBE80001350A2DBED0124B1A68002AF2D1F7E798
:10CBF800036A9B78002BF3D00368211C1B6A9847B3
:10CC0800EEE78022C0231199D2035B00CA50FFF7D8
:10CC180070FAC8210D4A08F07DFEFFF76AFAE9218B
:10CC28000A4A08F077FEFEF747FE1960FFF7B2F8E8
:10CC380090440020E03400208C4400205844002018
:10CC48005444002028800200844300201A830200F4
:10CC58009444002084440020F43C002088430020B1
:10CC6800EF2108204900794A08F054FEFFF7C4F97B
:10CC78000823FFF735FA76490B70D360A323754A6A
:10CC8800DB00D3583B70FFF757FAE57E012D00D043
:10CC9800FAE41F2A00D0F7E400F072FC291C0025F2
:10CCA8006D4B6E4E00936E4B0193A38B0293238CB6
:10CCB800E28B1B04134303932222A35E0493631D98
:10CCC800DB7F5A07520FDB0805920693E36A321C92
:10CCD8000793644B00F0B0FB3B6909931B8A0A93E6
:10CCE800A38B2C1C0D930A9B9D4214DAA9B20998B8
:10CCF80000F0CEF90D9A038A041C934209D100F082
:10CD08003FFC554B01210093574B321C0193574B65
:10CD180042E00135E7E700250A9B9D4209D0A9B208
:10CD2800099800F0B5F9038A002B00D1041C0135DD
:10CD3800F2E7251E0AD000F023FC474B012100939F
:10CD48004B4B321C0193E4239B0025E001235B42FB
:10CD58000D930A9B9C4214D0A1B2099800F098F94F
:10CD6800838A428A1B0413433A1C983212689342FE
:10CD780005D1C3680D9A934201D2051C0D93013465
:10CD8800E7E72C1E0BD000F0FBFB0121321C324BD5
:10CD98000093384B0193384B00F04EFB1FE00126FF
:10CDA8002C1C76420A9B9C420AD0A1B2099800F03A
:10CDB8006FF9C368B34201D21E1C051C0134F1E7A8
:10CDC80000F0DEFB244B012100932C4B234A0193F6
:10CDD8002B4B2C1C00F030FB002D00D154E4294DC6
:10CDE8000622291C601C09310AF0ECF82B7A237002
:10CDF8002B8CEA8B1B04134363821B0CA3826B8C62
:10CE08006A1DE3820723D17FD27F1940081C217E47
:10CE1800D20899430143D2000B4013432376AB8BCE
:10CE280023826B8DE383EB6A23622B7C5B079B0F6A
:10CE3800E371EB7B23723B1C8C331B68E360FFF7C9
:10CE480023FC114B186800F0D7FFB9E51A830200DC
:10CE5800D0340020002000404686020038840200BA
:10CE6800508602005B030000A086020082030000D7
:10CE7800BA860200CB860200A1030000EE860200FB
:10CE8800B2030000B83D002054440020704728DF5A
:10CE9800704729DF704773B5858A002D1AD0C66898
:10CEA800041C311C01A804220AF08CF8019B002BF9
:10CEB80004D12369B34201D22368E360E66801A87C
:10CEC800311C04220AF07EF8019B013D191D7118DE
:10CED800E160A58273BD0B6801681A1C09680C3AE9
:10CEE800081C0C3810B5126804680020A24205D14D
:10CEF800181C0AF058F843425841C0B210BD131C20
:10CF0800F0B50F1C041C85B003920A1A1211019285
:10CF18000293019B251C002B10DD2068031C0C3B91
:10CF28001A68029B1E68331C0C3B1D68AA4228D154
:10CF3800311C0AF038F8002823D120E03B1B9B1055
:10CF4800022B0BD0032B02D0012B16D10DE003A826
:10CF5800211CFFF7C0FF251D002810D103A8291C9C
:10CF6800FFF7B9FF002806D1043503A8291CFFF7ED
:10CF7800B2FF002801D0281C33E0381C31E0201C07
:10CF88002FE06068031C0C3B1B68AB4207D1311CC7
:10CF98002A1C0AF008F8002801D1201D21E0A06809
:10CFA800031C0C3B1B68AB4208D1311C2A1C09F03E
:10CFB800FAFF002802D1201C083012E0E068031CA8
:10CFC8000C3B1B68AB4205D1311C2A1C09F0EBFF56
:10CFD800002804D0019B1034013B019399E7201CE1
:10CFE8000C3005B0F0BD73B58B8A051C0E1C002BE8
:10CFF80001D1838013E0CC6801A8211C042209F028
:10D00800E1FF019B281D002B03D13369A34200D205
:10D018003468211C0422043409F0D4FF2C60281C35
:10D0280076BDF7B5531D0E1C151C01920169C26827
:10D03800041C91420DD34068401A984209D82068D0
:10D04800171A9F4205D320610021042209F0D7FF57
:10D0580006E0CB1800208A4200D862689A4216D9A6
:10D0680001A90422206909F0ADFF23692A1C181DB3
:10D07800311C09F0A7FF23690435581920610021E4
:10D08800042209F0BCFF0120A38A0133A382FEBD5C
:10D09800028A00238A4203D9C38802685943531875
:10D0A800181C7047828A002A06D0C168013A0B789A
:10D0B80082820133CB18C360704738B5041C0D1C3D
:10D0C800AC4204D0201C09F0FDF80434F8E738BD60
:10D0D800F8B5041C4068A3680F1C984207D00028C4
:10D0E80001D009F00AFA63680433636038E0201C51
:10D0F80008F0D8F9051E09D01A4B984201D909F051
:10D1080033F8800009F014F8061C00E0061C636878
:10D118002268981A3018002802D0391C09F0EDF955
:10D128002068331C011C6268914208D0002B03D090
:10D138000F681F600C4F0F6004330431F4E70F1AB7
:10D14800BF08BF00FFF7B9FF20680437F7190028A8
:10D1580001D008F0FFFFAD00751926606760A56073
:10D16800F8BDC046FFFFFF3F0445002008B509F0A1
:10D178004CF843425841C0B208BD08B50368081CC2
:10D188001968FFF7F3FF08BDF7B50D1C041C0F1A4B
:10D1980001923F11261C002F1FDD01A8211CFFF75B
:10D1A800ECFF002829D1261D01A8311CFFF7E5FF57
:10D1B800002831D1261C083601A8311CFFF7DDFFF5
:10D1C800002829D1261C0C3601A8311CFFF7D5FFF1
:10D1D800002821D1013F1034DCE72B1B9B10022BC8
:10D1E8000DD0032B02D0012B18D10FE001A8211C70
:10D1F800FFF7C3FF261D002801D0201C0FE001A85F
:10D20800311CFFF7BAFF002806D1043601A8311CEB
:10D21800FFF7B3FF002801D0301C00E0281CFEBD3A
:10D2280010B5041C00686168FFF747FF20680028F4
:10D2380001D008F08FFF201C10BD000010B5041CA1
:10D24800034B083308C0FFF7EBFF201C10BDC04696
:10D25800188F020010B5041CFFF7F0FF201C08F01F
:10D2680079FF201C10BD000008B50248FFF7E6FF53
:10D2780008BDC0460C3E0020F7B51E1C08AB1B8835
:10D288000191171C301C00211A1C0093341C09F052
:10D29800B6FE0025BD4216D07B1E0B499D4200D329
:10D2A8000A49019B201C5A5D09F0E4FF009B2418E1
:10D2B800063BA21B934204DC2E2323706370A370E9
:10D2C80001E00135E6E7F7BD498B0200438B020018
:10D2D800031E29480A2B4DD022D82848042B49D0B0
:10D2E8000CD82748012B45D02648002B42D0264889
:10D2F800022B3FD02548032B3CD03AE02448072B8B
:10D3080038D006D82348052B34D02348062B31D0F3
:10D318002FE02248082B2DD02148092B2AD028E0BD
:10D328002048102B26D011D81F480D2B22D006D804
:10D338001E480B2B1ED01E480C2B1BD019E01D4875
:10D348000E2B17D01C480F2B14D012E01B4A1C4878
:10D3580093420FD005D81B48112B0BD01A481B4AF3
:10D3680005E01B4A1B48934204D01B481B4A9342C2
:10D3780000D01B487047C046338C0200AD8B0200BA
:10D388005B8B02004F8B0200798B02009A8B0200A4
:10D39800EA8B0200BE8B0200D28B0200028C0200D4
:10D3A8001A8C0200AB8C0200768C02004B8C0200B7
:10D3B800628C0200888C0200978C02000330000007
:10D3C800EF8C0200C28C0200D18C020002300000F7
:10D3D800043000000D8D0200258D0200EFBEADDE89
:10D3E8002E8D0200F7B5041C081C0E1C08F0E3FF84
:10D3F800051C301C08F0E5FF0190301C08F0DBFF2D
:10D40800071C019B9D4207D00020285608F09EFD6E
:10D41800013538700137F4E700236068A168321CD1
:10D42800FFF76DFDA3682061984203D1201D311CD0
:10D43800FFF74EFEF7BD0000F0B5354D1F1C2B78E9
:10D4480089B0041C0E1C0592002B03D02B78002BEE
:10D4580010D15BE0002921D02E4B0E9A9A421DD0A4
:10D4680000234068A1680EAAFFF78EFEA3688342D6
:10D4780014D1EBE7FF239B00E35C002B0ED1032EB6
:10D488000CD0244B0E9A9A4208D000236068A168F9
:10D498000EAAFFF779FEA368834237D0251CFA222B
:10D4A800143500215200281C09F0A9FD8223FA2214
:10D4B8009B00E41800215200201C09F0A0FDFA216D
:10D4C80010AB281C49000F9A079308F075FD012E30
:10D4D8000BD1FA210E9B009701930295201C49005D
:10D4E8000D4A059B0AF05CFC0DE0B31E281C012BBD
:10D4F8000AD9002E0AD1FA210095201C4900074AB2
:10D508000E9B0AF04DFC201C05F060F809B0F0BD38
:10D518009A2E0020368D02003C8D02004D8D0200AF
:10D52800F0B5051C87B00292FA2214350CAE5200F1
:10D53800041C0F1C281C0021039308CE09F05FFD72
:10D54800FA21281C49000C9A331C059608F034FD72
:10D55800281C002F0DD08223FA219B00E418039B7E
:10D5680001950093201C4900044A029B0AF018FC0C
:10D57800201C05F02BF807B0F0BDC046558D020001
:10D58800F8B50127134E144C35683D401FD1201CB7
:10D59800FA22124B291C083352006560A560E56029
:10D5A80025611430236009F02AFD8223FA229B00AA
:10D5B800E018291C520009F022FDFF23201C9B00C3
:10D5C800E55406F0A1F90648376009F082FC201CF2
:10D5D800F8BDC0461C4300200C3E0020188F0200F6
:10D5E80071D201005A4BF0B51C68012385B01C406C
:10D5F80000D0AAE0574D584B281C2B6006F084F940
:10D60800182008F095FD2A1CA0212B1D0360C3607B
:10D618000361524BA4324260848201816C601060C5
:10D62800FF351C705C704E4A4E4B6C700024012113
:10D638001C705C809960DC601C619C801433934290
:10D64800F4D18027484B7F051C8004F079FA042226
:10D658003D690238ADB24543444B454E1D60454BCC
:10D6680034601C60444B34811C70444B74811C60D2
:10D67800434B1C60434B1A603B699BB27F2B58D9C4
:10D6880004F05EFA3B6901389BB258438023DB0003
:10D69800EB1883424DD82F4B75601A1CAC331D60B4
:10D6A800394BA83233608023146038693381783B62
:10D6B80039697381354B80B2C01889B209F0C2F854
:10D6C8003C692A4BA4B260432D181D600123264AE9
:10D6D80013802C4B00201C6804231C40244B1E89FB
:10D6E8005D891A6875435B6894461A4AED18131CDD
:10D6F800F032B0330392002C0FD016490F1CA83714
:10D708003F68002F09D16246002A06D0AC3109686B
:10D718004118A94201D21F605960039A0833801941
:10D728009342E8D101220A4B19481A6009F0D1FB4B
:10D738000BE0FFF725FF174B01210093164B174A03
:10D7480001933F23FFF778FEC3E7024805B0F0BD19
:10D75800204300201042002090AF020088430020A0
:10D76800544400208C4300200E420020184300201F
:10D77800704300205043002094440020F43C0020D3
:10D788004C430020844400209D3D0200FF0300001C
:10D7980095CE0100F38302007E8D0200728D020097
:10D7A800F0B5614C89B02368002B02D0002800D165
:10D7B800B8E05E4B19688B8A002B00D1B2E006A84E
:10D7C800FFF711FC069F2760FFF7DAFE584E594B0A
:10D7D800009601933B78584D029301217D232A1C22
:10D7E800FFF72AFE2468371C2378032B0AD1A07A76
:10D7F800637A00021843FFF74AFB8221002800D110
:10D8080090E08CE0042B3BD1E37A627A217BA47A06
:10D81800090224021943231C13430122CC180023B4
:10D82800A4B25242802149050869834205D2096998
:10D838006143595804330A40F4E7531C0ED1FFF7EB
:10D848009FFE3E4B00970193029401213A4A91238F
:10D85800FFF7F2FD022000F079F863E0FFF790FE91
:10D86800374B01210193344A952300970294FFF71F
:10D87800E3FD201CFFF70BFB9721002852D04EE058
:10D88800013B012B4ED8FFF77BFE0096261C2D4B43
:10D89800093601937278677AB37812023A431B0407
:10D8A80013431A1CF37801211B0613430293727960
:10D8B8003779B37912023A431B0413431A1CF379DC
:10D8C8001B0613430393737A327A1B0213439B0894
:10D8D80004932A1CA023FFF7AFFD73793179B0793F
:10D8E8001B020B4300041A1C031CF07913430006A7
:10D8F80018437378647AB1781B02234309041A1C0D
:10D908000B1CF17813430906727A1943337A120211
:10D918001A439208FFF7BDFA002803D0A3210A4A48
:10D9280007F0F8FF09B0F0BD14430020B044002010
:10D93800F0830200B78D0200A88D0200CD8D020091
:10D94800E48D0200F48D0200998D0200F0B5674D58
:10D9580087B02C68061C002C00D1C5E003281AD11A
:10D96800FFF70EFE624B01210093624B624A01935E
:10D97800B123FFF761FD614A137859B2002902DD2E
:10D98800013B137041E05E4B16701868FFF783FA8D
:10D9980000232B604BE0022800D0A2E00322574B63
:10D9A8001A70FFF7EDFD574B534F0093564B3A1C37
:10D9B80001930121C723FFF73FFD23781A1CB243C7
:10D9C800012A16D14E4B1868FFF765FA0020A37894
:10D9D80028606178E5781B020B432D041A1C2B1C68
:10D9E800257913432D061D4385427AD02F6802906E
:10D9F80047E0042B29D1267BE37A36021E4306D062
:10DA0800013EB6B2E672360A267301206AE0FFF7D5
:10DA1800B7FD3C4B012100933C4B3A1C0193DC239E
:10DA2800FFF70AFD364B1868FFF735FA2E60A37822
:10DA38006178E5781B020B432D041A1C2B1C2579F1
:10DA480013432D061D431AD14BE02B681B78022B7C
:10DA580047D100262E4B1E70294B1868FFF71BFA7A
:10DA6800A3782E606178E5781B020B432D041A1CFD
:10DA78002B1C257913432D061D43B54231D02F6841
:10DA8800029663782178A6781B020B4336041A1C89
:10DA9800331CE678134336061E43637921791B024B
:10DAA8000B431A1CA379217A1B041343E2796846B5
:10DAB80012061A43637A04921B020B431A1C211C98
:10DAC800A37A0C311B041343E27A12061A43059217
:10DAD800072209F077FABC68281C311C049A059BB8
:10DAE800A0470020FFF75CFE07B0F0BD14430020FC
:10DAF800368D0200128E0200A88D0200E83B00203D
:10DB0800B0440020F0830200288E0200408E0200FC
:10DB18000C420020F7B5081C0E1C171C1C1C09F031
:10DB2800D5FB0321013008F0FDFD051EA5420AD9E9
:10DB3800FFF726FD0B4B012100930B4B0B4A01937A
:10DB48000B4BFFF779FC0024AC4209D0032060435B
:10DB580000213018102209F043FD38550134F3E74D
:10DB6800F7BDC046368D0200878E0200AB840200E6
:10DB780075020000F0B5041C8BB0081C0F1C7E4910
:10DB8800161CFFF7F3FA051E07D0306873681B1AD6
:10DB98009B100693012B00D18AE0381C7749FFF7C8
:10DBA800E5FA051E2AD0FF239B00E35C002B0AD070
:10DBB800FFF7E6FC00230093714B03210193714AA0
:10DBC800A923FFF739FCA6686468B44200D1CFE006
:10DBD800211C09A808F091FCFFF7D2FC0023009350
:10DBE800694B03210193099B664A0293AC23FFF713
:10DBF80023FC09A808F066FB0434E6E7381C6349EF
:10DC0800FFF7B4FA061E01D00125B1E0381C6049BF
:10DC1800FFF7ACFA051E00D1AAE0371C5D4C5E4B3D
:10DC28001B789F42F0DA2678564D012E15D1FFF762
:10DC3800A7FC6168594ACBB23E2B02D8584A9B00D0
:10DC48009A5800230093574B029103920193A368BB
:10DC5800032104932A1CE62325E0002E14D1FFF7A4
:10DC68008FFC63680790181C0693FFF731FB4E4B37
:10DC780003900193069B00960293A3680798049368
:10DC880003212A1CEA230EE0FFF77AFC0023009305
:10DC9800464B0321019323782A1C0293636803935C
:10DCA800A3680493EC23FFF7C7FB01370C34B6E7EE
:10DCB8003F49FFF75BFA071E07D0FF229200A35CDB
:10DCC80006993D1C5940A15452E030683949FFF784
:10DCD8004DFA069000280AD06568A168281CFFF74D
:10DCE800ECF9FF239B00A560E754069D40E03168EE
:10DCF80009A808F002FC09A808F05DFB061C09A8A1
:10DD080008F05FFB069009A808F055FB071C069B66
:10DD18009E4207D00020305608F018F901363870B6
:10DD28000137F4E700236068A16809AAFFF7E7F85C
:10DD3800A3682061984204D1201D09A9FFF7C8F9FA
:10DD480013E0061D9E4205D1A368181FA06008F0C5
:10DD5800B9FA0AE09E1BB610071D002EF4DD391C27
:10DD680008F03FFA013E381CF6E709A808F0AAFABD
:10DD7800281C0BB0F0BDC0463CA90200078F02006A
:10DD8800B08E0200AB8402005E8D0200C48E0200D9
:10DD9800CE8E02000C360020083E00209E8E020027
:10DDA8009C960200D58E0200E58E0200F48E0200D9
:10DDB800118F0200C98E0200437910B5002B06D0DE
:10DDC800A021034AC9058C58036863408B5010BDD5
:10DDD800040500004379002B0AD0A02301790268CA
:10DDE800DB05002901D0034901E0A121C9005A50EF
:10DDF8007047C0460C0500004379002B0AD0A023C9
:10DE080001790268DB05002902D0A121C90000E0E0
:10DE180001495A507047C0460C05000076DF70472C
:10DE2800F0B5037A8BB0041C3D4E3E4F022B0CD943
:10DE3800FFF7A6FB3C4B00970193237B012102933C
:10DE4800321CA823FFF7F8FA67E0FFF799FB374B76
:10DE580001210193321CAD230097FFF7EDFA03234C
:10DE6800012206AD23722B781340273213432B70FF
:10DE780023680F3AD91DC97F6A4411700833DB7FC4
:10DE880053701B2331226B441A7044325A70E322B8
:10DE98001D239200A25C6B441A70E3229200A21820
:10DEA800517859709178D2789970DA70E4222123E8
:10DEB8009200A25C6B441A70E4229200A218527875
:10DEC8005A7023231A4A6B44917A1970D27A5A707D
:10DED8002523184A6B44A25C1A70164AA218527875
:10DEE8005A70FFF74DFB144B00970193237B0121D8
:10DEF80002936B681A0A2B7A1B0613430393AB68C9
:10DF0800321C1B021B140493C323FFF795FA6068A5
:10DF1800211C2A1C102307F0EEFC0BB0F0BDC046F4
:10DF2800B58702005D840200308F02006B8F02000B
:10DF3800CC3A0020920300009B8F02000368F0B5E2
:10DF48008C331A68E8239B00C250437B85B0041CBD
:10DF58000D1C144E144F002B0AD1FFF711FB134B65
:10DF680000970193237B01210293321C932309E03C
:10DF7800FFF706FB0E4B01210193237B321C029312
:10DF880095230097FFF758FA211CA888094B1331ED
:10DF9800E05205F027FB2A8B074BE252022323723B
:10DFA80005B0F0BDB5870200C4870200CD8F02001E
:10DFB800EE8F0200620300006E03000070B5041CBF
:10DFC8000E1C151C05F0A8FAD9239B00311CE0187B
:10DFD800072208F0F7FFDB239B00E55223680125A1
:10DFE8001A1C98321168E322920025729633A150C8
:10DFF8001A88E4239B00E2526068211C02F02EF884
:10E00800014BE052281C70BD9203000073B5051C3B
:10E0180005F006FD041CFFF7B3FA374B374E0093A3
:10E02800374B012101939D23321C5B00FFF704FA53
:10E03800636870331B78062B0FD1FFF7A1FA314BB9
:10E0480001210093304B321C01934623FF33FFF725
:10E05800F3F9A8881321FFF7E1FEAB7D012B1CD152
:10E06800291C637B2669013B002263730831301C3D
:10E07800FFF7A4FF301C291CFFF760FFA068291CCC
:10E088000368DB68984705F051FC3F300378002BA4
:10E098002FD1237B002B2CD129E0022B29D1A37B64
:10E0A800291C013BA373DB2326689B00F25A083125
:10E0B800301CFFF783FF301C291CFFF73FFFA068C7
:10E0C800291C0368DB68984705F030FC3F3003786B
:10E0D800002B05D001237372A88807F0EDFD08E036
:10E0E800237B002B03D0301CFFF79AFE01E00423AA
:10E0F80033720023236073BD319002001B9002002D
:10E1080034900200368D02004790020070B500245A
:10E11800061C251C05F00AFC3C3003789C4212DAE8
:10E12800A300F3181B6A094A0134985C0122904342
:10E138002E38424250419C2292009B589B8AC0181C
:10E148004519ADB2E6E7281C70BDC046890200003B
:10E15800F0B5867B95B0002E00D183E000260568D7
:10E16800B54200D07EE0041C0B9309920A9105F099
:10E17800DDFB3B3003789D426FDAAB00E3185B6947
:10E1880007931B7A002B0FD105F0D0FB079B1A7B56
:10E198008389D3189BB2089305F0C8FB334BC68C10
:10E1A8001A78002A57D101E00135E0E70127022259
:10E1B8000FAD1F702B789343BB432B7005F0B6FB54
:10E1C800438C2B8105F0B2FB838CAE816B816B464F
:10E1D8001B8C0DAE33806B461B8C738005F0A6FB41
:10E1E800038AB38005F0A2FB438A291C0998321CD4
:10E1F800F38007F0A5FD00282DD11D4B1880FFF7EF
:10E20800BFF91C4E1C4B391C01931C4A7A230096FB
:10E21800FFF712F9079B09992360181C0B9AFFF75F
:10E22800CDFEFFF7ADF92368154A99181423062285
:10E2380000932B1CFFF720F8FFF7A2F9114B00966B
:10E2480001930A9B039502930F4B391C04930F4AC1
:10E25800EE23FFF7F1F8266804E005F067FB0023DA
:10E268001B7BFFDE301C15B0F0BDC046C43000205B
:10E27800DE440020C4870200689002009A850200EC
:10E288006503000070900200909002001B9002004D
:10E29800F8B503690B4D5A5B8A4211D00F1C061C56
:10E2A800002405F043FB3B3003789C4207DAA300C7
:10E2B800F3185B695A5BBA4202D00134F1E70023D4
:10E2C800181CF8BD62030000F0B589B0079005F08E
:10E2D800A7FB079B051C9988FFF7DAFF041E00D1EE
:10E2E80083E0079B01271B7AC372FFF749F9079B55
:10E2F8003F491E7A6B680A788C331B683D489C46F8
:10E308000C2353431F54C31860465E609860622A0A
:10E3180001D8D2190A70FFF733F9374B374F0193F9
:10E328000097237B364E0293D8239B00E35A0121A2
:10E338000393E223321C5B00FFF77EF86B68DC2155
:10E348001A1C89008C3261581268521A2D498A4267
:10E3580014D9079A127A082A10D170331B78062B21
:10E368000CD0092B0AD0FFF70BF9274B0097019324
:10E37800CE230121321CFF33FFF75EF8637B002BAD
:10E3880003D16B7B01336B7302E0AB7B0133AB735F
:10E398002B68A34201D100232B60FFF7F1F8D823A3
:10E3A8009B00E65AE37A217B184A3E2B02D8184A8A
:10E3B8009F00BA58174F03910097174F049305927F
:10E3C800CD23019702960121144AFFF735F8237AE5
:10E3D800002B00D0A3720023A86823720368079952
:10E3E8009B689847201C05F097F809B0F0BDC04617
:10E3F800083E00200C360020959002003190020063
:10E408001B90020010270000B69002009E8E0200AA
:10E418009C96020067840200D5900200B58702002E
:10E4280070B5061C0D1C05F0FBFA311C041CFFF727
:10E438002FFF00280CD0DB239B00C552217B00292D
:10E4480002D0FFF7EDFC03E0A0680368DB6898479B
:10E4580070BD000030B5041C85B005F0E1FAA18854
:10E46800051CFFF715FF041CFFF78AF8104B012164
:10E478000093104B104A0193237B02938A23FF33A6
:10E48800FEF7DAFF02236372637B002B03D12B7B39
:10E49800002B0BD108E0012B08D12B7B002B03D0DC
:10E4A800201CFFF7BDFC01E00423237205B030BD3A
:10E4B80031900200FF9002001B900200F0B5EFB00F
:10E4C8001E1C74AB1B780D1C07920893FFF758F8B5
:10E4D800C8230AAC5B00321C07990093231CFEF783
:10E4E800CBFEFFF74DF82C4B039600932B4B2C4F8C
:10E4F80001932B7B01210293079B3A1C1B780594FF
:10E508000493A823FEF798FF9C239B00EC58F6B2CF
:10E518002169E268F31CDBB2099791420BD360686A
:10E52800401A984207DC2068171A9F4203DB002331
:10E538002061037005E0CB188A4200D862689A42CD
:10E5480018D92269731C137020216A46521823694E
:10E55800127807995A702369321C981C08F032FD0A
:10E56800236902369E19002326613370A38A01337A
:10E57800A3820FE0E9229200AB5A0133AB52FEF7B7
:10E58800FFFF084B01210093074B099A0193B12320
:10E59800FEF752FF6FB0F0BD219102002B910200EF
:10E5A8001B900200368D020052910200F0B5051C46
:10E5B800171C002485B01E1C0AAB1B78029103931C
:10E5C80005F0B4F93C3003789C420ADAA300EB1852
:10E5D800196A029B994202D00B7A032B06D80134A0
:10E5E800EEE7281C01F0AEFD05B0F0BD039B281C2A
:10E5F80000933A1C331CFFF761FFF0E773B50E7AFE
:10E6080006AC25780024032E07D9041C0095FFF7D3
:10E6180055FF201C01F096FD0124201C76BD00004A
:10E6280070B5437B90B0041C204D002B00D0204DCA
:10E63800FEF7A6FF9C2300219B00E2581668938AE8
:10E6480000911C4902950191D8218900615A0391D2
:10E65800217A0491E621890061580591E721890012
:10E66800615E06911449615E0791D168891B089122
:10E6780012690A93921B0992227D01210B92E27C76
:10E688000C92E5229200A25C0D920C4AA25C8A438D
:10E698002E3A544254411B199BB20E93D4230321A2
:10E6A800074AFF33FEF7C8FE10B070BD6D91020037
:10E6B80073910200799102009E0300008902000014
:10E6C800B587020008B5037A132183720023037209
:10E6D800024BC05A07F03EFB08BDC046620300006B
:10E6E800203070B50E1C041C002505F01FF93B30C6
:10E6F8000378AB420EDB2068B04202D0037A002BCD
:10E7080002D101350434F0E7FFF7DCFF002322686B
:10E718009372F6E770BD0000F0B5041C8DB0079148
:10E728000B894D6806938F78FEF72AFF9B4B9C4E0A
:10E7380000939C4B012101932B78321C5B080293B8
:10E74800069B0393E123FEF777FE2B79EA781B02F9
:10E7580013432268D18C994230D093498B422DD0F3
:10E7680092498B420FD142321378022B26D060682F
:10E7780006F0AEFF011E21D0009760682A1C069B98
:10E78800FFF73CFF1AE0AB786A781B021343884A0C
:10E7980088499A1892B28A4204D8013B9BB26B709E
:10E7A8001B0AAB7001222B7893432E2B06D00097BF
:10E7B8006068211C2A1C069BFFF7F8FE01272B78AE
:10E7C800BB43282B00D007E1069B102B00D0DAE0D2
:10E7D8002B7BEA7A1B021343DB229200A35203230A
:10E7E8002372FEF7CDFE744B391C0093734B321C19
:10E7F80001931E23FF33FEF71FFEFEF7C1FE6E4B8B
:10E80800391C00936E4B0193AB786A781B02134353
:10E818000293AA796B7912021A43EB791B0413430A
:10E828001A1C2B7A1B0613430393AB7A6A7A1B02D2
:10E8380013431B041B140493AB7B6A7B1B02134317
:10E848001B041B1405939023321C5B00FEF7F4FD98
:10E85800AA796879EB79120202431B0413431A1C44
:10E868002B7A1B061343E3229200A058834211D14E
:10E87800FEF786FE504B391C0093524B321C019315
:10E88800237B02932623FF33FEF7D6FD201CFFF7D8
:10E8980019FFBFE1AA7A697A12020A43E4218900C2
:10E8A800615E12B28A4202DB15D1834213D2FEF7AF
:10E8B80067FE414B01210093434B321C0193962381
:10E8C8005B00FEF7B9FD637B002B00D0A2E1201CA2
:10E8D800FFF7A6FA9EE1FEF753FE374B321C009372
:10E8E8003A4B012101939C235B00FEF7A5FD211CF7
:10E8F8006068FFF7F5FE276801223B1C96331A80F3
:10E90800381C06F061F898373860AB786A781B02D3
:10E918001343D822012108AD9200A3522A7802A8F5
:10E928000A4029310A432A70226811390918D01D72
:10E93800C07F08320870D27F4A701B2202A9521881
:10E9480013701B0A53701D2301225B1852421A7060
:10E958005A70FEF715FE184B012100931C4B0193CA
:10E968002B79EA781B02134302936B68321C1B0253
:10E978001B1403935223FF33FEF75EFD6068211CCE
:10E988002A1C0823C7E0FEF7FBFD044B391C009343
:10E99800104B321C01935A231BE1C046C487020066
:10E9A800B5870200E2910200317500001979000074
:10E9B800CF8AFFFF167900005D8402006B8F02008A
:10E9C800029202003F920200879202009392020094
:10E9D800A0920200C19202002A2B00D0A8E0069B58
:10E9E800082B00D09AE0DD239B00E35CBB4304D1F5
:10E9F800236870331B78062B0BD0FEF7C1FD864BBE
:10EA080001210093854B321C0193B2235B00FEF772
:10EA180013FDDD23291CDD259B00E018082208F0E2
:10EA2800D1FAFEF7ADFD7E4BAD0000937D4B7E4FD6
:10EA38000193635901211B021B0C0293DE239B00E7
:10EA4800E3583A1C1B021B140393B5235B00FEF723
:10EA5800F3FCD821635989001B021B0C63529AB23C
:10EA6800E52301262C2108AD9B00E6542B7802A84B
:10EA780033400B432B70236813390918D81DC07F06
:10EA880008330870DB7F4B701B2302A95B181A70D0
:10EA9800120A5A70E3221D239200A25C5B181A70B6
:10EAA800E3229200A218517859709178D27899701F
:10EAB800DA70E42321229B00E35A02A99B19521819
:10EAC8009BB213701B0A53702323584A5B18A25C2D
:10EAD8001A70564AA21852785A70FEF751FD504BD8
:10EAE800311C0093524B0193D8239B00E35A0293A5
:10EAF8006B681A0A2B7A1B0613430393AB683A1CFC
:10EB08001B021B1404937E23FF33FEF795FC211C84
:10EB18002A1C0D23606806F0EEFE7BE0FEF730FD50
:10EB2800444B391C0093444B321C0193882350E01A
:10EB38002C2B52D1069B0D2B42D1DF239B00E35C8B
:10EB4800BB4304D1236870331B78062B0BD0FEF728
:10EB580017FD314B01210093384B321C0193C92317
:10EB68005B00FEF769FCDF239B00E018291C0D22DF
:10EB780008F028FAFEF704FD294BE1210093304BF9
:10EB880089000193DF239B00E3581B021B0C0293AF
:10EB9800E0239B00E3581A0A635C1B0613430393A4
:10EBA8006358321C1B021B140493CC2301215B0005
:10EBB800FEF742FC2068211C002200F0FDFF29E03E
:10EBC800FEF7DEFC1B4B391C00931E4B321C0193D5
:10EBD800A223FF33FEF730FC1CE02B79EA781B02F6
:10EBE80013432268D18C99420ED0002B0CD01649C1
:10EBF8001648591889B2814206D915498B4209D15C
:10EC080042321378022B05D1636807999868036824
:10EC18005B6998470DB0F0BD368D0200E0920200A6
:10EC28005D840200FF920200B58702009203000093
:10EC380020930200C48702005193020065930200EA
:10EC480084930200B8930200D08AFFFFE703000014
:10EC580019790000027CC31DDA770022283002707F
:10EC680001330132DA7770477047704708B505F00D
:10EC7800B3FB08BD08B505F0AFFB08BD08B505F046
:10EC8800ABFB08BD08B5031C027C30331A70021CAC
:10EC98000023012132321370013A11704363034992
:10ECA8003830072208F08EF908BDC0469897020050
:10ECB800F0B51C1C012785B00AAB1B88051C009306
:10ECC800231C05F081FA2378BB43662B00D08FE024
:10ECD80062792B7C9A4200D08AE0E679022E03D131
:10ECE800EB6ADB19EB6283E0002E12D1FEF748FCD9
:10ECF800404B414A0093414B391C01931E23FF337B
:10ED0800FEF79AFBAB683E4A8C331B689B186B6313
:10ED18006EE0012E14D1FEF733FC364B002400932D
:10ED2800384B311C01932623334AFF33FEF784FB0B
:10ED3800AB680233DC87FEF723FC334B1C7057E0CB
:10ED4800032E33D1FEF71CFC304B2B4D0093A378D8
:10ED580062781B0213430193637A227A1B021343DE
:10ED6800029330232A1C0021FF33FEF7D9FBFEF75C
:10ED780007FC274B00210093E37AA27A1B02134376
:10ED8800019398232A1C5B00FEF7CAFBFEF7F8FBE9
:10ED9800204B00210093637B227B1B0213430193CA
:10EDA80032232A1CFF33FEF7BBFB21E0042E1FD1C0
:10EDB800FEF7E6FB184B104D019336230D4E391C18
:10EDC80000962A1CFF33FEF737FB00242768FEF75E
:10EDD800D7FB124B00960193A12302975B000121F8
:10EDE8002A1CFEF729FBFA2301349B009C42EDD133
:10EDF80005B0F0BDFB830200AE970200BE9702008B
:10EE080010270000DD970200083E0020FF9702004F
:10EE18002F9802003D9802004A980200D18502000E
:10EE2800F0B51C1C8DB012AB1B88051C0093231C6D
:10EE380005F0CAF9012223789343662B00D0B2E08B
:10EE480062792B7C9A4200D0ADE0E679002E2CD175
:10EE5800FEF796FB994B227A0093994B0121019377
:10EE6800637A1B0213430293E37AA27A1B021343C9
:10EE78000393944ADF23FEF7DFFAAF680B21381CAF
:10EE880001F0F4FC01233B73637A227AA8681B0221
:10EE98001343C384E37AA27A1B021343838401F0E9
:10EEA80065FCAB68A5331E70F8E0012E1FD18027E2
:10EEB8007F053B6E627A9C46207AA37A120202434F
:10EEC8001B0413431A1CE37A1B06134363456AD1D8
:10EED800627B207BA37B120202431B0413431A1C90
:10EEE800E37B7F6E1B061343BB425CD19CE0022E82
:10EEF80059D1201CA96808302A31052208F053F896
:10EF0800099000284FD1FEF73BFB6C4B627B0093C6
:10EF18006D4B01210193A37B1B0213430293237CB6
:10EF2800E27B1B0213430393637C664A0493E37EEC
:10EF38000593631CDB7F06938B235B00FEF77CFA4B
:10EF4800AF680B21381C01F091FC0123211C3B7395
:10EF5800A37B627BA8681B021343C384237CE27BE8
:10EF68001B021343838411311022303008F02AF831
:10EF7800A86801F0FBFB24216A46AB685218127896
:10EF8800A5331A70514B1868FEF736FF504B1868B6
:10EF9800FEF732FF4F4B1868FEF72EFFA279281CA8
:10EFA800311C06F033FC012223789343682B00D0F0
:10EFB80081E062792B7C9A427DD1E379002B7AD16A
:10EFC800237A454E002B06D0444E012B03D0444EE5
:10EFD800022B00D1434E211C0AAF0A310522381CEE
:10EFE80007F0F0FF00237B71FEF7CAFA3E4B627808
:10EFF8000093A37800211B02134301932B7C314A11
:10F0080003934C230296FF33FEF78AFAFEF7B8FA09
:10F01800364B02970093A37900210193A623294A2E
:10F028005B00FEF77DFA46E0FEF7AAFA234B227C46
:10F0380000932F4B311C0193637C1B0213430293F3
:10F04800E37CA27C1B0213430393237D1D4A049394
:10F05800A37F0593231DDB7F0693F923FEF7ECF9C5
:10F06800AF680B21381C01F001FC211C3E73637C46
:10F07800227CA8681B021343C384E37CA27C1B0286
:10F088001343838410221431303007F09BFFA868A3
:10F0980001F06CFB0022AB68A5331A700B4B1868A3
:10F0A800FEF798FE0A4B1868FEF7A6FE094B18688B
:10F0B800FEF790FE72E70DB0F0BDC046198402005D
:10F0C8009798020082980200CF98020058440020C6
:10F0D800544400208C4400205C980200649802008C
:10F0E80074B202006C9802002A990200609902002A
:10F0F80086990200F0B55368061C106891B00D1C83
:10F10800141C1B1A072B15D9311C04301431FEF7B7
:10F118002DF800280ED02068A349FEF727F800280C
:10F128001DD0B368DB8C281CA0490193FEF71EF89C
:10F1380000281AD1291C06A807F0DFF9211C07A806
:10F1480004F0B6FB06A907AA301C05F047F80290A0
:10F1580007A8FEF765F806A807F0B4F820E12368C9
:10F16800186807F0BEFE83B2DDE7206863681B1AE3
:10F17800132B4AD908308E49FDF7F8FF0290002872
:10F1880043D0236807ADD86807F0ABFE236887B281
:10F19800186907F0A6FE83B2039301232A7800209A
:10F1A8001340662213432B70B36806AAD91DC97F82
:10F1B80008335171DB7F93716A46127906ABDA71B5
:10F1C800019A120A1A72337C22686B716368E871BB
:10F1D8009B1A172B03D9506907F083FEC0B26B4600
:10F1E8009B8922686B816368A8712F819B1A172BF2
:10F1F80007D9FEF7C5F923680AAA59691023FEF74B
:10F2080089FCF068291C1C2262E0206863681B1ACC
:10F218001B2B61D908306749FDF7A8FF0290002829
:10F228005AD023680021D8680A2208F0D9F923683F
:10F2380000210A22071C186908F0D2F923680390F4
:10F24800586907F04EFE83B20493236807AD9869A6
:10F2580007F047FE0122662183B205932B781340FD
:10F268000B432B70B36806A9D81DC07F08334871BB
:10F27800DB7F8B716946097906ABD9710199080A58
:10F288001872337CEA716B712268636800209B1ADC
:10F298001F2B03D9D06907F024FEC0B2039B226854
:10F2A800EB606B461B8AA8712B826B469B8AAF600A
:10F2B8006B8263689B1A1F2B07D9FEF761F92368D5
:10F2C8000CAAD9691023FEF725FC2422F06807A9A7
:10F2D800012306F021FA63E0206863681B1A172BE4
:10F2E80000D827E708303449FDF740FF029000288E
:10F2F80000D11FE7236807AF186907F0F2FD2368FC
:10F3080085B2586907F0EDFD83B2039301233A787B
:10F318001340662213433B70B36806AAD91DC97F00
:10F3280008335171DB7F93716A46127906ABDA7143
:10F33800019A100A1872337C22687B710223FB71D0
:10F34800636800209B1A1B2B03D9906907F0C9FD3D
:10F35800C0B2B87127680522F96809A807F032FE1B
:10F36800112306AA9B181D702D0A5D7013239B1884
:10F378006A46127B1A70039A120A5A706368DF1B76
:10F388001B2F09D9FEF7FCF815222368996906ABEB
:10F39800D2181023FEF7BEFBF06807A9212297E7D1
:10F3A800029811B0F0BDC046EF990200E199020041
:10F3B800A7B50200E89902006C98020008B4024B55
:10F3C8009C46043808BC6047FDF00100F0B553685E
:10F3D8009FB0041C106804AF7961151C1B1A072B19
:10F3E80017D9211C04301431FDF7C0FE002810D0B5
:10F3F8002868B049FDF7BAFE002800D1D4E0A36818
:10F40800DB8C7869AC493B61FDF7B0FE002800D081
:10F41800D0E07869A949FDF7A9FE061E3FD06B46E2
:10F428007B602B680024186807F05BFD88B004AB8C
:10F438009AB0FB6004AB3860BB6080256D052B6912
:10F448005B099C4228D23B882969620159433A6189
:10F458005118F86820227B6107F0B4FDFEF790F898
:10F4680061230093F9682022BB68FDF705FFFEF7CA
:10F4780087F800222B690092914A032101927A6948
:10F48800013453433A69D3180293BB688D4A0393F6
:10F49800DC23FDF7D1FFD0E77B689D4606E178695C
:10F4A8008949FDF763FE00282BD001220023524230
:10F4B800802149050869834205D209697143595871
:10F4C80004330A40F4E700257E4C531C08D1FEF7AC
:10F4D80057F87E4B009501930321221CE92307E08E
:10F4E800FEF74EF87A4B03210193221CEA2300957C
:10F4F800FDF7A2FF802301365B009E42D5D101268D
:10F50800D4E078697349FDF731FE061E20D0FEF776
:10F5180037F818220823211CBA18D5183E33303181
:10F52800142200932B1CFDF7A7FE6B4B6363FEF7B9
:10F5380027F86A4B02950093694B01210193142324
:10F54800604A0393E533FDF777FF2368DB6807E03C
:10F5580078696449FDF70AFE061E04D023681B6912
:10F56800201C9847A2E01C237969F81806F0C5FF0B
:10F5780018220823BA18D018291C04F099F91C235A
:10F588001822F918BA18143BD218201C04F026FEC9
:10F5980018220823BA18061CD018FDF741FE1C23B0
:10F5A800F81806F08FFE81E02B68186807F099FCC0
:10F5B80083B226E728686B681B1A0B2B0FD9083013
:10F5C8004949FDF7D3FD061E09D00023201C33212D
:10F5D8000093019302933A6906F0DAF866E0286826
:10F5E80042490830FDF7C2FD061EF86008D0002326
:10F5F800009301930293201C33213A690133EBE70E
:10F6080028683B490830FDF7B1FD061E15D0FDF707
:10F61800B7FF324B01210093364B2A4A0193B4239A
:10F62800FDF70AFFFB68201C0093FB683321019358
:10F63800FB6802933A690423CEE728682E4908300C
:10F64800FDF794FD061E00D1E3E60734E07F0321B1
:10F65800013007F0DDF9E17700290AD1FDF790FFC5
:10F668001E4B01210093254B164A0193C623FDF733
:10F67800E3FEE57F012D0AD1FDF782FF174B291C18
:10F6880000931F4B0F4A0193C723FDF7D5FEE37F75
:10F69800022B00D033E7FDF773FF104B01210093D5
:10F6A800184B084A0193C823FDF7C6FE301CBD4617
:10F6B8001BB0F0BDEF990200E19902005F9A0200C9
:10F6C800689A0200AE970200759A02007F9A0200BB
:10F6D800B1820200819A0200E02E0000FB83020042
:10F6E8008A9A0200A09A0200F4990200A99A0200DC
:10F6F800FF990200FA990200099A02000F9A020083
:10F708001F9A02003E9A020008B4024B9C46043835
:10F7180008BC6047D5F30100031CF0B532331B78F1
:10F728008BB0002B00D19FE0FA21041C8900101C2B
:10F73800151C07F07DF8002914D1E36A002B02D1CB
:10F74800A36A002B0ED0FDF71BFF484B0121009345
:10F75800474B484A0193A36A0293E36A03935323EE
:10F76800FDF76AFEE61DF37F002B03D1636B002BC8
:10F778002DD142E0E068FEF7C9FC0528F6D8012241
:10F788006620A36A05A90133A3620B7813400343DB
:10F798000B70A3685138DF1DFF7F6844077008337A
:10F7A800DB7F4370172332206B4418704330587046
:10F7B8000223CB71237C0A724B71F37F013B5842C1
:10F7C80058410822C3B2E06805F0A6FFD2E7AB4271
:10F7D80013D2FDF7D5FE254B01210093264B254A70
:10F7E80001936A23FDF728FEBFF34F8F234A244B6A
:10F7F800DA60BFF34F8FC046FDE7281C214907F0A8
:10F8080017F8002930D10D1C05AE0591B18004F020
:10F818008DF83C3003789D4218DA2B1CE2680833D7
:10F828009B009B581A7A032A0ED9E9229200995A0A
:10F8380072888A187280144A995AB2888918EA22FA
:10F8480092009A5A8B18B3800135E0E7A36800222A
:10F858000233DB8F201C338006230092029301962B
:10F868003321033B05F094FF0BB0F0BDFB8302008E
:10F87800C79A0200AE970200E49A02000400FA0553
:10F8880000ED00E010270000A6030000704700000C
:10F8980008B4024B9C46043808BC604795F8010040
:10F8A80010B5041C06F056FC201C10BD08B4024B11
:10F8B8009C46043808BC6047A9F80100704700005E
:10F8C80008B4024B9C46043808BC6047C5F80100E0
:10F8D80010B5041C06F03EFC201C10BD08B4024BF9
:10F8E8009C46043808BC6047D9F8010070DF7047AF
:10F8F80013B5041CFDF744FE064B074A0093074B5B
:10F9080001210193D223FDF797FD201C062100F069
:10F91800ADFF13BD3A83020038840200EF9A02005B
:10F9280008B4024B9C46043808BC6047F9F801004B
:10F93800F0B5041CA5B004F073F8A188071CFEF705
:10F94800A7FC051E00D1F9E0261C0122A37C123673
:10F9580093433C2B32D17B68794A9C46794B717929
:10F96800D25863460433DA67B379F0791B020B4344
:10F9780000041A1C031C307A13430006B27A184399
:10F98800737A12021A43F37A1B0413431A1C337B4B
:10F998001B0613436246D3679067FDF7F1FD6A4A79
:10F9A8007B680092694A012101921A1DD26F029266
:10F9B8009B6F674A0393674BFDF73EFDA37C5B088B
:10F9C8001A1C143A032A24D9191C7F2262311140C7
:10F9D80001291ED9191C4E311140032919D9191CA6
:10F9E80048311140012914D9191C44311140022908
:10F9F8000FD930331340012B0BD9FDF7C1FD564BFE
:10FA080001210093554B524A019389239B00FDF72E
:10FA180013FDFDF7B5FD6423228A311C00930BAB5F
:10FA2800FDF72AFCFDF7ACFD4D4B4E4F0193A37C2F
:10FA380001215A08DB07DB0FDBB20393238A009707
:10FA48000493237B02920593414A474BFDF7F4FC4C
:10FA5800FDF796FD454B00970193454F0BAB02937D
:10FA68003B4A0121434BFDF7E7FCE85D228A002869
:10FA780022D10121A37C0B420AD1A38808A90A81BB
:10FA88000B804E60237B023B5A1E93418B704FE0E4
:10FA9800394B311CE81807F095FA228AEB5DD31828
:10FAA800EB55FDF76DFD354B01210093344B284A8A
:10FAB800019392239B001AE0211C01262E4B281843
:10FAC800C018013A133107F07DFAA37C334007933D
:10FAD80010D0EB5D228A013BD318EB55FDF750FDA2
:10FAE800311C264B1A4A0093264B0193264BFDF7EF
:10FAF800A3FC23E0FDF744FD204B311C0093234B6E
:10FB0800134A0193224BFDF797FCA38808A90B80A1
:10FB1800194BEB184B60238AEA5D013BD3180B8124
:10FB2800237B023B5A1E93418B706B461B7FEB5520
:10FB38002B7A002B02D0281CFEF7EEFD25B0F0BD75
:10FB480000100140040500003A830200049B0200F3
:10FB58001B9002001E020000368D0200299B020045
:10FB6800629B0200219102002A0200008D9002008F
:10FB78005F0300002B020000970200003190020092
:10FB8800989B0200B79B020057020000D79B020017
:10FB98005B02000038B5051C03F042FF041C006836
:10FBA800002803D003F0B8FC00232360A068291CB8
:10FBB80003681B69984738BDF0B58DB00C1C0592D9
:10FBC800051CFDF7DDFC684B684F694E0193059BEA
:10FBD800009602930121DE233A1CFDF72DFC059BBC
:10FBE80006970796002B64D02A1C96321388013397
:10FBF8001380DE239B00E2581202130C002A02DB5A
:10FC080001339BB200E05B4B5B4A0127A352FDF72F
:10FC1800B7FC2B1C963300229B5E554A0393009237
:10FC2800564A012101925A1E0292E8234F4AFDF7D3
:10FC380003FCE323D8229B00E6580C33E650243B10
:10FC4800E35892001B0AA352E7239B00E7520021C6
:10FC580008A80E2207F0D3F92E2304AA13741D3B1B
:10FC68009B18EA1DD27F1A702A1C0832D27F5A705C
:10FC7800192304AA9B1800221F705A70152304AA7E
:10FC88009B18320A1E705A70320C360E9A70DE704B
:10FC9800FDF776FC364B391C0093394B334A0193F8
:10FCA800FB23FDF7C9FB281C211C08AA01F09EF8BC
:10FCB8003BE0E023E1229B00E6589200330AA65C71
:10FCC800059936061E43E6239B00E650A7580433E1
:10FCD8003F023F0C7A1EE2522A4B0E22E01807F030
:10FCE8008EF92B1C98331E602E1C274B96363780B6
:10FCF800E25C0133E35C1B0213431AB2002A02DB05
:10FD080001339BB200E01B4B1B4AA352FDF738FCA2
:10FD1800079B012100931D4B01930022B35E069AB5
:10FD280002931023FF33FDF787FB042323722B1C58
:10FD38008C331A68DC232E1C2F1C9B00E25048369B
:10FD480070373068002803D00368211CDB6A9847A5
:10FD58000436BE42F5D1281C00F016FD281C0221ED
:10FD680000F084FD0DB0F0BDF59B02003884020060
:10FD78005D840200FFFF00009E0300002F9C02002C
:10FD8800509C020089020000870300008A9C020040
:10FD980071DF7047F0B5836989B0041C013300D066
:10FDA8007EE00026FDF7ECFB914B924D0093924BC1
:10FDB80001212A1C01939D23FDF73EFBA31CA6618C
:10FDC800DE8703F0B3FD038FA38403F0AFFD011CAE
:10FDD800201C10224031303007F0F4F8231C0A228E
:10FDE80044331A70013B1A70321C14218026514387
:10FDF800824B7605C918706E0B6883420CD18B88CC
:10FE0800201CE384231C8A7942331A700B310722A1
:10FE18001C3007F0D7F824E001320A2AE5D1FDF7B3
:10FE2800AFFB774A736E0092764A02930192764B43
:10FE38002A1C0121FDF700FB706E744980B206F0A0
:10FE4800F7FC231C0022201C01314233E1841C30C2
:10FE58001A70FFF79DFF002803D06D496D4A05F021
:10FE680059FD0025802305225B05186E1F236A4370
:10FE780093401840D0401E21C0B206F0D9FC2E1C79
:10FE8800654BC9B22A365B5CA61901353370052D5E
:10FE9800E8D1231C00222F331A7001235B422385EB
:10FEA800201C04F05DFDFDF76BFB514B514A00939C
:10FEB8005A4B01210193E38C02270293231C2A3316
:10FEC8000393AB23FDF7B8FA03F0B2FCA31CD88761
:10FED800201C079304F078FD231C211C98331C3147
:10FEE80018600020FFF702FD012200264C4D2B78F8
:10FEF8006E609343BB432B7003F018FD038B2B817B
:10FF080003F014FD438BAE816B81464B464D1E803A
:10FF1800A38C2F700693454B6E601E70444B2E7257
:10FF28001E7080239B00EE602B826E8203F0FEFC25
:10FF38003430037801215A425A412B7D8B431343B5
:10FF48002B7503F0F3FC35300278534253415A00C5
:10FF58002B7DBB4313432B7503F0E8FC3630027846
:10FF68000421534253419A002B7DFF208B431343B6
:10FF78002B75304B304A1E80304B493113600122BB
:10FF88005A7005329A70EA32DA716A46127E5971ED
:10FF98001A72069A1F70120A18719F715A72284BAA
:10FFA800284A0925136003225D703D351A709D703B
:10FFB800D9701A7158719971DF71201C00F0E4FB37
:10FFC800FDF7DEFA0A4B0B4A00931F4B0121019300
:10FFD800E38C0293079BDB8F0393A38C0493C023CA
:10FFE800FDF72AFA201C391C00F040FC09B0F0BDCE
:08FFF8003A8302003884020084
:020000022000DC
:10000000A09C02009C2E0020368D0200359D02002F
:10001000C7060000983A0000CD0600002C840200BC
:10002000C59C0200E49C0200E4440020DE44002061
:10003000984400207C43002088440020B4440020E1
:10004000804300205C440020B6440020E0440020AF
:10005000FD9C020008B4024B9C46083808BC60476F
:100060009DFD0100F0B5436889B0079142331B78CC
:10007000061C022B15D1FDF787FA2B4A73680092F4
:100080002A4A012101921A1C983212689633029270
:1000900000229B5E264A0393264BFDF7D1F90020F0
:1000A0003FE000252C1C244F03F044FC3C30037837
:1000B0009D4214DAAB00F3181B6A079A93420CD0E6
:1000C0001A7A012A09D91D4A995A0AB2002A04DB70
:1000D00038B2824201DA1C1C0F1C0135E4E7FDF73F
:1000E00053FA002C02D0154BE25E01E0012252428D
:1000F000736802921A1C0C49983200911049963389
:10010000019112680121039200229B5E084A049328
:100110000C4BFDF795F9002C02D0084BE05A00E09B
:10012000094800B209B0F0BD759D02007A9D020039
:100130001B90020097030000FF7F00009E03000059
:10014000959D0200A5030000FFFF0000F0B500230D
:10015000041C8DB00A902034079303F0EBFB3C3075
:100160000378079A9A4200DB71E125682F7A012F04
:1001700010D90126B74A9C23A95C9B00B1430A1CF5
:10018000EB582E3A988A069151425141421892B248
:10019000002A04D1079B043401330793DDE7032FC2
:1001A00000D800E1069A002A00D1FCE09D229200CE
:1001B000AA5C002A00D0F6E0A64B0E27ED18FDF74A
:1001C000E3F9A54B311C0093A44BA54A0193236886
:1001D0001B7B0293A3239B00FDF732F901222B78AE
:1001E00093432B70002E00D1B8E02068037D002BD4
:1001F000D0D00695142F28D99D239B00C35C002BDB
:100200001CD0EA180692FB1A0122142B00DC0022F3
:100210000121069B161C1A782B780E40CB408B4090
:100220008A4332430A401343069A13700B420BD1A0
:100230009D239B00C35CFB1A9FB206E00122069B34
:100240001B781343069A137014270122069B1B7810
:1002500093433C2B3BD1834A834BD6580A9B5B6824
:100260000B930433DD6FFDF78FF9804A0A9B751BF2
:100270005B6800927E4A043301925A6F2D0202920B
:10028000DB6F2D0A0393049605950121744A794B7F
:10029000FDF7D6F8002309930A9B08955B68089838
:1002A00009999A6FDB6F12184B41151C1E1C069B97
:1002B0002A0E591D5D71280ACA70320A48704A71A7
:1002C000280C320C330E88700E718A71CB710126A6
:1002D0002368694A985A0A32995A0096069A3B1C32
:1002E00005F064FC051E7AD0FDF74EF9634B644FB0
:1002F0000193311C00970295594A624BFDF7A0F813
:10030000574E0C2D02D0072D00D043E7FDF73CF9E6
:10031000029501255C4B0097019301215B4B321C38
:10032000FDF78EF8069B1B78AB432E2B0BD1FDF708
:100330002BF9574B00970193BC23291C321C9B00BF
:10034000FDF77EF811E7FDF71FF9524B0097019377
:10035000291C321C504BFDF773F81DE02368DA7C32
:10036000002A00D116E7444A985A0A32995A009650
:100370002A1C3B1C05F01AFC061E4CD0FDF704F9A4
:100380003F4B029600933D4B01210193344A434B6E
:10039000FDF756F80C2E3BD19C2322689B00D058C9
:1003A000FCF784FEE1E6002800D1F3E6DA68117874
:1003B000002904D11969914201D21A68DA60DD6816
:1003C0002B78002B00D1E5E6013B9FB26E78023519
:1003D000142F00D909E7731E9E41F6B2FEE622688B
:1003E0000699137D013B137523682D4A98183A1C12
:1003F00006F0ECFD069B1B78B3432E2B00D0B4E631
:100400002368144A291C98180E2206F0FCFDACE65D
:10041000072EC1D0BEE62268D37C013BD374FDF722
:10042000B3F8204B012100931F4B0D4A0193079B0A
:1004300002932368DB7C03931C4BFDF701F82368D0
:10044000174A291C98183A1C06F0C0FDA4E70DB005
:10045000F0BDC0468902000031900200609E02009B
:100460001B90020000100140040500003A830200C6
:10047000B19D0200CE02000062030000E49D020074
:10048000368D0200DB020000F89D0200ED02000044
:100490001A9E02003F9E0200F202000005030000C7
:1004A00075020000C4870200839E02000A03000058
:1004B000F0B5041C85B003F0B7FA2688051C012EA0
:1004C0001BD1FDF761F87F4B7F4A00937F4B311CB6
:1004D0000193237A0293CC239B00FCF7B1FFA18800
:1004E000281CFDF7D9FE227AC37CD318EA22C374F4
:1004F0009200835A01338352DAE0382E00D0DFE0D5
:10050000E388002B00D18AE0FDF73EF80E21E38856
:10051000FF316F4A8B4200D175E035D80621FF319B
:100520006C4A8B426FD017D80221FF316A4A8B4246
:1005300069D008D8694A012B65D0694A002B62D07E
:10054000684A013951E00421FF31674A8B425AD091
:10055000664A58D8664A56E00A21FF31654A8B42FE
:1005600051D008D80821FF31634A8B424BD0634AEF
:1005700049D8634A47E00C21FF31624A8B4242D09E
:10058000614A40D8614A3EE0A021FF31604A8B4277
:1005900039D019D81221FF315E4A8B4233D007D8A7
:1005A0001021FF318B422ED05B4A2CD85B4A2AE0C7
:1005B0008021FF315A4A8B4225D00131594A8B4262
:1005C00021D0594A6E3910E0FE21584A49008B4229
:1005D00019D00ED8E021FF31554A8B4213D001319A
:1005E000544A8B420FD0544A40398B420BD0534A65
:1005F00009E0FF21524A49008B4204D0514A02D3FC
:10060000514A5249F1E752490293009151490392EC
:1006100001912D4A0121504BFCF712FF50E0FCF7ED
:10062000B3FF284B012100934C4B274A01934C4BBD
:10063000FCF706FFA188281CFDF72EFE041E3FD004
:100640000126484A484F835A01338352C35DB3435E
:100650002E2B2AD0FCF798FF1A4B311C0093434BEA
:10066000194A0193E35DF3400293E35DDB07DB0F7F
:10067000DBB203933E4BFCF7E3FEE35D9D22191CC6
:10068000920031400ED1A154B3432C2B04D16868A1
:10069000211C321CFFF794FA9C239B00E058FCF7C6
:1006A00005FD02E0A35C1333A354237D01332375BE
:1006B000281CFDF72FFD002802D0281CFFF746FD5F
:1006C00005B0F0BD219102001B9002000FA40200B2
:1006D0000FA10200689F0200E19E0200A29E02009C
:1006E000CC930200C39E0200239F0200429F02009F
:1006F000059F020032A00200BF9F0200FD9F020082
:100700008F9F02008DA00200DBA002005FA002000C
:1007100034A202004CA102006FA102002DA1020030
:10072000E1A1020011A20200AFA10200E9A20200B1
:1007300087A20200B7A2020055A20200FBA302009A
:1007400084A3020019A30200C8A30200FF01000055
:10075000368D020029A402004203000043A40200D7
:100760004A030000A60300007502000056A4020020
:100770005903000013B5041CFCF738FF211C083492
:10078000183100943022002303F0B0FB13BD0000A9
:1007900070B5051C90B004F0E7F8EB8C2A1C0BAC8C
:1007A00023802E239832118852886B4419805A80F6
:1007B0002B1C0721294E96331B883068E380437B2E
:1007C0000B401A1C237A8B4313432372837B617281
:1007D000DA00237A0B401343237203F0ABF8643042
:1007E00003780021A3722B1C42331B783068E3721C
:1007F000FFF738FC1A4BA0815B890994E3816B6990
:1008000009AD23611423AB80FCF7BEFE154B01211B
:100810000093154B0193A38862881B041343029332
:100820000622A35E0393237A5A07520FDB08049231
:100830000593E3890D4A0693236907930C4BFCF754
:10084000FFFD3368281C1B6901211B7A002B00D097
:10085000002104F0DBFE10B070BDC046E034002083
:10086000CC3A002079A402007EA402003884020061
:1008700082020000031CF0B570331A788BB0041CA0
:100880000F1C8A4200D171E2057B002D00D06DE281
:10089000197002290FD15D7024331D7803F04AF8D6
:1008A000438E0321201CAB4200D80421FFF7E2FF56
:1008B000201C03212EE203291AD103F03BF8231C4C
:1008C000428D88331A600522173B1A70FCF75CFED4
:1008D000C44B01210093C44BC44A0193C44BFCF7A1
:1008E000AFFD8020C00005F03FFA8020C0001BE073
:1008F00004291FD103F01EF8231C828D88331A604F
:100900000522173B1A70FCF73FFEB64B01210093FE
:10091000B84BB64A0193B84BFCF792FDF0200001AA
:1009200005F022FAF020000105F0EEF8251C7034E5
:10093000483514E2052900D029E1031C71331D70EC
:10094000FCF722FEA74BA94E0093AC4B0121321CB1
:100950000193AB4BFCF774FD281C05F005FA281C2D
:1009600005F0D2F8236905931B8A0693002B09D161
:10097000FCF70AFEA34B01210093A34B321C019309
:10098000A24BF8E0A24B1B6807939B7B002B01D185
:1009900004935EE0039502950495039B069A9342A7
:1009A00054DA6B4605989989FCF776FB231C8C3347
:1009B000C2681B689B1A974A934243D8838A428A2B
:1009C0001B041343221C983215689C46AB4239D055
:1009D000027E520736D0026A002A0AD11621465EEC
:1009E000211C96310023C95E8E422BDC01D1AC451F
:1009F00028D80823C356191C583123DB002A0AD0F3
:100A0000E18C8A4207D01622815E221C9632002594
:100A1000525F914216DC067E6433F2081D1C022AE6
:100A200002DDFA239B005D43FA23642176079B00D5
:100A3000760F5E4351437218AB18049A934201D962
:100A400002900493039B01330393A6E7029B002BC0
:100A500002D10026351C30E000250920029B65618B
:100A60001B7808AE3370029B0622591C06ABC018D7
:100A700006F0ACFA029B321C198A0798DB8BFDF753
:100A80006BFB291C2422029806F0BDFA201C0821C9
:100A9000FFF7F0FE231C94331D7047E70023B1B22B
:100AA00063610598FCF7F8FA231C8C33C2681B6855
:100AB0009B1A584A934204D90136069B9E42EDDBAD
:100AC00021E0838A428A1B041343221C9832126855
:100AD0009342F1D0036A002BEED1027E0733111C42
:100AE0009943E9D00823C3565833E5DB1623C15E8A
:100AF000FA239B004B43D2089B18049A9342DBD9FC
:100B0000051C0493D8E7394E002D2BD0FCF73CFD93
:100B10003C4B321C0093404B261C0193B723012110
:100B20009B00FCF78DFCAB8A6A8A1B041343983642
:100B3000636132682B6A93420CD1354B00211868EF
:100B4000FDF7D2FD231C012296331A80201C03F0EE
:100B50003FFF3060201CFFF71BFE231C0022943354
:100B60001A70D5E0FCF710FD0121321C254B0093D3
:100B70002A4B01932A4BFCF763FC221C9432137816
:100B8000632B01D801331370201C0A21C2E00A290B
:100B90004CD1031C022271331A7002F0CBFE261CCA
:100BA000C38D8836002B04D102F0C4FEC38D3360A0
:100BB0000DE002F0BFFEC58D02F03EFE029002F095
:100BC000B9FE018E029805F037FE4D193560FCF72D
:100BD000DBFC044B01210093124B044A0193124B9E
:100BE0005FE0C046D5A40200DCA402003884020005
:100BF000F1030000F1A40200FB03000005A50200C0
:100C0000040400004686020014A502009B020000B6
:100C1000E0340020983A00002EA5020064A50200EE
:100C2000F902000075A5020024040000082910D173
:100C3000031C4F4A88331A600522173B1A70FCF7D1
:100C4000A3FC4C4B012100934B4B4C4A01934C4B62
:100C500073E0092912D102F06DFE231C828A8833C9
:100C60001A600522173B1A70FCF78EFC414B0121DC
:100C70000093444B414A0193434B5EE0062917D150
:100C8000031CFA228833D2001A600722173B1A701D
:100C9000FCF77AFC0121374B384A00933B4B019318
:100CA0003B4BFCF7CDFB002005F05EF800203BE657
:100CB000072932D1031C002571331D70FCF764FC39
:100CC0002C4B2E4E0093334B0121321C0193324B9F
:100CD000FCF7B6FBFCF758FC304B01210093304B7E
:100CE000321C01932823FF33FCF7AAFB02F022FEFB
:100CF0003C3003789D420BDA2A4B1A682B1C0833D0
:100D00009B009858037A023B012B2CD90135EDE763
:100D1000201C0221FFF7AEFD08E60B2900D005E6F6
:100D2000031C002571331D70FCF72EFC0121114BB3
:100D3000124A00931C4B01931C4BFCF781FB281CAF
:100D400005F012F8281CEFE5036A9B78002B03D00E
:100D50000368391C5B6B98470435A54206D02868A8
:100D60000028F1D1F8E7FDF7B1FCCFE70BB0F0BDFB
:100D700030750000D5A4020084A50200388402006A
:100D8000320400009CA502003E040000BCA5020045
:100D90004A040000CCA50200540400005D84020057
:100DA000E4A50200E034002013A602005E04000067
:100DB00013B5041CFCF7E8FB074B084A0093084BEB
:100DC000012101939C235B00FCF73AFB201C0221CC
:100DD000FFF750FD13BDC0463A830200388402007D
