:020000021000EC
:10C000000080002009C40100255A0200D90B02005B
:10C010000000000000000000000000000000000020
:10C02000000000000000000000000000255A02008F
:10C030000000000000000000255A0200255A0200FE
:10C04000255A0200255A0200255A0200255A0200EC
:10C05000255A020000000000255A0200255A02005D
:10C06000255A0200255A0200255A0200255A0200CC
:10C07000255A0200255A0200255A0200255A0200BC
:10C08000255A02004D300200255A0200255A0200AE
:10C09000B92F0200512B020085EA0100255A020047
:10C0A000255A0200255A020000000000000000008E
:10C0B0000000000000000000000000000000000080
:10C0C000FFFFFFFFFFFFFFFFFFFFFFFFFFFFFFFF80
:10C0D000FFFFFFFFFFFFFFFFFFFFFFFFFFFFFFFF70
:10C0E000FFFFFFFFFFFFFFFFFFFFFFFFFFFFFFFF60
:04C400000000000038
:10C4080080B500AF0BF0DEFA0C4A0D4B9A4207D00C
:10C418000C4B0A490A4A081C111C1A1C14F0A0FFEC
:10C42800094B0A4A101C00211A1C14F0B6FF14F01C
:10C4380043FF0BF0BBFA05F01DF8FEE700280020CB
:10C44800686B030044010000040A0000442900202E
:10C45800F8B5C046F8BC08BC9E467047F8B5C0465B
:10C46800F8BC08BC9E46704710B5064C2378002BD4
:10C4780007D1054B002B02D0044800E000BF012380
:10C48800237010BD4429002000000000686B0300E1
:10C4980008B5084B002B03D00748084900E000BF47
:10C4A80007480368002B00D108BD064B002BFBD0C2
:10C4B8009847F9E700000000686B0300482900204E
:10C4C80044290020000000002BDF704770B582B0BF
:10C4D800061C031C114A083204C344685D680DE059
:10C4E80020680C380E4B984207D083685A1E826029
:10C4F800002B02DC01A90BF083FC0434A542EFD128
:10C508007068002801D00BF003FB301C09F036FBE3
:10C51800301C0BF0FDFA301C02B070BDC0360300B1
:10C528000032002070B582B0061C031C104A083285
:10C5380004C344685D680DE020680C380D4B9842D0
:10C5480007D083685A1E8260002B02DC01A90BF019
:10C5580057FC0434A542EFD17068002801D00BF0D5
:10C56800D7FA301C09F00AFB301C02B070BDC04677
:10C57800C03603000032002030B583B0104B114A9A
:10C5880008321A605C689D680DE020680C380E4B14
:10C59800984207D083685A1E8260002B02DC01A9EA
:10C5A8000BF02EFC0434A542EFD1054B5868002847
:10C5B80001D00BF0ADFA024809F0E0FA03B030BD43
:10C5C800AC2B0020C036030000320020F0B55746DF
:10C5D8004E464546E0B4041C8A46161C0B1A1B112D
:10C5E80099465EE0A0462068031C0C3B1A68316837
:10C5F8000B1C0C3B1B689A4205D114F0A2FE0028C4
:10C6080003D0002502E0002500E00125002D01D01F
:10C61800201C9DE043461F1D3C1C5868031C0C3B16
:10C628001A6831680B1C0C3B1B689A4204D114F041
:10C6380088FE002800D10125002D01D0201C87E0AC
:10C648003B1D98461C1C7868031C0C3B1A68316813
:10C658000B1C0C3B1B689A4204D114F072FE002894
:10C6680000D10125002D01D0201C71E043461F1D7B
:10C678003C1C5868031C0C3B1A6831680B1C0C3BAB
:10C688001B689A4204D114F05CFE002800D10125F1
:10C69800002D01D0201C5BE03C1D01235B429C4621
:10C6A800E1444B46002B9DDC251C53461B1B9B106D
:10C6B800022B1CD0032B02D0012B48D130E020687C
:10C6C800031C0C3B1A6831680B1C0C3B1B689A4214
:10C6D80005D114F036FE002803D0002302E0002321
:10C6E80000E00123002B01D0201C31E02C1D251C6B
:10C6F8002068031C0C3B1A6831680B1C0C3B1B6838
:10C708009A4205D114F01DFE002803D0002302E050
:10C71800002300E00123002B01D0201C18E02C1D71
:10C728002068031C0C3B1A6831680B1C0C3B1B6807
:10C738009A4205D114F005FE002803D0002302E038
:10C74800002300E00123002B01D0201C00E050460C
:10C758001CBC90469946A246F0BDC046F0B5474677
:10C7680080B4041C8846161C0F1A3F1124E0201CB4
:10C7780031680BF032FA002801D1201C43E0043460
:10C78800201C31680BF029FA002801D1201C3AE05E
:10C79800251D281C31680BF020FA002801D1281C1F
:10C7A80031E00435281C31680BF017FA002801D154
:10C7B800281C28E02C1D013F002FD8DC43461B1BFA
:10C7C8009B10022B0DD0032B02D0012B1AD111E0A4
:10C7D800201C31680BF001FA002801D1201C12E05E
:10C7E8000434201C31680BF0F8F9002801D1201C12
:10C7F80009E004343168201C0BF0EFF9002801D15E
:10C80800201C00E0404604BC9046F0BDF0B585B061
:10C81800051C01910C1D4368A3420DD0271C0E1C5A
:10C828001C1BA41006E0301C391C0BF0C2F904379D
:10C838000436013C002CF6DC6B68043B6B6018681E
:10C848000C38074B984207D083685A1E8260002B29
:10C8580002DC03A90BF0D4FA019805B0F0BDC0467C
:10C8680000320020F0B54F464646C0B485B0051CDE
:10C878000C1C01230193436802689E1AB6100396A4
:10C88800012E01D201AA00E003AA1268B6182A688C
:10C898009B1A9B109E4204D3294B9E4202D91E1C10
:10C8A80000E0274E002E09D0254B9E4201D90BF0FF
:10C8B80043F9B0000BF01AF9814601E000239946CC
:10C8C8006B682A68981A801080004844002802D0B3
:10C8D800211C0BF0C8FA2B6868684A4607E0002A52
:10C8E80003D0196811601749196004330432834270
:10C8F800F5D1131D98462F686C680DE038680C3820
:10C90800114B984207D083685A1E8260002B02DCC4
:10C9180002A90BF075FA0437BC42EFD12868002849
:10C9280001D00BF0F5F84B462B6043466B60B60020
:10C938004E44AE6005B00CBC90469946F0BDC0466A
:10C94800FFFFFF3F0C3200200032002010B5041C0E
:10C958000023038341608B188360828101614161F8
:10C96800FFF7B2FD002362691370201C10BDC0469A
:10C978002DDF70472CDF704770B582B0061C046845
:10C9880045680DE020680C380A4B984207D0836848
:10C998005A1E8260002B02DC01A90BF031FA043424
:10C9A800A542EFD13068002801D00BF0B1F8301C57
:10C9B80002B070BD00320020F8B5041C0E1C151C16
:10C9C8001F1C05E000202056B847287001340135A7
:10C9D800B442F7D1281CF8BDF8B5051C0C1C0B682F
:10C9E8000C3B9B68002B02DB081C0BF0A3F92768A3
:10C9F8003B1C0C3B9B68002B02DB201C0BF09AF9BC
:10CA08002668331C0C3B1A68944666449B68002BC6
:10CA180002DB201C0BF08EF9381C311C2268154BE8
:10CA2800FFF7CAFFAE686868311C221C0023FFF7B5
:10CA3800CDFD2861864212D104356868AB6883420F
:10CA480008D0002802D0211C0BF00DFA6B680433C3
:10CA58006B600DE0281C211CFFF704FF08E02A1D6D
:10CA68006B68C11A891089005918101CFFF7CEFE8F
:10CA7800F8BDC0469D79020005280BD88000074BF9
:10CA88001B589F46064808E0064806E0064804E0AA
:10CA9800064802E0064800E006487047A42803005C
:10CAA800DC2903001C2A0300442A0300702A03001F
:10CAB800982A0300082A0300F0B5474680B482B0DC
:10CAC800061C071D436898467D681C1C0DE02068FD
:10CAD8000C380C4B984207D083685A1E8260002B92
:10CAE80002DC01A90BF08CF90434A542EFD14346CE
:10CAF8007B600022D2235B00F25402B004BC904653
:10CB0800F0BDC04600320020F8B50F1C161C1D1CD5
:10CB180000240BE0731EA34201D9064900E0064930
:10CB28003A5D281C14F080FD2D180134B442F1D36D
:10CB3800F8BDC046B02A0300B82903000E23FF330E
:10CB4800984200D17AE029D80623FF33984265D06D
:10CB580013D80223FF33984258D008D8012800D1AF
:10CB68008EE000284ED0013B98424DD086E0042349
:10CB7800FF3398424ED04BD94EE00A23FF339842F8
:10CB880054D005D80823FF3398424BD048D94BE0FE
:10CB98000C23FF3398424DD04AD94DE0A023FF33F0
:10CBA80098425BD015D81223FF3398424ED005D84F
:10CBB8001023FF33984245D042D945E08023FF3304
:10CBC800984247D00133984246D06E3B984255D19F
:10CBD8003EE0FE235B00984248D00AD8E023FF33AA
:10CBE80098423FD0013398423ED0403B984245D1CD
:10CBF80036E0FF235B0098423CD039D3214B984262
:10CC08003AD03BE020483CE020483AE0204838E071
:10CC1800204836E0204834E0204832E0204830E020
:10CC280020482EE020482CE020482AE0204828E030
:10CC3800204826E0204824E0204822E0204820E040
:10CC480020481EE020481CE020481AE01E4818E052
:10CC58001F4816E01F4814E01F4812E01F4810E064
:10CC68001F480EE01F480CE01F480AE01F4808E074
:10CC78001F4806E01F4804E01F4802E01F4800E084
:10CC88001F487047FF010000B82A0300E42A030088
:10CC9800042B0300282B0300482B0300682B0300F8
:10CCA800902B0300B82B0300E82B0300282C03006B
:10CCB800602C0300902C0300C02C0300102D0300EF
:10CCC800442D0300642D0300842D0300A82D0300C8
:10CCD800E82D03001C2E03004C2E0300702E0300C9
:10CCE800942E0300C82E0300F82E03002C2F0300F7
:10CCF8005C2F0300C82F03000C30030040300300F2
:10CD0800C02A03003E2835D880001C4B1B589F467C
:10CD18001B4832E01B4830E01B482EE01B482CE043
:10CD28001B482AE01B4828E01B4826E01B4824E053
:10CD38001B4822E01B4820E01B481EE01B481CE063
:10CD48001B481AE01B4818E01B4816E01B4814E073
:10CD58001B4812E01B4810E01B480EE01B480CE083
:10CD68001B480AE01B4808E01B4806E01B4804E093
:10CD78001B4802E01B4800E01B487047BC28030022
:10CD8800B82A03006830030088300300A03003008D
:10CD9800C4300300E83003001431030028310300D5
:10CDA800383103005831030078310300883103001B
:10CDB800AC310300C8310300EC3103002832030012
:10CDC800603203008432030098320300B832030053
:10CDD800D0320300E4320300FC32030010330300B6
:10CDE8002433030040330300543003000A284CD096
:10CDF80018D804283DD008D8012860D0002832D09F
:10CE0800022832D0032832D057E0072837D004D878
:10CE1800052830D0062830D04FE0082831D009281E
:10CE280031D04AE010283CD00CD80D2833D004D893
:10CE38000B282CD00C282CD03FE00E282DD00F2802
:10CE48002DD03AE01F4B984231D005D811282AD06E
:10CE58001D4B984229D030E01C4B984229D01C4BDE
:10CE6800984228D029E01B482AE01B4828E01B48A4
:10CE780026E01B4824E01B4822E01B4820E01B4812
:10CE88001EE01B481CE01B481AE01B4818E01B4822
:10CE980016E01B4814E01B4812E01B4810E01B4832
:10CEA8000EE01B480CE01B480AE01B4808E01B4842
:10CEB80006E01B4804E01B4802E01B4800E01B4852
:10CEC8007047C04603300000023000000430000004
:10CED800EFBEADDE5433030080330300A4330300F8
:10CEE800B8330300CC330300E0330300F833030006
:10CEF8001034030028340300443403005C34030076
:10CF080074340300883403009C340300AC340300F9
:10CF1800C0340300D8340300E834030008350300A4
:10CF280028350300403503004C3503006033030007
:10CF3800F8B5051C0C1C0B680C3B9B68002B02DB2E
:10CF4800081C0AF0F7FE27683B1C0C3B9B68002B6B
:10CF580002DB201C0AF0EEFE2668331C0C3B1A6824
:10CF6800944666449B68002B02DB201C0AF0E2FE14
:10CF7800381C311C22680B4BFFF71EFD043568680E
:10CF8800AB68984208D0002802D0211C0AF06BFF39
:10CF98006B6804336B6003E0281C211CFFF762FCFC
:10CFA800F8BDC0469D790200F0B587B0041C0E1C80
:10CFB800171C0393002912D0D2235B00C55C002DF7
:10CFC80012D1254B0C9A9A420BD04068A1680CAA42
:10CFD8000023FFF7C3FBA368834204D104E00125C3
:10CFE80002E0012500E00125002D32D0251C143572
:10CFF800281C0021C82214F0D0F9DC34201C0021A0
:10D00800C82214F0CAF90EAA0592281C0D9914F02A
:10D0180055FD012E0CD10C9B00930195201C0F4946
:10D028003A1C039B14F000FB201C01F065FE10E085
:10D03800022E03D1281C01F05FFE0AE0002E08D161
:10D04800201C07490C9A2B1C14F0EEFA201C01F046
:10D0580053FE07B0F0BDC046543503005C350300ED
:10D0680070350300F0B5574680B486B0061C0F1C17
:10D07800029203930CAC08CC9A46051C1435281C64
:10D088000021C82214F089F90594281C5146221C55
:10D0980014F014FD002F0CD0341CDC340095201C37
:10D0A8000749029A039B14F0BFFA201C01F024FEE2
:10D0B80002E0281C01F020FE06B004BC9246F0BD38
:10D0C8007835030038B5041C08F096FD0D4B08337D
:10D0D800236000256560A560E5602561201C14308B
:10D0E8000021C82214F059F9201CDC300021C82284
:10D0F80014F053F9D2235B00E554201C08F082FD9C
:10D10800201C38BDC036030008B5074B1B68DB0779
:10D1180008D40648FFF7D6FF0122034B1A600448DB
:10D1280014F05BF8014808BDA82B0020AC2B0020A8
:10D1380081C50100F0B5474680B484B0041C029153
:10D14800151C1F1CFFF716FC002816D0304B1B6857
:10D15800DB0708D42F48FFF7B5FF01222C4B1A60D4
:10D168002D4814F03AF82D4B00932D4B0193294884
:10D1780001212C4A3923FFF717FFEB1CDBB2626948
:10D1880021698A420DD3A068861A03939E4208DC5F
:10D198006668881B8046434503DC6661002333705C
:10D1A80014E08A4208D3D018A668B04204D3201CE1
:10D1B800FFF7DEFB002027E08A4207D2D318994206
:10D1C80004D8201CFFF7D4FB00201DE06B1C62690B
:10D1D80013706369002F01D0012200E000225A7009
:10D1E8006369981C02992A1C14F0BAF8023563691D
:10D1F8009C466544656100232B70238B0133238390
:10D20800201CFFF7B5FB012004B004BC9046F0BD1C
:10D21800A82B0020AC2B002081C501005435030049
:10D22800A83503009735030030B585B0051CD22317
:10D238005B00C35C002B14D0224B1B68DB0708D4AF
:10D248002148FFF73FFF01221E4B1A601F4813F0C9
:10D25800C4FF1F4B00931C4800211E4A9023FFF770
:10D2680001FF6C68AD6828E002A8211C0AF0FBFDEC
:10D27800144B1B68DB0708D41348FFF723FF012270
:10D28800104B1A60114813F0A8FF134B0093029B30
:10D2980001930D4800210F4A9323FFF7E3FE0298FC
:10D2A8000C380E4B984207D083685A1E8260002BB8
:10D2B80002DC03A90AF0A4FD0434A542D4D105B0C8
:10D2C80030BDC046A82B0020AC2B002081C5010032
:10D2D800D4350300C7350300E835030000320020C9
:10D2E800F0B583B0061C0D1C171C081C29490AF050
:10D2F80074FC002807D17B683A689B1A9B10012BA5
:10D3080003D0002402E0002400E00124002C2CD0EB
:10D31800386821490AF061FC002806D1D22252005F
:10D32800B15C01234B40B35431E038681B490AF023
:10D3380054FC002803D1301CFFF7BEFB27E03968F6
:10D3480068460AF090FD301C6946FFF745FB0098D7
:10D358000C38134B98421AD083685A1E8260002BEF
:10D3680015DC01A90AF04CFD11E0281C0D490AF052
:10D3780034FC002804D1301CFFF756FF012406E0D6
:10D38800281C09490AF029FC002800D10124201C86
:10D3980003B0F0BDF0350300F8350300FC35030099
:10D3A80000320020043603001036030000B583B0B5
:10D3B80001291CD0002902D0022930D047E0304B87
:10D3C8001B68DB0708D42F48FFF77CFE01222C4B93
:10D3D8001A602D4813F001FF2C4B00932C4B01933E
:10D3E800284800212B4A6A23FFF73CFE46E0244BDD
:10D3F8001B68DB0708D42348FFF764FE0122204B93
:10D408001A60214813F0E9FE234B0093204B019347
:10D418001C4800211F4A6D23FFF724FE2EE0184BFD
:10D428001B68DB0708D41748FFF74CFE0122144B92
:10D438001A60154813F0D1FE184B0093144B019352
:10D4480010480021134A7023FFF70CFE16E00C4B1E
:10D458001B68DB0708D40B48FFF734FE0122084B92
:10D468001A60094813F0B9FE0D4B0093084B01935D
:10D4780004480021074A7323FFF7F4FD03B000BDF9
:10D48800A82B0020AC2B002081C501001C3603000E
:10D4980054350300C73503003C36030068360300E3
:10D4A800943603004379002B0ED00379002B05D066
:10D4B8000168064BA022D205D15005E00168A123DE
:10D4C800DB00A022D205D1507047C0460C050000F1
:10D4D8004379002B0ED00379002B06D00168A123D5
:10D4E800DB00A022D205D15004E00168024BA02243
:10D4F800D205D1507047C0460C050000002902D162
:10D508000023437101E001234371027101238B4021
:10D51800191C0360A323DB00A022D205D1500023ED
:10D528008360704710B58A8A002A02D1002383805D
:10D5380014E0CB681C68002C04D10C69A34201D903
:10D548000B68CB60CC6808CC9BB283800460043342
:10D55800CC68A4466344CB60013A8A8210BDC046B9
:10D5680010B58B8A002B01D1838010E0CB681A6834
:10D57800002A09D10C69A34206D90B681B6883806D
:10D588000B680433036002E082800433036010BD3B
:10D5980010B50023838201608C1844600281C16049
:10D5A80001610B6010BDC046C0887047C3888B42BC
:10D5B80005D90368002B04D08900C85802E0002070
:10D5C80000E000207047C04610B5041C044B083327
:10D5D800036008F0D3FA201C0AF09AFA201C10BD48
:10D5E800A038030010B5041C034B0833036008F08F
:10D5F800C5FA201C10BDC046A038030008B5034872
:10D60800034B0833036008F0B9FA08BDD83000208E
:10D61800A038030070B584B0061C141C1D1C144BE4
:10D628001B68DB0708D41348FFF74CFD0122104B99
:10D638001A60114813F0D1FD104B0093104B019361
:10D64800029503940B4801210E4A7623FFF7ACFCA0
:10D658001634E4003019A9B201F0AEFB002803D05B
:10D668007A21094A03F096FB012004B070BDC04638
:10D67800A82B0020AC2B002081C50100F436030044
:10D68800FC360300E7360300D8360300F0B585B052
:10D69800071C0E1C141C1D1C114B1B68DB0708D42F
:10D6A8001048FFF70FFD01220D4B1A600E4813F0CA
:10D6B80094FD0E4B00930E4B019302950394094879
:10D6C80001210C4A6C23FFF76FFC1634E40039196A
:10D6D800AAB2301C002301F0AFFB012005B0F0BD59
:10D6E800A82B0020AC2B002081C50100F4360300D4
:10D6F80018370300E7360300F0B5474680B488B012
:10D7080006AF78600D1C161C081C4A490AF065FA19
:10D71800002843D1E8463368186813F066FD051CF5
:10D7280033685B683B60181C13F0F6FF041C830722
:10D7380007D0011DC3179B0FC21803201040C01A41
:10D748000C1AE31DDB08DB006A46D31A9D4606AEB9
:10D75800301C396815F01AF87868311C2A1C231C0B
:10D76800FFF758FF344B1B68DB0708D43348FFF733
:10D77800A9FC0122304B1A60314813F02EFD314BC1
:10D788000093314B0193029403952C4801212F4AB1
:10D79800B723FFF709FCC546012045E0281C2C49A2
:10D7A8000AF01BFA00283ED1E8463368186813F0DF
:10D7B8001CFD051C3368586813F017FD061C830709
:10D7C80007D0011DC217920F831803261E40B61AF0
:10D7D8008E1BF31DDB08DB006A46D31A9D4606AC98
:10D7E8007868211C2A1C331CFFF750FF124B1B685A
:10D7F800DB0708D41148FFF765FC01220E4B1A60BD
:10D808000F4813F0EAFC0F4B0093124B019302945C
:10D8180003960495094801210C4AC123FFF7C4FB6C
:10D82800C546012000E00020BD4602B004BC904679
:10D83800F0BDC04600400300A82B0020AC2B002000
:10D8480081C50100F436030038370300E7360300CA
:10D85800244003005837030010B582B080235B00D2
:10D86800C35C002B1FD1A433C1588B8A002B1AD05C
:10D87800041C012280235B00C2546846FFF770FE37
:10D88800009B1A88002A06D199685A685B88201C70
:10D89800FFF7FCFE07E0012A05D199685A685B8802
:10D8A800201CFFF7B7FE02B010BDC046F8B5551DE5
:10D8B8000369C468A3420BD34668F61AAE4207D878
:10D8C8000668A71BAF4203D30661002333600AE052
:10D8D800A34203D35E194768BE4218D2A34202D2BC
:10D8E8005B199C4215D9141C051C03691A6003694D
:10D8F800181D13F035FD04342B699C4664442C61D3
:10D9080000232360AB8A0133AB82012002E00020B0
:10D9180000E00020F8BDC04638B5041C0D1C880086
:10D9280013F0F0FC20600023E380A580201C38BDA4
:10D93800F0B557464E464546E0B48AB0984B1B783A
:10D94800002B00D125E1974900230B70002001F03E
:10D95800E5F9002800D11CE1934B1B78002B06D079
:10D96800924801F0C9F98F4B187801F09DF98D485C
:10D97800FA21012208F0FEF98D4803680C3B1A6869
:10D98800002100230AF086F98A4B1E685D68341C62
:10D998000DE020680C38884B984207D083685A1EDF
:10D9A8008260002B02DC08A90AF02AFA0434A54296
:10D9B800EFD1804B5E607B48804913F0C9FE041E9E
:10D9C80006D013F0A9FE021C7948211C0AF0DCF9E4
:10D9D800774B1B680C3B9B68002B02DB74480AF0F2
:10D9E800A9F9734B1E68331C0C3B9B68002B02DBA8
:10D9F8006F480AF09FF96E4B1D682B1C0C3B1A6888
:10DA0800944665449B68002B02DB69480AF092F94A
:10DA1800674B1A68301C291C694BFEF7CDFF1BE0C9
:10DA28000020664913F094FE041E15D06846211C98
:10DA380001AA0AF049FA5F48694608F08BF800988D
:10DA48000C385D4B984207D083685A1E8260002BC1
:10DA580002DC06A90AF0D4F9002CE1D1544859494E
:10DA68000AF0BBF800286FD11B3001F01DF95648A9
:10DA780001F042F91B2001F017F9544801F03CF974
:10DA880087E0534B1868B1B2FFF790FD80460368F2
:10DA98009B68994602A846490AF0E5F9454A536841
:10DAA80014681C1BA4100023039304930593002CF3
:10DAB80009D0484B9C4201D90AF03EF8A0000AF070
:10DAC80015F8051C00E0002503950495A4002C1901
:10DAD8000594384B1C685F6807E0002D03D0281CAC
:10DAE800211C0AF0C0F904340435BC42F5D1049570
:10DAF800404602A903AAC8478244039C049D0DE03E
:10DB080020680C382C4B984207D083685A1E8260D4
:10DB1800002B02DC09A90AF073F90434A542EFD1FD
:10DB28000398002801D009F0F3FF02980C38224B23
:10DB3800984207D083685A1E8260002B02DC07A92E
:10DB48000AF05EF9013602E0002600239A46204BCF
:10DB58001868FFF729FD864293D35346002B18D146
:10DB6800114B1B78002B03D01B4801F0C5F810E0BF
:10DB78001A4B1B68DB0708D41948FFF7A3FA0122E0
:10DB8800164B1A60174813F028FB15480121FFF7B8
:10DB98000DFC0AB01CBC90469946A246F0BDC04692
:10DBA8008C2A0020602900201828002078370300DC
:10DBB800F8310020EC31002000320020004403003E
:10DBC8009D79020084370300883703008C370300EF
:10DBD800E0310020FFFFFF3F90370300A82B002013
:10DBE800AC2B002081C5010010B582B0082009F0D7
:10DBF8007DFF041C1421FFF78FFE1B4B1C600123C3
:10DC08000093082009210A220A3301F003F8174B70
:10DC18001B78002B23D01B2001F046F8144801F094
:10DC28006BF81B2001F040F8124801F065F8124823
:10DC380001F062F8114801F05FF8114801F05CF852
:10DC4800104801F059F8104801F056F80F4801F053
:10DC580053F80F4801F050F80E4801F04DF8012232
:10DC68000D4B1A7002B010BDE031002018280020BA
:10DC7800883703008C370300A4370300DC37030020
:10DC8800003803000C380300103803001C38030068
:10DC9800283803002C3803008C2A002010B584B0E3
:10DCA800041C029169464A800193069B0393012351
:10DCB8000B80A333C0581022FFF7F8FD201CFFF794
:10DCC800CBFD04B010BDC04610B584B0041C029151
:10DCD80069464A800193069B039300230B80A43373
:10DCE800C0581022FFF7E2FD201CFFF7B5FD04B075
:10DCF80010BDC04670B584B0061C07F07DFF284BE8
:10DD080008333360301C07F07DFF182009F0EEFE61
:10DD1800041C311DA022FFF73BFCA423F450002271
:10DD28005C33F25402AB80329A80783ADA801D4B29
:10DD3800029305F089FA002803D03A211A4A03F021
:10DD480029F8341CA83402A8211C05F0CBF90028B6
:10DD580016D0164B1B68DB0708D41548FFF7B2F935
:10DD68000122124B1A60134813F037FA124B009332
:10DD7800124B01930E480121114A3E23FFF714F973
:10DD8800002508E0A9B22A1C1632D200B218201CBD
:10DD980005F06EF90135092DF4D9301C04B070BDB9
:10DDA800A0380300F9DD0100D8360300A82B0020B5
:10DDB800AC2B002081C50100F43603006438030051
:10DDC800E736030008B5074B1B68DB0708D406488D
:10DDD800FFF790FF0122034B1A60044813F0FDF986
:10DDE800014808BDDC310020D830002005D60100EC
:10DDF80030B58BB00C1C151C6E4B1B68DB0708D4A8
:10DE08006D48FFF75FF901226A4B1A606B4813F0FF
:10DE1800E4F96B4B00936B4B0193029403950E9BB3
:10DE2800049365480121684A4723FFF7BDF8002D90
:10DE380027D0604B1B68DB0708D45F48FFF742F91F
:10DE480001225C4B1A605D4813F0C7F9594B1B68F7
:10DE5800DB0708D45848FFF735F90122554B1A60FB
:10DE6800564813F0BAF9A0B2FEF706FE544B0093D9
:10DE7800564B0193029050480121534A4823FFF71B
:10DE880093F8042C2DD1002D2BD1514B1B68DB07A7
:10DE980008D45048FFF72EFF01224D4B1A604E4818
:10DEA80013F09BF9A4234B4AD15806A8FFF758FB57
:10DEB800069C474B1B68DB0708D44648FFF71AFF48
:10DEC8000122434B1A60444813F087F96068163002
:10DED800C000404BC018A1686288002301F008F810
:10DEE80066E0023C012C3FD8002D3DD1384B1B6821
:10DEF800DB0708D43748FFF7FDFE0122344B1A60D0
:10DF0800354813F06AF9A423324AD15808A8FFF714
:10DF180009FB089B1A88002A03D1D86803689B6804
:10DF280098472B4B1B68DB0708D42A48FFF7E2FE0B
:10DF38000122274B1A60284813F04FF9002180234B
:10DF48005B00244AD154224B1B68DB0708D4101C01
:10DF5800FFF7D0FE01221E4B1A601F4813F03DF94F
:10DF68001C48FFF779FC23E0002D21D0184B1B68D3
:10DF7800DB0708D41748FFF7BDFE0122144B1A60CF
:10DF8800154813F02AF9002180235B00114AD15467
:10DF98000F4B1B68DB0708D4101CFFF7ABFE0122F0
:10DFA8000B4B1A600C4813F018F90A48FFF754FC99
:10DFB8000BB030BDA82B0020AC2B002081C5010080
:10DFC800F436030080380300E7360300CC3E030034
:10DFD800DC310020D830002005D60100C3888288B3
:10DFE800934209D20268002A08D09B00D150C38806
:10DFF8000133C380012002E0002000E000207047C8
:10E008000023038203688360C3607047038A8B42DE
:10E0180004D90368C0884143581800E000207047BD
:10E02800828803689C466244C368D21AC1888A42BF
:10E0380006DB5B18C360028A01320282581A00E0CC
:10E048000020704710B50024048201608280C380DC
:10E058008160C16010BDC04600230383436803612B
:10E06800436100221A70704710B582B0041CFEF795
:10E0780081FC002816D0124B1B68DB0708D4114816
:10E08800FFF720F801220E4B1A600F4813F0A5F88D
:10E098000E4B00930E4B01930A4801210D4A85232C
:10E0A800FEF782FF226913780133D3182361238B8B
:10E0B800013B2383201CFEF75BFC02B010BDC04669
:10E0C800A82B0020AC2B002081C50100543503008B
:10E0D800A83503009735030030B583B0051C0C1C28
:10E0E800081CFEF747FC002816D0194B1B68DB07F5
:10E0F80008D41848FEF7E6FF0122154B1A601648A7
:10E1080013F06BF8154B0093154B0193114801213F
:10E11800144A6923FEF748FF238B002B04D1AB80F8
:10E12800201CFEF725FC10E023691A78002A04D188
:10E138006269934201D96368236123691A78AA80C6
:10E1480001332B60201CFEF713FC281C03B030BDE4
:10E15800A82B0020AC2B002081C5010054350300FA
:10E16800A8350300973503007047C0467047C0467E
:10E178007047C0467047C0467047C0467047C046A3
:10E188007047C0467047C04672DF704761DF70470E
:10E1980010DF704751DF70472EDF704770B584B0CD
:10E1A8001A78552A48D159799A7912020A43018A6C
:10E1B8008A4241D1DA79002A3ED0012A3CD0022A8B
:10E1C8003AD134E02B1C10339B00B2689446634468
:10E1D8005B68002B29D0198A6279A3791B02134343
:10E1E800994222D1154B1B68DB0708D41448FEF767
:10E1F80069FF0122114B1A60124812F0EEFF237AD0
:10E20800114A0092114A019202930D480121104AC5
:10E21800DC23FEF7C9FE2B1C10339B00B268944622
:10E2280063445B681B6A227A9A70013502E01C1C01
:10E23800061C0025092DC5D904B070BDA82B0020E7
:10E24800AC2B002081C501002C39030034390300B0
:10E258001F39030010B584B0041C036A1B88FF2B08
:10E268001BD12C4B1B68DB0708D42B48FEF72AFF71
:10E278000122284B1A60294812F0AFFF284B00935F
:10E28800284B019324480121274A4A23FEF78CFE94
:10E2980023685B69201C984739E0028A93421CD0A6
:10E2A8001C4B1B68DB0708D41B48FEF70BFF012239
:10E2B800184B1A60194812F090FF236A1A88238AAB
:10E2C8001A4900911A4901910292039312480121B7
:10E2D800154A5023FEF768FE19E00E4B1B68DB0752
:10E2E80008D40D48FEF7EEFE01220A4B1A600B48CF
:10E2F80012F073FF236ADB78094A00920D4A0192F3
:10E30800029305480121084A5423FEF74DFE04B044
:10E3180010BDC046A82B0020AC2B002081C50100F1
:10E328002C390300483903001F3903005435030012
:10E33800643903008839030008B5FFF78BFF08BD6F
:10E34800F0B5474680B4B94CA544071C0D1C141CF5
:10E35800126863689B1A072B07D91430516813F0A9
:10E36800D1F9002803D0002602E0002600E00126AB
:10E37800002E00D152E1281CAD4909F02EFC0028DE
:10E3880008D1636822689B1A9B10032B05D00023D1
:10E39800984603E00023984600E0B0464346002B29
:10E3A80000D18DE02068A34909F017FC002800D0AF
:10E3B80080E0A14B1B68DB0708D4A048FEF782FE6B
:10E3C80001229D4B1A609E4812F007FF3B1C143334
:10E3D8009C4A00929C4A01920293984801219B4AC8
:10E3E8006523FEF7E1FD23689E68331C0C3B186823
:10E3F8000130032112F01AFB051C002409E060001B
:10E40800001930180021102213F024FB06AB185510
:10E418000134AC42F3D306ABD9783B6ADA7891423F
:10E4280026D1BA8CAA4223D11A8806AB1A80824B0D
:10E438001B68DB0708D48148FEF744FE01227E4BA7
:10E448001A607F4812F0C9FE7E4B0093804B0193FF
:10E458007A4801217D4A7523FEF7A6FDBA8C386AF1
:10E4680006A912F07DFF3B689B68381C98471FE09F
:10E47800714B1B68DB0708D47048FEF723FE0122A6
:10E488006D4B1A606E4812F0A8FEB98C06ABDA78AC
:10E498003B6ADB786B4800906E48019002950391C7
:10E4A8000492059365480121684A7C23FEF77CFDA8
:10E4B8004646B3E02368186812F097FE4646ADE07A
:10E4C800281C654909F089FB002839D12068594979
:10E4D80009F083FB00282ED1574B1B68DB0708D4B3
:10E4E8005648FEF7EFFD0122534B1A60544812F0CC
:10E4F80074FEBA8C5148396A06ABFEF705FB4E4BE1
:10E508001B68DB0708D44D48FEF7DCFD01224A4BA7
:10E518001A604B4812F061FE1437504B0093504B71
:10E528000193029706AB039344480021474A962378
:10E53800FEF798FD72E02368186812F056FE6DE049
:10E54800281C484909F049FB002867D12068394947
:10E5580009F043FB00282DD1206863681B1A0B2B98
:10E5680006D90830404909F038FB002800D1B046E8
:10E578004346002B04D03B6A00229A7046464DE081
:10E58800636820681B1A0B2B06D90830374909F035
:10E5980024FB002800D1B0464346002B04D03B6A38
:10E5A80001229A70464639E03A6A91784B424B41CB
:10E5B800937033E055236A461376BB682A229A5C27
:10E5C80069464A762B229B5C8B762368186812F082
:10E5D8000CFE80B26B46D876000A18773B7C6A46F8
:10E5E80053777B7C93770223D377636820681B1A61
:10E5F8000B2B07D908301D4909F0EFFA002803D082
:10E60800002302E0012300E0012306AA1372F86840
:10E61800012300930021133303F036FD301CCE2371
:10E628009B009D4404BC9046F0BDC046C8FCFFFF5B
:10E63800A839030064640300A82B0020AC2B002039
:10E6480081C5010054350300C03903001F39030098
:10E65800E4390300F03903002C3A0300443A03007C
:10E668002C390300683A0300803A0300384D030050
:10E6780008B4024B9C46043808BC604749E30100D3
:10E6880010B582B0041C354B1B68002B3FD13820D5
:10E6980009F02CFA0123037064224260143A0281C3
:10E6A80042810022828196229200C281B93AFF3AC1
:10E6B8000282428240218182FA214901C182C82115
:10E6C800C9000183082141838283203AC2837B3AAF
:10E6D800028405324284224981842249C184FA2174
:10E6E80089000185418582852432835401320021C5
:10E6F800815401328154293A42862D328354313A69
:10E708003433C25401320133C254144B1860134BD2
:10E718001B681B78002B0BD0FF23226A1380236809
:10E728005B69201C984723689B68201C984713E066
:10E738000D4B1B68DB0708D40C48FFF7DBFA0122F6
:10E74800094B1A600A4812F048FD216AA28C638AB4
:10E7580000940648FFF7B8FA02B010BDB82D0020A3
:10E76800B80B000010270000DC310020D830002052
:10E7780005D6010010B582B0041C0B4B1B68DB07E3
:10E7880008D40A48FFF7B6FA0122074B1A6008486E
:10E7980012F023FD216AA28C638A00940348FFF7D4
:10E7A8007DFA02B010BDC046DC310020D830002010
:10E7B80005D6010010B5041C064B1A1C083202606D
:10E7C80048334360043007F0D9F9034B2360201C19
:10E7D80010BDC046B8380300083F030008B4024B18
:10E7E8009C46043808BC6047BDE7010010B5041C0E
:10E7F800FFF7E0FF201C09F08BF9201C10BDC04674
:10E8080008B4024B9C46043808BC6047F5E7010091
:10E8180010B5041C064B1A1C0832026048334360CA
:10E82800FFF7C8FF201C09F073F9201C10BDC04673
:10E83800903A030008B4024B9C46043808BC604771
:10E8480019E8010010B5041C044B1A1C08320260B8
:10E8580048334360FFF7AEFF201C10BD903A030019
:10E8680008B4024B9C46043808BC60474DE80100D8
:10E87800F0B587B0061C171C684609F0F4FA7B68E7
:10E888003A689C1AA4100023019302930393002C66
:10E8980009D0254B9C4201D909F04EF9A00009F096
:10E8A80025F9051C00E0002501950295A4002C1906
:10E8B80003943C687F6807E0002D03D0281C211CC6
:10E8C80009F0D1FA04340435BC42F5D10295301C64
:10E8D800694601AAFFF734FD019C029D0DE02068FE
:10E8E8000C38124B984207D083685A1E8260002B5E
:10E8F80002DC05A909F084FA0434A542EFD1019895
:10E90800002801D009F004F900980C38074B984208
:10E9180007D083685A1E8260002B02DC04A909F024
:10E928006FFA07B0F0BDC046FFFFFF3F003200207E
:10E9380008B4024B9C46043808BC604779E80100DB
:10E9480008B508290DD1031C30334F22815C181CEF
:10E9580000220023FFF718FC8020C00005F02AFBE6
:10E9680005E0022903D18068002107F093FC08BD67
:10E97800F0B583B0041C038A038501262A23C654F4
:10E988000133C654071C3037381C00211F2212F0EF
:10E9980004FD02236A46137056700623937001AD76
:10E9A800033B2B7006336B703833AB700133EB705D
:10E9B800B333FF33A385C73BFF3BE6540133E6542B
:10E9C80007222033E254381C6946043A12F0C8FC86
:10E9D800201C3330291C042212F0C2FC03B0F0BD05
:10E9E80030B583B0204B1B78002B3BD01F4B1C68E5
:10E9F80063425C41E4B21E4B1D686B425D41EDB25F
:10EA0800002C11D101A8FFF7C5FB05280BD0002861
:10EA180004D00021002202F0BDF905E0134B1B6869
:10EA28000198984700E00124002D17D101A9114B46
:10EA38001B880B80104B1868FFF7A8FB05280CD023
:10EA4800002804D00021002202F0A4F906E00A4BB5
:10EA58001868074B1B68984700E00125002CCFD0A9
:10EA6800002DCDD003B030BD6C2A0020702A0020C4
:10EA7800802A00206E2A0020782A002008B5074B3B
:10EA88001B68002B07D09847002806D000210022D9
:10EA980002F080F901E0FFF7A3FF08BD842A0020F7
:10EAA80008B5081C111C02F0E5F908BDF0B5574679
:10EAB8004E464546E0B4041C88469246994608AB43
:10EAC80040CB1F88051C124B08C5281C07F094F87A
:10EAD800104B1A1C08322260483363605346A36007
:10EAE8004B46E36043462382678200232362A38464
:10EAF800201C1430311C0A2212F032FC281C07F0AA
:10EB080081F8201C1CBC90469946A246F0BDC04620
:10EB1800083F0300B838030030B587B0041C0AA8C2
:10EB280020C8008800950190201CFFF7BFFF1B4BF1
:10EB38001A1C08322260483363600123E384184AB0
:10EB480012681A4208D11748FEF7BCFA0122144B82
:10EB58001A60154812F041FB03A8144904AA09F0E9
:10EB6800B3F9104803A9FEF7E3F903980C38104BE2
:10EB7800984207D083685A1E8260002B02DC05A9E0
:10EB880009F03EF9231C283323622823A384201C80
:10EB9800FFF776FD201C07B030BDC046903A030051
:10EBA800A82B0020AC2B002081C50100843A03006B
:10EBB80000320020002803D0024B1860002000E03B
:10EBC8000E207047702A002010B5002913D08C073A
:10EBD80013D10B4C21600B490A800B4A13600B4977
:10EBE800FFF7D6FA002809D10122094B1A7016300E
:10EBF800FFF7D2FA02E0072000E0072010BDC04668
:10EC0800782A00206E2A0020842A0020A9EA010020
:10EC18006C2A0020F0B505AC2678A025ED050C1C63
:10EC2800C134FF34A400032767511C1CC134FF34CE
:10EC3800A40000276751164C164D615116496350C0
:10EC4800002E16D0A021C905031CC133FF339B0039
:10EC580003245C50131CC133FF339B005F500C4BE3
:10EC6800A221C9005A50A122D200985001210B4A72
:10EC78009950074B0A490B4A99500421243A995054
:10EC880001229A601A6000210832FF329950F0BDC3
:10EC9800002000400C050000140500006C05000071
:10ECA80000509D00240500000F4B1B78002B1AD143
:10ECB8000E4B0F4AD05000230AE001330D4A93420D
:10ECC80002D90121084A1170074A1278002A0AD18C
:10ECD8008E22520006498A58012AEED100218E233D
:10ECE8005B00034AD15070477C2A00201C050000B5
:10ECF8000020004000D4300038B5074B1B78002BAB
:10ED080009D1051C0078012403E0FFF7CDFF285D39
:10ED180001340028F9D138BD7C2A002010B513E051
:10ED2800431E002818DBFA2080000138C046C04680
:10ED3800C046C046C046C046C046C046C046C0469B
:10ED4800C046C046F1D1181C84235B000B4AD35837
:10ED5800012BE5D1012401E0181C002400280ADB5E
:10ED68000022074B1A70054B842040001A50A3223A
:10ED7800D2009B580B70201C10BDC04600200040DC
:10ED88007C2A00200A4B1B78002B0FD184235B00C0
:10ED9800084AD358012BF9D1131C002184225200B0
:10EDA8009950A322D2009858C0B200E000207047C2
:10EDB8007C2A002000200040F0B583B01C4B1B7853
:10EDC800002B26D0002826D00368002B25D11A0155
:10EDD800184C1259002A22D042681B01E3185F68B8
:10EDE8001E895B897343FB189A421AD293071AD17A
:10EDF8000C1C051CD01B311C11F09EFE002914D1DF
:10EE0800002300930420291C0022231C04F04CFB3F
:10EE18000CE008200AE00E2008E0072006E00720A2
:10EE280004E0072002E0102000E0072003B0F0BD56
:10EE3800742A00205C2A0020F0B585B02A4C24787A
:10EE4800002C37D0002937D0002837D00C68002C88
:10EE580036D12501254EAD59002D33D04F682401F8
:10EE680034192589039566896E43B4466668341C4F
:10EE78006444A74228D2002A28D0954228D3D4181F
:10EE8800A54227DB840727D19C0727D103243C40D0
:10EE980026D1151C0E1CF918039012F061FA32687D
:10EEA8001301124A9F580095301C03210022039B2E
:10EEB800B84716E0082414E00E2412E00E2410E0EF
:10EEC80007240EE007240CE007240AE0072408E0E2
:10EED800072406E0072404E0102402E0102400E0E0
:10EEE8001024201C05B0F0BD742A00205C2A0020E4
:10EEF800F0B5474680B484B0274C2478002C2FD036
:10EF080000292FD000282FD00468002C2ED12501ED
:10EF1800224EAD59002D2BD0466824011F4D2C19C7
:10EF28002589A846039567896F4365687C19A642B9
:10EF380020D2002A20D0904520D3D4184546A54297
:10EF48001EDB8C071ED19C071ED1B4071ED11C1CCA
:10EF5800131C0A1C011C0094022004F0A5FA16E0F8
:10EF6800082014E00E2012E00E2010E007200EE02A
:10EF780007200CE007200AE0072008E0072006E049
:10EF8800072004E0102002E0102000E0102004B068
:10EF980004BC9046F0BDC046742A00205C2A0020BC
:10EFA80010B5041C084B1A1C083202603033436049
:10EFB800064B08338360043006F04CF8201C06F03A
:10EFC800DDFD201C10BDC046E83A0300003F0300E9
:10EFD80008B4024B9C46043808BC6047A9EF0100FE
:10EFE80008B4024B9C46083808BC6047A9EF0100EA
:10EFF80010B5041C094B1A1C0832026030334360F8
:10F00800074B08338360043006F024F8201C06F010
:10F01800B5FD201C08F07CFD201C10BDE83A03005B
:10F02800003F030008B4024B9C46043808BC604704
:10F03800F9EF010008B4024B9C46083808BC604749
:10F04800F9EF0100F0B55F4656464D464446F0B428
:10F058008DB0041C234B1B68DB0708D42248FEF73D
:10F0680031F801221F4B1A60204812F0B6F8638D60
:10F078009C468023E758023BE35E98461C4B196880
:10F088000869D2225200865ADC235B00C05E8146A2
:10F098004869855AC05E82468869845AA346C05E1C
:10F0A800C9698A5ACB5E134900916146019102975A
:10F0B80041460391049649460591069551460791A4
:10F0C8005946089109900A920B93074800210A4A69
:10F0D8000A4BFDF7C7FF0DB03CBC90469946A246C7
:10F0E800AB46F0BDA82B0020AC2B002081C5010049
:10F0F800882A0020603B0300543B0300DA03000029
:10F10800F0B591B0051C09AC201C05F031FCA279C2
:10F1180063792779E678A07861780BAC0097019637
:10F1280002900391201C0F4912F07EFAFDF7ECFFC4
:10F138006F8D8023EE58023BE95E0B4B1B685A7BB0
:10F148009B7B0A4D00950A4D0195029703940496FE
:10F158000591069207930021064A074BFDF782FFA7
:10F1680011B0F0BDA83B0300882A0020C83B03006B
:10F17800243C0300543B0300E5030000F0B5574668
:10F188004E464546E0B488B0061C5C4B1B68DB075E
:10F1980008D45B48FDF796FF0122584B1A6059487E
:10F1A80012F01BF8584B009355480021574A584B0A
:10F1B800FDF758FF00257FE0A9B2FEF727FF041CE2
:10F1C8004E4B1B68DB0708D44D48FDF77BFF012237
:10F1D8004A4B1A604B4812F000F8238A9846638A13
:10F1E800A78A3F041F431622A35E9C46227E50072F
:10F1F800400FD208E37F2021615C09021943236A8A
:10F208001B021B0C9A46434B0093434601930297FB
:10F218006346039304900592069153460793384832
:10F2280000213A4A3C4BFDF71DFFE379002B15D12D
:10F23800324B1B68DB0708D43148FDF743FF012236
:10F248002E4B1A602F4811F0C8FF344B00932C48FE
:10F2580000212E4A324BFDF705FF2CE0032B15D178
:10F26800264B1B68DB0708D42548FDF72BFF012236
:10F27800224B1A60234811F0B0FF2A4B0093204814
:10F288000021224A284BFDF7EDFE14E01B4B1B68BA
:10F29800DB0708D41A48FDF715FF0122174B1A603F
:10F2A800184811F09AFF214B009315480021174A7E
:10F2B8001F4BFDF7D7FE0135F069038AAB4200DD2D
:10F2C8007AE70E4B1B68DB0708D40D48FDF7FAFEFA
:10F2D80001220A4B1A600B4811F07FFF154B00936F
:10F2E80007480021094AF5239B00FDF7BBFE08B03B
:10F2F8001CBC90469946A246F0BDC046A82B0020EB
:10F30800AC2B002081C501002C3C0300543B0300BA
:10F31800C6030000403C0300CB030000943C0300FC
:10F32800CD030000A03C0300CF030000AC3C030069
:10F33800D1030000B83C030030B58FB0041C7D4BEE
:10F348001B68DB0708D47C48FDF7BCFE0122794B1B
:10F358001A607A4811F041FF794B009376480021F2
:10F36800784A794BFDF77EFE724B1B68DB0708D4A1
:10F378007148FDF7A7FE01226E4B1A606F4811F025
:10F388002CFF618D8023E35802937E23E25E3E23A7
:10F39800E35C6E4800900191039204936648002153
:10F3A800684AEC239B00FDF75DFE624B1B68DB0798
:10F3B80008D46148FDF786FE01225E4B1A605F485B
:10F3C80011F00BFFA28980235B055B6E60490091F9
:10F3D80001920293584800215A4A5E4BFDF742FEBB
:10F3E80007A805F0C5FA534B1B68DB0708D4524839
:10F3F800FDF768FE01224F4B1A60504811F0EDFEF0
:10F408004D481D216944062209ABFDF77DFB494B98
:10F418001B68DB0708D44848FDF754FE0122454B1A
:10F428001A60464811F0D9FE4B4B009309AB019383
:10F4380041480021434AEE239B00FDF713FE3D4B54
:10F448001B68DB0708D43C48FDF73CFE0122394B1A
:10F458001A603A4811F0C1FE404C2368587B997BEA
:10F468005A891B7B3E4D00950190029103920493AB
:10F4780031480021334A3B4BFDF7F4FD23681869F6
:10F4880003F0D8F8002408E0344B1A68231D9B00C9
:10F49800D318586803F0CEF80134334B1B68002B9F
:10F4A8003FD1382008F022FB012303706422426018
:10F4B800143A028142810022828196229200C281FE
:10F4C800B93AFF3A0282428240218182FA214901F7
:10F4D800C182C821C9000183082141838283203A5F
:10F4E800C2837B3A028405324284204981842049C0
:10F4F800C184FA218900018541858285243283549B
:10F5080001320021815401328154293A42862D3238
:10F518008354313A3433C25401320133C254124B4A
:10F528001860114B1A683523D35C9C42ACDB0FB0D2
:10F5380030BDC046A82B0020AC2B002081C501009F
:10F54800B83C0300543B0300AF030000CC3C03006D
:10F558000C3D0300B1030000283D0300882A002069
:10F568003C3D0300BB030000B82D0020B80B000091
:10F578001027000038B5041C0022904B1A70904BDD
:10F588001A70904B022119705A601A72DA60FF31B2
:10F59800FF3119825A828C4B1B68002B3FD13820CF
:10F5A80008F0A4FA0123037064224260143A02812D
:10F5B80042810022828196229200C281B93AFF3AA2
:10F5C8000282428240218182FA214901C182C821F6
:10F5D800C9000183082141838283203AC2837B3A90
:10F5E800028405324284794981847949C184FA21A7
:10F5F80089000185418582852432835401320021A6
:10F60800815401328154293A42862D328354313A49
:10F618003433C25401320133C2546B4B18606A4B05
:10F62800196868482E23CB5C01221A40037D012506
:10F63800AB431343037500293FD1382008F056FA2D
:10F648000123037064224260143A0281428100223D
:10F65800828196229200C281B93AFF3A028242829E
:10F6680040218182FA214901C182C821C900018350
:10F67800082141838283203AC2837B3A028405327F
:10F688004284524981845249C184FA218900018502
:10F69800418582852432835401320021815401320C
:10F6A8008154293A42862D328354313A3433C25434
:10F6B80001320133C254444B1860434B1968414826
:10F6C8002F23CB5C012213405A00037D0225AB4354
:10F6D8001343037500293FD1382008F007FA0123A6
:10F6E800037064224260143A0281428100228281BE
:10F6F80096229200C281B93AFF3A028242824021A0
:10F708008182FA214901C182C821C90001830821E7
:10F7180041838283203AC2837B3A02840532428441
:10F728002A4981842A49C184FA21890001854185B1
:10F73800828524328354013200218154013281545C
:10F74800293A42862D328354313A3433C254013235
:10F758000133C2541C4B18601B4B1A6819493023DB
:10F76800D35C012213409A000B7D0420834313438A
:10F778000B750022174B1A80174B184A1360022288
:10F788001A70013A5A7005329A70F9321A714D217D
:10F79800597102219971F121D9711C81104B1149BC
:10F7A8000B6003211970053058703D309870073090
:10F7B800D87019715A710C4ADA8038BD142F00209C
:10F7C800482F0020542F0020B82D0020B80B00002F
:10F7D80010270000162F00201C2F00204C2F00207F
:10F7E800E82E0020102F00204D02000074DF704723
:10F7F80073DF704772DF704730B585B0041C002294
:10F808001FE093009B189B002349595880235B05F0
:10F818005B6E994214D12049900083189B00CB1845
:10F828009D8865859D793E23E55482189200891844
:10F838000B31201C2130072211F092FD012303E037
:10F848000132082ADDD90023002B23D1134B1B6872
:10F85800DB0708D41248FDF735FC01220F4B1A606C
:10F86800104811F0BAFC80256D056B6E0E4A0092A7
:10F878000E4A019202930A4801210D4A0D4BFDF7E9
:10F8880093FB6B6E638500223E23E254201C2130DB
:10F8980005F06EF805B030BD1C280020A82B00200C
:10F8A800AC2B002081C5010054350300803D0300C6
:10F8B800543B0300C904000010B584B0448D838F05
:10F8C800E41824040D4B1B68DB0708D40C48FDF72B
:10F8D800F9FB0122094B1A600A4811F07EFC0A4B19
:10F8E80000930A4B0193029405480121084A094BE9
:10F8F800FDF75AFB201C04B010BDC046A82B002001
:10F90800AC2B002081C50100683E0300C03D030008
:10F91800543B0300A903000070B58AB0051C0C1CF9
:10F92800161C081CCE4908F058F9002803D105F028
:10F938001DF801241CE2201CCA4908F04EF90028D1
:10F9480004D10122C84B1A70012411E2201CC749B6
:10F9580008F043F9002814D10022C34B1A70C44B95
:10F968001B68DB0708D4C348FDF7ACFB0122C04B7A
:10F978001A60C14811F031FCBE48FDF79DF801241A
:10F98800F6E1201CBD4908F028F9002804D1281CFC
:10F99800FFF7D2FC0124EBE1201CB94908F01DF95E
:10F9A800002804D1281CFFF7E9FB0124E0E1201C12
:10F9B800B44908F012F9002804D1281CFFF742FBCB
:10F9C8000124D5E1201CB04908F007F900283CD1F2
:10F9D800306873681B1A9B100CD0AC4908F0FDF80E
:10F9E800002809D03068AA4908F0F7F8002805D19E
:10F9F800A84B04E0002302E0A74B00E0002303AA81
:10FA080050211170433969442A20285C08702B2042
:10FA1800285C48700F2169440B701B0A4B70072340
:10FA28005371063B93710233D37113727368316853
:10FA38005B1A9B10591E8B41984908680093002156
:10FA4800142302F021FB012492E1201C944908F0C0
:10FA5800C4F800280DD1AB8F0133AB87281CFFF702
:10FA68002BFF8023E850281C002106F013FC0124FA
:10FA78007EE1201C8B4908F0B0F8002834D13068AA
:10FA880073681B1A9B1006D0874908F0A6F800284F
:10FA980003D0002402E0012400E00124002C07D058
:10FAA80000227C23EA54281C032106F065FD5FE14F
:10FAB80030687E4908F091F8002808D132227C236A
:10FAC800EA54281C042106F057FD012450E130684F
:10FAD800774908F082F8002800D044E1281C092161
:10FAE80006F04AFD012443E1201C724908F075F82C
:10FAF800002805D1281C032106F03EFD012437E12A
:10FB0800201C6D4908F069F8002804D132227C23B2
:10FB1800EA5401242CE1201C684908F05EF800280A
:10FB28000FD14022AB5A0133AB52FEF74BF9291CD7
:10FB380020310835009522220023FEF7AFF8012472
:10FB480016E1201C5E4908F048F8002805D1281C59
:10FB5800012106F0C3F901240AE1201C594908F0E3
:10FB68003CF8002805D1281C002106F0B7F901242B
:10FB7800FEE0201C544908F030F8002827D02BE07C
:10FB8800336818681424231C6B43504CE41807345A
:10FB9800211C11F0B7FD002817D1FDF7B5FA4C4B21
:10FBA8000093019400214B4A4B4BFDF75BFA3B4B0A
:10FBB8001868464A14210B1C6B43D1188988D3183E
:10FBC8000B331A1C0E2302F00DF9013500E0002555
:10FBD800082DD5DD0124CBE0201C404907F0FDFFAE
:10FBE800002813D1736832689B1A9B1000D1BCE0BF
:10FBF800106811F0FAFA294B1A68C3B208339B004F
:10FC0800D318586807F080F90124B1E0201C344962
:10FC180007F0E3FF002803D105F062FF0124A7E005
:10FC2800201C304907F0D9FF002861D065E0231C6B
:10FC380010339B00EB185B68002B0FD0FDF764FABC
:10FC4800231C10339B00EB185B681433264A009280
:10FC5800019301211F4A254BFDF704FA013448E0BE
:10FC6800DC3D0300E43D030018280020F03D0300BC
:10FC7800A82B0020AC2B002081C50100243C0300E8
:10FC8800FC3D0300083E0300103E0300183E03003D
:10FC9800203E03003175000019790000882A0020F1
:10FCA800243E03002C3E0300383E0300403E030080
:10FCB800443E0300483E0300543E0300643E0300F4
:10FCC800703E0300783E0300803E03001C2800209D
:10FCD800883E0300543B03005E040000A83E030076
:10FCE800B43E0300BC3E0300C43E03007D04000094
:10FCF8000024092C9BD901243AE0201C1E4907F056
:10FD08006CFF002804D102223E23EA5401242FE08C
:10FD1800201C1A4907F061FF002804D1281CFFF7AE
:10FD2800EFF9012424E0201C154907F056FF0028AC
:10FD38001DD1736831685B1A9B100DD008A808F0B4
:10FD480092F8281C08A904F059FA08980C3809A94F
:10FD580007F092FF01240BE0FDF7D6F90221FDF729
:10FD680025FB012404E0012402E0012400E0002432
:10FD7800201C0AB070BDC046D03E0300D83E030028
:10FD8800E83E0300F8B5041C6E23C152436F5B18AC
:10FD98004367036F5B1A03676D22815C002903D0F8
:10FDA800002B01DC06F0E8FB8C23E35C012B00D080
:10FDB8008EE0484B1A681669737A002B01D001252A
:10FDC80000E000255069417A002901D0012300E0B4
:10FDD8000023ED1891694B7A002B01D0012300E034
:10FDE8000023EB18DBB2D269557A002D01D001252A
:10FDF80000E000255D19EDB2337A002B01D0012611
:10FE080000E00026007A002801D0012300E000234A
:10FE1800F6180B7A002B01D0012300E00023F31819
:10FE2800DBB2127A002A01D0012600E000269E19D2
:10FE3800F6B22069636F82689B1A2C22FF329342C4
:10FE480001D9FDF72FFB6069636F82689B1A2C222A
:10FE5800FF32934201D9FDF725FBA069636F8268E1
:10FE68009B1A2C22FF32934201D9FDF71BFB606FCE
:10FE7800FA21C90010F060FE00290AD0FA235B00BD
:10FE8800994206D0F533FF33994202D0124B99427A
:10FE98001ED1081CFA21490010F0C8FDC7B22B1C5E
:10FEA800334305D12069FDF713FB2369626F9A601C
:10FEB800BE4205D96069FDF70BFB6369626F9A6002
:10FEC800BD4205D9A069FDF703FBA369626F9A607B
:10FED800F8BDC046882A0020DC050000038AC384D8
:10FEE800012328228354013283540023036383852A
:10FEF800438570477047C04600B583B02A23C35C6A
:10FF0800002B18D0C36A002B15D0934213D2FDF7EB
:10FF1800FBF80A4B00930A4B01930121094A462337
:10FF2800FDF742F8BFF34F8F074A084BDA60BFF37B
:10FF38004F8FC046FDE703B000BDC046E83F030051
:10FF4800F03F0300D73F03000400FA0500ED00E08E
:10FF5800F0B5474680B49EB080460591171C18A896
:10FF680007F081FF7B683A689C1AA4100023199354
:10FF78001A931B93002C09D06C4B9C4201D907F0B3
:10FF8800DBFDA00007F0B2FD061C00E00026199674
:10FF98001A96A40034191B943C687D6807E0002E6B
:10FFA80003D0301C211C07F05EFF04340436AC4239
:10FFB800F5D11A96404618A919AAFEF7C1F9199C55
:10FFC8001A9E0DE020680C38594B984207D0836878
:10FFD8005A1E8260002B02DC1DA907F011FF0434B1
:10FFE800A642EFD11998002801D007F091FD189882
:08FFF8000C384F4B984207D072
:020000022000DC
:1000000083685A1E8260002B02DC1CA907F0FCFEEC
:1000100005984A4907F0E5FD002838D1484B1B6890
:10002000DB0708D44748FDF751F80122444B1A601A
:10003000454811F0D6F8414628314248142206AB13
:10004000FCF766FD414B4246D3623D4B1B68DB0724
:1000500008D43C48FDF73AF80122394B1A603A4877
:1000600011F0BFF83A4B00933A4B019306AB029361
:100070001423039333480121374A4D33FCF798FF8B
:1000800043461B68DB684046984701204DE00598D1
:10009000324907F0A6FD002806D143461B681B69BC
:1000A00040469847012040E005982D4907F099FD0A
:1000B000002839D17B6838681B1A9B1006D0294963
:1000C00007F08FFD002803D1013002E0002000E09E
:1000D000002006AA5523137043469968112302ACE9
:1000E000A44663442A240C5D1C702B24095D5970BE
:1000F000132363440021197059701523634441464A
:10010000097C19704146497C59700323D37100233F
:10011000137250724346D8680123009300211333B1
:1001200001F036FF012000E000201EB004BC904624
:10013000F0BDC046FFFFFF3F00320020FC3F030040
:10014000A82B0020AC2B002081C50100E02E000070
:10015000E83F030008400300D73F030020400300AE
:100160002C4003003440030008B4024B9C46043882
:1001700008BC604759FF0100F0B587B0061C171C8A
:10018000684607F074FE7B683A689C1AA410002346
:10019000019302930393002C09D0254B9C4201D973
:1001A00007F0CEFCA00007F0A5FC051C00E0002530
:1001B00001950295A4002C1903943C687F6807E020
:1001C000002D03D0281C211C07F051FE04340435F7
:1001D000BC42F5D10295301C694601AAFEF7B4F87D
:1001E000019C029D0DE020680C38124B984207D00C
:1001F00083685A1E8260002B02DC05A907F004FE0A
:100200000434A542EFD10198002801D007F084FC06
:1002100000980C38074B984207D083685A1E8260BA
:10022000002B02DC04A907F0EFFD07B0F0BDC046CB
:10023000FFFFFF3F0032002008B4024B9C46043809
:1002400008BC60477901020008B5038A03850023D2
:100250002A228354012101328154C3623030024981
:10026000243A11F081F808BD3840030010B52A2364
:10027000C35C002B09D1041C2A304A2211F074F807
:1002800001222A23E254012000E0002010BDC046D4
:1002900000B595B0038AC38400222823C2540132DA
:1002A0000133C25401A9273B4B70FD338B70CB72D5
:1002B000633B4B72383B8B72FFF7D8FF15B000BD24
:1002C00008B5FDF7CBFF08BD08B5FDF7C7FF08BDB2
:1002D00008B5FDF7C3FF08BD10B5041C064B1A1C7A
:1002E0000832026048334360FEF768FA201C07F0CA
:1002F00013FC201C10BDC046703F030008B4024B25
:100300009C46043808BC6047D902020010B5041CA2
:10031000044B1A1C0832026048334360FEF74EFA61
:10032000201C10BD703F030008B4024B9C460438EB
:1003300008BC60470D03020010B5041C064B1A1CD4
:100340000832026048334360FEF738FA201C07F099
:10035000E3FB201C10BDC046183F030008B4024B4D
:100360009C46043808BC60473903020010B5041CE1
:10037000044B1A1C0832026048334360FEF71EFA31
:10038000201C10BD183F030008B4024B9C460438E3
:1003900008BC60476D030200F0B54F464646C0B446
:1003A0008FB02823C35C002B00D1CEE00B881B2B21
:1003B00000D0CAE08C7BE4080A2C18DD0B1C0A7DF7
:1003C0000F339B791B021343624A934211D18B7DF9
:1003D000F12B10D10B1CCA7D0F335B7A1B02134328
:1003E0005D4A1268128D934207D0002306E0002375
:1003F00004E0002302E0002300E00123002B00D0F2
:10040000A3E08B7BDB0700D59FE08B7B5B079E0F18
:100410004D7B002296E04A235343C31828339B7830
:10042000002B00D18DE04A235343C31828331B7996
:10043000FF2B03D08F79BB4200D086E04A23534381
:10044000C31830335B79FF2B01D09E427DD14A2304
:100450005343C318303303269E576BB29E4274DC5D
:100460004A235343C318303304269E576BB29E422F
:100470006BDB894680464A23534343442833DB7869
:10048000012B06D101E0013300E00023092BFADD46
:1004900037E0022B35D1FCF73BFE304B0093304B5D
:1004A000019301212F4A9A23FCF782FD0AAF5423BE
:1004B0003B7043469A6829236B4400262A21515CED
:1004C00019702B21525C5A700B1C6B441E705E70AD
:1004D0004B46D91D2D206844062210F045FF01230C
:1004E0007B736BB25B4233226A449BB213701B0A6C
:1004F00053704346D8680096311C3A1C0E2301F015
:10050000C7FDFCF705FE6DB24946CB7998460B7ADC
:100510009C464F7A8E7ACA7A0B7B10490091124919
:100520000191029503944146049161460591069715
:1005300007960892099301210A4AAA23FCF738FD7D
:1005400003E00132002A00DC65E70FB00CBC9046E6
:100550009946F0BD4D020000682D00206440030064
:100560006C4003004F40030074400300F0B5474661
:1005700080B488B0051C354B1B68DB0708D43448B1
:10058000FCF7A4FD0122314B1A60324810F029FE1D
:10059000314B0093314B01932D480121304AAA235E
:1005A000FCF706FD03AC52232370AA68453B6B445D
:1005B0002A21515C19702B21525C5A700F236B4415
:1005C00000221A705A70ED68686AD2235B001132FB
:1005D0006A44C15C1170C11849785170AA6A90468A
:1005E00013226A444146C95C11704146C9184978D2
:1005F0005170EF6A15226A44F95C1170F918497854
:1006000051702E6B17226A44F35C1370331CA533B0
:10061000FF335B78537002F009F86073404602F0D4
:1006200005F8A073381C02F001F8E073301C01F0EB
:10063000FDFF207400230093281C0021221C11338D
:1006400001F026FD08B004BC9046F0BDA82B0020A8
:10065000AC2B002081C50100103E0300E8400300E0
:10066000CF40030010B5838D002B0CD08268526FF1
:10067000016B521A9A4206D9041C0021FFF776FF3B
:10068000A3685B6F236310BDF0B5474680B48CB0A0
:10069000071C161C1C1C12AB1D880095231CFDF7A3
:1006A00081FD2378512B02D0522B2ED06FE0082DE4
:1006B0006DD1394B1B68DB0708D43848FCF706FDC1
:1006C0000122354B1A60364810F08BFDD2235B00B7
:1006D000F35A344A0092344A019202932F4801217E
:1006E000324A8623FCF764FC6279A3791B02134328
:1006F00003D0BA68528D934249D1E379002B46D199
:10070000381C311CFFF732FF41E0112D3FD1284B3F
:100710001B78002B3BD0204B1B68DB0708D41F48FD
:10072000FCF7D4FC01221C4B1A601D4810F059FD47
:100730006378A67836021E436379A5792D021D439E
:10074000E379207A00021843637AA17A09021943F7
:10075000E27A237B1B021343627B9046A27B944682
:10076000E77B227C134C0094134C01940296039572
:1007700004900591069343460793634608930997AF
:100780000A9206480021094AA023FCF76FFC0CB02E
:1007900004BC9046F0BDC046A82B0020AC2B002026
:1007A00081C50100103E03000C410300CF4003004F
:1007B0008C2A00202441030070410300F0B55F46FD
:1007C00056464D464446F0B497B0041C0C91161C96
:1007D00010A807F04CFB736832689D1AAD10002317
:1007E000119312931393002D09D0614B9D4201D9AF
:1007F00007F0A6F9A80007F07DF9071C00E0002724
:1008000011971297AD007D1913953568766807E04A
:10081000002F03D0381C291C07F029FB04350437AE
:10082000B542F5D11297201C10A911AAFDF78CFD35
:10083000119D129F0DE028680C384E4B984207D04E
:1008400083685A1E8260002B02DC15A907F0DCFACF
:100850000435AF42EFD11198002801D007F05CF9C0
:1008600010980C38434B984207D083685A1E826018
:10087000002B02DC14A907F0C7FA0C983E4907F0D8
:10088000B0F900286BD13D4B1B78002B45D03C4B79
:100890001B68DB0708D43B48FCF718FC0122384BE7
:1008A0001A60394810F09DFCA3685B8D9B46E26896
:1008B000506AD2235B00C15A8A46976AF95A894620
:1008C000D66AF15A0C91156BEB5A984601F0AEFEC0
:1008D0000D90381C01F0AAFE071C301C01F0A6FE8A
:1008E000061C281C01F0A2FE284B0093284B019304
:1008F0005B460293534603934B4604930C99059130
:10090000434606930D9B0793089709960A901D4846
:100910000021204A6A23FCF7A9FB0EAA5123137079
:10092000A068312102AB9C4661442A23C55C0023A8
:100930000D702B25405D4870332161440020087004
:10094000487035216144002008704870D371E06818
:1009500000930021083301F01BFB012000E0002080
:1009600017B03CBC90469946A246AB46F0BDC04687
:10097000FFFFFF3F003200207C4103008C2A002053
:10098000A82B0020AC2B002081C5010024410300CE
:1009900070410300CF40030008B4024B9C4604386A
:1009A00008BC6047BD07020008B5082903D18020B4
:1009B000C00000F039FB08BD30B587B0041C0AA8A0
:1009C00020C8008800950190201CFEF773F81A4B90
:1009D000236040336360194B1B68DB0708D4184859
:1009E000FCF774FB0122154B1A60164810F0F9FB56
:1009F00003A8154904AA07F06BFA114803A9FCF7EC
:100A00009BFA03980C38114B984207D083685A1E02
:100A10008260002B02DC05A907F0F6F9231C2833BD
:100A200023621423A384201CFFF70EFC201CFDF777
:100A30002BFE201C07B030BD004E0300A82B002069
:100A4000AC2B002081C50100E83F030000320020EC
:100A500030B587B0041C0AA820C800880095019012
:100A6000201CFEF727F81B4B1A1C08322260483363
:100A70006360194B1B68DB0708D41848FCF726FB9A
:100A80000122154B1A60164810F0ABFB03A815495C
:100A900004AA07F01DFA114803A9FCF74DFA0398C0
:100AA0000C38114B984207D083685A1E8260002B85
:100AB00002DC05A907F0A8F9231C263323620823CA
:100AC000A38400232363201CFDF7DEFD201C07B058
:100AD00030BDC046703F0300A82B0020AC2B002087
:100AE00081C50100944103000032002030B587B079
:100AF000041C0AA820C8008800950190201CFDF75E
:100B0000D9FF1F4B1A1C08322260483363601D4B0B
:100B10001B68DB0708D41C48FCF7D8FA0122194BE4
:100B20001A601A4810F05DFB03A8194904AA07F0DF
:100B3000CFF9154803A9FCF7FFF903980C38154BBA
:100B4000984207D083685A1E8260002B02DC05A9F8
:100B500007F05AF9231C263323620423A3840022BE
:100B600006E04A235343E3182833002199700132E9
:100B7000002AF6DD201CFDF787FD201C07B030BDE4
:100B8000183F0300A82B0020AC2B002081C50100DA
:100B90009C4103000032002070B5051C0C1C00268F
:100BA00014E00C4B1A68002A0FD0331C10339B0042
:100BB000D3185868002808D0036A9B78002B04D00B
:100BC00003685B6A291C221C98470136092EE8DD60
:100BD00070BDC046D82D0020FEE7C04648DF7047F4
:100BE00047DF70473BDF704732DF704761DF704798
:100BF00060DF704787DF704786DF704708B5024BBC
:100C00001B68984708BDC046E42D002001225242CF
:100C1000014B1A837047C046BC2D00208288014BCF
:100C20001A837047BC2D002008B5274B1B68002B8A
:100C30003FD1382006F05EFF01230370642242603A
:100C4000143A028142810022828196229200C2815E
:100C5000B93AFF3A0282428240218182FA21490157
:100C6000C182C821C9000183082141838283203ABF
:100C7000C2837B3A02840532428414498184144938
:100C8000C184FA21890001854185828524328354FB
:100C900001320021815401328154293A42862D3299
:100CA0008354313A3433C25401320133C254064BB7
:100CB0001860054B1B68074A11686E2258688B5AEA
:100CC000C3188B5208BDC046B82D0020B80B0000D9
:100CD00010270000D82D002038B5041C02F024FB9A
:100CE000002513E00B4B1A68002A0ED02B1C103382
:100CF0009B00D3185868002807D0036A9B78002B04
:100D000003D003681B6A211C98470135092DE9DDD2
:100D100038BDC046D82D002030B583B08389002B64
:100D200027D0C289144B9A4223D1027C134B9B7D5E
:100D30009A421ED1041CC58A114B1B68DB0708D4DC
:100D40001048FCF7C3F901220D4B1A600E4810F051
:100D500048FA0E4B00930E4B01930A4801210D4AAD
:100D60000A23FF33FCF724F9A0880B4B1B68291CCE
:100D7000984703B030BDC04624150000BC2D0020AC
:100D8000A82B0020AC2B002081C50100D44103001A
:100D9000D8410300C0410300642D0020F0B587B0A6
:100DA000104B984200D1FEE7161C0D1C041E11D0FA
:100DB000FCF720F8071CFCF7ABF90B4B00930B4B2F
:100DC000019302940397049605950121084AD223C2
:100DD000FCF7EEF8082C02D0112C00D0FEE707B08B
:100DE000F0BDC046EFBEADDE543503000042030047
:100DF000F741030010B582B00023009300200121C9
:100E000002221A4B02F0E8FB002804D04021FF31F7
:100E1000174AFFF7C3FF17480121174A02F0B0FB3A
:100E2000002804D0A1214900114AFFF7B7FF114B58
:100E30001C6804F00BFE4368590CD803FA225200D8
:100E4000002380185941FA22920000230FF074FF0A
:100E5000011C201C002202F061FB002804D0462166
:100E6000FF31034AFFF79AFF02B010BD902A00201D
:100E7000F04103006C2D0020290C020008B5034846
:100E800000210022FFF78AFF08BDC046EFBEADDE9D
:100E900000B583B008201C4947220023FDF798FEC7
:100EA000002803D0A821194AFFF778FF1848FDF75A
:100EB00085FE002803D0AC21144AFFF76FFF002302
:100EC000009380239B00019301236A4613706846B8
:100ED000FFF78EFE002803D0B5210C4AFFF75EFF16
:100EE0000120FFF77DFE002803D0B921074AFFF754
:100EF00055FF0120FFF776FE002803D0BD21034AED
:100F0000FFF74CFF03B000BD702D0020F04103003F
:100F1000D90C020010B584B08389002B25D0041CA5
:100F2000134B1B68DB0708D41248FCF7CFF80122EB
:100F30000F4B1A60104810F054F9104B0093104BEF
:100F400001930C4801210F4AF323FCF731F803A960
:100F5000638A0B80A38A4B80A08802F0F5FB0028EF
:100F600003D0FB21084AFFF719FF04B010BDC046AB
:100F7000A82B0020AC2B002081C50100D441030028
:100F800020420300C0410300B441030008B580883B
:100F900000210022002302F0D9FB002803D0CA213F
:100FA000014AFFF7FBFE08BDB441030008B5038802
:100FB000302B27D006D8102B0FD0112B11D0012B9E
:100FC0002DD11AE0372B25D002D8322B1ED026E0A7
:100FD000502B0AD0522B0CD021E0FFF71FFE00202F
:100FE0001EE0FFF713FE00201AE0FFF707FE0120C6
:100FF00016E0FFF7CBFF002012E00A4B1B68984772
:1010000001200DE0FFF786FF012009E0FFF784FED5
:10101000012005E0034B1B689847012000E00020F9
:1010200008BDC046DC2D002010B582B0041CBB4BAF
:101030001B88984200D16FE1002B1ED0FFF7DAFD2C
:10104000002803D03221B64AFFF7A8FEB54B1B6833
:10105000DB0708D4B448FCF739F80122B14B1A6019
:10106000B24810F0BEF8B24B0093B24B0193AE48B9
:101070000121B14A3323FBF79BFF8023DB009C4215
:1010800000D090E0AD4B1B68002B3FD1382006F01C
:1010900031FD0123037064224260143A02814281CF
:1010A0000022828196229200C281B93AFF3A0282DE
:1010B000428240218182FA214901C182C821C900AE
:1010C0000183082141838283203AC2837B3A0284D0
:1010D000053242849A4981849A49C184FA2189005F
:1010E0000185418582852432835401320021815457
:1010F00001328154293A42862D328354313A3433B5
:10110000C25401320133C2548C4B18608B4B1B68A4
:10111000598A8D4A1181002B3FD1382006F0EAFC14
:101120000123037064224260143A0281428100224A
:10113000828196229200C281B93AFF3A02824282AB
:1011400040218182FA214901C182C821C90001835D
:10115000082141838283203AC2837B3A028405328C
:101160004284774981847749C184FA2189000185C5
:101170004185828524328354013200218154013219
:101180008154293A42862D328354313A3433C25441
:1011900001320133C254694B1860684B1B689A8A4C
:1011A000694B5A8194E0F0231B019C4200D08FE0F0
:1011B000624B1B68002B3FD1382006F09BFC0123BB
:1011C000037064224260143A0281428100228281CB
:1011D00096229200C281B93AFF3A028242824021AD
:1011E0008182FA214901C182C821C90001830821F5
:1011F00041838283203AC2837B3A0284053242844F
:101200004F4981844F49C184FA2189000185418574
:101210008285243283540132002181540132815469
:10122000293A42862D328354313A3433C254013242
:101230000133C254414B1860404B1B68198B424A22
:101240001181002B3FD1382006F054FC012303709C
:1012500064224260143A02814281002282819622F5
:101260009200C281B93AFF3A0282428240218182D1
:10127000FA214901C182C821C900018308214183A3
:101280008283203AC2837B3A0284053242842C490D
:1012900081842C49C184FA21890001854185828598
:1012A0002432835401320021815401328154293A7D
:1012B00042862D328354313A3433C25401320133E1
:1012C000C2541E4B18601D4B1B685A8B1E4B5A8113
:1012D000002C1FD01C48FFF78FFC002803D04621AC
:1012E0000F4AFFF75BFD0F4B1B68DB0708D40E4866
:1012F000FBF7ECFE01220B4B1A600C480FF071FF5C
:101300000B4B0093114B0193074801210A4A4723D5
:10131000FBF74EFE014B1C8002B010BDE02D0020FB
:1013200030420300A82B0020AC2B002081C5010017
:10133000D4410300504203003C420300B82D00207A
:10134000B80B000010270000542D00206442030059
:1013500010B582B0011C0388192B34D01B2B02D08E
:10136000102B4CD129E0837B572B18D9031C027D0D
:101370000F339B791B021343254A934211D1837D7E
:10138000F12B10D1031CC27D0F335B7A1B02134378
:10139000204A1268128D934207D0002406E00024F0
:1013A00004E0002402E0002400E00124002C28D006
:1013B000184B186804F098FD26E08020C000FFF765
:1013C00033FE002420E08379022B1CD1124B1B68D2
:1013D000DB0708D41148FBF779FE01220E4B1A6097
:1013E0000F480FF0FEFE0F4B00930F4B01930B487D
:1013F00001210E4A8E23FBF7DBFD002404E00024CC
:1014000002E0012400E00024201C02B010BDC04610
:101410004D020000682D0020A82B0020AC2B0020DE
:1014200081C5010064400300784203003C42030090
:1014300038B5041C02F0A2F9201CFFF789FF201C1C
:10144000FFF7B4FD002513E00B4B1A68002A0ED0FD
:101450002B1C10339B00D3185868002807D0036A50
:101460009B78002B03D003689B6A211C98470135A9
:10147000092DE9DD38BDC046D82D002030B595B026
:10148000FCF7B6FBFFF704FDFBF742FE041C0BA8BC
:1014900040490CAA06F01CFD201C0BA9FBF74CFDD3
:1014A0000B980C3811A906F0EBFBFBF731FE041C7E
:1014B0000DA839490EAA06F00BFD201C0DA9FBF75B
:1014C0003BFD0D980C3812A906F0DAFBFBF720FE65
:1014D000041C0FA8314910AA06F0FAFC201C0FA921
:1014E000FBF72AFD0F980C3813A906F0C9FBFCF78F
:1014F0006DFC04F0ABFA458E902006F0FBFA041C5C
:10150000291C03F0B7FD264B1C60102006F0F2FAF0
:1015100004F086FB01A80FF04DFF089A059BD31835
:101520000093FFF767FCFCF707FA1E4947230B807F
:101530001D48FFF75BFB002803D11B48FFF778FF2E
:10154000F3E705281FD1164B186800280FD06E232B
:10155000C15A00290BD0FEF719FC114D2B686E24DF
:10156000185B596FFFF718FB2B6800221A53FFF71F
:1015700035FB002803D092210C4AFFF70FFC162000
:10158000FFF732FBCFE70028CDD09821074AFFF7BD
:1015900005FCC8E7683E0300F4360300103E030074
:1015A000D82D0020D0280020702D0020F04103000D
:1015B00008B54F4A137801218B4301318B431370D7
:1015C000002353604B4B1B68002B3FD1382006F0A3
:1015D00091FA0123037064224260143A028142812D
:1015E0000022828196229200C281B93AFF3A028299
:1015F000428240218182FA214901C182C821C90069
:101600000183082141838283203AC2837B3A02848A
:1016100005324284384981843849C184FA218900DD
:101620000185418582852432835401320021815411
:1016300001328154293A42862D328354313A34336F
:10164000C25401320133C2542A4B1860294B1B6823
:10165000598A274A1181002B3FD1382006F04AFAD7
:101660000123037064224260143A02814281002205
:10167000828196229200C281B93AFF3A0282428266
:1016800040218182FA214901C182C821C900018318
:10169000082141838283203AC2837B3A0284053247
:1016A0004284154981841549C184FA218900018544
:1016B00041858285243283540132002181540132D4
:1016C0008154293A42862D328354313A3433C254FC
:1016D00001320133C254074B1860064B1B68044AA1
:1016E0009B8A538100239381054A138008BDC0461D
:1016F000542D0020B82D0020B80B0000102700004A
:10170000E02D0020F0B58DB0041C0D1C07921E1CAE
:1017100012AB1F78294B984248D0294B994247D0A9
:10172000002E47D0274B1B68DB0708D42648FBF761
:10173000CDFC0122234B1A6024480FF052FD244BAC
:101740000093244B019302960394049505971E4839
:101750000121214A1E23FF33FBF72AFC09AB00229B
:1017600009920A925D80DE80079A0B92002F0ED0BC
:10177000191C01230B70201C01F0E4FF041E04D08F
:1017800096214900154AFFF709FB201C13E009A91F
:1017900002230B70201C01F0D5FF041E04D09B21F6
:1017A00049000E4AFFF7FAFA201C04E0002002E08C
:1017B000002000E000200DB0F0BDC0460230000067
:1017C00003300000A82B0020AC2B002081C50100B5
:1017D0007441030088420300C0410300B441030088
:1017E000014B58897047C046BC2D0020014B186042
:1017F0007047C046DC2D0020014B18607047C04682
:10180000642D0020014B18607047C046E42D002075
:1018100070B596B0354C01235B42238306A834494A
:1018200010220FF0A1FD211C163106A801F088FF3F
:10183000002803D036212F4AFFF7B0FA2B4A111C9B
:101840001431012001F086FF002803D03A21294AF3
:10185000FFF7A4FA002511236A46137001230F2411
:1018600010221121684641700220011C19436E4666
:10187000B17001A98870201C18401043087048708E
:101880000FAC0F9511951295139515950E231A43CC
:101890002270149103AE184B321C03CB03C21B8879
:1018A00013801096301C0FF03BFF2081301C0FF08E
:1018B00037FF60810AAA9560D560156102A90B4BBC
:1018C000987D88700D4808800A91694651606421AE
:1018D000918118880A33211C01F03AFF002803D0B7
:1018E0007221044AFFF75AFA16B070BDBC2D0020D1
:1018F000A4410300B4410300B842030024150000D2
:1019000062DF704738B5051C002407E0231D9B00EB
:10191000EB185868037A002B4BD00134254B1B6819
:10192000002B3FD1382006F0E5F801230370642234
:101930004260143A02814281002282819622920002
:10194000C281B93AFF3A0282428240218182FA2161
:101950004901C182C821C9000183082141838283D2
:10196000203AC2837B3A0284053242841249818440
:101970001249C184FA21890001854185828524327A
:10198000835401320021815401328154293A428624
:101990002D328354313A3433C25401320133C254AC
:1019A000044B1860034B1A683523D35C9C42ADDBB3
:1019B000002038BDB82D0020B80B00001027000013
:1019C000F0B5474680B4A0B0071C0E1C151C1C1CAB
:1019D00026AB1B7898462D4B1B68DB0708D42C4898
:1019E000FBF774FB0122294B1A602A480FF0F9FB20
:1019F0002748291C221C07ABFBF78AF8234B1B68DE
:101A0000DB0708D42248FBF761FB01221F4B1A6059
:101A100020480FF0E6FBB27A2B781F4900911F494E
:101A2000019102920394049307AB05931848012196
:101A30001B4A8523FBF7BCFAD0235B00F058E2B2C7
:101A4000291C4346FBF77AFB002803D07B8901332E
:101A50007B8116E00D4B1B68DB0708D40C48FBF7B5
:101A600035FB0122094B1A600A480FF0BAFB0D4BF7
:101A700000930D4B019306480121094A8F23FBF780
:101A800097FA20B004BC9046F0BDC046A82B0020B9
:101A9000AC2B002081C50100E8420300F4420300A2
:101AA000D0420300543503001C430300F0B54F46F9
:101AB0004646C0B4A5B0051C01246442002601348A
:101AC0008E4B1B68002B3FD1382006F013F8012302
:101AD000037064224260143A0281428100228281B2
:101AE00096229200C281B93AFF3A02824282402194
:101AF0008182FA214901C182C821C90001830821DC
:101B000041838283203AC2837B3A02840532428435
:101B10007B4981847B49C184FA2189000185418503
:101B20008285243283540132002181540132815450
:101B3000293A42862D328354313A3433C254013229
:101B40000133C2546D4B18606C4B1A683623D15C5C
:101B5000201C0FF0E5F80C1E00D10026231C0833D2
:101B60009B00EB185B681A7A002A00D1BAE0D022F9
:101B7000520099580B8B002B00D1B3E004A8FCF75E
:101B8000AFFA614B1B68DB0708D46048FBF79EFA8D
:101B900001225D4B1A605E480FF023FB049B9846C0
:101BA00001234344994604AB9F88013F5748494667
:101BB0003A1C06ABFAF7ACFF43461A78BBB2002AD0
:101BC00047D0221C08329200AA185268117B0029C3
:101BD00000D187E0D3214900505A0A31515A0122DD
:101BE00000924A46FFF78EFD071E0DD1231C0833D5
:101BF0009B00EB1859680A7B013A0A735A68D02394
:101C00005B00D058FCF734FA3F4B1B68DB0708D465
:101C10003E48FBF75BFA01223B4B1A603C480FF051
:101C2000E0FA3C4B00933C4B01930297374801216B
:101C30003A4AC0235B00FBF7BBF9231C08339B0027
:101C4000EB185A68D0235B00D3581B8B002B46D16E
:101C500048E02A7B002A45D0221C08329200AA18AC
:101C60005268D3214900505A0A31515A0022009239
:101C70004A46FFF747FD071E0CD12B7B013B2B7318
:101C8000231C08339B00EB185A68D0235B00D05804
:101C9000FCF7EEF91C4B1B68DB0708D41B48FBF76D
:101CA00015FA0122184B1A6019480FF09AFA194BCD
:101CB00000931B4B0193029714480121174A90236C
:101CC000FF33FBF775F9231C08339B00EB185A68A8
:101CD000D0235B00D3581B8B002B02D102E00126DE
:101CE00000E00126032C00D0E9E6002E00D0E6E655
:101CF00025B00CBC90469946F0BDC046B82D0020DA
:101D0000B80B000010270000A82B0020AC2B0020EF
:101D100081C501007441030038430300D042030031
:101D20005043030070B5061C0D1C00240CE0231C5E
:101D300008339B00F3185868A84204D0037A002B9C
:101D400001D005F0E5F80134254B1B68002B3FD18D
:101D5000382005F0CFFE0123037064224260143A5C
:101D6000028142810022828196229200C281B93A88
:101D7000FF3A0282428240218182FA214901C182D6
:101D8000C821C9000183082141838283203AC2838C
:101D90007B3A028405324284124981841249C1840B
:101DA000FA218900018541858285243283540132DC
:101DB0000021815401328154293A42862D328354C4
:101DC000313A3433C25401320133C254044B1860E7
:101DD000034B1A683523D35C01339C42A7DB70BDEB
