:020000021000EC
:10C000000080002009C40100F5230200E5B502000C
:10C010000000000000000000000000000000000020
:10C02000000000000000000000000000F5230200F6
:10C030000000000000000000F5230200F5230200CC
:10C04000F5230200F5230200F5230200F523020088
:10C05000F523020000000000F5230200F523020092
:10C06000F5230200F5230200F5230200F523020068
:10C07000F5230200F5230200F5230200F523020058
:10C08000F5230200D5150200F5230200F523020076
:10C09000711F0200A1150200195E0200F5230200C3
:10C0A000F5230200F523020000000000000000005C
:10C0B0000000000000000000000000000000000080
:10C0C000FFFFFFFFFFFFFFFFFFFFFFFFFFFFFFFF80
:10C0D000FFFFFFFFFFFFFFFFFFFFFFFFFFFFFFFF70
:10C0E000FFFFFFFFFFFFFFFFFFFFFFFFFFFFFFFF60
:04C400000000000038
:10C4080080B500AF0FF0DAFA0B4A0C4B9A4207D00E
:10C418000B4B0949094A081C111C1A1C10F070FA28
:10C42800084B094A101C00211A1C10F086FA0FF05C
:10C43800ADFA00F047F8FEE700280020D812030004
:10C4480054010000740D000054290020F8B5C046BE
:10C45800F8BC08BC9E467047F8B5C046F8BC08BC96
:10C468009E46704710B5064C2378002B07D1054B24
:10C47800002B02D0044800E000BF0123237010BD48
:10C488005429002000000000D812030008B5084B0A
:10C49800002B03D00748084900E000BF074803689D
:10C4A800002B00D108BD064B002BFBD09847F9E7BD
:10C4B80000000000D8120300582900205429002049
:10C4C80000000000164B002B00D1144B9D46402263
:10C4D80092029A1A924600218B460F461348144A34
:10C4E800121A10F02AFA0F4B002B00D098470E4B67
:10C4F800002B00D098470020002104000D000D48B3
:10C50800002802D00C4810F082F910F0A5F920009C
:10C51800290000F013F810F089F9C046000008005F
:10C5280000800020000000000000000054290020C6
:10C53800C836002017C8020000000000F0B55F46AA
:10C5480056464D464446F0B4C3B008200FF0CAFA28
:10C55800041C502010F0A6F920600022E280142369
:10C56800A380F34B1C60A021C9050320F14BC850E0
:10C57800F14BCA50F14B0925F14C1D510235F14CD4
:10C588001D51E424E4000851E520C0000A500A20A7
:10C59800A221C90058500238083958500121EA48E8
:10C5A8001950EA4CEA481C50042424381C5099605D
:10C5B80019600831FF315A5003F048FD046D201C02
:10C5C800E4490FF04DFD061C05042D0CE2486843B4
:10C5D8000019E2490FF044FD03041B0CD321C901E3
:10C5E8004E433419DE494843221892B200920EA8ED
:10C5F800DC492A1C10F0DCFADB4B1B78002B26D018
:10C608001B2009F0A5FFD94809F0CAFF1B2009F033
:10C618009FFFD74809F0C4FFD64809F0C1FFD648A4
:10C6280009F0BEFFD54809F0BBFFD54809F0B8FFAF
:10C63800D44809F0B5FFD44809F0B2FF0EA809F0B4
:10C64800AFFFD24809F0ACFFD14809F0A9FF012299
:10C65800D04B1A7002F042F9051CCF4C13A8211CCC
:10C6680014AA0FF023FC281C13A901F0D1FF13987A
:10C678000C381DA90FF0F2FA02F030F9051C15A8C4
:10C68800C64916AA0FF012FC281C15A901F0C0FF14
:10C6980015980C381EA90FF0E1FA02F01FF9051CD5
:10C6A80017A8BF4918AA0FF001FC281C17A901F008
:10C6B800AFFF17980C381FA90FF0D0FA02F00EF947
:10C6C800051C19A8B7491AAA0FF0F0FB281C19A9CC
:10C6D80001F09EFF19980C3820A90FF0BFFA02F05C
:10C6E800FDF8051C1BA8B0491CAA0FF0DFFB281C8D
:10C6F8001BA901F08DFF1B980C3821A90FF0AEFA89
:10C7080002F0ECF80094A94B01930121A84AA42354
:10C7180001F0DEFFA74AA84B1A604722A74B1A80F0
:10C728000022A74B1A600820A64909F04DFF031EF6
:10C7380007D10122A44B1A70162009F047FF0028E0
:10C7480003D0AB21A14A0FF015F8A14AA14B1A60FA
:10C758000EA800230E9380239B00436001230370DF
:10C768000CF002FB002803D0B821984A0FF002F819
:10C7780001200CF0F1FA002803D0BC21934A0EF0F6
:10C78800F9FF01200CF0EAFA002803D0C0218F4AF3
:10C798000EF0F0FF03F002FE03F058FCB0200FF09B
:10C7A800A1F9041C031D9A468B4B1A1C083202601F
:10C7B8001A1C30324260503383600025857305654A
:10C7C80045658565C565056645668566C56605670B
:10C7D8004567824B186000268581A023C550012239
:10C7E800023BC252023BC654103BC5522233C654C8
:10C7F800063BC550043BC5501C3BC550031C803349
:10C8080000200021186059609023E5500127183B4B
:10C81800E2540133E6541B33E5500433E5500C3041
:10C828000FF060F94771067180239B030360A02213
:10C83800D2059146A322D20090464A46414653501B
:10C84800856020610C200FF04DF947710671802337
:10C85800DB0303604A4641465350856060610C2003
:10C868000FF040F94771067180231B0403604A46A4
:10C87800414653508560A061206902F02DFA606935
:10C8880002F02AFAA06902F027FAAC23E654201C29
:10C8980003F0CAFBAD23E754514B1B68002B07D1AB
:10C8A80034200FF01FF9051C0CF08CFF4C4B1D6059
:10C8B8004B4B1B684B4E336052465A6044200FF076
:10C8C80011F9051C3368484A009201260196474928
:10C8D800221C0EF029FE464B1A1C08322A604C33E3
:10C8E8006B60444B1B68334208D1434801F0D4FFC6
:10C8F8000122404B1A6041480FF089FF24A84049A3
:10C9080023AA0FF0D3FA3C4824A901F081FE249B06
:10C91800181C0C383B4A904276D0043B1A68511ECA
:10C928001960002A70DC22A90FF05CFA6CE0C0469E
:10C9380024310020240700002C07000000200040BC
:10C948000C050000140500006C05000000509D0057
:10C958002405000080969800806967FF1027000072
:10C96800F0D8FFFFA8DF02001A280020B4DF020079
:10C97800B8DF0200BCDF0200F4DF020018E00200AA
:10C9880024E0020028E0020034E0020040E0020057
:10C9980048E002009429002080E0020088E00200BC
:10C9A80090E0020098E002009CE00200B8E002007B
:10C9B800AFE00200A43300202031002078290020B5
:10C9C800F0330020E15E020070290020A8E0020098
:10C9D800D1B6020080290020A0D902007C290020BD
:10C9E800F833002090290020D0E0020030750000C4
:10C9F80050DB02001C310020F42B00201DE3010055
:10CA0800D8E00200903500202B1C30332B62142311
:10CA1800AB8400232622AB54AB62EB62281C09F0DE
:10CA280045F8281C0EF0D2F925653C200FF05AF87D
:10CA3800051CF04B1B68F04A0092032201921E214C
:10CA4800221C0EF071FDED4B1A1C08322A604C3383
:10CA58006B60EB4B1B68DB0708D4EA4801F01CFF4E
:10CA68000122E74B1A60E8480FF0D1FE27A8E749F2
:10CA780026AA0FF01BFAE34827A901F0C9FD279B56
:10CA8800181C0C38E24A904208D0043B1A68511E20
:10CA98001960002A02DC25A90FF0A4F92B1C263303
:10CAA8002B620C23AB8400266E63AE63281C0EF049
:10CAB8008DF9A56554200FF015F8051CCD4F3B687E
:10CAC800D44A0092042201920A21221C0EF02CFD65
:10CAD800D14B1A1C08322A604C336B6001239846EC
:10CAE800EB842B1C28332B622823AB84281C0EF0E4
:10CAF8006DF95023EE54E565922040000EF0F2FFE8
:10CB0800051C3B68C54A0092052201921421221C8B
:10CB18000EF00AFDC24B1A1C08322A604C336B60B7
:10CB2800AE622B1C2C332B6206239946AB8432232E
:10CB3800EE54281C0EF04AF9256630200EF0D2FF7C
:10CB4800051C3B68B74A00924A4601923221221CD2
:10CB58000EF0EAFCB44B1A1C08322A604C336B60A6
:10CB6800A74B1B684246134208D1A64801F094FE21
:10CB78000122A34B1A60A4480FF049FE2AA8AB492A
:10CB880029AA0FF093F99F482AA901F041FD2A9B91
:10CB9800181C0C389E4A904208D0043B1A68511E53
:10CBA8001960002A02DC28A90FF01CF92B1C263377
:10CBB8002B620823AB84281C0EF008F965662C202C
:10CBC8000EF090FF051C8B4B1B68994A00920722B8
:10CBD80001923C21221C0EF0A7FC964B1A1C08322D
:10CBE8002A604C336B60864B1B68DB0708D485488A
:10CBF80001F052FE0122824B1A6083480FF007FEB3
:10CC08002DA88D492CAA0FF051F97E482DA901F0C5
:10CC1800FFFC2D9B181C0C387D4A904208D0043B21
:10CC28001A68511E1960002A02DC2BA90FF0DAF8E5
:10CC38002B1C26332B620423AB84281C0EF0C6F869
:10CC4800A5667E4B1B68002B57D154200EF04AFF77
:10CC5800051C012606704670002700238770C8222D
:10CC68004260783A02814281878196229200C2818D
:10CC7800B93AFF3A0282428240218182FA2149016F
:10CC8800C182C821C9000183082141838283203AD7
:10CC9800C2837B3A028405324284694981846949A6
:10CCA800C184FA2189000185418582852432865410
:10CCB800013200218154013283542D3A42863132A7
:10CCC80086540132032181540421013281540132F6
:10CCD800835401328354013283543A305A49293AF1
:10CCE8000FF00EFE4A23EF520233EE5209220233AE
:10CCF800EA52564B2B65514B1D60504B1A6837232F
:10CD0800D35C002B16D0524A524B1A60152005F0FE
:10CD1800EBF800280ED11530012105F0E3F80028C2
:10CD280008D1153005F0E2F8002803D103300121BD
:10CD380005F0D6F814200EF0D5FE00230382464BEA
:10CD48000360B42252008280453AFF3AC280836071
:10CD5800C360E061394B1B68002B00D08DE0542084
:10CD68000EF0C0FE051C0126067046700027002341
:10CD78008770C8224260783A028142818781962270
:10CD88009200C281B93AFF3A0282428240218182EE
:10CD9800FA214901C182C821C900018308214183C0
:10CDA8008283203AC2837B3A028405324284244932
:10CDB80081842449C184FA218900018541858285BD
:10CDC80024328654013200218154013283542D3A91
:10CDD80042863132865401320321815404210132C2
:10CDE80081540132835401328354013283543A30DE
:10CDF80034E0C0469029002004F1020048D902001E
:10CE08001C310020F42B00201DE30100E4E00200A7
:10CE180090350020F0E00200A8DB0200F4E00200F8
:10CE2800F8DA0200FCE0020058DA020004E102002D
:10CE380010E1020000DA020014E10200803500204F
:10CE4800B80B00001027000034D902001927000091
:10CE5800194E0200A033002030320020DC49293A64
:10CE68000FF04EFD4A23EF520233EE5209220233ED
:10CE7800EA52D84B2B65D84B1D60D74B1B681B78E3
:10CE8800002B1DD0D54B1B68DB0708D4D44801F014
:10CE980003FD0122D14B1A60D2480FF0B8FCD24BE7
:10CEA8000093D24B0193CE480121D14A782301F057
:10CEB8000FFC01235B422362201C06F007FB21E0E4
:10CEC800CC4B1B68DB0708D4CB4803F055F901228B
:10CED800C84B1A60C9480FF09AFC0EA9231C2033CE
:10CEE8008B6030234B8000234B60221C0832CA60C1
:10CEF8000B80C14DA433E858102203F0E3FB281C33
:10CF080003F00CF9BE4B1C6010200EF0EBFD041C66
:10CF1800BC4B1A1C083202602C334360BA4B1860B1
:10CF28000023C360B94B1B68DA8DB94B1A6003F054
:10CF38007BF8AA4B1B68DB0708D4A94801F0ACFCB6
:10CF48000122A64B1A60A7480FF061FC36A8B14928
:10CF580035AA0EF0ABFFA24836A901F059FB369B63
:10CF6800181C0C38AC4A904208D0043B1A68511E71
:10CF78001960002A02DC30A90EF034FF974B1B68B9
:10CF8800DB0708D4964801F087FC0122934B1A600E
:10CF980094480FF03CFC34A8A04933AA0EF086FF51
:10CFA8008F4834A901F034FB349B181C0C389A4A7A
:10CFB800904208D0043B1A68511E1960002A02DC0E
:10CFC8002FA90EF00FFF854B1B68DB0708D4844898
:10CFD80001F062FC0122814B1A6082480FF017FCB5
:10CFE80032A88F4931AA0EF061FF7D4832A901F0BD
:10CFF8000FFB329B181C0C38874A904208D0043B20
:10D008001A68511E1960002A02DC2EA90EF0EAFEE9
:10D01800844B1B68002B07D134200EF063FD051CE0
:10D028000CF0D0FB7F4B1D607E4B1B68A36004F0A7
:10D038005FFF00227C4B1A6001217C4B19707C48F1
:10D048007C4B03601A701A7503247B490C701C1CF6
:10D0580024347A490C6024215A5401315A54233912
:10D06800262419551C1C3C349C622C241A55013466
:10D078001A55013419551C1C6C341C6334241A5578
:10D0880001341A5501341955191C9C319963012131
:10D0980049426B4B19606B4B1A706B4B1A706B4C97
:10D0A80080256D03C0235B00E550C526B600A35953
:10D0B8000131FF318B43191CC0230B43A351256059
:10D0C8006349A123DB00CA50C4229200A558614BD2
:10D0D8002B40C0252D022B43A3505F4BCA585F4BF2
:10D0E8001A600368002B01D101F087F84F4A1078C5
:10D0F800002801DC01F083F81A78002A12D108E030
:10D10800141C0B1C24310D1C243D2D78002D0CD132
:10D1180000E0002401221A705A70514A9A61514B5A
:10D128001C6008E02433191C002201328242E7DB2C
:10D13800042001F065F84B4B1C6802F087FF436838
:10D14800590CD803FA225200002380185941FA22B8
:10D15800920000230FF006F9011C354B1A68002ACB
:10D1680001D101F054F8314B1B7807209C4200D3C1
:10D17800C4E0042900D8C1E0E3001B199B00D318C0
:10D188001A780130012A00D0B8E05B780020012B22
:10D1980000D1081C344B5B68DB05DA0D0223002A3A
:10D1A8007BD0131C103BDAB21D0661D5131C0F226D
:10D1B8001A40083A920892002C4DAC4662445268D4
:10D1C80003252B40DB00DA4013069B0F5CE0C046CA
:10D1D80034D9020019270000803500201C310020B6
:10D1E800F42B00201DE3010080E0020034E102007E
:10D1F80028E1020098290020D82A002045FC0100D7
:10D2080088350020B0DA0200F42F00207C290020A5
:10D21800F82F00209CE002009035002050E1020029
:10D228005CE10200F8330020EC330020882900205C
:10D238002C3100209C29002087290020B42A0020B6
:10D248008C290020283100209C33002000E100E0D8
:10D2580000100140FF00FFFF04050000F433002028
:10D26800E9B50200DC2B002000ED00E018ED00E03D
:10D2780052B29208C0329200C34D525903252B4036
:10D28800DB00DA4013069B0F012B05D0033B5D4200
:10D298005D410222531B00E00023DB009C46BB4A91
:10D2A800176867447A78561CBD78751B6B1E9D41BC
:10D2B8006D422E403D78B5421FD05500AA18D200C5
:10D2C8007D68AA18002A01D100F0A4FF0125157075
:10D2D8005460AF4CAF4D2C599460D160106100215F
:10D2E8005161AA4A1268131C63445E708021490385
:10D2F80080235B00A44AD15005E00420A521490001
:10D30800A54A0EF037FAA54B1B78002B00D127E26F
:10D318000022A34B1A7084235B00A24AD358012B26
:10D3280016D0FA2080000138C046C046C046C04624
:10D33800C046C046C046C046C046C046C046C046B5
:10D34800F1D184235B00D358012B00D008E20BE015
:10D358000022954B1A70934B842149005A50A322FE
:10D36800D2009A588E4B1A70904B1E78002E06D019
:10D378008F4809F015F98A4B187809F0E9F8874BB6
:10D388001B780124002B3ED0874B1B78002B01D043
:10D3980000F054FF84235B00824AD358012BF9D153
:10D3A800131C0021842252009950A322D2009D58B8
:10D3B800EDB27F2D0ED1002CE6D0002E02D07F20BA
:10D3C80009F0C6F8764B1B19013B00221A70013C84
:10D3D800E4B2D9E7002E04D000E00025281C09F0AB
:10D3E800B7F80D2D01D0F92C08D900226C4B1A552D
:10D3F800002E08D06F4809F0D3F804E0684B1D559B
:10D408000134E4B2C0E76C486549FA220FF078FAB3
:10D418006A4803680C3B1A68002100230EF02CFCB4
:10D42800674B1E685D68AE4212D0341C2368181C16
:10D438000C38644A904208D0043B1A68511E19609F
:10D44800002A02DC3FA90EF0CDFC0434A542EDD140
:10D458005B4B5E6052485C490FF0DEFB041E00D156
:10D46800B8E00FF0D1FB021C5448211C0EF07EFCE2
:10D47800002055490FF0D0FB011E00D1AAE03EA8BC
:10D488003DAA0EF013FD4E4A5368926893420AD0A3
:10D49800002B03D03E9A1A604C4B3E93484A53687F
:10D4A800043353605EE0464A12689B1A9B100AD008
:10D4B8005D00AB4209D8464B9D4200D91D1C002691
:10D4C800002D07D002E0012500E0414DA8000EF034
:10D4D80009FB061C3A4A536812689B1AF318002B7A
:10D4E80003D03E9A1A60394B3E93354B1C685968F5
:10D4F8008C4201D100F091FE231C321C002A03D07B
:10D508001868106031481860043304329942F5D124
:10D5180004340C1BA408A40008343419284B1F68D1
:10D528005B6898469F4211D03B68181C0C38254A06
:10D53800904208D0043B1A68511E1960002A02DC88
:10D5480040A90EF04FFC0437B845EDD11C4B1868C4
:10D55800002801D00EF0D8FA194B1E605C60AD00AF
:10D5680076199E603E9B181C0C38164A904200D1D2
:10D578007EE7043B1A68511E1960002A00DD77E730
:10D5880038A90EF02FFC73E700E100E0B42A002070
:10D598000405000000100140A8E0020094290020C2
:10D5A8003031002000200040862900201A28002061
:10D5B80064E102007CE00200203000202C320020D0
:10D5C800E02B002090350020EC0903009C3500205A
:10D5D800FFFFFF3FBF48C0490EF0F1FA002808D00E
:10D5E800BE4B1A68D388002188460026002B0DD12F
:10D5F80086E01B2008F0ACFFB94808F0D1FF1B20DB
:10D6080008F0A6FFB74808F0CBFFA9E0B1B29942ED
:10D6180007D21268002A07D033049B0B9B589946FF
:10D6280004E00023994601E0002399464B461B6815
:10D638009B689A463CA8A7490EF007FCAA4B5D6870
:10D648001B68ED1AAA10002339933A933B93002ADA
:10D6580009D0A64B9A4201D90EF060FA281C0EF0A8
:10D6680041FA041C00E0002439943A9465193B956A
:10D678009D4B1D685F68BD4209D0002C03D0201C5B
:10D68800291C0EF0E2FB04340435AF42F5D13A947C
:10D6980048463CA939AAD0478044399C3A9DAC42B7
:10D6A80011D02368181C0C38914A904208D0043BCA
:10D6B8001A68511E1960002A02DC41A90EF092FB7B
:10D6C8000434A542EDD13998002801D00EF01CFA97
:10D6D8003C9B181C0C38864A904208D0043B1A68B8
:10D6E800511E1960002A02DC37A90EF07BFB0136B7
:10D6F8007A4B1A68D3889E4288D34346002B2FD191
:10D708007C4B1B78002B03D07B4808F049FF10E0C6
:10D718007A4B1B68DB0708D4794801F0BDF8012271
:10D72800764B1A6077480FF072F87548012101F0BE
:10D7380061FA724B1B68DB0708D4714801F0ACF83A
:10D7480001226E4B1A606F480FF061F86E4B009320
:10D758006E4B01936A4800216D4A9B2301F064F8DF
:10D768006C4947230B806C480BF0FCFA002800D06A
:10D7780077E3694B1C88614B1B68DB0708D460485A
:10D7880001F08AF801225D4B1A605E480FF03FF8FD
:10D79800552C43D8A300614AD3589F46604A40E0BD
:10D7A800604A3EE0604A3CE0604A3AE0604A38E05D
:10D7B800604A36E0604A34E0604A32E0604A30E06D
:10D7C800604A2EE0604A2CE0604A2AE0604A28E07D
:10D7D800604A26E0604A24E0604A22E0604A20E08D
:10D7E800604A1EE0604A1CE0604A1AE0604A18E09D
:10D7F800604A16E0604A14E0604A12E0604A10E0AD
:10D80800604A0EE0604A0CE0604A0AE0604A08E0BC
:10D81800604A06E0604A04E0604A02E0604A00E0CC
:10D82800604A614B0093614B019302920394344820
:10D8380001215F4A1623FF3300F04AFF364B1B884D
:10D84800103B9AB2092A00D954E19300594AD35897
:10D858009F460022584B1A702F4B1B7D012B1CD161
:10D86800264B1B68DB0708D4254801F015F8012270
:10D87800224B1A6023480EF0CAFF504B0093504BBE
:10D8880001931F4801214F4AF22300F021FF002293
:10D898004D4B1A8002324D4B1A70184B1B68DB0730
:10D8A80008D4174800F0F8FF0122144B1A601548F5
:10D8B8000EF0ADFF464B0093464B019310480121F3
:10D8C800454A9D2300F004FF444B1B6812489847C3
:10D8D80010E1C0462C3200208CE1020024310020E7
:10D8E800B4DF0200B8DF0200E02B0020FFFFFF3F9B
:10D8F800903500201A28002090E102001C310020F9
:10D90800F42B00201DE30100C0E1020020300020BC
:10D91800B3E1020018280020A4330020B4D7020085
:10D9280014DC020030DC02004CDC020064DC020083
:10D9380080DC0200A0DC0200C0DC0200E0DC0200A7
:10D94800FCDC02001CDD020034DD020050DD0200B8
:10D9580064DD020080DD020098DD0200B0DD020017
:10D96800D8DD0200FCDD020018DE020034DE020011
:10D9780050DE020078DE020090DE0200B4DE020013
:10D98800CCDE0200E0DE0200F8DE02000CDF02005E
:10D9980030DF020050DF020064DF020080DF020097
:10D9A80098DF020000DC0200D8E10200E0E102009A
:10D9B800AFE002000CD90200B82A00201CE20200E5
:10D9C80020E2020000E2020084290020BC2A002094
:10D9D80060DF020058E2020044E2020074290020DD
:10D9E800C04B1B68DB0708D4BF4800F055FF012275
:10D9F800BC4B1A60BD480EF00AFFBD4B0093BD4BEF
:10DA08000193BD4CA3790293B7480121BB4AA723D0
:10DA180000F05EFEBA4B1B68201C98476AE0B64BC4
:10DA28009B79032B00D003E10022B64B1A70B64B4A
:10DA38001B68B14898475DE00EAC227C0123134374
:10DA48002374B24B19683831201C10220EF058FF8D
:10DA5800237C01221340202213432374A64B988869
:10DA6800211C002200230BF04FFC041E03D0CE2102
:10DA7800A74A0DF07FFE9B4B1B68DB0708D49A482A
:10DA880000F00AFF0122974B1A6098480EF0BFFE7B
:10DA9800A04B0093A04B0193029493480121974A0D
:10DAA800D02300F015FE25E0934BDE799B791D0904
:10DAB8001B071C0F8B4B1B68DB0708D48A4800F038
:10DAC800EBFE0122874B1A6088480EF0A0FE914BAE
:10DAD8000093924B01930296039504948248012186
:10DAE800864ADC2300F0F4FD8D4B1B68002B01D027
:10DAF80081489847804B1B88192B00D198E01B2B35
:10DB080003D0102B00D0AFE08DE07B4B9B7BDB0874
:10DB18000A2B00DC76E1784A918A824A914200D049
:10DB280070E1754A927DF02A00D06BE1774A15685A
:10DB3800714AD17D127E1202A88D0A43904200D00C
:10DB480060E16DE31E2B00D05CE16B4BDA69A0232A
:10DB5800EB589A4200D155E1EA69108A071E17DD91
:10DB6800654B5E8B002399B2814207D2D1881C0491
:10DB7800240C4C4311688C46644400E00024218A3C
:10DB8800B14202D1002C13D102E00133BB42EADBDF
:10DB9800D368D48891881668B4466144C91AA142EA
:10DBA80000DA2FE11B19D360013010821C1B5BD0F7
:10DBB800601C514EF11D06220EF0A2FEB3792370AF
:10DBC800F36963821B0CA382338CE3822223F25C09
:10DBD80007200240111C227E0727BA430A432276F7
:10DBE800F35CDB08DA00237E034013432376738B50
:10DBF8002382B36A1B021B0C221C1F32E3771B0A09
:10DC080053702B23F15C0133F25C231C2133197010
:10DC18005A70B37B5B079B0FE371737B237294236A
:10DC2800EB58E36020E08020C0000BF09FF81BE079
:10DC3800314B9B79022B00D0E4E02A4B1B68DB07B1
:10DC480008D4294800F028FE0122264B1A602748EC
:10DC58000EF0DDFD344B0093344B01932248012133
:10DC6800334A8E2300F034FD234B1B88302B69D0B8
:10DC780007D8102B12D0112B15D0012B00D0C1E0E2
:10DC88002AE0372B00D1B9E003D8322B00D185E048
:10DC9800B8E0502B0CD0522B0FD0B3E0164B9A881B
:10DCA800244B1A83AEE001225242224B1A83A9E088
:10DCB800214B1B6810489847A4E00F4B9888002117
:10DCC800002200230BF0BEFA002800D19AE0D521EB
:10DCD8001A4A0DF04FFD95E0194B1B680648984706
:10DCE80090E0C0461C310020F42B00201DE3010009
:10DCF80060DF02006CE20200A433002044E202006C
:10DD080098330020B82A0020D42A00207C2900203B
:10DD180038E2020098E0020084E20200BCE202005D
:10DD2800EC2B00204D02000018E3020020E3020063
:10DD380004E30200043000200030002030E3020039
:10DD4800F02B0020BD4B9B89002B5BD0BC4B1B6884
:10DD5800DB0708D4BB4800F09FFD0122B84B1A60CE
:10DD6800B9480EF054FDB94B0093B94B0193B5482F
:10DD78000121B84AFE2300F0ABFC0EA9AF4B5A8A2A
:10DD88000A809A8A4A8098880BF05AFA002839D073
:10DD980083214900B04A0DF0EDFC33E0A74B9B8985
:10DDA800002B2FD0A54BDA89AC4B9A422AD1A34B32
:10DDB8001A7CAB4B9B7D9A4224D1A04BDC8AA04BAA
:10DDC8001B68DB0708D49F4800F066FD01229C4BC6
:10DDD8001A609D480EF01BFD9C4B0093A14B0193CC
:10DDE800984801219B4A8A235B0000F071FC934B01
:10DDF80098889D4B1B68211C984703E09B4B1B6828
:10DE08008E48984700249A4B1A68002A0DD0231C84
:10DE180014339B009858002807D0036ADB78002B3E
:10DE280003D003689B6A8549984701340A2CEAD1D4
:10DE3800834B1B68DB0708D4824800F02DFD0122C4
:10DE48007F4B1A6080480EF0E2FC8A4B00938A4BA5
:10DE580001937C480121894A92235B0000F038FC39
:10DE68007EE4052800D0BEE1814B1D68002D00D15D
:10DE7800ACE18C23EA5A002A00D1A7E194216B581F
:10DE8800D3186B509023E9588A1AEA507C4F7D4E7C
:10DE9800BB5980218C46AC440831884669585B1AC6
:10DEA8001B021B0A069300230793634606980799EB
:10DEB8005C681B68C0186141634618605960BB59AB
:10DEC80041466B507923E95C002904D0002A02DC22
:10DED800281C0AF029FAAD23EB5C012B00D053E192
:10DEE800694B1B681869427A089259694A7A0992FB
:10DEF8009A69547A0A94DB695C7A0B94007A0C90DC
:10DF0800097A0D91127A93461B7A9846AC23EB5CFA
:10DF18005F085E4A1268002A00D089E154200DF09B
:10DF2800E1FD041C01260670467000239946A37083
:10DF3800C8224260783A02814281A38196229200E7
:10DF4800C281B93AFF3A0282428240218182FA2193
:10DF58004901C182C821C900018308214183828304
:10DF6800203AC2837B3A028405324284484981843C
:10DF78004849C184FA218900018541858285243276
:10DF88008654013200218154013283542D3A42864D
:10DF98003132865401320321815401329246323A99
:10DFA80051464254333283540132835401328354EC
:10DFB8003A303949293A0EF0A3FC4A234A46E2523C
:10DFC8000233E65209220233E252344B23652F4BC7
:10DFD8001C605346E35CBB426BD9AC23EB5CDB07AC
:10DFE8005ED4BF00284B1B68DF197B6A5A7A002A67
:10DFF80006D0A86900F086FE7B6A5A7A002A05D105
:10E008001B7A002B02D0686900F07CFE0A9B0B9AF1
:10E0180094466344099A94466344089AD2185E4623
:10E0280046440D9B9B190C998C4663441343DBB201
:10E03800002B3ED1286900F065FE3AE0A4330020A9
:10E048001C310020F42B00201DE3010060DF0200DA
:10E0580050E302003CE3020030E302002415000014
:10E068000430002060E30200FC2F0020F02B002089
:10E0780088350020D8E1020078E30200AFE0020012
:10E088000010014004050000902900208035002080
:10E09800B80B00001027000034D90200192700002F
:10E0A800286900F019FE686900F016FEA86900F0FA
:10E0B80013FEAC23EE5C0136644B1B68002B58D171
:10E0C80054200DF00FFD041C012707704770002332
:10E0D8009846A370C8224260783A02814281A3819F
:10E0E80096229200C281B93AFF3A028242824021C6
:10E0F8008182FA214901C182C821C900018308210E
:10E1080041838283203AC2837B3A02840532428467
:10E118004F4981844F49C184FA218900018541858D
:10E12800828524328754013200218154013283547C
:10E138002D3A428631328754013203218154042119
:10E1480001328154013283540132835401328354A1
:10E158003A304149293A0EF0D3FB4A234246E2526B
:10E168000233E75209220233E2523C4B2365374B14
:10E178001C60364B1A683623D15C02314900301CCA
:10E188000EF0E4F8AC23E954354B1B688C229E5AF8
:10E1980008329D580024324B1B68002B0ED0221CDD
:10E1A80014329200D058002808D0036ADB78002B7C
:10E1B80004D003685B6A311C2A1C984701340A2C76
:10E1C800E9D1274B1A6800218C23D1520AF0C2FDED
:10E1D800002803D09321234A0DF0CCFA16200AF028
:10E1E800BFFDFFF790F8002801D1FFF78CF89921BF
:10E1F8001C4A0DF0BFFAFFF786F8082000E004205B
:10E208004821FF31174A0DF0B5FAFEF794FF0820B0
:10E21800FFF774F80420FFF771F8341DFFF796F93B
:10E22800114A527E012A00D18CE41DE55E1CA0E74C
:10E238003621525CBA4200D9CFE6F7E7002E01D06A
:10E24800FFF7CBF80025FFF7CEF8C0468035002051
:10E25800B80B00001027000034D90200192700006D
:10E2680088350020A8E00200A433002070B582B0F1
:10E27800061C124B0833036044688568AC4211D011
:10E288002368181C0C380E4A904208D0043B1A68C0
:10E29800511E1960002A02DC01A90DF0A3FD043407
:10E2A800A542EDD17068002801D00DF02DFC301C7E
:10E2B8000DF02AFC301C02B070BDC04638E50200E3
:10E2C8009035002070B582B0061C104B08330360EF
:10E2D80044688568AC4211D02368181C0C380C4A75
:10E2E800904208D0043B1A68511E1960002A02DCCB
:10E2F80001A90DF077FD0434A542EDD1706800281E
:10E3080001D00DF001FC301C02B070BD38E50200F0
:10E318009035002030B583B0104B114A08321A608E
:10E328005C689D68AC4211D02368181C0C380D4AF3
:10E33800904208D0043B1A68511E1960002A02DC7A
:10E3480001A90DF04FFD0434A542EDD1034B5868E7
:10E35800002801D00DF0D8FB03B030BDF42B00200D
:10E3680038E5020090350020F8B54F464646C0B45F
:10E3780088469146041C0E1A3611002E28DD1768AF
:10E388003B1C0C3B1D682068031C0C3B1B68AB4204
:10E3980061D1391C2A1C0EF0A4FA00285BD158E080
:10E3A800391C2A1C0EF09DFA00285DD15AE0391C50
:10E3B8002A1C0EF096FA002860D15CE0391C2A1C51
:10E3C8000EF08FFA002860D01034013E002EDAD10A
:10E3D80043461B1B9B10022B16D0032B02D0012B8C
:10E3E80035D123E02068031C0C3B1A684B4619689A
:10E3F8000B1C0C3B1B689A424AD10EF072FA031CA4
:10E40800201C002B44D147E02068031C0C3B1A68F1
:10E418004B4619680B1C0C3B1B689A423AD10EF00C
:10E4280060FA031C201C002B34D135E02068031C43
:10E438000C3B1A684B4619680B1C0C3B1B689A422C
:10E4480005D10EF04EFA031C201C002B24D04046A8
:10E4580022E0201C20E06068031C0C3B1B689D42E6
:10E4680002D19DE7201D17E0A068031C0C3B1B6828
:10E478009D4203D19BE7201C08300DE0E068031C97
:10E488000C3B1B689D429FD198E7201C0C3003E091
:10E498000434B9E70434C9E70CBC90469946F8BD82
:10E4A800F0B54F464646C0B483B0051C0C1C436803
:10E4B80002689B1A9B100CD05E00B3420CD8B14680
:10E4C8002E4B9E4200D9994600274B46002B0AD076
:10E4D80004E00123994601E0284B99464B469800F1
:10E4E8000DF000FB071C6B682A68981A381800287A
:10E4F80002D0211C0DF0A9FC2C6869688C4235D02B
:10E50800231C3A1C002A03D0186810601C481860A5
:10E51800043304329942F5D10434091B890889006F
:10E5280008318846B8442C686E68B44211D0236814
:10E53800181C0C38134A904208D0043B1A68511E24
:10E548001960002A02DC01A90DF04CFC0434A64233
:10E55800EDD12868002801D00DF0D6FA2F60434687
:10E568006B604B469E00BF19AF6002E03B1D9846AA
:10E57800EFE703B00CBC90469946F0BDFFFFFF3FA4
:10E588009C350020903500202DDF70472CDF704728
:10E598002BDF7047F0B583B0061C47688568AF422B
:10E5A80012D03C1C2368181C0C380B4A904208D027
:10E5B800043B1A68511E1960002A02DC01A90DF0FB
:10E5C80011FC0434A542EDD1B7600022FF239B0063
:10E5D800F25403B0F0BDC04690350020F8B50F1CCA
:10E5E800161C1D1C002A0ED00024731EA34201D83D
:10E5F800054900E005493A5D281C0EF0D9FA2D18A6
:10E608000134B442F1D1F8BD88E3020090E302007E
:10E61800F0B5474680B480460F1C0C68231C0C3BA1
:10E628009B68002B45DB081C0DF076FB3C68231C1F
:10E638000C3B9B68002B42DB381C0DF06DFB3E68E1
:10E64800331C0C3B1A68944666449B68002B02DB1B
:10E65800381C0DF061FB3D68B44208D000202056FC
:10E668000DF04EF9287001340135B442F6D1434615
:10E67800586899683A1C0023FFF776FE43461861EC
:10E688009B68834220D14246D26893420BD0002B2C
:10E6980003D0181C391C0DF0D8FB43469B68043383
:10E6A8004246936010E040460430391CFFF7F8FEFC
:10E6B8000AE00B681A1C0C3A16689E19CBE7231C53
:10E6C8000C3B1E68A619C6E704BC9046F0BDC046C0
:10E6D800F0B55F464646C0B489B0071C8846049228
:10E6E8000593002955D0FF239B00C35C002B50D114
:10E6F8004A4B109A9A424CD0456883689B465B1BEC
:10E708001E11002E1EDD281C10990DF058FA002845
:10E718003BD02C1D201C10990DF051FA002835D043
:10E728000434201C10990DF04AFA00282ED0043425
:10E73800201C10990DF043FA002827D01035013E0F
:10E74800002EE0D15B465B1B9B10022B0CD0032BE9
:10E7580002D0012B17D10FE0281C10990DF02FFAC9
:10E768002C1C002812D00435281C10990DF027FA0B
:10E778002C1C00280AD00435281C10990DF01FFA0B
:10E788002C1C002802D05C4600E02C1CBB68A3426D
:10E798003ED03D1C1435FA267600281C0021321C78
:10E7A8000EF0CBF882239B00FC18201C0021321CA1
:10E7B8000EF0C3F812AB0793281C311C119A0DF008
:10E7C800D5F84346012B0ED1059B0093109B01936E
:10E7D8000295201C311C124A049B0EF07FFF201C5E
:10E7E80007F0DEFE14E04346022B03D1281C07F095
:10E7F800D7FE0DE04346002B0AD10095201CFA21D4
:10E808004900084A109B0EF069FF201C07F0C8FE5B
:10E8180009B00CBC90469B46F0BDC0465C0F030097
:10E8280098E30200ACE30200F0B55F4680B486B01E
:10E83800061C0F1C029203930CAD08CD9B46041CCA
:10E848001434201C0021FA2252000EF076F80595A7
:10E85800201CFA2149005A462B1C0DF087F8002F7E
:10E8680010D082239B00F518039B00930194281C69
:10E87800FA214900074A029B0EF030FF281C07F0D6
:10E888008FFE02E0201C07F08BFE06B004BC934606
:10E89800F0BDC046B4E3020070B5041C0E4B08334B
:10E8A8000360002545608560C56005611430FA265F
:10E8B80076000021321C0EF040F882239B00E018FD
:10E8C8000021321C0EF039F8FF239B00E554201C70
:10E8D80001F0AAFB201C70BD38E5020008B5074B03
:10E8E8001B68DB0708D40648FFF7D6FF0122034B55
:10E8F8001A6004480DF08BFF014808BD1C31002048
:10E90800F42B00201DE30100F0B583B00F1C151C8B
:10E918001C1C081C0EF078F9013003210DF0A0FB37
:10E92800061EA64216D9144B1B68DB0708D41348E9
:10E93800FFF7B2FF0122104B1A6011480DF067FF74
:10E94800104B0093104B01930C4801210F4A104BB8
:10E95800FFF7BEFE002E0DD03C1C73009E19BE1999
:10E96800201C002110220EF0D9FA2870033401353A
:10E97800B442F5D103B0F0BD1C310020F42B0020C7
:10E988001DE301005C0F0300E0E30200D3E3020093
:10E998003F020000F0B589B0061C0C1C151C081CB1
:10E9A80088490DF00CF9002800D0EFE028686B6862
:10E9B8001B1A9B10012B00D0E8E0EEE0FF2292002A
:10E9C800B15C01234B40B3540120F8E028687E492C
:10E9D8000DF0F5F8002804D1301CFFF7DBFD01200D
:10E9E800EDE0296804A80DF030FA049C231C0C3BC8
:10E9F8009B68002B00DAD7E004A80DF08DF9049C81
:10EA0800231C0C3B9B68002B00DAD3E004A80DF014
:10EA180083F9049F3B1C0C3B1A68944667449B6827
:10EA2800002B02DB04A80DF077F9049DBC4208D046
:10EA3800002020560CF064FF287001340135BC42D8
:10EA4800F6D17068B16804AA0023FFF78DFC041C96
:10EA58003061B368834211D1F268934209D0002B28
:10EA680003D0181C04A90DF0F0F9B3680433B3609F
:10EA780025E0301D04A9FFF713FD20E00434A3426C
:10EA88000BD01C1BA410002C07DD051D291C0DF044
:10EA980082F8013C281C002CF7D1B368043BB36012
:10EAA8001B68181C0C38494A904208D0043B1A6865
:10EAB800511E1960002A02DC06A90DF093F9049B87
:10EAC800181C0C38414A904208D0043B1A68511E61
:10EAD8001960002A02DC05A90DF084F901206EE016
:10EAE800FF239B00F35C002B14D0394B1B68DB071A
:10EAF80008D43848FFF7D0FE0122354B1A60364853
:10EB08000DF085FE354B009332480021344A972397
:10EB1800FFF78AFE7468B568AC422CD003A8211CA4
:10EB28000DF093F92A4B1B68DB0708D42948FFF737
:10EB3800B3FE0122264B1A6027480DF068FE294BC8
:10EB48000093039B019323480021254A9A23FFF74A
:10EB58006BFE039B181C0C381C4A904208D0043BDF
:10EB68001A68511E1960002A02DC07A90DF03AF94B
:10EB78000434A542D2D1012021E0201C1A490DF00D
:10EB88001EF8031C58425841C0B218E0201C17490F
:10EB98000DF015F80028F0D1A2E715490DF00FF88F
:10EBA800002800D10AE711E7049B1A1C0C3A1768E1
:10EBB800DF193AE7231C0C3B1F68E71935E709B052
:10EBC800F0BDC046D0E00200F8E302009035002016
:10EBD8001C310020F42B00201DE3010000E402009A
:10EBE800D3E30200A4E3020014E4020020E40200DC
:10EBF8002CE4020000B583B001291AD0002902D004
:10EC080002292CD041E02C4B1B68DB0708D42B4889
:10EC1800FFF742FE0122284B1A6029480DF0F7FD44
:10EC2800284B009325480021274A6D23FFF7FCFD58
:10EC380040E0214B1B68DB0708D42048FFF72CFE77
:10EC480001221D4B1A601E480DF0E1FD1F4B009379
:10EC58001A4800211C4A7023FFF7E6FD2AE0164BEC
:10EC68001B68DB0708D41548FFF716FE0122124B74
:10EC78001A6013480DF0CBFD154B00930F48002187
:10EC8800114A7323FFF7D0FD14E00B4B1B68DB0719
:10EC980008D40A48FFF700FE0122074B1A6008480B
:10ECA8000DF0B5FD0B4B009304480021064A76236E
:10ECB800FFF7BAFD03B000BD1C310020F42B002083
:10ECC8001DE3010030E40200D3E3020068E402001F
:10ECD800B0E40200F4E402004379002B0ED003797B
:10ECE800002B05D00168064BA022D205D15005E0C3
:10ECF8000168A123DB00A022D205D1507047C0468D
:10ED08000C0500004379002B0ED00379002B06D0A8
:10ED18000168A123DB00A022D205D15004E00168DC
:10ED2800024BA022D205D1507047C0460C05000006
:10ED3800038AC3840023292283540121013A815480
:10ED4800436383638385044B4385032306328354DB
:10ED5800013283547047C0463075000084DF704725
:10ED680010B584B0041C036A1B88FF2B1BD12D4BE4
:10ED78001B68DB0708D42C48FFF78EFD0122294BBE
:10ED88001A602A480DF043FD294B0093294B019343
:10ED980025480121284A4C23FFF79AFC23685B6920
:10EDA800201C98473BE0028A9A421CD01D4B1B68E6
:10EDB800DB0708D41C48FFF76FFD0122194B1A60C6
:10EDC8001A480DF024FD1D4B00931D4B0193236A37
:10EDD8001B880293238A039313480121164A52235E
:10EDE800FFF776FC1BE00F4B1B68DB0708D40E48C7
:10EDF800FFF752FD01220B4B1A600C480DF007FD7E
:10EE08000B4B00930F4B0193238A0293236A9B7841
:10EE1800039305480121084A5623FFF759FC04B01B
:10EE280010BDC0461C310020F42B00201DE301005A
:10EE38005CE102006CE502005FE502005C0F030084
:10EE480088E50200ACE5020008B5FFF789FF08BDB8
:10EE580010B5041CFFF784FF00238E225200A35034
:10EE68000432A35010BDC046F0B557464E4645463D
:10EE7800E0B48EB02F23C35C002B00D1BCE00B881C
:10EE88001B2B00D0B8E08C7BE4080A2C00DCAFE038
:10EE98000B1C0A7D0F339B791B021343594A93427B
:10EEA80000D0A5E08B7DF02B00D0A1E00B1CCA7D23
:10EEB8000F335B7A1B02544D2D68AD8D13439D4271
:10EEC80000D095E098E08B7B5B079B0F4D7B8A7C9D
:10EED800062A13D1CA7C092A10D10A7D442A0DD1E9
:10EEE8004A7D552A0AD18E267600825901328251EE
:10EEF80004366AB28759BC46624482513222825C27
:10EF0800002A79D03422825CFF2A02D08E79964278
:10EF180072D13D22825CFF2A01D093426CD13B23FF
:10EF2800C2566BB29A4267DC3C23C2566BB29A4215
:10EF380062DB884681463323C35C012B3CD0022B1D
:10EF48003AD1FFF7CBFC314B0093314B01930121B0
:10EF5800304ADD23FFF7BCFB0AAF3B78012292461B
:10EF68001340773213433B704B469A6829236B440E
:10EF780000262E21515C19702F21525C5A702B23C8
:10EF88006B441E705E704346D91D2D2068440622CE
:10EF98000DF0B6FC53467B736BB25B4233226A4476
:10EFA8009BB213701B0A537000964B46D868311CED
:10EFB8003A1C0E2309F090F8FFF790FC134B0093CE
:10EFC800154B01936DB2029503944146CB79049396
:10EFD8000B7A05934B7A06938B7A0793CB7A08932F
:10EFE8000B7B099301210B4AEE23FFF771FB03E02A
:10EFF8008B7BDB0700D466E70EB01CBC90469946B5
:10F00800A246F0BD4D0200007C29002018E3020052
:10F01800F4E50200DFE50200FCE5020010B5041C7F
:10F02800054B0360443343600BF0B2FE201C0CF028
:10F038006BFD201C10BDC04600DB020008B4024B6B
:10F048009C46043808BC604725F0010008B508292B
:10F0580003D18020C00009F089FE08BD70B58AB0D0
:10F06800038E002B67D0942281688A58816A521ACD
:10F078009A4260D9041C314B1B68DB0708D430481E
:10F08800FFF70AFC01222D4B1A602E480DF0BFFB3A
:10F098002D4B00932D4B01938E256D0063590293E0
:10F0A80090235B00E358039325480121284A7123E4
:10F0B800FFF70EFB6359002B33D005AD2B780122E7
:10F0C8001340662213432B70A26815236B442E212C
:10F0D800515C002619702F21525C5A7017236B441B
:10F0E80000221A705A7019236B44227C1A70627CB1
:10F0F8005A702E72211C1D31FF311D2068440422D4
:10F108000DF0FEFB211C2131FF312120684404222F
:10F118000DF0F6FB0096E06800212A1C112308F088
:10F12800DBFF00238E225200A3500432A350A268B2
:10F138009433D358A3620AB070BDC0461C31002076
:10F14800F42B00201DE3010048E6020050E602000F
:10F15800DFE5020010B5038A838500222F23C254FD
:10F168000132013BC2540B4B03863223C35C002B94
:10F178000FD1013332328354CC32342142549C248F
:10F1880007314454383C0131445401314254CD3A9A
:10F19800835410BD204E0000F0B55F4656464D46DC
:10F1A800E0B4BC4CA54404AF1A780124A243642AF5
:10F1B80000D0BAE15A799D792D021543028AAA42F4
:10F1C80000D0B2E11C1C061C0A89093A93B2994680
:10F1D800237A002B67D1006AE27A83789A4232D187
:10F1E800B28C4A4547D10588211C09310DF088FBAE
:10F1F800336A1D803B7A01221A40642313433B7211
:10F20800B3682E229A5C00217A722F229B5CBB7213
:10F218006278A3781B021343FB721B0A3B737D734E
:10F228002D0ABD73E379FB7301233B747974F0688D
:10F2380000910733FA18023308F04EFF33689B68D1
:10F24800301C9847AAE0944B1B68DB0708D4934806
:10F25800FFF722FB0122904B1A6091480DF0D7FA74
:10F26800904B0093338A01938C4800218E4AF023F7
:10F27800FFF7DAFA92E0884B1B68DB0708D4874867
:10F28800FFF70AFB0122844B1A6085480DF0BFFA8C
:10F29800864B0093338A019380480021824AF123E8
:10F2A800FFF7C2FA7AE0042B41D16B467B60828C6F
:10F2B80009218B469344131C1033DB08DB00694695
:10F2C800C91A8D4604A98A460B7801210B4064218E
:10F2D8000B4351460B708168CB8D112169440B702B
:10F2E8001B0A4B706178A3781B02132068440B43F8
:10F2F80003701B0A437015236B441D702D0A5D7043
:10F30800E3795146CB7105230B7219206844316AA1
:10F318000DF0F6FAF0685A467A8093B2002200920D
:10F328000021524608F0D8FE7B689D4636E0022B45
:10F3380034D18068031C503378301A68002A29D0E9
:10F34800118AA94226D1136A627ADA703B7A0122BD
:10F358001A40642313433B72B2682E23D15C002306
:10F3680079722F21525CBA726178A278F9723A7375
:10F37800327C7A73727CBA73E279FA7303223A7434
:10F388007B74F068009300210833FA18023308F000
:10F39800A3FE03E004338342CFD1C6E0237A012BD6
:10F3A8003AD13D4B1B68DB0708D43C48FFF774FA99
:10F3B8000122394B1A603A480DF029FA3C4B009368
:10F3C8006278A3781B02134301936279A3791B0225
:10F3D8001343029331480021334A2823FF33FFF7B0
:10F3E80023FA2D4B1B68DB0708D42C48FFF754FA87
:10F3F8000122294B1A602A480DF009FA2D4B009377
:10F40800E3790193637A029324480021264A9423DE
:10F418005B00FFF709FA88E0032B4FD11E4B1B68EE
:10F42800DB0708D41D48FFF737FA01221A4B1A6088
:10F438001B480DF0ECF9204B00936278A3781B026F
:10F44800134301936279A3791B0213430293134870
:10F458000021154A96235B00FFF7E6F90E4B1B685F
:10F46800DB0708D40D48FFF717FA01220A4B1A6088
:10F478000B480DF0CCF90F4B0093E3790193637AB5
:10F48800029306480021084A2E23FF33FFF7CCF9E0
:10F498004BE0C046C8FCFFFF1C310020F42B0020C5
:10F4A8001DE3010068E602005FE50200B0E6020025
:10F4B80000E7020038E7020058E70200052B34D1C4
:10F4C8001E4B1B68DB0708D41D48FFF7E5F901222E
:10F4D8001A4B1A601B480DF09AF91948211C09317A
:10F4E8004A460823FB18FFF779F8144B1B68DB071B
:10F4F80008D41348FFF7D0F90122104B1A601148BD
:10F508000DF085F9104B00936278A3781B02134322
:10F518000193338A02930823FB18039308480021B8
:10F528000A4A9A235B00FFF77FF9BD46CA239B006E
:10F538009D441CBC91469A46A346F0BD1C31002050
:10F54800F42B00201DE3010090E702005FE50200B4
:10F5580030B589B0051C1C1C0CAB1B880093231C00
:10F56800FFF71AFE237801229343662B35D162797F
:10F57800A3791B02298A134399422ED1237A002B9F
:10F588002BD106A8211C093104220DF0B9F907A8CE
:10F59800211C0D3104220DF0B3F9114B1B68DB0758
:10F5A80008D41048FFF778F901220D4B1A600E486D
:10F5B8000DF02DF90D4B00932B8A01936278A378F7
:10F5C8001B0213430293069B0393079B049305486E
:10F5D8000021074A9623FFF727F909B030BDC04636
:10F5E8001C310020F42B00201DE30100CCE70200B1
:10F5F800DFE50200F0B55F4656464D464446F0B496
:10F608008BB002AF041C0D1C116853685B1A0020F4
:10F61800072B00D8F3E0161C081D211C14310CF030
:10F62800CEFA002800D0E9E0306879490CF0C7FA32
:10F63800002803D1A368DB8D984605E03368186875
:10F648000DF0EDF883B29846281C72490CF0B7FA11
:10F65800002865D133689A467568ED1AAD10022DF9
:10F6680000D8CCE06B467B6053469B689B460C3BBE
:10F678001868013003210CF0F3FC061C83B299468C
:10F688000023032D04D95346D8680DF0C8F8C3B237
:10F698003604360C1036F608F6006A46921B954674
:10F6A80002AD2A7801210A4064210A432A70A2681F
:10F6B800D28D092169440A70120A4A700B226A44E1
:10F6C800414611704146080A507000222A720D32D4
:10F6D8006A44217C1170617C5170EB714E4B1B6840
:10F6E800DB0708D44D48FFF7D7F801224A4B1A60C8
:10F6F8004B480DF08CF82A1C0932484859464B46AD
:10F70800FFF702F9E0684B4609339BB201220092E9
:10F7180000212A1C08F0E0FC7B689D4601206EE071
:10F72800281C40490CF04BFA002828D1736832682D
:10F738009B1A9B10022B62D13B7B0122134064224F
:10F7480013433B73A3682E229A5C7A732F229B5C27
:10F75800BB734346FB734346180A3874237C7B7497
:10F76800637CBB7404233B75E0680023009300218D
:10F778000C33FA18033B08F0AFFC01203FE0281CCB
:10F7880029490CF01CFA031C0020002B37D13068E3
:10F79800083026490CF013FA45424541EDB232686B
:10F7A80073689B1A00210F2B03D9D0680DF037F826
:10F7B800C1B23B7B01221340642213433B73A3680D
:10F7C8002E229A5C7A732F229B5CBB734346FB7391
:10F7D8004346180A3874237C7B74637CBB74022309
:10F7E8003B75F9747D75E068013B009300210B338C
:10F7F800FA18023B08F070FC012000E00020BD462A
:10F8080009B03CBC90469946A246AB46F0BDC046FE
:10F8180034E802003CE802001C310020F42B0020F0
:10F828001DE3010048E8020054E80200CCEC0200A5
:10F8380008B4024B9C46043808BC6047FDF501003B
:10F84800F0B587B0061C171C68460CF0FEFA7B68FA
:10F858003A689D1AAA100023019302930393002A81
:10F8680009D0284B9A4201D90CF058F9281C0CF001
:10F8780039F9041C00E000240194029465190395E9
:10F888003D687F68BD4209D0002C03D0201C291C8C
:10F898000CF0DBFA04340435AF42F5D10294301C85
:10F8A800694601AAFFF7A6FE051C019C029EB44208
:10F8B80011D02368181C0C38134A904208D0043B16
:10F8C8001A68511E1960002A02DC05A90CF08AFA90
:10F8D8000434A642EDD10198002801D00CF014F9A7
:10F8E800009B181C0C38084A904208D0043B1A6840
:10F8F800511E1960002A02DC04A90CF073FA281CB6
:10F9080007B0F0BDFFFFFF3F9035002008B4024B61
:10F918009C46043808BC604749F8010030B585B0FA
:10F928000B7A002B2AD00C1C0023CB818B819D23C2
:10F938009B00C85A00210022FFF710FA051E03D0C9
:10F94800E5210F4A0BF016FF0E4B1B68DB0708D4A6
:10F958000D48FEF7A1FF01220A4B1A600B480CF074
:10F9680056FF0B4B00930B4B0193A37A029303951D
:10F9780005480121084AE723FEF7AAFE05B030BD75
:10F9880060E802001C310020F42B00201DE3010078
:10F99800E4E0020088E802006FE8020070B588B071
:10F9A80002AB1A7801210A4068210A431A700B2217
:10F9B8006A44002111705170816809226A442E241A
:10F9C8000C5D14702F24095D51700D226A44017C6E
:10F9D8001170417C517003221A72C068456A224B2B
:10F9E8000E326A44E95C1170E91849785170846AEA
:10F9F80013226A44E15C1170E11849785170C16AB8
:10FA080015226A44CE5C1670CE1876785670026B52
:10FA180017266E44D35C3370134BD3185B7873701E
:10FA28002E7A0023002E00D02B7C02AD6B74257A31
:10FA38000023002D00D0237C02ACA3740C7A002391
:10FA4800002C00D00B7C02A9CB74117A002300296A
:10FA580000D0137C02AA13750123009300211433EC
:10FA680008F03AFB08B070BD7202000070B588B0AB
:10FA780003AB54001A7801252A4022431A700F223A
:10FA88006A4400251170090A517082680D21694481
:10FA98002E24145D0C702F24145D4C7011216944C0
:10FAA800047C0C70447C4C7001211972DD73143194
:10FAB80069449E24145D0C70141C9E3464784C7048
:10FAC8004821525A1A74C068417B032631400C1CE5
:10FAD800997B0322914321439973817B89009A7B07
:10FAE80032400A439A73026917216944084C145D2D
:10FAF8000C70074C141964784C70127C5A7300957A
:10FB080000211A1C122308F0E7FA08B070BDC0469D
:10FB18007202000010B5041C438D002B0ED09422F5
:10FB280081688A58416B521A9A4207D900213522B6
:10FB3800FFF734FFA2689423D3586363A38D002B87
:10FB48000FD09422A1688A58A16B521A9A4208D9F8
:10FB5800201C00213522FFF789FFA2689423D3587F
:10FB6800A36310BD85DF704771DF704710B5041CB3
:10FB7800034B0360443343600BF00AF9201C10BDAB
:10FB880000DB020008B4024B9C46043808BC6047FE
:10FB980075FB0100F0B557464E464546E0B482B0C5
:10FBA80002AF061C9A4620203818007884463C8DFF
:10FBB8002C20381800788046201C1030C008C0005F
:10FBC8006D46281A854602AD490028780123184059
:10FBD80001432970B368D98D092068440170090A66
:10FBE80041700B2169440A70120A4A700D226A4456
:10FBF800317C1170717C51706346EB7153462B72E6
:10FC08007B6A002B06D0002C04D00830191C221C5B
:10FC18000CF076FEF0680934A3B242460092002147
:10FC28002A1C08F059FABD461CBC90469946A246C3
:10FC3800F0BDC0463ADF70477047C0467047C046BF
:10FC480010B5041C0BF060FF201C10BDF0B585B08A
:10FC5800051C141C1E1C314B1B68DB0708D43048DC
:10FC6800FEF71AFE01222D4B1A602E480CF0CFFD2C
:10FC78002D4B00932D4B01930296039428480121A4
:10FC88002B4A7823FEF724FD2A4B1B6808205B07C4
:10FC980038D5261C1636F600AE19002E37D0E400EB
:10FCA8002C19B023E3580138002B2BD1224B1B68A9
:10FCB800002B2ED0B423E5581F4B5A681F895C8946
:10FCC8007C43A418A5421DD20930AB071AD1A81A43
:10FCD800391C0CF04BFA0720002913D17930391C54
:10FCE8000CF044FA89B2072000290BD18035AC42C8
:10FCF80008D3002200920438311C802301F0B4FE9E
:10FD0800002808D07D210D4A0BF034FD03E00E20B9
:10FD1800F8E70720F6E7012005B0F0BD1C31002008
:10FD2800F42B00201DE3010088E00200ECE802004B
:10FD3800DFE802007C35002018340020D0E80200FB
:10FD4800F0B585B00D1C20490968490739D5161C3E
:10FD58001636F6008619002E33D0002D31D0D20089
:10FD68008418B022A258002A2BD1184A1268002AF7
:10FD780027D0B422A158154F388903907A89424375
:10FD88007F68D21991421CD29AB2002A19D08242B5
:10FD980017D81B041F0CB84213DB2B1C0B439B0703
:10FDA8000FD1281C3A1C0CF0ABFDB023E258A43B41
:10FDB80053430097054A9C58301C022100222B1CF3
:10FDC800A047012005B0F0BD7C3500201834002084
:10FDD800F0B5474680B488B006AF78600D1C161C95
:10FDE800081C4A490BF0EBFE002843D1E84633686B
:10FDF80018680CF014FD051C33685B683B60181C20
:10FE08000CF002FF041C830707D0011DC3179B0FCA
:10FE1800C21803201040C01A0C1AE31DDB08DB00CF
:10FE28006A46D31A9D4606AE301C39680DF08AFC26
:10FE38007868311C2A1C231CFFF708FF344B1B6809
:10FE4800DB0708D43348FEF727FD0122304B1A6040
:10FE580031480CF0DCFC314B0093314B0193029498
:10FE680003952C4801212F4ABA23FEF731FCC546D9
:10FE7800012344E0281C2C490BF0A1FE0023002894
:10FE88003DD1E846336818680CF0C9FC051C336896
:10FE980058680CF0C4FC061C830707D0011DC21764
:10FEA800920F831803261E40B61A8E1BF31DDB081B
:10FEB800DB006A46D31A9D4606AC7868211C2A1CCA
:10FEC800331CFFF73DFF124B1B68DB0708D41148B2
:10FED800FEF7E2FC01220E4B1A600F480CF097FC6B
:10FEE8000E4B0093114B0193029403960495094815
:10FEF80001210C4AC423FEF7EBFBC5460123181C5D
:10FF0800BD4602B004BC9046F0BDC04660ED02009C
:10FF18001C310020F42B00201DE3010088E00200C2
:10FF280008E90200DFE8020084ED020020E902008F
:10FF380035DF704710B584B003A80421FFF77AFEB7
:10FF4800134C1FE003A80421FFF774FE013C002CAA
:10FF580018D1104B1B68DB0708D40F48FEF79CFC30
:10FF680001220C4B1A600D480CF051FC0C4B00930D
:10FF78000C4B0193084801210B4A2C23FEF7A8FBE0
:10FF8800052002E00028DDD1039804B010BDC0466A
:10FF9800A08601001C310020F42B00201DE3010085
:10FFA8005C0F03005CE902004FE9020030B583B042
:10FFB800124B1C685D68AC4211D02368181C0C38C1
:10FFC8000F4A904208D0043B1A68511E1960002A53
:10FFD80002DC01A90BF006FF0434A542EDD1074B62
:10FFE8001868002801D00BF08FFD064B18680C38F4
:08FFF80069460BF033FE03B073
:020000022000DC
:1000000030BDC046E02B0020903500202C3200206F
:10001000044A054B1A60054B00221A605A609A6028
:100020007047C0469C3500202C320020E02B002079
:10003000074B1B68DA889988914207D9196800290B
:1000400004D092005050DA880132DA807047C046FE
:100050002431002070B52E4B1B68002B54D1542046
:100060000BF044FD041C01260670467000258570C7
:10007000C8234360783B03814381858196239B009D
:10008000C381B93BFF3B0382438240228282FA2232
:100090005201C282C822D200028308224283838393
:1000A000203BC3837B3B038405334384194A82840A
:1000B000194AC284FA22920002854285838524333C
:1000C000C6540133C5540133C5542D3B43863422F5
:1000D000865401328354313A3333C2540133C55408
:1000E0000133C5540133C5543A300C490C320CF07D
:1000F0000BFC4A23E5520233E65209220233E25254
:10010000074B2365024B1C60014B186870BDC0464D
:1001100080350020B80B000010270000C0E8020066
:100120001927000010B580235B00C35C002B26D18B
:10013000A433C3589A8A002A21D001218022520078
:1001400081549A8A002A0AD0DC682268002A05D1E4
:100150001A69944202D91C68043400E004342388EC
:10016000002B05D1A16862686388FFF7EDFD06E00A
:10017000012B04D1A16862686388FFF76BFD10BD95
:10018000F0B5474680B482B0041C744B083303605A
:10019000FFF74EFF18200BF0A9FC231D00228282DE
:1001A0000360211CA4314160A0210181C36003616F
:1001B0006260A423E05000230132FF320021A154E9
:1001C000674803704370031DCC3000221A705A80B8
:1001D00001219960DA601A619A8014338342F4D164
:1001E000604B1A80604B5869431C07D080235B0525
:1001F00019690904090C0BF037FF02E080235B0545
:10020000586980235B051D6902382D042D0C454378
:10021000564B1D600023564A1360564A13601381E3
:100220005381554A00211170544A1360544A136097
:100230000422544B1A60261CA836002E00D183E0FD
:1002400080235B051B699BB27F2B7DD9464B586988
:10025000431C07D080235B0519690904090C0BF0C6
:1002600003FF02E080235B05586980235B051B695F
:100270002A1C803201381B041B0C43439A4263D86A
:100280000022A823E250231CA8335D60394B5D6037
:100290003D4A1A6080221A817F3A90465A81802313
:1002A0005B0519691F690904090C7F200BF06CFFBD
:1002B000431C3F043F0C7B43ED182C4B1D60294B26
:1002C00042461A8012E03148FEF7EAFA0122304B2A
:1002D0001A6030480CF09FFA2F4B00932F4B01937C
:1002E0002A4801212E4A3F23FEF7F6F9221CB0329C
:1002F000002324490968490721D5002E1FD0002A70
:100300001DD0A8216158002919D11A49096800296E
:1003100015D0184F39898C461904090C6546694374
:10032000AC2565598846A8447D8961464D437F6860
:10033000ED19A84503D200251560414651600133EF
:1003400008320A2BD5D104E0114B1B68DB07C3D45C
:10035000B9E7201C02B004BC9046F0BDB8EA020028
:10036000AC340020FC3300200010001000340020CA
:100370001434002018340020843500207835002003
:10038000243400207C350020D1030200F42B00200F
:100390001C3100201DE3010088E00200A8E90200F2
:1003A000DFE8020008B5074B1B68DB0708D40648E6
:1003B000FFF7E6FE0122034B1A6004480CF02BFA0B
:1003C000014808BD98290020D82A002045FC0100DA
:1003D000F0B5474680B486B00C1C151E00D11AE15A
:1003E000AA4B1B68DB0716D4A948FEF759FAA74B9E
:1003F000984601271F60A7480CF00DFA43461B687A
:100400003B4208D1A248FEF74BFA01229F4B1A60EB
:10041000A0480CF000FA022C0BD003D8012C00D11C
:1004200009E117E1032C00D1F8E0042C00D104E12C
:1004300010E1994B0093994B0193994B0293944887
:100440000121984A4A23FEF747F9032C00D011E115
:10045000BEE0954B1B68DB0708D49448FFF790FE7D
:100460000122914B1A6092480CF0D5F9A4238F4ACF
:10047000D3589A8A002A0AD0DF683A68002A05D140
:100480001A69974202D91F68043700E00437864B87
:100490001B68DB0708D48548FFF772FE0122824BF8
:1004A0001A6083480CF0B7F97868BA687B8881498C
:1004B0000968490700D4E5E0002A00D1E2E0011C08
:1004C0001631C900794C0959002900D0DAE07A497F
:1004D0000968002900D1D5E0011C1631C900611856
:1004E0004F68754E35890595718969430C1C716893
:1004F00061188F4200D3C5E0002B00D1C2E0AB42AF
:1005000000D9BFE09D4200DABCE01743B90700D034
:10051000B8E01630C0006549411800200090013055
:1005200001F0A6FAAEE0013C012C4FD8002D4FD1CE
:100530005D4B1B68DB0708D45C48FFF721FE0122F6
:10054000594B1A605A480CF066F9A423574AD358FD
:100550009A8A002A10D0D9680868002804D118693E
:10056000814201D91968D960D868061D0188043113
:100570004118D960013A9A823388002B03D1F06880
:1005800003689B689847484B1B68DB0708D44748BB
:10059000FFF7F6FD0122444B1A6045480CF03BF989
:1005A000002180235B00414AD1543F4B1B68DB078D
:1005B00008D4101CFFF7E4FD01223B4B1A603C48B5
:1005C0000CF029F93948FFF7ADFD5BE0002D59D05B
:1005D000354B1B68DB0708D43448FFF7D1FD0122F7
:1005E000314B1A6032480CF016F9002180235B0071
:1005F0002E4AD1542C4B1B68DB0708D4101CFFF784
:10060000BFFD0122284B1A6029480CF004F9274845
:10061000FFF788FD36E0032930D11AE71E4B00931F
:100620001E4B0193254B0293194801211D4A4A2371
:10063000FEF752F8CCE7224B00E0224B164A00921C
:10064000164A0192029312480121164A4A23FEF7E4
:1006500043F868E7104B0093104B01931A4B029339
:100660000B4801210F4A4A23FEF736F8032C00D02D
:1006700059E7ADE7013C012CA8D8A9E7013C012CC2
:10068000A4D855E706B004BC9046F0BD1C3100204C
:10069000F42B00201DE3010088E00200D0060300D7
:1006A00018EA0200DFE8020098290020D82A00207A
:1006B00045FC01007C3500201834002040EA02008F
:1006C000ECE90200C4E902006CEA0200F8B5531D2F
:1006D0000469C568AC4210D34668371BBB4207D3D8
:1006E0000768ED1BAB4203D8076100233B6008E0BD
:1006F000E31800249E4204D816E0E31800249D422B
:1007000012D9141C051C03691A600369181D0CF02A
:10071000FBF804342B699C4664442C61002323605D
:10072000AB8A0133AB820124201CF8BD10B584B024
:10073000041C029169464A800193069B039301239E
:100740000B80A333C0581022FFF7C0FF201CFFF717
:10075000E9FC04B010BDC04610B582B0041CFDF722
:1007600019FF002816D0124B1B68DB0708D411486C
:10077000FEF796F801220E4B1A600F480CF04BF86A
:100780000E4B00930E4B01930A4801210D4A86231C
:10079000FDF7A2FF226913780133D3182361238B5D
:1007A000013B2383201CFDF7F3FE02B010BDC046C1
:1007B0001C310020F42B00201DE301005C0F03001E
:1007C000A4EA020093EA020030B583B0051C0C1CB9
:1007D000081CFDF7DFFE002816D0194B1B68DB074D
:1007E00008D41848FEF75CF80122154B1A60164829
:1007F0000CF011F8154B0093154B01931148012192
:10080000144A6A23FDF768FF238B002B04D1AB80C9
:10081000201CFDF7BDFE10E023691A78002A04D1E0
:100820006269934201D96368236123691A78AA80B7
:1008300001332B60201CFDF7ABFE281C03B030BD3C
:100840001C310020F42B00201DE301005C0F03008D
:10085000A4EA020093EA0200038AC3840022292347
:10086000C2540132013BC2547047C0467047C04673
:1008700010B5041C054B0360443343600AF08CFA46
:10088000201C0BF045F9201C10BDC04660DA0200A8
:1008900008B4024B9C46043808BC6047710802004B
:1008A00010B5041C054B0360443343600AF074FA2E
:1008B000201C0BF02DF9201C10BDC04658DB020097
:1008C00008B4024B9C46043808BC6047A1080200EB
:1008D000F0B5474680B488B0051C98460EA8077846
:1008E00002AC207801263040682630432070A8688A
:1008F00009266E442E23C35C33702F23C35C7370B0
:100900000B266E443170090A71700D2169442E7CEA
:100910000E706E7C4E70002121724346E371A77207
:100920006272011C32311320684405220BF0ECFF87
:10093000E868012300930021221C173307F0D0FB45
:1009400008B004BC9046F0BD30B583B0051C1C1C3B
:1009500006AB1B880093231CFEF722FC23780122A0
:100960009343662B4BD16279A3791B02298A1343E7
:10097000994244D1237A022B03D1EB6A0133EB6213
:100980003DE0002B1ED11F4B1B68DB0708D41E481F
:10099000FDF786FF01221B4B1A601C480BF03BFF42
:1009A0001B4B00931B4B0193174801211A4AD62376
:1009B000FDF792FE9423AA68D358184A94466344DC
:1009C0006B631CE0012B1AD10E4B1B68DB0708D4AC
:1009D0000D48FDF765FF01220A4B1A600B480BF02A
:1009E0001AFF0B4B00930E4B0193074801210A4A53
:1009F000DE23FDF771FEAA6800214823D15203B01F
:100A000030BDC0461C310020F42B00201DE3010046
:100A1000D8E00200F0EA0200DFEA0200102700003E
:100A200010EB0200F0B58BB0051C1C1C10AB1B8832
:100A30000093231CFEF7B4FB237801229343662B1B
:100A400000D04CE16279A3791B02298A13439942B1
:100A500000D0A9E1237A002B51D1D44B1B68DB07CE
:100A600008D4D348FDF71CFF0122D04B1A60D148AF
:100A70000BF0D1FED04B0093D04B0193627AA37A56
:100A80001B0213430293E27A237B1B02134303935B
:100A9000C7480121CA4ADF23FDF71EFEAF68381C94
:100AA000092107F045FC0123BB73627AA37A1B027C
:100AB0001343AA68D385E27A237B1B021343AA68F7
:100AC0009385A86807F05CFB0026AD23AA68D6547E
:100AD000AB681869FEF704F9AB685869FEF716F9B8
:100AE000AB689869FEF7FCF8E3790096AA683232A1
:100AF0000192281C00210022FFF7EAFEEFE0012B03
:100B00007FD180235B051F6E607AA27A12020243B6
:100B1000E37A1B0413431A1C237B1B061343BB42BB
:100B200000D041E180235B055F6E607BA27B1202F7
:100B30000243E37B1B0413431A1C237C1B06134351
:100B4000BB4200D030E129E19948FDF7A9FE01221E
:100B5000964B1A6097480BF05EFE974B0093994BAB
:100B60000193261C627CA37C1B0213430293E27C4C
:100B7000237D1B0213430393637D0493E37F0936B4
:100B80000593F37E06938A4801218D4AF923FDF7E8
:100B9000A3FDAF68381C092107F0CAFB0123BB7312
:100BA000327A737A1B021343AA68D385B27AF37A36
:100BB0001B021343AA689385A8683830211C15319D
:100BC00010220BF0A1FEA86807F0DAFA0026AD2388
:100BD000AA68D654AB681869FEF782F8AB68586902
:100BE000FEF794F8AB689869FEF77AF8E379009617
:100BF000AA6832320192281C00210122FFF768FE08
:100C00006DE0022B00D0CFE0A9683231201C093002
:100C100005220BF06AFE002800D0C5E0634B1B687C
:100C2000DB0708D46248FDF73BFE01225F4B1A60E8
:100C300060480BF0F0FD604B0093634B0193261C62
:100C4000A27BE37B1B0213430293227C637C1B0287
:100C500013430393A37C0493237F09360593337EC8
:100C6000069353480121564A8B235B00FDF734FD60
:100C7000AF68381C092107F05BFB0123BB73727955
:100C8000B3791B021343AA68D385F279337A1B0226
:100C90001343AA689385A8683830211C12311022AA
:100CA0000BF032FEA86807F06BFA0026AD23AA68A5
:100CB000D654AB681869FEF713F8AB685869FEF7AD
:100CC00025F8AB689869FEF70BF8E3790096AA68F7
:100CD00032320192281C00210222FFF7F9FD23780D
:100CE00001229343682B5FD16279A3791B02298A81
:100CF0001343994258D1237A002B55D1637A002BA4
:100D000005D0012B05D0022B05D1304F04E0304F28
:100D100002E0304F00E0304F08AE301C211C0B3198
:100D200005220BF0F1FD00237371204B1B68DB07DC
:100D300008D41F48FDF7B4FD01221C4B1A601D4862
:100D40000BF069FD254B00932B8A019302971848FD
:100D500000211B4A4623FF33FDF76AFD134B1B6836
:100D6000DB0708D41248FDF79BFD01220F4B1A60E8
:100D700010480BF050FD1A4B0093E3790193627811
:100D8000A3781B021343029308AB03930848002186
:100D90000B4AA3235B00FDF74BFD05E0034B1B68EB
:100DA000DB0700D5D9E6CFE60BB0F0BD1C31002043
:100DB000F42B00201DE3010004E1020070EB0200AF
:100DC0005BEB0200A8EB020004EC020044EB020023
:100DD00034EB02003CEB020068FF020060EC020012
:100DE00098EC0200F0B557464E464546E0B492B046
:100DF000071C0C1C161C106853681B1A072B00D804
:100E000092E10430391C14310AF0DDFE002800D0D4
:100E10008AE13068D0490AF0D6FE002802D1BB68CA
:100E2000DD8D04E0336818680BF0FDFC85B2201CF2
:100E3000CA490AF0C8FE002800D075E1306873681E
:100E40001B1A132B69D90830C5490AF0BCFE0028CB
:100E500063D13368D8680BF0E6FC84B23368186954
:100E60000BF0E1FC83B2984602AB1A7801211140E5
:100E700066220A431A70B96809226A442E20085C67
:100E800010702F20095C51700B226A4415702D0AD6
:100E900055700D226A44397C1170797C51700022A2
:100EA0001A72326873689B1A0020172B03D9506995
:100EB0000BF0B9FCC0B202ABD87113236B444246AD
:100EC0001A704246100A587011236B441C70240A91
:100ED0005C70736832689B1A172B14D9A14B1B687E
:100EE000DB0708D4A048FDF7DBFC01229D4B1A600C
:100EF0009E480BF090FC336859699B4815226A4460
:100F00001023FDF705FDF86801230093002102AAD4
:100F10001C3307F0E5F8012574E1306873681B1A8B
:100F20001B2B00D892E0083091490AF04CFE0028B3
:100F300000D08BE03368D86800210A220BF0F2FF62
:100F400082463368186900210A220BF0EBFF8146C4
:100F5000336858690BF067FC83B298463368986928
:100F60000BF061FC84B202AB1A78012111406622B9
:100F70000A431A70B96809226A442E20085C10706E
:100F80002F20095C51700B226A4415702D0A557090
:100F90000D226A44397C1170797C517001221A72D9
:100FA000326873689B1A00201F2B03D9D0690BF09D
:100FB0003AFCC0B202ABD87111226A445346137096
:100FC00053461B0A537053461B0C937053461B0E1B
:100FD000D37015226A444B4613704B461B0A53705C
:100FE0004B461B0C93704B461B0ED37019236B445E
:100FF00042461A704246100A58701B236B441C70FC
:10100000240A5C70736832689B1A1F2B14D9554BE5
:101010001B68DB0708D45448FDF742FC0122514B02
:101020001A6052480BF0F7FB3368D9694E481D220D
:101030006A441023FDF76CFCF8680123009300213B
:1010400002AA243307F04CF80125DBE0306873680E
:101050001B1A172B68D9083046490AF0B4FD00283E
:1010600062D1336818690BF0DEFB83B299463368AE
:1010700058690BF0D8FB83B2984602AB1A7801216D
:10108000114066220A431A70B96809226A442E2068
:10109000085C10702F20095C51700B226A44157097
:1010A0002D0A55700D226A44397C1170797C51707B
:1010B00002221A72326873689B1A00201B2B03D914
:1010C00090690BF0B0FBC0B202ACE0713568112042
:1010D0006844E96805220BF017FC4B46E381434660
:1010E000238273685B1B1B2B14D91E4B1B68DB0709
:1010F00008D41D48FDF7D4FB01221A4B1A601B4887
:101100000BF089FB3368996917481A226A44102347
:10111000FDF7FEFBF86801230093002102AA2133AA
:1011200006F0DEFF01256DE00CA8211C0AF091FEFF
:10113000736832689D1AAA1000230D930E930F93C3
:10114000002A1BD00C4B9A4201D90AF0EBFC281C58
:101150000AF0CCFC041C12E034E80200C8EC0200E7
:10116000D40103001C310020F42B00201DE30100FA
:10117000D0EC020044EB0200FFFFFF3F00240D947F
:101180000E9465190F9535687668B54209D0002C24
:1011900003D0201C291C0AF05CFE04340435AE4246
:1011A000F5D10E94381C0CA90DAAFEF727FA051CE0
:1011B0000D9C0E9EB44211D02368181C0C38154AA1
:1011C000904208D0043B1A68511E1960002A02DCC4
:1011D00011A90AF00BFE0434A642EDD10D980028A7
:1011E00001D00AF095FC0C9B181C0C38094A90425F
:1011F00008D0043B1A68511E1960002A02DC10A9AD
:101200000AF0F4FD281C12B01CBC90469946A24678
:10121000F0BDC0469035002008B4024B9C4604380F
:1012200008BC6047E50D020008B5FDF79DFD08BD4F
:10123000F0B59DB0071C0C1C161C106853681B1AD7
:10124000072B00D8A9E00430391C14310AF0BBFC8C
:10125000002800D0A1E03068A4490AF0B4FC0028BE
:1012600002D1BB68DD8D04E0336818680BF0DBFA4F
:1012700085B2201C9E490AF0A6FC002800D08CE014
:10128000306873681B1A0B2B11D9083099490AF082
:101290009AFC00280BD1002300930193029303933F
:1012A000381C33212A1CFEF779FC01251AE130682D
:1012B000083091490AF087FC00280CD100230093E4
:1012C000019302930393381C33212A1C0133FEF748
:1012D00065FC012506E13068083088490AF073FC96
:1012E00000285AD12624385D013003210BF032F852
:1012F000C9B23955002916D1814B1B68DB0708D4C8
:101300008048FDF7CDFA01227D4B1A607E480BF034
:1013100082FA7E4B00937E4B01937A4801217D4AED
:101320009E23FDF7D9F92623FB5C012B16D1744BC4
:101330001B68DB0708D47348FDF7B2FA0122704B33
:101340001A6071480BF067FA704B0093724B01936F
:101350006C4801216F4A9F23FDF7BEF92623FB5CF1
:101360000125022B00D0BDE0654B1B68DB0708D4CC
:101370006448FDF795FA0122614B1A6062480BF050
:101380004AFA624B0093654B01935E480121614A22
:10139000A023FDF7A1F90125A4E0201C60490AF073
:1013A00012FC002836D1564B1B68DB0708D4554881
:1013B000FDF776FA0122524B1A6053480BF02BFAD4
:1013C000391C30314F48142204ABFDF70BF9554B53
:1013D0007B634B4B1B68DB0708D44A48FDF760FA78
:1013E0000122474B1A6048480BF015FA474B00930F
:1013F0004D4B019304AB0293142303934148012105
:10140000444A9E33FDF768F93B68DB68381C98470F
:10141000012567E0201C45490AF0D5FB002805D1CD
:101420003B681B69381C984701255BE016A8211C06
:101430000AF00FFD736832689D1AAA1000231793F3
:1014400018931993002A09D0394B9A4201D90AF00E
:1014500069FB281C0AF04AFB041C00E000241794D6
:1014600018946519199535687668B54209D0002C2D
:1014700003D0201C291C0AF0ECFC04340435AE42D5
:10148000F5D11894381C16A917AAFEF7B7F8051C51
:10149000179C189EB44211D02368181C0C38254A9A
:1014A000904208D0043B1A68511E1960002A02DCE1
:1014B0001BA90AF09BFC0434A642EDD11798002822
:1014C00001D00AF025FB169B181C0C38194A9042D3
:1014D00008D0043B1A68511E1960002A02DC1AA9C0
:1014E0000AF084FC281C1DB0F0BDC04634E80200A0
:1014F000C8EC0200D8EC0200E0EC020000ED0200B3
:101500001C310020F42B00201DE30100D8E0020074
:1015100008ED0200DFEA020018ED020038ED0200DB
:101520005CED0200E02E000068ED020080ED02009C
:10153000FFFFFF3F9035002008B4024B9C46043863
:1015400008BC60473112020010B5041C034B036055
:101550004433436009F020FC201C10BD60DA020017
:1015600008B4024B9C46043808BC60474915020089
:1015700010B5041C034B03604433436009F00CFCBA
:10158000201C10BD58DB020008B4024B9C460438F6
:1015900008BC60477115020028DF704729DF7047DB
:1015A00008B5054A1078012358401070034B1B689A
:1015B000002B00D0984708BD05340020A033002040
:1015C0007047C04608B4024B9C46043808BC6047CC
:1015D000C115020070B5324B0022A02149005A50BB
:1015E00004315A5004315A5004315A504C395A502F
:1015F00004315A502B4B1B685A1C4FD02A4A284999
:101600008A582A490C68141B2402240ADA00D318C9
:101610009B00274A1268D3185A68944222D30026A6
:1016200008E0EB005B199B00214A1268D3185A6846
:10163000A24218D8A41AB6181D6A1E4A1268002AB7
:101640000AD09869D9699047002808D0B321490089
:10165000194A0AF093F802E0D8699B6998476B1C15
:10166000DFD100E00026154B1B78154A12789A420C
:1016700009D10133DBB2022B02D0114A137002E010
:1016800000220F4B1A700E4B1B789B000D4A9E5088
:101690008021490380235B000B4AD15070BDC046B6
:1016A000001001408C29002004050000F4330020C4
:1016B0002C310020EC3300208CED0200283100207A
:1016C0009C3300200834002000E100E010B5041C29
:1016D0000AF01EFA201C10BD08B4024B9C460438C8
:1016E00008BC6047CD160200F0B5474680B488B00C
:1016F000051C0E1C141C081C71490AF064FA002811
:1017000000D0ABE003AA137801210B4061390B43F1
:1017100013706C486D3169440388007808701B0AA7
:101720004B700F236B4400211970597007235371BC
:101730001372206863681B1A9B101AD062490AF062
:1017400042FA0227002806D0206860490AF03BFAD6
:10175000471EB841C7B2226863689B1A072B0CD991
:1017600050680BF060F8FF2303409846002B06DC1E
:1017700072E005239846022701E0052398460124DC
:101780000026FB0730D403AB72009A710022DA7195
:10179000A86801694B7A002B05D00023009303AAA7
:1017A000143306F08DFCA86841694B7A002B05D0F4
:1017B0000023009303AA143306F082FCA868816911
:1017C0004B7A002B05D00023009303AA143306F0B4
:1017D00077FCA868C1694B7A002B05D000230093E1
:1017E00003AA143306F06CFC7B1E012B2FD803AB2D
:1017F0009C710122DA71A86801694B7A002B05D02F
:101800000123009303AA133306F05AFCA868416928
:101810004B7A002B05D00123009303AA133306F063
:101820004FFCA86881694B7A002B05D001230093F7
:1018300003AA133306F044FCA868C1694B7A002B55
:1018400005D00123009303AA133306F039FC0136B7
:101850000234E4B2464594DB01202DE0301C1C49E3
:101860000AF0B1F9002804D1A86803F097F8012024
:1018700022E0301C17490AF0A6F9002805D1802083
:10188000C00007F04FFD012016E0301C12490AF09D
:101890009AF9002805D18020C00007F06BFA0120DA
:1018A0000AE0301C0D490AF08EF9031C0020002BC1
:1018B00002D1FEF741FB012008B004BC9046F0BD08
:1018C000D0ED0200F82F0020D8ED0200F4E2020073
:1018D000DCED0200E4ED0200F4E00200D8EC0200CE
:1018E00000B583B00B4B1B68DB0708D40A48FCF734
:1018F000D7FF0122074B1A6008480AF08CFF084BFB
:10190000009305480121074A9223FCF791FF03B099
:1019100000BDC0461C310020F42B00201DE3010057
:101920005CDD0200FCED020008B4024B9C4604386A
:1019300008BC6047E118020000B583B00B4B1B6880
:10194000DB0708D40A48FCF7ABFF0122074B1A60FB
:1019500008480AF060FF084B009305480121074A38
:101960008B23FCF765FF03B000BDC0461C3100208F
:10197000F42B00201DE3010058DC0200FCED020006
:1019800008B4024B9C46043808BC60473919020071
:1019900000B583B00B4B1B68DB0708D40A48FCF783
:1019A0007FFF0122074B1A6008480AF034FF084BFA
:1019B000009305480121074A8723FCF739FF03B04C
:1019C00000BDC0461C310020F42B00201DE30100A7
:1019D00050E10200FCED020008B4024B9C460438C2
:1019E00008BC60479119020038B5124C2378802258
:1019F000520511699D00EA189200A2181069013879
:101A0000D2888018EB189B00E3181B89C0180904C2
:101A1000090C0AF029FB084B1A680123904207D8E9
:101A20000023904204D1054B1A6853425341DBB264
:101A3000181C38BDAC340020143400202C34002095
:101A400030B583B0021C8B685C00E418A400081C4D
:101A500008300D780B6904490968009103496458FE
:101A6000291CA04703B030BD3434002018340020B6
:101A7000F8B506AC2788124C667804240A2E1CD0D0
:101A80000F4C2478A419092C00D90A3C0C4DAC4603
:101A900014256C43644420716261221C0C3221C9FC
:101AA00021C2E3802781013663465E70054B1B78B7
:101AB0000024A34201D104F08FFD201CF8BDC046D4
:101AC000AC3400208435002008B5034B1B789B0004
:101AD000024A9B58984708BDA834002008EE02002F
:101AE00008B5044A0823116899431160FFF7ECFF19
:101AF00008BDC0467C350020F8B5204A1478A30004
:101B00001B199B00D318DA8880235B051B699BB2E5
:101B10009A421ED980256D052B691B041B0CD21A15
:101B20002E69164FA30019198900791808890969C7
:101B3000401880181C19A4003C1961698918B2B2B8
:101B4000920800F0F1F82B691B041B0C0C4A13607F
:101B500012E00A4DA60033199B00EB181889196989
:101B60008C4660445969920800F0DEF83419A400EC
:101B70002C19E288024B1A60F8BDC046AC34002034
:101B800024340020F8B55F4656464D464446F0B42E
:101B9000354B1B78012B12D0002B04D0022B11D017
:101BA000032B57D05AE00023304A1360304A1360A9
:101BB000304B5B78002B51D004F00EFD4EE0FFF768
:101BC0009BFF4BE02C4B1D6801222F1C97431F608D
:101BD000284B98461C78A3009A461B199B00434447
:101BE0001B69994680235B059B4619690904090C0A
:101BF00048460AF039FA061C204B18605B46196902
:101C00004B46581E5444A4004444E388C0180904B9
:101C1000090C0AF029FA864204D102231F43164B0D
:101C20001F6003E003239D43134B1D60144B1B688F
:101C3000002B09D1104B1B689B0705D40222114BC6
:101C40001A70FFF741FF09E000220E4B1A70FFF7F0
:101C50003BFF03E0094B186800F036F83CBC9046A7
:101C60009946A246AB46F8BD843500207835002061
:101C700024340020AC3400207C35002014340020B3
:101C800030340020A834002008B5002815D01128D1
:101C900005D10A4A082311680B4313600DE0084B75
:101CA0001A78910089188900C9180431FFF7C8FE15
:101CB0000422044B1A70FFF765FF08BD7C35002035
:101CC000AC3400208435002008B5FFF765FCFFF731
:101CD000DBFF08BD08B5024B1868FFF7F5FF08BD2C
:101CE0001434002008B50F4B5869431C08D08023DA
:101CF0005B0519690904090C0AF0B6F9031C02E036
:101D000080235B055B698022520510691169013BE4
:101D10000004000C58430904090C0AF0A5F9FFF768
:101D2000D3FF08BD0010001008B5FFF737FCFFF720
:101D3000ABFF08BD10B580235B051C692404230C90
:101D40000F4A1468013C5C430E4B5869431C07D092
:101D500080235B0519690904090C0AF085F902E082
:101D600080235B05586980235B05196901380904E4
:101D7000090C4143044B1A68201CFFF7D5FF10BD26
:101D800014340020001000103034002038B51A49F7
:101D90000B789800C21892008A18D4881289A41867
:101DA000C3189B00CB181B69E41880235B051969D5
:101DB0000904090C201C0AF0DDF90D1C0F4B5869B1
:101DC000431C07D080235B0519690904090C0AF03C
:101DD0004BF902E080235B05586980235B051B6992
