:020000021000EC
:10C000000080002009C40100D5A702009DB00200F5
:10C010000000000000000000000000000000000020
:10C02000000000000000000000000000D5A7020092
:10C030000000000000000000D5A70200D5A7020004
:10C04000D5A70200D5A70200D5A70200D5A70200F8
:10C05000D5A7020000000000D5A70200D5A7020066
:10C06000D5A70200D5A70200D5A70200D5A70200D8
:10C07000D5A70200D5A70200D5A70200D5A70200C8
:10C08000D5A70200859F0200D5A70200D5A7020010
:10C0900051A30200659F020041EF0100D5A70200F5
:10C0A000D5A70200D5A70200000000000000000094
:10C0B0000000000000000000000000000000000080
:10C0C000FFFFFFFFFFFFFFFFFFFFFFFFFFFFFFFF80
:10C0D000FFFFFFFFFFFFFFFFFFFFFFFFFFFFFFFF70
:10C0E000FFFFFFFFFFFFFFFFFFFFFFFFFFFFFFFF60
:04C400000000000038
:10C4080080B500AF0FF036F80B4A0C4B9A4207D0B4
:10C418000B4B0949094A081C111C1A1C0FF0CCFFC8
:10C42800084B094A101C00211A1C0FF0E2FF0FF0FC
:10C4380009F800F047F8FEE700280020F00C030098
:10C44800540100006C0D000054290020F8B5C046C6
:10C45800F8BC08BC9E467047F8B5C046F8BC08BC96
:10C468009E46704710B5064C2378002B07D1054B24
:10C47800002B02D0044800E000BF0123237010BD48
:10C488005429002000000000F00C030008B5084BF8
:10C49800002B03D00748084900E000BF074803689D
:10C4A800002B00D108BD064B002BFBD09847F9E7BD
:10C4B80000000000F00C0300582900205429002037
:10C4C80000000000164B002B00D1144B9D46402263
:10C4D80092029A1A924600218B460F461348144A34
:10C4E800121A0FF086FF0F4B002B00D098470E4B07
:10C4F800002B00D098470020002104000D000D48B3
:10C50800002802D00C480FF0DEFE0FF001FF2000DB
:10C51800290000F013F80FF0E5FEC04600000800FF
:10C5280000800020000000000000000054290020C6
:10C53800C0360020CFC2020000000000F0B55F4600
:10C5480056464D464446F0B4BBB008200FF026F8D6
:10C55800041C50200FF002FF20600022E280142308
:10C56800A380F34B1C60A021C9050320F14BC850E0
:10C57800F14BCA50F14B0925F14C1D510235F14CD4
:10C588001D51E424E4000851E520C0000A500A20A7
:10C59800A221C90058500238083958500121EA48E8
:10C5A8001950EA4CEA481C50042424381C5099605D
:10C5B80019600831FF315A5005F030FA046D201C1B
:10C5C800E4490FF0A9FA061C05042D0CE24868435B
:10C5D8000019E2490FF0A0FA03041B0CD321C9018A
:10C5E8004E433419DE494843221892B200920FA8EC
:10C5F800DC492A1C10F038F8DB4B1B78002B26D0BE
:10C608001B2003F031F8D94803F056F81B2003F03B
:10C618002BF8D74803F050F8D64803F04DF8D64821
:10C6280003F04AF8D54803F047F8D54803F044F832
:10C63800D44803F041F8D44803F03EF80FA803F0BB
:10C648003BF8D24803F038F8D14803F035F8012216
:10C65800D04B1A7002F084F8051CCF4C14A8211C8A
:10C6680015AA0FF07FF9281C14A901F013FF1498DC
:10C678000C381EA90FF04EF802F072F8051C16A827
:10C68800C64917AA0FF06EF9281C16A901F002FF77
:10C6980016980C381FA90FF03DF802F061F8051C38
:10C6A80018A8BF4919AA0FF05DF9281C18A901F0AC
:10C6B800F1FE18980C3820A90FF02CF802F050F869
:10C6C800051C1AA8B7491BAA0FF04CF9281C1AA96F
:10C6D80001F0E0FE1A980C3821A90FF01BF802F0BF
:10C6E8003FF8051C1CA8B0491DAA0FF03BF9281CEF
:10C6F8001CA901F0CFFE1C980C3822A90FF00AF8EB
:10C7080002F02EF80094A94B01930121A84AA42312
:10C7180001F020FFA74AA84B1A604722A74B1A80AE
:10C728000022A74B1A600820A64902F0D9FF031E71
:10C7380007D10122A44B1A70162002F0D3FF00285B
:10C7480003D0AB21A14A0EF071FDA14AA14B1A609A
:10C758000FA800230F9380239B00436001230370DD
:10C768000BF0FEFB002803D0B821984A0EF05EFDBE
:10C7780001200BF0EDFB002803D0BC21934A0EF0FA
:10C7880055FD01200BF0E6FB002803D0C0218F4A9D
:10C798000EF04CFD05F0EAFA05F040F9B0200EF075
:10C7A800FDFE041C031D9A468B4B1A1C08320260BE
:10C7B8001A1C30324260503383600025857305654A
:10C7C80045658565C565056645668566C56605670B
:10C7D8004567824B186000268581A023C550012239
:10C7E800023BC252023BC654103BC5522233C654C8
:10C7F800063BC550043BC5501C3BC550031C803349
:10C8080000200021186059609023E5500127183B4B
:10C81800E2540133E6541B33E5500433E5500C3041
:10C828000EF0BCFE4771067180239B030360A022B3
:10C83800D2059146A322D20090464A46414653501B
:10C84800856020610C200EF0A9FE477106718023D7
:10C85800DB0303604A4641465350856060610C2003
:10C868000EF09CFE4771067180231B0403604A4644
:10C87800414653508560A061206902F06FF96069F4
:10C8880002F06CF9A06902F069F9AC23E654201CA7
:10C8980005F0B2F8AD23E754514B1B68002B07D1C4
:10C8A80034200EF07BFE051C0CF088F84C4B1D6004
:10C8B8004B4B1B684B4E336052465A6044200EF077
:10C8C8006DFE051C3368484A0092012601964749C7
:10C8D800221C0EF085FB464B1A1C08322A604C338A
:10C8E8006B60444B1B68334208D1434801F016FF84
:10C8F8000122404B1A6041480FF0E5FC25A8404949
:10C9080024AA0FF02FF83C4825A901F0C3FD259B68
:10C91800181C0C383B4A904276D0043B1A68511ECA
:10C928001960002A70DC23A90EF0B8FF6CE0C0463D
:10C9380020310020240700002C07000000200040C0
:10C948000C050000140500006C05000000509D0057
:10C958002405000080969800806967FF1027000072
:10C96800F0D8FFFF18DA02001A28002024DA0200A3
:10C9780028DA02002CDA020064DA020088DA0200FF
:10C9880094DA020098DA0200A4DA0200B0DA0200AF
:10C99800B8DA02009C2A0020F0DA0200F8DA020075
:10C9A80000DB020008DB02000CDB020028DB0200CF
:10C9B8001FDB020098330020EC330020B82B002046
:10C9C800E433002009F00100EC2B002018DB020002
:10C9D80089B10200F42F0020B0D40200882A002078
:10C9E800F0330020982A002040DB02003075000058
:10C9F80000D4020018310020F42B0020ADE1010022
:10CA080048DB0200883500202B1C30332B621423AE
:10CA1800AB8400232622AB54AB62EB62281C02F0E5
:10CA280009F9281C0DF02EFF25653C200EF0B6FDF7
:10CA3800051CF04B1B68F04A0092032201921E214C
:10CA4800221C0EF0CDFAED4B1A1C08322A604C332A
:10CA58006B60EB4B1B68DB0708D4EA4801F05EFE0D
:10CA68000122E74B1A60E8480FF02DFC28A8E74997
:10CA780027AA0EF077FFE34828A901F00BFD289BB1
:10CA8800181C0C38E24A904208D0043B1A68511E20
:10CA98001960002A02DC26A90EF000FF2B1C2633A1
:10CAA8002B620C23AB8400266E63AE63281C0DF04A
:10CAB800E9FEA56554200EF071FD051CCD4F3B68BD
:10CAC800D44A0092042201920A21221C0EF088FA0C
:10CAD800D14B1A1C08322A604C336B6001239846EC
:10CAE800EB842B1C28332B622823AB84281C0DF0E5
:10CAF800C9FE50230122EA54E565922040000EF059
:10CB08004DFD051C3B68C54A00920522019214217F
:10CB1800221C0EF065FAC24B1A1C08322A604C33EC
:10CB28006B60AE622B1C2C332B6206239946AB84B8
:10CB38003223EE54281C0DF0A5FE256630200EF099
:10CB48002DFD051C3B68B74A00924A4601923221E6
:10CB5800221C0EF045FAB44B1A1C08322A604C33DA
:10CB68006B60A74B1B684246134208D1A54801F0E9
:10CB7800D5FD0122A24B1A60A3480FF0A4FB2BA8F5
:10CB8800AA492AAA0EF0EEFE9E482BA901F082FCC3
:10CB98002B9B181C0C389E4A904208D0043B1A68FC
:10CBA800511E1960002A02DC29A90EF077FE2B1C01
:10CBB80026332B620823AB84281C0DF063FE6566C0
:10CBC8002C200EF0EBFC051C8A4B1B68984A00923F
:10CBD800072201923C21221C0EF002FA954B1A1CE6
:10CBE80008322A604C336B60854B1B68DB0708D41E
:10CBF800844801F093FD0122814B1A6082480FF0AE
:10CC080062FB2EA88C492DAA0EF0ACFE7D482EA9F9
:10CC180001F040FC2E9B181C0C387D4A904208D02D
:10CC2800043B1A68511E1960002A02DC2CA90EF078
:10CC380035FE2B1C26332B620423AB84281C0DF0F5
:10CC480021FEA5667D4B1B68002B57D154200EF0A2
:10CC5800A5FC051C01260670467000270023877076
:10CC6800C8224260783A02814281878196229200E6
:10CC7800C281B93AFF3A0282428240218182FA2176
:10CC88004901C182C821C9000183082141838283E7
:10CC9800203AC2837B3A02840532428468498184FF
:10CCA8006849C184FA218900018541858285243239
:10CCB8008654013200218154013283542D3A428630
:10CCC80031328654013203218154042101328154C6
:10CCD8000132835401328354013283543A305A4921
:10CCE800293A0FF069FB4A23EF520233EE52092228
:10CCF8000233EA52554B2B65504B1D604F4B1A6857
:10CD08003723D35C002B16D0514A524B1A6015209A
:10CD18000DF0DAFA00280ED1153001210DF0D2FA03
:10CD2800002808D115300DF0D1FA002803D10330BE
:10CD380001210DF0C5FA14200EF030FC0023038207
:10CD4800454B0360B42252008280453AFF3AC280C4
:10CD58008360C360E061394B1B68002B00D08DE015
:10CD680054200EF01BFC051C012606704670002797
:10CD780000238770C8224260783A02814281878105
:10CD880096229200C281B93AFF3A02824282402139
:10CD98008182FA214901C182C821C9000183082181
:10CDA80041838283203AC2837B3A028405324284DB
:10CDB800234981842349C184FA2189000185418559
:10CDC80082852432865401320021815401328354F1
:10CDD8002D3A42863132865401320321815404218E
:10CDE8000132815401328354013283540132835415
:10CDF80034E0C046982A002090EB020058D4020084
:10CE080018310020F42B0020ADE1010054DB0200B2
:10CE18008835002060DB020018D6020064DB0200BF
:10CE2800C0D502006CDB020010D5020074DB0200E2
:10CE380080DB020068D5020084DB02007C3500201C
:10CE4800B80B000010270000ECD3020019270000DF
:10CE5800414C0200C02B00202C3200203A30C94936
:10CE6800293A0FF0A9FA4A23EF520233EE52092267
:10CE78000233EA52C44B2B65C44B1D60C34B1B687D
:10CE88001B78002B1DD0C24B1B68DB0708D4C14898
:10CE980001F044FC0122BE4B1A60BF480FF013FAA0
:10CEA800BE4B0093BE4B0193BA480121BD4A78237B
:10CEB80001F050FB01235B422362201C06F01AFAA2
:10CEC80021E0B94B1B68DB0708D4B84804F03CFEE6
:10CED8000122B54B1A60B6480FF0F5F90FA9231CCB
:10CEE80020338B6030234B8000234B60221C083298
:10CEF800CA600B80AD4DA433E858102205F0CAF87B
:10CF0800281C04F0F3FDAB4B1C600DF0E1F9002286
:10CF1800A94B1A600121A94B1970A948A94B0360B4
:10CF28001A701A750324A8490C701C1C2434A749CC
:10CF38000C6024215A5401315A5423392624195596
:10CF48001C1C3C349C622C241A5501341A5501349B
:10CF580019551C1C6C341C6334241A5501341A5599
:10CF680001341955191C9C31996301214942984B88
:10CF78001960984B1A70984B1A70984C80256D035D
:10CF8800C0235B00E550C526B600A3590131FF3127
:10CF98008B43191CC0230B43A35125609049A1233F
:10CFA800DB00CA50C4229200A5588E4B2B40C025E6
:10CFB8002D022B43A3508C4BCA588C4B1A60036824
:10CFC800002B01D101F06EF87C4A1078002801DCB2
:10CFD80001F06AF81A78002A12D108E0141C0B1C18
:10CFE80024310D1C243D2D78002D0CD100E00024A7
:10CFF80001221A705A707E4A9A617E4B1C6008E0C2
:10D008002433191C002201328242E7DB042001F09C
:10D018004CF8784B1C6804F001FD4368590CD803A0
:10D02800FA225200002380185941FA229200002364
:10D038000EF0F4FE011C624B1A68002A01D101F0BF
:10D048003BF85E4B1B7807209C4271D204296FD9AC
:10D05800E3001B199B00D3181A780130012A67D105
:10D068005B780020012B00D1081C634B5B68DB0553
:10D07800DA0D0223002A2AD0131C103BDAB21D064F
:10D0880010D5131C0F221A40083A920892005B4DE3
:10D09800AC466244526803252B40DB00DA40130695
:10D0A8009B0F0BE052B29208C03292004B4D52597E
:10D0B80003252B40DB00DA4013069B0F012B05D01C
:10D0C800033B5D425D410222531B00E00023DB006D
:10D0D8009C463E4A176867447A78561CBD78751B8B
:10D0E8006B1E9D416D422E403D78B5421FD05500C4
:10D0F800AA18D2007D68AA18002A01D100F0DFFF23
:10D10800012515705460384C354D2C599460D16008
:10D118001061002151612D4A1268131C63445E702E
:10D128008021490380235B002C4AD15005E004206C
:10D13800A5214900324A0EF079F8324B1B78002BB2
:10D1480000D16DE20022304B1A7084235B002F4A15
:10D15800D358012B5CD0FA2080000138C046C04665
:10D16800C046C046C046C046C046C046C046C04687
:10D17800C046C046F1D184235B00D358012B00D0B0
:10D188004EE251E0ECD30200192700007C35002064
:10D1980018310020F42B0020ADE10100F0DA020084
:10D1A800A4DB020098DB0200BC2B002074290020BD
:10D1B8008D16020080350020E0330020902A0020E0
:10D1C800942A0020A02A00201D31002028320020A7
:10D1D800243100201C310020E42B002000E100E075
:10D1E80000100140FF00FFFF04050000C42B0020D1
:10D1F800A1B00200E82B002000ED00E018ED00E0EF
:10D2080018DB02009C2A0020283100200020004062
:10D218000022B24B1A70B24B842149005A50A32203
:10D22800D2009A58AF4B1A70AF4B1E78002E06D01A
:10D23800AE4802F041FAAB4B187802F015FAAC4B45
:10D248001B780124002B3ED0A44B1B78002B01D067
:10D2580000F049FF84235B00A14AD358012BF9D180
:10D26800131C0021842252009950A322D2009D58F9
:10D27800EDB27F2D0ED1002CE6D0002E02D07F20FB
:10D2880002F0F2F9974B1B19013B00221A70013C7E
:10D29800E4B2D9E7002E04D000E00025281C02F0F3
:10D2A800E3F90D2D01D0F92C08D900228D4B1A5520
:10D2B800002E08D08F4802F0FFF904E0894B1D5575
:10D2C8000134E4B2C0E78C488649FA220FF074F8BA
:10D2D8008A4803680C3B1A68002100230EF028FADC
:10D2E800874B1E685D68AE4212D0341C2368181C38
:10D2F8000C38844A904208D0043B1A68511E1960C1
:10D30800002A02DC37A90EF0C9FA0434A542EDD18F
:10D318007B4B5E6073487C490FF0DAF9041E00D13C
:10D3280092E00FF0CDF9021C7448211C0EF07AFA35
:10D33800002075490FF0CCF9011E00D184E036A811
:10D3480035AA0EF00FFB6E4A5368926893420AD0D2
:10D35800002B03D0369A1A606C4B3693684A536890
:10D36800043353605EE0664A12689B1A9B100AD029
:10D378005D00AB4209D8664B9D4200D91D1C0026B2
:10D38800002D07D002E0012500E0614DA8000EF055
:10D3980005F9061C5A4A536812689B1AF318002BA1
:10D3A80003D0369A1A60594B3693554B1C68596806
:10D3B8008C4201D100F086FE231C321C002A03D0C7
:10D3C8001868106051481860043304329942F5D146
:10D3D80004340C1BA408A40008343419484B1F68F3
:10D3E8005B6898469F4211D03B68181C0C38454A28
:10D3F800904208D0043B1A68511E1960002A02DCCA
:10D4080038A90EF04BFA0437B845EDD13C4B1868F3
:10D41800002801D00EF0D4F8394B1E605C60AD00D6
:10D4280076199E60369B181C0C38364A904200D1FB
:10D438007EE7043B1A68511E1960002A00DD77E771
:10D4480030A90EF02BFA73E72C4832490EF013F985
:10D45800002808D0304B1A68D38800218846002657
:10D46800002B0DD1ACE01B2002F0FEF82B4802F097
:10D4780023F91B2002F0F8F8294802F01DF9CFE043
:10D48800B1B2994207D21268002A07D033049B0B25
:10D498009B58994604E00023994601E000239946E9
:10D4A8004B461B689B689A4634A814490EF029FA23
:10D4B800134B5D681B68ED1AAA1000233193329351
:10D4C8003393002A2ED0124B9A4201D90EF082F8DB
:10D4D800281C0EF063F8041C25E0C04670290020C3
:10D4E80000200040283100201A280020C0DB02005C
:10D4F8009C2A0020ECDA02001C3000202432002094
:10D50800782A00208835002078030300943500200D
:10D51800FFFFFF3FE8DB02002031002024DA020091
:10D5280028DA020000243194329465193395CB4BE4
:10D538001D685F68BD4209D0002C03D0201C291C3F
:10D548000EF0DFF904340435AF42F5D13294484681
:10D5580034A931AAD0478044319C329DAC4211D0C5
:10D568002368181C0C38BE4A904208D0043B1A683D
:10D57800511E1960002A02DC39A90EF08FF9043413
:10D58800A542EDD13198002801D00EF019F8349B4E
:10D59800181C0C38B24A904208D0043B1A68511E35
:10D5A8001960002A02DC2FA90EF078F90136AD4B7C
:10D5B8001A68D3889E4200D262E74346002B2FD1D7
:10D5C800A94B1B78002B03D0A84802F075F810E08F
:10D5D800A74B1B68DB0708D4A64801F09FF8012277
:10D5E800A34B1A60A4480EF06EFEA248012101F078
:10D5F80043FA9F4B1B68DB0708D49E4801F08EF85E
:10D6080001229B4B1A609C480EF05DFE9B4B0093D9
:10D618009B4B0193974800219A4A9B2301F046F8B7
:10D62800994947230B8099480AF098FC002800D0B4
:10D6380079E3964B1C888E4B1B68DB0708D48D4812
:10D6480001F06CF801228A4B1A608B480EF03BFE01
:10D65800552C43D8A3008E4AD3589F468D4A40E0A4
:10D668008D4A3EE08D4A3CE08D4A3AE08D4A38E0EA
:10D678008D4A36E08D4A34E08D4A32E08D4A30E0FA
:10D688008D4A2EE08D4A2CE08D4A2AE08D4A28E00A
:10D698008D4A26E08D4A24E08D4A22E08D4A20E01A
:10D6A8008D4A1EE08D4A1CE08D4A1AE08D4A18E02A
:10D6B8008D4A16E08D4A14E08D4A12E08D4A10E03A
:10D6C8008D4A0EE08D4A0CE08D4A0AE08D4A08E04A
:10D6D8008D4A06E08D4A04E08D4A02E08D4A00E05A
:10D6E8008D4A8E4B00938E4B0193029203946148AE
:10D6F80001218C4A1623FF3300F02CFF634B1B8853
:10D70800103B9AB2092A00D958E19300864AD358A7
:10D718009F460022854B1A705C4B1B7D012B1CD148
:10D72800534B1B68DB0708D4524800F0F7FF01226F
:10D738004F4B1A6050480EF0C6FD7D4B00937D4B51
:10D7480001934C4801217C4AF22300F003FF002298
:10D758007A4B1A8002327A4B1A70454B1B68DB07EA
:10D7680008D4444800F0DAFF0122414B1A604248CD
:10D778000EF0A9FD734B0093734B01933D480121B3
:10D78800724A9D2300F0E6FE714B1B683F4898479C
:10D7980014E1374B1B68DB0708D4364800F0BEFF9E
:10D7A8000122334B1A6034480EF08DFD654B00930F
:10D7B800684B0193354CA37902932E480121634AA3
:10D7C800A72300F0C7FE644B1B68201C9847F5E0B0
:10D7D8002E4B9B79032B00D08EE10022534B1A70FD
:10D7E8005E4B1B6829489847E8E00FAC227C012370
:10D7F800134323745A4B19683831201C10220EF039
:10D80800DBFD237C012213402022134323741F4B8A
:10D818009888211C002200230AF072FE041E03D0FF
:10D82800CE21504A0DF002FD114B1B68DB0708D4CE
:10D83800104800F073FF01220D4B1A600E480EF0DD
:10D8480042FD494B0093494B019302940948012139
:10D858003E4AD02300F07EFEB0E0C046782A002081
:10D8680088350020203100201A280020ECDB020037
:10D8780018310020F42B0020ADE101001CDC02006F
:10D888001C3000200FDC02001828002098330020EC
:10D898006CD2020084D60200A0D60200BCD60200D8
:10D8A800D4D60200F0D6020010D7020030D702000A
:10D8B80050D702006CD702008CD70200A4D7020010
:10D8C800C0D70200D4D70200F0D7020008D802005F
:10D8D80020D8020048D802006CD8020088D802007C
:10D8E800A4D80200C0D80200E8D8020000D902007B
:10D8F80024D902003CD9020050D9020068D902009C
:10D908007CD90200A0D90200C0D90200D4D90200F3
:10D91800F0D9020008DA020070D6020034DC0200F6
:10D928003CDC02001FDB0200C4D30200842A002072
:10D9380078DC02007CDC02005CDC02009E2A00200D
:10D94800C82B0020D0D90200B4DC0200A0DC020001
:10D95800E02B0020C8DC020094330020E8330020CC
:10D96800882A002094DC020008DB0200E0DC0200C8
:10D97800BC4BDE799B791D091B071C0FBA4B1B6832
:10D98800DB0708D4B94800F0C9FE0122B64B1A607B
:10D99800B7480EF098FCB74B0093B74B019302962B
:10D9A80003950494B1480121B44ADC2300F0D2FD68
:10D9B800B34B1B68002B01D0AA489847A94B1B887A
:10D9C800192B00D198E01B2B03D0102B00D0AFE00F
:10D9D8008DE0A44B9B7BDB080A2B00DC74E1A14A99
:10D9E800918AA84A914200D06EE19E4A927DF02A1F
:10D9F80000D069E1A44A15689A4AD17D127E1202C4
:10DA0800A88D0A43904200D05EE15EE31E2B00D051
:10DA18005AE1944BDA69A023EB589A4200D153E1BA
:10DA2800EA69108A071E17DD8E4B5E8B002399B2B8
:10DA3800814207D2D1881C04240C4C4311688C46BF
:10DA4800644400E00024218AB14202D1002C13D1A1
:10DA580002E00133BB42EADBD368D48891881668B8
:10DA6800B4466144C91AA14200DA2DE11B19D360FA
:10DA7800013010821C1B5BD0601C7A4EF11D0622FF
:10DA88000EF09AFCB3792370F36963821B0CA382AE
:10DA9800338CE3822223F25C07200240111C227E91
:10DAA8000727BA430A432276F35CDB08DA00237EB1
:10DAB800034013432376738B2382B36A1B021B0C28
:10DAC800221C1F32E3771B0A53702B23F15C0133AE
:10DAD800F25C231C213319705A70B37B5B079B0FD0
:10DAE800E371737B23729423EB58E36020E080207A
:10DAF800C0000AF037FA1BE05A4B9B79022B00D082
:10DB0800E2E0594B1B68DB0708D4584800F006FED2
:10DB18000122554B1A6056480EF0D5FB5B4B00931B
:10DB28005B4B0193514801215A4A8E2300F012FDA4
:10DB38004C4B1B88302B37D007D8102B11D0112B0A
:10DB480014D0012B00D0BFE029E0372B00D1B7E07B
:10DB580002D8322B55D0B7E0502B0CD0522B0FD017
:10DB6800B2E0404B9A884C4B1A83ADE001225242F6
:10DB7800494B1A83A8E0494B1B683A489847A3E0E9
:10DB8800384B98880021002200230AF057FC00280F
:10DB980000D199E0D521424A0DF048FB94E0414B71
:10DBA8001B68304898478FE02E4B9B89002B00D18B
:10DBB8008AE02D4B1B68DB0708D42C4800F0AEFD2B
:10DBC8000122294B1A602A480EF07DFB364B009340
:10DBD800364B019325480121354AFE2300F0BAFC53
:10DBE8000FA9204B5A8A0A809A8A4A8098880AF094
:10DBF80023FC002868D083214900294A0DF016FB30
:10DC080062E0184B9B89002B5ED0164BDA89294BB2
:10DC18009A4259D1134B1A7C1F4B9B7D9A4253D180
:10DC2800104BDC8A104B1B68DB0708D40F4800F048
:10DC380075FD01220C4B1A600D480EF044FB1A4B7F
:10DC480000931D4B019309480121194A8A235B005F
:10DC580000F080FC034B9888184B1B68211C9847E0
:10DC680032E0C0469833002018310020F42B002001
:10DC7800ADE1010008DB020018DD0200A0DC0200B3
:10DC8800F02B00204D020000882A002074DD0200DD
:10DC98007CDD020060DD020000300020FC2F002047
:10DCA8008CDD02008C2A0020D0D90200ACDD0200F5
:10DCB80098DD020024150000BCDD0200F82F0020CA
:10DCC800E14B1B68E14898470024E14B1A68002A99
:10DCD8000DD0231C14339B009858002807D0036AE2
:10DCE800DB78002B03D003689B6AD8499847013436
:10DCF8000A2CEAD1D74B1B68DB0708D4D64800F0BA
:10DD08000DFD0122D34B1A60D4480EF0DCFAD44B37
:10DD18000093D44B0193D0480121D34A92235B004E
:10DD280000F018FC7CE4052800D0B1E1C84B1D6860
:10DD3800002D00D17AE18C23EA5A002A00D175E13E
:10DD480094216B58D3186B509023E9588A1AEA50DB
:10DD5800C64FC74EBB5980218C46AC440831884613
:10DD680069585B1A1B021B0A069300230793634634
:10DD7800069807995C681B68C0186141634618607B
:10DD88005960BB5941466B507923E95C002904D09E
:10DD9800002A02DC281C09F0C3FBAD23EB5C012B35
:10DDA80000D021E1B34B1B681869427A089259697F
:10DDB8004A7A09929A69547A0A94DB695C7A0B94D4
:10DDC800007A0C90097A0D91127A93461B7A98463C
:10DDD800AC23EB5C5F08A84A1268002A00D07CE1FB
:10DDE80054200DF0DBFB041C01260670467000234E
:10DDF8009946A370C8224260783A02814281A38181
:10DE080096229200C281B93AFF3A028242824021A8
:10DE18008182FA214901C182C821C90001830821F0
:10DE280041838283203AC2837B3A0284053242844A
:10DE3800924981849249C184FA21890001854185EA
:10DE48008285243286540132002181540132835460
:10DE58002D3A4286313286540132032181540132EF
:10DE68009246323A514642543332835401328354F3
:10DE7800013283543A308349293A0EF09DFA4A23F5
:10DE88004A46E2520233E65209220233E2527E4BFC
:10DE98002365794B1C605346E35CBB4239D9AC23FC
:10DEA800EB5CDB072CD4BF00724B1B68DF197B6A65
:10DEB8005A7A002A06D0A86900F066FE7B6A5A7A68
:10DEC800002A05D11B7A002B02D0686900F05CFE9D
:10DED8000A9B0B9A94466344099A94466344089AA9
:10DEE800D2185E4646440D9B9B190C998C46634498
:10DEF8001343DBB2002B0CD1286900F045FE08E083
:10DF0800286900F02BFE686900F028FEA86900F077
:10DF180025FEAC23EE5C0136574B1B68002B58D10D
:10DF280054200DF03BFB041C0127077047700023A9
:10DF38009846A370C8224260783A02814281A38140
:10DF480096229200C281B93AFF3A02824282402167
:10DF58008182FA214901C182C821C90001830821AF
:10DF680041838283203AC2837B3A02840532428409
:10DF7800424981844249C184FA2189000185418549
:10DF8800828524328754013200218154013283541E
:10DF98002D3A4286313287540132032181540421BB
:10DFA8000132815401328354013283540132835443
:10DFB8003A303449293A0EF0FFF94A234246E252F0
:10DFC8000233E75209220233E2522F4B23652A4BD0
:10DFD8001C60294B1A683623D15C02314900301C79
:10DFE8000DF010FFAC23E954194B1B688C229E5A84
:10DFF80008329D580024164B1B68002B0ED0221C9B
:10E0080014329200D058002808D0036ADB78002B1D
:10E0180004D003685B6A311C2A1C984701340A2C17
:10E02800E9D10B4B1A6800218C23D15209F08EFFDD
:10E03800002803D09321154A0DF0F8F8162009F0AE
:10E048008BFFFFF77AF8C0468C2A0020983300200F
:10E058008035002018310020F42B0020ADE10100AC
:10E0680034DC0200D4DD02001FDB02000010014096
:10E0780004050000982A00207C350020B80B000019
:10E0880010270000ECD302001927000018DB02005B
:10E09800002801D1FFF751F89921164A0DF0C6F86A
:10E0A800FFF74BF8082000E004204821FF31114A0F
:10E0B8000DF0BCF8FEF7ADFF0820FFF739F8042093
:10E0C800FFF736F8341DFFF7A1F90B4A527E012AF3
:10E0D80000D19BE42CE55E1C7BE73621525CBA42FA
:10E0E80000D9DCE6F7E7002E01D0FFF7D6F80025C7
:10E0F800FFF7D9F818DB02009833002070B582B01A
:10E10800061C124B0833036044688568AC4211D082
:10E118002368181C0C380E4A904208D0043B1A6831
:10E12800511E1960002A02DC01A90DF0B7FB043466
:10E13800A542EDD17068002801D00DF041FA301CDD
:10E148000DF03EFA301C02B070BDC04698DF0200E8
:10E158008835002070B582B0061C104B0833036068
:10E1680044688568AC4211D02368181C0C380C4AE6
:10E17800904208D0043B1A68511E1960002A02DC3C
:10E1880001A90DF08BFB0434A542EDD1706800287D
:10E1980001D00DF015FA301C02B070BD98DF0200F6
:10E1A8008835002030B583B0104B114A08321A6008
:10E1B8005C689D68AC4211D02368181C0C380D4A65
:10E1C800904208D0043B1A68511E1960002A02DCEC
:10E1D80001A90DF063FB0434A542EDD1034B586847
:10E1E800002801D00DF0ECF903B030BDF42B00206D
:10E1F80098DF020088350020F8B54F464646C0B47F
:10E2080088469146041C0E1A3611002E28DD176820
:10E218003B1C0C3B1D682068031C0C3B1B68AB4275
:10E2280061D1391C2A1C0EF0B8F800285BD158E0DF
:10E23800391C2A1C0EF0B1F800285DD15AE0391CAF
:10E248002A1C0EF0AAF8002860D15CE0391C2A1CB0
:10E258000EF0A3F8002860D01034013E002EDAD169
:10E2680043461B1B9B10022B16D0032B02D0012BFD
:10E2780035D123E02068031C0C3B1A684B4619680B
:10E288000B1C0C3B1B689A424AD10EF086F8031C03
:10E29800201C002B44D147E02068031C0C3B1A6863
:10E2A8004B4619680B1C0C3B1B689A423AD10EF07E
:10E2B80074F8031C201C002B34D135E02068031CA3
:10E2C8000C3B1A684B4619680B1C0C3B1B689A429E
:10E2D80005D10EF062F8031C201C002B24D0404608
:10E2E80022E0201C20E06068031C0C3B1B689D4258
:10E2F80002D19DE7201D17E0A068031C0C3B1B689A
:10E308009D4203D19BE7201C08300DE0E068031C08
:10E318000C3B1B689D429FD198E7201C0C3003E002
:10E328000434B9E70434C9E70CBC90469946F8BDF3
:10E33800F0B54F464646C0B483B0051C0C1C436874
:10E3480002689B1A9B100CD05E00B3420CD8B146F1
:10E358002E4B9E4200D9994600274B46002B0AD0E7
:10E3680004E00123994601E0284B99464B46980062
:10E378000DF014F9071C6B682A68981A38180028D9
:10E3880002D0211C0DF0BDFA2C6869688C4235D08A
:10E39800231C3A1C002A03D0186810601C48186017
:10E3A800043304329942F5D10434091B89088900E1
:10E3B80008318846B8442C686E68B44211D0236886
:10E3C800181C0C38134A904208D0043B1A68511E96
:10E3D8001960002A02DC01A90DF060FA0434A64293
:10E3E800EDD12868002801D00DF0EAF82F604346E7
:10E3F8006B604B469E00BF19AF6002E03B1D98461C
:10E40800EFE703B00CBC90469946F0BDFFFFFF3F15
:10E418009435002088350020F0B583B0061C476885
:10E428008568AF4212D03C1C2368181C0C380B4A74
:10E43800904208D0043B1A68511E1960002A02DC79
:10E4480001A90DF02BFA0434A542EDD1B7600022E2
:10E45800FF239B00F25403B0F0BDC046883500206E
:10E46800F8B50F1C161C1D1C002A0ED00024731EA4
:10E47800A34201D8054900E005493A5D281C0EF081
:10E48800F3F82D180134B442F1D1F8BDE4DD0200EF
:10E49800ECDD0200F0B5474680B480460F1C0C68DE
:10E4A800231C0C3B9B68002B45DB081C0DF090F9E6
:10E4B8003C68231C0C3B9B68002B42DB381C0DF08E
:10E4C80087F93E68331C0C3B1A68944666449B687F
:10E4D800002B02DB381C0DF07BF93D68B44208D0F4
:10E4E800002020560CF068FF287001340135B44232
:10E4F800F6D14346586899683A1C0023FFF77CFE1A
:10E50800434618619B68834220D14246D2689342B1
:10E518000BD0002B03D0181C391C0DF0F2F9434620
:10E528009B6804334246936010E040460430391C2F
:10E53800FFF7FEFE0AE00B681A1C0C3A16689E19D3
:10E54800CBE7231C0C3B1E68A619C6E704BC904603
:10E55800F0BDC046F0B55F464646C0B489B0071C5A
:10E56800884604920593002955D0FF239B00C35C7D
:10E57800002B50D14A4B109A9A424CD04568836878
:10E588009B465B1B1E11002E1EDD281C10990DF0EA
:10E5980072F800283BD02C1D201C10990DF06BF848
:10E5A800002835D00434201C10990DF064F8002898
:10E5B8002ED00434201C10990DF05DF8002827D0C7
:10E5C8001035013E002EE0D15B465B1B9B10022BF1
:10E5D8000CD0032B02D0012B17D10FE0281C109967
:10E5E8000DF049F82C1C002812D00435281C10996D
:10E5F8000DF041F82C1C00280AD00435281C10996D
:10E608000DF039F82C1C002802D05C4600E02C1CC8
:10E61800BB68A3423ED03D1C1435FA267600281C60
:10E628000021321C0DF0E5FE82239B00FC18201C03
:10E638000021321C0DF0DDFE12AB0793281C311CA3
:10E64800119A0CF0EFFE4346012B0ED1059B009367
:10E65800109B01930295201C311C124A049B0EF05A
:10E6680099FD201C01F028F814E04346022B03D141
:10E67800281C01F021F80DE04346002B0AD1009533
:10E68800201CFA214900084A109B0EF083FD201C2B
:10E6980001F012F809B00CBC90469B46F0BDC0468C
:10E6A80074090300F4DD020008DE0200F0B55F46DD
:10E6B80080B486B0061C0F1C029203930CAD08CDE3
:10E6C8009B46041C1434201C0021FA2252000DF031
:10E6D80090FE0595201CFA2149005A462B1C0CF087
:10E6E800A1FE002F10D082239B00F518039B0093F6
:10E6F8000194281CFA214900074A029B0EF04AFDA2
:10E70800281C00F0D9FF02E0201C00F0D5FF06B05D
:10E7180004BC9346F0BDC04610DE020070B5041C70
:10E728000E4B08330360002545608560C5600561B0
:10E738001430FA2676000021321C0DF05AFE82238E
:10E748009B00E0180021321C0DF053FEFF239B00B4
:10E75800E554201C03F050F9201C70BD98DF02001E
:10E7680008B5074B1B68DB0708D40648FFF7D6FF38
:10E778000122034B1A6004480DF0A5FD014808BDAD
:10E7880018310020F42B0020ADE10100F0B583B072
:10E798000F1C151C1C1C081C0DF092FF01300321D6
:10E7A8000DF0BAF9061EA64216D9144B1B68DB07F2
:10E7B80008D41348FFF7B2FF0122104B1A60114822
:10E7C8000DF081FD104B0093104B01930C48012173
:10E7D8000F4A104BFFF7BEFE002E0DD03C1C7300F5
:10E7E8009E19BE19201C002110220EF0F3F8287083
:10E7F80003340135B442F5D103B0F0BD183100201F
:10E80800F42B0020ADE10100740903003CDE020096
:10E818002FDE02003F020000F0B589B0061C0C1C78
:10E82800151C081C88490CF026FF002800D0EFE0D2
:10E8380028686B681B1A9B10012B00D0E8E0EEE0FB
:10E84800FF229200B15C01234B40B3540120F8E051
:10E8580028687E490CF00FFF002804D1301CFFF710
:10E86800DBFD0120EDE0296804A80DF04AF8049CBE
:10E87800231C0C3B9B68002B00DAD7E004A80CF0A3
:10E88800A7FF049C231C0C3B9B68002B00DAD3E0F9
:10E8980004A80CF09DFF049F3B1C0C3B1A6894468F
:10E8A80067449B68002B02DB04A80CF091FF049DD1
:10E8B800BC4208D0002020560CF07EFD28700134A0
:10E8C8000135BC42F6D17068B16804AA0023FFF78D
:10E8D80093FC041C3061B368834211D1F2689342FF
:10E8E80009D0002B03D0181C04A90DF00AF8B3684E
:10E8F8000433B36025E0301D04A9FFF719FD20E0BB
:10E908000434A3420BD01C1BA410002C07DD051DEA
:10E91800291C0CF09CFE013C281C002CF7D1B36884
:10E92800043BB3601B68181C0C38494A904208D055
:10E93800043B1A68511E1960002A02DC06A90CF073
:10E94800ADFF049B181C0C38414A904208D0043B88
:10E958001A68511E1960002A02DC05A90CF09EFFF6
:10E9680001206EE0FF239B00F35C002B14D0394B91
:10E978001B68DB0708D43848FFF7D0FE0122354B67
:10E988001A6036480DF09FFC354B00933248002141
:10E99800344A9723FFF78AFE7468B568AC422CD0D6
:10E9A80003A8211C0CF0ADFF2A4B1B68DB0708D419
:10E9B8002948FFF7B3FE0122264B1A6027480DF0BD
:10E9C80082FC294B0093039B019323480021254A8D
:10E9D8009A23FFF76BFE039B181C0C381C4A9042C5
:10E9E80008D0043B1A68511E1960002A02DC07A9E6
:10E9F8000CF054FF0434A542D2D1012021E0201CA0
:10EA08001A490CF038FE031C58425841C0B218E0AD
:10EA1800201C17490CF02FFE0028F0D1A2E7154959
:10EA28000CF029FE002800D10AE711E7049B1A1C04
:10EA38000C3A1768DF193AE7231C0C3B1F68E719E3
:10EA480035E709B0F0BDC04640DB020054DE0200E5
:10EA58008835002018310020F42B0020ADE101009A
:10EA68005CDE02002FDE020000DE020070DE020023
:10EA78007CDE020088DE020000B583B001291AD0CE
:10EA8800002902D002292CD041E02C4B1B68DB075F
:10EA980008D42B48FFF742FE0122284B1A60294868
:10EAA8000DF011FC284B009325480021274A6D23BF
:10EAB800FFF7FCFD40E0214B1B68DB0708D420482A
:10EAC800FFF72CFE01221D4B1A601E480DF0FBFBC0
:10EAD8001F4B00931A4800211C4A7023FFF7E6FDDC
:10EAE8002AE0164B1B68DB0708D41548FFF716FE0B
:10EAF8000122124B1A6013480DF0E5FB154B0093E9
:10EB08000F480021114A7323FFF7D0FD14E00B4B87
:10EB18001B68DB0708D40A48FFF700FE0122074BF1
:10EB28001A6008480DF0CFFB0B4B009304480021F6
:10EB3800064A7623FFF7BAFD03B000BD183100205E
:10EB4800F42B0020ADE101008CDE02002FDE020074
:10EB5800C4DE02000CDF020050DF02004379002B04
:10EB68000ED00379002B05D00168064BA022D205F0
:10EB7800D15005E00168A123DB00A022D205D150C5
:10EB88007047C0460C0500004379002B0ED003796E
:10EB9800002B06D00168A123DB00A022D205D150AA
:10EBA80004E00168024BA022D205D1507047C0464C
:10EBB8000C0500007047C0467047C0467047C04605
:10EBC8007047C0467047C0467047C0467047C04649
:10EBD80072DF704761DF704751DF704738B5124CFC
:10EBE80023788022520511699D00EA189200A21824
:10EBF80010690138D2888018EB189B00E3181B892C
:10EC0800C0180904090C0CF087FF084B1A68012387
:10EC1800904207D80023904204D1054B1A6853420A
:10EC28005341DBB2181C38BDA0340020F833002053
:10EC3800F433002008B5038A038601233322835462
:10EC4800013A835400234363383002492B3A0DF0CC
:10EC5800B3FB08BDC4DF020070B58AB03323C35CC0
:10EC6800002B7BD0151C041C101CFA2189000CF009
:10EC7800D9FF002920D1E36A002B02D1A36A002B17
:10EC88001AD0374B1B68DB0708D43648FFF746FD18
:10EC98000122334B1A6034480DF015FB334B0093B7
:10ECA800334B0193A36A0293E36A03932D4801212E
:10ECB800304A4923FFF74EFC2623E35C002B34D06F
:10ECC800E0684389052B30D8A36A0133A36205AAFB
:10ECD800137801210B4066210B431370A16815239B
:10ECE8006B442E268E5D1E702F26895D5970172362
:10ECF8006B44322119704331597002231372173350
:10ED08006B44217C1970617C59700123537225333F
:10ED1800E35C013B5E425E4100960021092308F056
:10ED2800D7FAE0684389052BCED9636B002B15D041
:10ED38009D4213D9FFF714FD0C4B00930E4B019322
:10ED480001210C4A6223FFF705FCBFF34F8F0B4AE2
:10ED58000B4BDA60BFF34F8FC046FDE70AB070BDBA
:10ED680018310020F42B0020ADE1010048DB02003F
:10ED7800ECDF0200DBDF02000CE002000400FA0511
:10ED880000ED00E008B500F071FE08BD00B583B0E5
:10ED980000F06CFE0C4B1B68DB0708D40B48FFF730
:10EDA800BDFC0122084B1A6009480DF08CFA094B8A
:10EDB8000093094B019305480121084A4723FFF7AF
:10EDC800C9FB03B000BDC04618310020F42B002059
:10EDD800ADE1010040E0020048E0020027E0020047
:10EDE80010B5041C054B0360443343600BF02CFD45
:10EDF800201C0CF0E5FB201C10BDC04620D60200EC
:10EE080008B4024B9C46043808BC6047E9ED010091
:10EE1800F0B587B0061C0C1C171C106853681B1A29
:10EE2800072B1AD9351C14350430291C0CF023FC87
:10EE3800002812D1201C38490CF01DFC00280CD1E8
:10EE48003B68181D291C0CF016FC0025002860D111
:10EE58003868083031490CF00EFC6846211C0CF06B
:10EE680050FD7B683A689D1AAA100023019302930B
:10EE78000393002A09D02A4B9A4201D90CF0AAFB25
:10EE8800281C0CF08BFB041C00E000240194029465
:10EE9800651903953D687F68BD4209D0002C03D0F1
:10EEA800201C291C0CF02DFD04340435AF42F5D18B
:10EEB8000294301C694601AA01F022FA051C019C43
:10EEC800029EB44211D02368181C0C38154A90428F
:10EED80008D0043B1A68511E1960002A02DC05A9F3
:10EEE8000CF0DCFC0434A642EDD10198002801D0D6
:10EEF8000CF066FB009B181C0C380A4A904208D09C
:10EF0800043B1A68511E1960002A02DC04A90CF09F
:10EF1800C5FC281C07B0F0BD54E002005CE002000C
:10EF2800FFFFFF3F8835002008B4024B9C46043899
:10EF380008BC604719EE010070B582B0294B1B6808
:10EF4800002B08D09847002849D02A21FF31264AAB
:10EF58000CF06CF943E0254B1B78002B3FD0244B79
:10EF68001C6863425C41E4B2224B1E6875427541DD
:10EF7800EDB2002C2CD101A8FFF72EFE05280BD0EE
:10EF8800002804D06521184A0CF050F905E0184B08
:10EF98001B680198984700E00124002D15D101A9AC
:10EFA800154B1B880B80154B1868FFF713FE0528B7
:10EFB80011D0002804D07C210B4A0CF037F902E06C
:10EFC8000E4B1868B0470025D3E7002C07D1D0E7CF
:10EFD800002D04D1E3E7002C01D10125C9E702B0D7
:10EFE80070BDC046E43300206CE00200EC2B00202A
:10EFF800F42F002010340020B82B0020EC33002020
:10F0080008B50348002100220CF010F908BDC046DD
:10F01800EFBEADDE70B5BEB0041C0B1C083B012B67
:10F0280000D919E15023C35C002B00D1C8E004AB20
:10F0380000229A60DA601A615A619A619A839A7713
:10F0480002221A70013A5A7005329A701432DA7034
:10F05800E5321A71EA3A6A444D2111700221517061
:10F06800DE22DA718268D18D19811A216944A020C3
:10F07800105A0880101CA030408848809E21515AA0
:10F08800D981E068417B1974817B59744821525AAF
:10F098005A82011C243100230A68002A14D0947C67
:10F0A800002C06D004AE01249C40251C347D2C4342
:10F0B8003475527C002A07D004AD5C1C0122A240A2
:10F0C800141C2A7D22432A7504310233082BE3D10C
:10F0D800436A1A7A002A09D025226A446249595C8F
:10F0E800117061498C4663445B785370836A1A7A5D
:10F0F800002A09D027226A445B49595C11705A4991
:10F108008C4663445B785370C36A1A7A002A09D024
:10F1180029226A445449595C117053498C46634406
:10F128005B785370036B1A7A002A09D02B226A4441
:10F138004D49595C11704C498C4663445B78537057
:10F14800DE2204AB5A77494B1B68DB0708D44848D2
:10F15800FFF7E4FA0122454B1A6046480DF0B3F870
:10F16800434804A91F220CABFFF77AF93F4B1B68F1
:10F17800DB0708D43E48FFF7D1FA01223B4B1A605F
:10F188003C480DF0A0F83C4B00933C4B01930CAB72
:10F198000293374801213A4AA323FFF7DBF904A871
:10F1A8001F2100220023FFF713FD002803D0A6210A
:10F1B800344A0CF03BF88020C00009F0ABF951E06C
:10F1C8002E23C35C002B4DD0051C31353023C15C88
:10F1D800C908281C00220023FFF7FAFC002803D0E6
:10F1E800AC21284A0CF022F8204B1B68DB0708D416
:10F1F8001F48FFF793FA01221C4B1A601D480DF0B7
:10F2080062F81B48291C1F220CABFFF729F9174B82
:10F218001B68DB0708D41648FFF780FA0122134B56
:10F228001A6014480DF04FF8134B0093134B0193D9
:10F238000CAB02930E480121114AB123FFF78AF95A
:10F248003023E35CDB0702D503220F4B1A708020C2
:10F25800C00009F05FF905E0022903D180680021A8
:10F2680008F0C8F83EB070BD7202000018310020E6
:10F27800F42B0020ADE1010040E00200D0E00200E4
:10F2880027E0020018E00200C82B002038B5041C53
:10F29800038A038501252B23C554013BC55431300E
:10F2A80000211F220DF0A5F86423A385363BE55401
:10F2B8003022A35C082149420B43A3542E3A312340
:10F2C800E2540133E55404320133E254033A013382
:10F2D800E25406320133E25438320133E254013247
:10F2E8000133E25438BDC046F0B557464E46454650
:10F2F800E0B482B05D4803789A009446D718BF00FE
:10F30800C7193D69FC68802252051269924662005D
:10F3180012199200564EB2181689B04656894146BF
:10F328004E435268B618FF8863449B00C3181B8974
:10F338009946FB189846A84400224E4B1A6053463B
:10F348001904090C281C0CF06DFC00290BD1802332
:10F358005B051B699BB29F4207D0B0456CD14B46F9
:10F36800002B79D101E0022C0FD180235B051969AC
:10F378000904090C281C0CF0CFFB3F4B1860032232
:10F388003E4B1A700AF0C2FE69E0802464052169C8
:10F39800281C48440904090C0CF044FC8908384B23
:10F3A80019602169B04534D00904090C40460CF0B5
:10F3B80039FC00292DD043466A46D380D58880235E
:10F3C8005B0519691F69B0B289B20CF0A5FB041C72
:10F3D800B9B2281C0CF0A0FBA4B280B2844209D1B7
:10F3E8003604360C43461B041B0CF31A9B08214AAF
:10F3F80013600EE080235B051C6919692404240C42
:10F4080089B2281C0CF00EFC89B2641AA408194BA6
:10F418001C600222194B1A700AF078FE1FE0802443
:10F4280064052169281C484489B20CF0FBFB890853
:10F43800134B19602169B7E7022CF0D195E78024B6
:10F4480064052169281C484489B20CF0EBFB890843
:10F458000B4B19602369DCE7022CF0D185E702B079
:10F468001CBC90469946A246F0BDC046A034002078
:10F4780004340020F4330020F833002078350020CD
:10F488000034002008B5044A082311689943116024
:10F498000AF03CFE08BDC0467435002008B5094A8C
:10F4A80013789900CB189B00D3181B79042B02D032
:10F4B8000AF0D4FE04E00122034B1A700AF026FE7B
:10F4C80008BDC046A03400207835002010B5802340
:10F4D8005B051C692404230C0F4A1468013C5C4337
:10F4E8000E4B5869431C07D080235B051969090432
:10F4F800090C0CF011FB02E080235B05586980239E
:10F508005B05196901380904090C4143044B1A6861
:10F51800201C0AF0AFFD10BDF833002000100010C9
:10F528000034002038B51A490B789800C2189200A8
:10F538008A18D4881289A418C3189B00CB181B6991
:10F54800E41880235B0519690904090C201C0CF0D8
:10F5580069FB0D1C0F4B5869431C07D080235B05C2
:10F5680019690904090C0CF0D7FA02E080235B053D
:10F57800586980235B051B6901381B041B0C584321
:10F588004119054B1A68201C0AF074FD38BDC046A5
:10F59800A034002000100010F433002010B5114BE7
:10F5A8005869431C08D080235B0519690904090CB4
:10F5B8000CF0B2FA041C02E080235B055C6980232E
:10F5C8005B05186919691A69631E0004000C584321
:10F5D8000904090C044B1B68594392B292080AF0BB
:10F5E80049FD10BD00100010F833002008B5024B8B
:10F5F80018680AF02DFE08BDF833002008B50F4B37
:10F608005869431C08D080235B0519690904090C53
:10F618000CF082FA031C02E080235B055B69802200
:10F62800520510691169013B0004000C5843090494
:10F63800090C0CF071FA0AF00BFE08BD001000105E
:10F6480010B5041C034B0360443343600BF0FCF813
:10F65800201C10BD20D6020008B4024B9C4604387A
:10F6680008BC604749F601000F4B1B78002B1AD1E4
:10F678000E4B0F4AD0500C4B18780E4B08E0013B4C
:10F68800002B03D10122084B1A700CE000280AD184
:10F698008E22520006498A58012AF0D100218E2371
:10F6A8005B00034AD1507047702900201C050000F8
:10F6B8000020004001D4300010B5041C074B1B7813
:10F6C800002B0AD10078002807D00134FFF7CCFFBF
:10F6D8000134631E18780028F8D110BD7029002065
:10F6E80010DF70472EDF704710B50F490B78980070
:10F6F800C21892008A18D4880C4A1460C3189B0058
:10F70800CB181B79032B09D0042B0AD0012B0AD163
:10F718000122074B1A700AF0F9FC04E0FFF7E4FD38
:10F7280001E0FFF7E1FD10BDA034002014340020F3
:10F738007835002038B51F4B1B78022B33D0032BAC
:10F748001CD0012B35D11C4B1B681B0713D41B483D
:10F7580003789C00E11889004118194A1568CA887D
:10F76800521B92B2CA80002A02D10AF077FD20E02B
:10F778000AF086FC1DE0FFF785FE1AE00E4B1B68B9
:10F788001B070DD40F4A136801331360FFF726FADD
:10F79800002802D1FFF782FE0BE00AF0B7FC08E070
:10F7A800FFF770FE05E0084B1B789B00074A9B5843
:10F7B800984738BD7835002074350020A0340020E3
:10F7C800FC330020F833002070350020B0DF020041
:10F7D80030B583B0021C8B685C00E418A400081CD8
:10F7E80008300D780B690449096800910349645889
:10F7F800291CA04703B030BD143400200434002075
:10F80800F8B506AC2788124C667804240A2E1CD05A
:10F818000F4C2478A419092C00D90A3C0C4DAC468D
:10F8280014256C43644420716261221C0C3221C986
:10F8380021C2E3802781013663465E70054B1B7841
:10F848000024A34201D1FFF74FFF201CF8BDC0469A
:10F85800A03400207835002008B5034B1B789B00A6
:10F86800024A9B58984708BD70350020E0E0020026
:10F8780008B5044A0823116899431160FFF7ECFFA3
:10F8880008BDC0467435002008B5064B1B681B0729
:10F8980005D40122044B1A70FFF7DEFF01E0FFF7E1
:10F8A800E7FF08BD743500207035002008B5094B06
:10F8B8001B681A070BD49A0703D501221343054A7C
:10F8C80013600222044B1A70FFF7C6FF01E0FFF72E
:10F8D800CFFF08BD743500207035002008B51D4BDA
:10F8E8001B681B0732D41C4A1368013313601B4B77
:10F8F8001B68002B05D00422194B1A70FFF7ACFFC8
:10F9080026E0FFF76BF9002805D00222144B1A7085
:10F91800FFF7A2FF1CE0134B1B68002B13D00D4B05
:10F928001B68DA0709D4012213430A4A136000222C
:10F938000B4B1A70FFF790FF0AE00322084B1A706E
:10F94800FFF78AFF04E0FFF7A9FD01E0FFF790FF4A
:10F9580008BDC04674350020F8330020003400206C
:10F9680070350020F433002008B5054B1B681B07D1
:10F9780002D4FFF793FD01E0FFF77AFF08BDC04608
:10F988007435002038B5274B1C68230730D4264926
:10F998000B789D00EA1892008A181069D288EB1833
:10F9A8009B00CB181B898021490509691F4D2D68CB
:10F9B800002D31D001388018C0180904090C0CF04A
:10F9C800ABF81B4B1B68984221D114E00022194B5D
:10F9D8001A600232184B1A70FFF73EFF21E003222B
:10F9E800154B1A70FFF738FF1BE0FFF757FD18E0BB
:10F9F800FFF73EFF15E000220E4B1A6001231C435F
:10FA0800084B1C600C4B1A70FFF726FF09E0FFF744
:10FA1800E5F80028E3D0D9E7FFF7E0F80028E4D0BC
:10FA2800D4E738BD74350020A0340020F43300201A
:10FA3800F83300200034002070350020038AC38486
:10FA48000023292283540121013A815443638363AB
:10FA58008385044B43850323063283540132835440
:10FA68007047C0463075000084DF704710B584B019
:10FA7800041C036A1B88FF2B1BD12D4B1B68DB075B
:10FA880008D42C48FEF74AFE0122294B1A602A485E
:10FA98000CF019FC294B0093294B019325480121AF
:10FAA800284A4C23FEF756FD23685B69201C9847BB
:10FAB8003BE0028A9A421CD01D4B1B68DB0708D426
:10FAC8001C48FEF72BFE0122194B1A601A480CF04D
:10FAD800FAFB1D4B00931D4B0193236A1B8802936D
:10FAE800238A039313480121164A5223FEF732FD55
:10FAF8001BE00F4B1B68DB0708D40E48FEF70EFE11
:10FB080001220B4B1A600C480CF0DDFB0B4B0093E9
:10FB18000F4B0193238A0293236A9B78039305482A
:10FB28000121084A5623FEF715FD04B010BDC04652
:10FB380018310020F42B0020ADE1010010E1020093
:10FB480018E1020003E102007409030034E1020035
:10FB580058E1020008B5FFF789FF08BD10B5041C7D
:10FB6800FFF784FF00238E225200A3500432A350D3
:10FB780010BDC046F0B557464E464546E0B48EB077
:10FB88002F23C35C002B00D1BCE00B881B2B00D0BB
:10FB9800B8E08C7BE4080A2C00DCAFE00B1C0A7D83
:10FBA8000F339B791B021343594A934200D0A5E0B7
:10FBB8008B7DF02B00D0A1E00B1CCA7D0F335B7A44
:10FBC8001B02544D2D68AD8D13439D4200D095E026
:10FBD80098E08B7B5B079B0F4D7B8A7C062A13D1B1
:10FBE800CA7C092A10D10A7D442A0DD14A7D552A9A
:10FBF8000AD18E26760082590132825104366AB2C1
:10FC08008759BC46624482513222825C002A79D0EC
:10FC18003422825CFF2A02D08E79964272D13D222C
:10FC2800825CFF2A01D093426CD13B23C2566BB24F
:10FC38009A4267DC3C23C2566BB29A4262DB884622
:10FC480081463323C35C012B3CD0022B3AD1FEF70B
:10FC580087FD314B0093314B01930121304ADD235D
:10FC6800FEF778FC0AAF3B780122924613407732C0
:10FC780013433B704B469A6829236B4400262E2178
:10FC8800515C19702F21525C5A702B236B441E70E3
:10FC98005E704346D91D2D20684406220CF08CFB6B
:10FCA80053467B736BB25B4233226A449BB2137038
:10FCB8001B0A537000964B46D868311C3A1C0E2319
:10FCC80007F006FBFEF74CFD134B0093154B019311
:10FCD8006DB2029503944146CB7904930B7A059350
:10FCE8004B7A06938B7A0793CB7A08930B7B09930D
:10FCF80001210B4AEE23FEF72DFC03E08B7BDB078B
:10FD080000D466E70EB01CBC90469946A246F0BDEA
:10FD18004D020000882A002074DD0200A0E10200E4
:10FD28008BE10200A8E1020010B5041C054B03603A
:10FD3800443343600AF088FD201C0BF041FC201C72
:10FD480010BDC046C8D5020008B4024B9C46043812
:10FD580008BC604731FD010008B5082903D180209F
:10FD6800C00008F0FFF808BD70B58AB0038E002BFC
:10FD780067D0942281688A58816A521A9A4260D957
:10FD8800041C314B1B68DB0708D43048FEF7C6FC5F
:10FD980001222D4B1A602E480CF095FA2D4B00933A
:10FDA8002D4B01938E256D006359029390235B00C0
:10FDB800E358039325480121284A7123FEF7CAFB1B
:10FDC8006359002B33D005AD2B78012213406622EE
:10FDD80013432B70A26815236B442E21515C002617
:10FDE80019702F21525C5A7017236B4400221A7025
:10FDF8005A7019236B44227C1A70627C5A702E72D6
:10FE0800211C1D31FF311D20684404220CF0D4FA56
:10FE1800211C2131FF312120684404220CF0CCFA46
:10FE28000096E06800212A1C112307F051FA0023EC
:10FE38008E225200A3500432A350A2689433D358A0
:10FE4800A3620AB070BDC04618310020F42B002010
:10FE5800ADE10100F4E10200FCE102008BE10200E7
:10FE680010B5038A838500222F23C2540132013B37
:10FE7800C2540B4B03863223C35C002B0FD10133D2
:10FE880032328354CC32342142549C2407314454B6
:10FE9800383C0131445401314254CD3A835410BDA9
:10FEA800204E0000F0B55F4656464D46E0B4BC4CC7
:10FEB800A54404AF1A780124A243642A00D0BAE109
:10FEC8005A799D792D021543028AAA4200D0B2E1DF
:10FED8001C1C061C0A89093A93B29946237A002BFE
:10FEE80067D1006AE27A83789A4232D1B28C4A4565
:10FEF80047D10588211C09310CF05EFA336A1D8050
:10FF08003B7A01221A40642313433B72B3682E22C2
:10FF18009A5C00217A722F229B5CBB726278A3786C
:10FF28001B021343FB721B0A3B737D732D0ABD73BF
:10FF3800E379FB7301233B747974F068009107330C
:10FF4800FA18023307F0C4F933689B68301C9847E5
:10FF5800AAE0944B1B68DB0708D49348FEF7DEFB46
:10FF68000122904B1A6091480CF0ADF9904B009328
:10FF7800338A01938C4800218E4AF023FEF796FBC2
:10FF880092E0884B1B68DB0708D48748FEF7C6FB5E
:10FF98000122844B1A6085480CF095F9864B009332
:10FFA800338A019380480021824AF123FEF77EFBC1
:10FFB8007AE0042B41D16B467B60828C09218B4609
:10FFC8009344131C1033DB08DB006946C91A8D46BD
:10FFD80004A98A460B7801210B4064210B43514642
:10FFE8000B708168CB8D112169440B701B0A4B7013
:08FFF8006178A3781B021320BD
:020000022000DC
:1000000068440B4303701B0A437015236B441D7037
:100010002D0A5D70E3795146CB7105230B721920CF
:100020006844316A0CF0CCF9F0685A467A8093B291
:10003000002200920021524607F04EF97B689D464F
:1000400036E0022B34D18068031C503378301A68B4
:10005000002A29D0118AA94226D1136A627ADA705D
:100060003B7A01221A40642313433B72B2682E2369
:10007000D15C002379722F21525CBA726178A27828
:10008000F9723A73327C7A73727CBA73E279FA73DA
:1000900003223A747B74F068009300210833FA1845
:1000A000023307F019F903E004338342CFD1C6E0ED
:1000B000237A012B3AD13D4B1B68DB0708D43C481F
:1000C000FEF730FB0122394B1A603A480CF0FFF87A
:1000D0003C4B00936278A3781B021343019362792F
:1000E000A3791B021343029331480021334A28238A
:1000F000FF33FEF7DFFA2D4B1B68DB0708D42C48D3
:10010000FEF710FB0122294B1A602A480CF0DFF899
:100110002D4B0093E3790193637A029324480021E5
:10012000264A94235B00FEF7C5FA88E0032B4FD1E3
:100130001E4B1B68DB0708D41D48FEF7F3FA0122AB
:100140001A4B1A601B480CF0C2F8204B00936278DF
:10015000A3781B02134301936279A3791B02134313
:10016000029313480021154A96235B00FEF7A2FA7A
:100170000E4B1B68DB0708D40D48FEF7D3FA0122AB
:100180000A4B1A600B480CF0A2F80F4B0093E3796E
:100190000193637A029306480021084A2E23FF3315
:1001A000FEF788FA4BE0C046C8FCFFFF183100207C
:1001B000F42B0020ADE1010014E2020003E1020093
:1001C0005CE20200ACE20200E4E2020004E30200AE
:1001D000052B34D11E4B1B68DB0708D41D48FEF7E6
:1001E000A1FA01221A4B1A601B480CF070F819484A
:1001F000211C09314A460823FB18FEF735F9144B38
:100200001B68DB0708D41348FEF78CFA0122104B59
:100210001A6011480CF05BF8104B00936278A378D9
:100220001B0213430193338A02930823FB180393A1
:10023000084800210A4A9A235B00FEF73BFABD46B4
:10024000CA239B009D441CBC91469A46A346F0BD20
:1002500018310020F42B0020ADE101003CE3020046
:1002600003E1020030B589B0051C1C1C0CAB1B88D7
:100270000093231CFFF71AFE237801229343662B79
:1002800035D16279A3791B02298A134399422ED171
:10029000237A002B2BD106A8211C093104220CF053
:1002A0008FF807A8211C0D3104220CF089F8114B9E
:1002B0001B68DB0708D41048FEF734FA01220D4B07
:1002C0001A600E480CF003F80D4B00932B8A019333
:1002D0006278A3781B0213430293069B0393079B48
:1002E000049305480021074A9623FEF7E3F909B075
:1002F00030BDC04618310020F42B0020ADE10100D4
:1003000078E302008BE10200F0B55F4656464D46A9
:100310004446F0B48BB002AF041C0D1C1168536846
:100320005B1A0020072B00D8F3E0161C081D211CC7
:1003300014310BF0A4F9002800D0E9E030687949C5
:100340000BF09DF9002803D1A368DB8D984605E0EA
:10035000336818680BF0C3FF83B29846281C7249B3
:100360000BF08DF9002865D133689A467568ED1A4F
:10037000AD10022D00D8CCE06B467B6053469B68E5
:100380009B460C3B1868013003210BF0C9FB061C8F
:1003900083B299460023032D04D95346D8680BF045
:1003A0009EFFC3B23604360C1036F608F6006A46D5
:1003B000921B954602AD2A7801210A4064210A4326
:1003C0002A70A268D28D092169440A70120A4A7003
:1003D0000B226A44414611704146080A50700022BF
:1003E0002A720D326A44217C1170617C5170EB716C
:1003F0004E4B1B68DB0708D44D48FEF793F90122EA
:100400004A4B1A604B480BF062FF2A1C09324848DD
:1004100059464B46FEF7BEF9E0684B4609339BB29E
:100420000122009200212A1C06F056FF7B689D469F
:1004300001206EE0281C40490BF021F9002828D14A
:10044000736832689B1A9B10022B62D13B7B01229E
:100450001340642213433B73A3682E229A5C7A7381
:100460002F229B5CBB734346FB734346180A3874C8
:10047000237C7B74637CBB7404233B75E06800239E
:10048000009300210C33FA18033B06F025FF0120EE
:100490003FE0281C29490BF0F2F8031C0020002B38
:1004A00037D13068083026490BF0E9F8454245411C
:1004B000EDB2326873689B1A00210F2B03D9D06804
:1004C0000BF00DFFC1B23B7B0122134064221343AA
:1004D0003B73A3682E229A5C7A732F229B5CBB73BA
:1004E0004346FB734346180A3874237C7B74637C51
:1004F000BB7402233B75F9747D75E068013B009382
:1005000000210B33FA18023B06F0E6FE012000E062
:100510000020BD4609B03CBC90469946A246AB4679
:10052000F0BDC046E0E30200E8E30200183100201D
:10053000F42B0020ADE10100F4E3020000E402002E
:1005400058E0020008B4024B9C46043808BC6047DF
:1005500009030200F0B587B0061C171C68460BF0B3
:10056000D4F97B683A689D1AAA100023019302937C
:100570000393002A09D0284B9A4201D90BF02EF898
:10058000281C0BF00FF8041C00E0002401940294D6
:10059000651903953D687F68BD4209D0002C03D0E2
:1005A000201C291C0BF0B1F904340435AF42F5D1FD
:1005B0000294301C694601AAFFF7A6FE051C019CA7
:1005C000029EB44211D02368181C0C38134A904282
:1005D00008D0043B1A68511E1960002A02DC05A9E4
:1005E0000BF060F90434A642EDD10198002801D047
:1005F0000AF0EAFF009B181C0C38084A904208D009
:10060000043B1A68511E1960002A02DC04A90BF091
:1006100049F9281C07B0F0BDFFFFFF3F88350020D7
:1006200008B4024B9C46043808BC604755050200DC
:1006300030B585B00B7A002B2AD00C1C0023CB815F
:100640008B819D239B00C85A00210022FFF710FADE
:10065000051E03D0E5210F4A0AF0ECFD0E4B1B6886
:10066000DB0708D40D48FEF75DF801220A4B1A603B
:100670000B480BF02CFE0B4B00930B4B0193A37A12
:100680000293039505480121084AE723FDF766FF19
:1006900005B030BD0CE4020018310020F42B00201E
:1006A000ADE1010054DB020034E402001BE402006F
:1006B00070B588B002AB1A7801210A4068210A435C
:1006C0001A700B226A44002111705170816809224E
:1006D0006A442E240C5D14702F24095D51700D2284
:1006E0006A44017C1170417C517003221A72C06807
:1006F000456A224B0E326A44E95C1170E918497868
:100700005170846A13226A44E15C1170E1184978DF
:100710005170C16A15226A44CE5C1670CE18767884
:100720005670026B17266E44D35C3370134BD3188C
:100730005B7873702E7A0023002E00D02B7C02ADE4
:100740006B74257A0023002D00D0237C02ACA374A7
:100750000C7A0023002C00D00B7C02A9CB74117AF8
:100760000023002900D0137C02AA137501230093F3
:100770000021143306F0B0FD08B070BD7202000015
:1007800070B588B003AB54001A7801252A40224383
:100790001A700F226A4400251170090A517082688C
:1007A0000D2169442E24145D0C702F24145D4C70AF
:1007B00011216944047C0C70447C4C700121197235
:1007C000DD73143169449E24145D0C70141C9E3436
:1007D00064784C704821525A1A74C068417B0326D1
:1007E00031400C1C997B0322914321439973817BF7
:1007F00089009A7B32400A439A730269172169443F
:10080000084C145D0C70074C141964784C70127C01
:100810005A73009500211A1C122306F05DFD08B0E2
:1008200070BDC0467202000010B5041C438D002B41
:100830000ED0942281688A58416B521A9A4207D985
:1008400000213522FFF734FFA2689423D358636355
:10085000A38D002B0FD09422A1688A58A16B521A45
:100860009A4208D9201C00213522FFF789FFA2688F
:100870009423D358A36310BD85DF704771DF7047A1
:1008800010B5041C034B03604433436009F0E0FFE0
:10089000201C10BDC8D5020008B4024B9C46043889
:1008A00008BC604781080200F0B557464E464546F1
:1008B000E0B482B002AF061C9A46202038180078B7
:1008C00084463C8D2C20381800788046201C10303F
:1008D000C008C0006D46281A854602AD4900287838
:1008E0000123184001432970B368D98D0920684459
:1008F0000170090A41700B2169440A70120A4A709A
:100900000D226A44317C1170717C51706346EB7129
:1009100053462B727B6A002B06D0002C04D0083083
:10092000191C221C0BF04CFDF0680934A3B242469E
:10093000009200212A1C06F0CFFCBD461CBC90464C
:100940009946A246F0BDC046038AC38400222923EB
:10095000C2540132013BC2547047C0467047C04682
:1009600010B5041C054B03604433436009F070FF6D
:10097000201C0AF029FE201C10BDC04618D502001C
:1009800008B4024B9C46043808BC60476109020069
:1009900010B5041C054B03604433436009F058FF55
:1009A000201C0AF011FE201C10BDC04608D4020015
:1009B00008B4024B9C46043808BC60479109020009
:1009C000F0B5474680B488B0051C98460EA8077855
:1009D00002AC207801263040682630432070A86899
:1009E00009266E442E23C35C33702F23C35C7370BF
:1009F0000B266E443170090A71700D2169442E7CFA
:100A00000E706E7C4E70002121724346E371A77216
:100A10006272011C32311320684405220BF0D0FCB5
:100A2000E868012300930021221C173306F054FCD0
:100A300008B004BC9046F0BD30B583B0051C1C1C4A
:100A400006AB1B880093231CFFF730FA23780122A2
:100A50009343662B4BD16279A3791B02298A1343F6
:100A6000994244D1237A022B03D1EB6A0133EB6222
:100A70003DE0002B1ED11F4B1B68DB0708D41E482E
:100A8000FDF750FE01221B4B1A601C480BF01FFCA7
:100A90001B4B00931B4B0193174801211A4AD62385
:100AA000FDF75CFD9423AA68D358184A9446634422
:100AB0006B631CE0012B1AD10E4B1B68DB0708D4BB
:100AC0000D48FDF72FFE01220A4B1A600B480BF070
:100AD000FEFB0B4B00930E4B0193074801210A4A82
:100AE000DE23FDF73BFDAA6800214823D15203B065
:100AF00030BDC04618310020F42B0020ADE10100CC
:100B000048DB02006CE40200DBDF0200102700007B
:100B10008CE40200F0B58BB0051C1C1C10AB1B88CC
:100B20000093231CFFF7C2F9237801229343662B1D
:100B300000D04CE16279A3791B02298A13439942C0
:100B400000D0A9E1237A002B51D1D44B1B68DB07DD
:100B500008D4D348FDF7E6FD0122D04B1A60D148F6
:100B60000BF0B5FBD04B0093D04B0193627AA37A84
:100B70001B0213430293E27A237B1B02134303936A
:100B8000C7480121CA4ADF23FDF7E8FCAF68381CDB
:100B9000092106F0C9FC0123BB73627AA37A1B0208
:100BA0001343AA68D385E27A237B1B021343AA6806
:100BB0009385A86806F0E0FB0026AD23AA68D6540A
:100BC000AB681869FDF7CEFFAB685869FDF7E0FF29
:100BD000AB689869FDF7C6FFE3790096AA683232E0
:100BE0000192281C00210022FFF7EAFEEFE0012B12
:100BF0007FD180235B051F6E607AA27A12020243C6
:100C0000E37A1B0413431A1C237B1B061343BB42CA
:100C100000D041E180235B055F6E607BA27B120206
:100C20000243E37B1B0413431A1C237C1B06134360
:100C3000BB4200D030E129E19948FDF773FD012264
:100C4000964B1A6097480BF042FB974B0093994BD9
:100C50000193261C627CA37C1B0213430293E27C5B
:100C6000237D1B0213430393637D0493E37F0936C3
:100C70000593F37E06938A4801218D4AF923FDF7F7
:100C80006DFCAF68381C092106F04EFC0123BB73D4
:100C9000327A737A1B021343AA68D385B27AF37A45
:100CA0001B021343AA689385A8683830211C1531AC
:100CB00010220BF085FBA86806F05EFB0026AD2332
:100CC000AA68D654AB681869FDF74CFFAB68586941
:100CD000FDF75EFFAB689869FDF744FFE379009686
:100CE000AA6832320192281C00210122FFF768FE17
:100CF0006DE0022B00D0CFE0A9683231201C093012
:100D000005220BF04EFB002800D0C5E0634B1B68AA
:100D1000DB0708D46248FDF705FD01225F4B1A602E
:100D200060480BF0D4FA604B0093634B0193261C90
:100D3000A27BE37B1B0213430293227C637C1B0296
:100D400013430393A37C0493237F09360593337ED7
:100D5000069353480121564A8B235B00FDF7FEFBA7
:100D6000AF68381C092106F0DFFB0123BB737279E1
:100D7000B3791B021343AA68D385F279337A1B0235
:100D80001343AA689385A8683830211C12311022B9
:100D90000BF016FBA86806F0EFFA0026AD23AA6850
:100DA000D654AB681869FDF7DDFEAB685869FDF7EE
:100DB000EFFEAB689869FDF7D5FEE3790096AA6867
:100DC00032320192281C00210222FFF7F9FD23781C
:100DD00001229343682B5FD16279A3791B02298A90
:100DE0001343994258D1237A002B55D1637A002BB3
:100DF00005D0012B05D0022B05D1304F04E0304F38
:100E000002E0304F00E0304F08AE301C211C0B31A7
:100E100005220BF0D5FA00237371204B1B68DB070A
:100E200008D41F48FDF77EFC01221C4B1A601D48A8
:100E30000BF04DFA254B00932B8A0193029718482B
:100E400000211B4A4623FF33FDF734FC134B1B687C
:100E5000DB0708D41248FDF765FC01220F4B1A602E
:100E600010480BF034FA1A4B0093E379019362783F
:100E7000A3781B021343029308AB03930848002195
:100E80000B4AA3235B00FDF715FC05E0034B1B6831
:100E9000DB0700D5D9E6CFE60BB0F0BD1831002056
:100EA000F42B0020ADE1010074DB0200ECE4020051
:100EB000D7E4020024E5020080E50200C0E402005D
:100EC000B0E40200B8E4020000FA0200DCE502002F
:100ED00014E60200F0B557464E464546E0B492B0DF
:100EE000071C0C1C161C106853681B1A072B00D813
:100EF00092E10430391C14310AF0C1FB002800D003
:100F00008AE13068D0490AF0BAFB002802D1BB68F8
:100F1000DD8D04E0336818680BF0E1F985B2201C20
:100F2000CA490AF0ACFB002800D075E1306873684C
:100F30001B1A132B69D90830C5490AF0A0FB0028F9
:100F400063D13368D8680BF0CAF984B23368186982
:100F50000BF0C5F983B2984602AB1A780121114013
:100F600066220A431A70B96809226A442E20085C76
:100F700010702F20095C51700B226A4415702D0AE5
:100F800055700D226A44397C1170797C51700022B1
:100F90001A72326873689B1A0020172B03D95069A4
:100FA0000BF09DF9C0B202ABD87113236B444246DB
:100FB0001A704246100A587011236B441C70240AA0
:100FC0005C70736832689B1A172B14D9A14B1B688D
:100FD000DB0708D4A048FDF7A5FB01229D4B1A6052
:100FE0009E480BF074F9336859699B4815226A448E
:100FF0001023FDF7CFFBF86801230093002102AA1C
:101000001C3306F069F9012574E1306873681B1A16
:101010001B2B00D892E0083091490AF030FB0028E1
:1010200000D08BE03368D86800210A220BF0D6FC90
:1010300082463368186900210A220BF0CFFC8146F2
:10104000336858690BF04BF983B298463368986956
:101050000BF045F984B202AB1A78012111406622E7
:101060000A431A70B96809226A442E20085C10707D
:101070002F20095C51700B226A4415702D0A55709F
:101080000D226A44397C1170797C517001221A72E8
:10109000326873689B1A00201F2B03D9D0690BF0AC
:1010A0001EF9C0B202ABD87111226A4453461370C4
:1010B00053461B0A537053461B0C937053461B0E2A
:1010C000D37015226A444B4613704B461B0A53706B
:1010D0004B461B0C93704B461B0ED37019236B446D
:1010E00042461A704246100A58701B236B441C700B
:1010F000240A5C70736832689B1A1F2B14D9554BF5
:101100001B68DB0708D45448FDF70CFB0122514B48
:101110001A6052480BF0DBF83368D9694E481D223B
:101120006A441023FDF736FBF86801230093002181
:1011300002AA243306F0D0F80125DBE0306873689A
:101140001B1A172B68D9083046490AF098FA00286C
:1011500062D1336818690BF0C2F883B299463368DC
:1011600058690BF0BCF883B2984602AB1A7801219B
:10117000114066220A431A70B96809226A442E2077
:10118000085C10702F20095C51700B226A441570A6
:101190002D0A55700D226A44397C1170797C51708A
:1011A00002221A72326873689B1A00201B2B03D923
:1011B00090690BF094F8C0B202ACE0713568112070
:1011C0006844E96805220BF0FBF84B46E38143468F
:1011D000238273685B1B1B2B14D91E4B1B68DB0718
:1011E00008D41D48FDF79EFA01221A4B1A601B48CD
:1011F0000BF06DF83368996917481A226A44102376
:10120000FDF7C8FAF86801230093002102AA2133F0
:1012100006F062F801256DE00CA8211C0AF075FBB0
:10122000736832689D1AAA1000230D930E930F93D2
:10123000002A1BD00C4B9A4201D90AF0CFF9281C86
:101240000AF0B0F9041C12E0E0E3020054E00200EE
:1012500088FC020018310020F42B0020ADE10100D1
:1012600044E60200C0E40200FFFFFF3F00240D94AB
:101270000E9465190F9535687668B54209D0002C33
:1012800003D0201C291C0AF040FB04340435AE4274
:10129000F5D10E94381C0CA90DAAFFF735F8051CE2
:1012A0000D9C0E9EB44211D02368181C0C38154AB0
:1012B000904208D0043B1A68511E1960002A02DCD3
:1012C00011A90AF0EFFA0434A642EDD10D980028D6
:1012D00001D00AF079F90C9B181C0C38094A90428D
:1012E00008D0043B1A68511E1960002A02DC10A9BC
:1012F0000AF0D8FA281C12B01CBC90469946A246A7
:10130000F0BDC0468835002008B4024B9C46043826
:1013100008BC6047D50E020008B5FEF7ABFB08BD60
:10132000F0B59DB0071C0C1C161C106853681B1AE6
:10133000072B00D8A9E00430391C14310AF09FF9BA
:10134000002800D0A1E03068A4490AF098F90028EC
:1013500002D1BB68DD8D04E0336818680AF0BFFF76
:1013600085B2201C9E490AF08AF9002800D08CE042
:10137000306873681B1A0B2B11D9083099490AF091
:101380007EF900280BD1002300930193029303936D
:10139000381C33212A1CFFF787FA01251AE130682F
:1013A000083091490AF06BF900280CD10023009312
:1013B000019302930393381C33212A1C0133FFF756
:1013C00073FA012506E13068083088490AF057F9B8
:1013D00000285AD12624385D013003210AF016FD79
:1013E000C9B23955002916D1814B1B68DB0708D4D7
:1013F0008048FDF797F901227D4B1A607E480AF07C
:1014000066FF7E4B00937E4B01937A4801217D4A13
:101410009E23FDF7A3F82623FB5C012B16D1744B0A
:101420001B68DB0708D47348FDF77CF90122704B79
:101430001A6071480AF04BFF704B0093724B019396
:101440006C4801216F4A9F23FDF788F82623FB5C37
:101450000125022B00D0BDE0654B1B68DB0708D4DB
:101460006448FDF75FF90122614B1A6062480AF097
:101470002EFF624B0093654B01935E480121614A48
:10148000A023FDF76BF80125A4E0201C60490AF0B9
:10149000F6F8002836D1564B1B68DB0708D45548B0
:1014A000FDF740F90122524B1A6053480AF00FFF32
:1014B000391C30314F48142204ABFCF7D5FF554B93
:1014C0007B634B4B1B68DB0708D44A48FDF72AF9BE
:1014D0000122474B1A6048480AF0F9FE474B009337
:1014E0004D4B019304AB0293142303934148012114
:1014F000444A9E33FDF732F83B68DB68381C984756
:10150000012567E0201C45490AF0B9F8002805D1FB
:101510003B681B69381C984701255BE016A8211C15
:101520000AF0F3F9736832689D1AAA100023179322
:1015300018931993002A09D0394B9A4201D90AF01D
:101540004DF8281C0AF02EF8041C00E00024179423
:1015500018946519199535687668B54209D0002C3C
:1015600003D0201C291C0AF0D0F904340435AE4203
:10157000F5D11894381C16A917AAFEF7C5FE051C4C
:10158000179C189EB44211D02368181C0C38254AA9
:10159000904208D0043B1A68511E1960002A02DCF0
:1015A0001BA90AF07FF90434A642EDD11798002850
:1015B00001D00AF009F8169B181C0C38194A904201
:1015C00008D0043B1A68511E1960002A02DC1AA9CF
:1015D0000AF068F9281C1DB0F0BDC046E0E3020027
:1015E00054E002004CE6020054E6020074E60200F9
:1015F00018310020F42B0020ADE1010048DB02008F
:101600007CE60200DBDF02008CE60200ACE60200B2
:10161000D0E60200E02E0000DCE60200F4E6020064
:10162000FFFFFF3F8835002008B4024B9C4604387A
:1016300008BC60472113020010B5041C034B036073
:101640004433436009F004F9201C10BD18D5020092
:1016500008B4024B9C46043808BC604739160200A7
:1016600010B5041C034B03604433436009F0F0F8E9
:10167000201C10BD08D4020008B4024B9C4604385C
:1016800008BC6047611602007047C0467047C046FC
:1016900010B5041C09F098FF201C10BDF0B585B0F2
:1016A000051C141C1E1C314B1B68DB0708D430487A
:1016B000FDF738F801222D4B1A602E480AF007FE7C
:1016C0002D4B00932D4B0193029603942848012142
:1016D0002B4A7823FCF742FF2A4B1B6808205B0744
:1016E00038D5261C1636F600AE19002E37D0E40089
:1016F0002C19B023E3580138002B2BD1224B1B6847
:10170000002B2ED0B423E5581F4B5A681F895C89E3
:101710007C43A418A5421DD20930AB071AD1A81AE0
:10172000391C0AF083FA0720002913D17930391CBB
:101730000AF07CFA89B2072000290BD18035AC422F
:1017400008D3002200920438311C8023FEF75CF895
:10175000002808D07D210D4A09F06CFD03E00E2021
:10176000F8E70720F6E7012005B0F0BD18310020AA
:10177000F42B0020ADE10100F8DA02002CE70200B2
:101780001FE70200743500200434002010E7020037
:10179000F0B585B00D1C20490968490739D5161CDC
:1017A0001636F6008619002E33D0002D31D0D20027
:1017B0008418B022A258002A2BD1184A1268002A95
:1017C00027D0B422A158154F388903907A89424313
:1017D0007F68D21991421CD29AB2002A19D0824253
:1017E00017D81B041F0CB84213DB2B1C0B439B07A1
:1017F0000FD1281C3A1C0AF0E3FDB023E258A43BA9
:1018000053430097054A9C58301C022100222B1C90
:10181000A047012005B0F0BD74350020043400203D
:10182000F0B5474680B488B006AF78600D1C161C32
:10183000081C4A4909F023FF002843D1E8463368D1
:1018400018680AF04CFD051C33685B683B60181C87
:101850000AF03AFF041C830707D0011DC3179B0F32
:10186000C21803201040C01A0C1AE31DDB08DB006D
:101870006A46D31A9D4606AE301C39680BF0C2FC8E
:101880007868311C2A1C231CFFF708FF344B1B68A7
:10189000DB0708D43348FCF745FF0122304B1A60C0
:1018A00031480AF014FD314B0093314B01930294FF
:1018B00003952C4801212F4ABA23FCF74FFEC54659
:1018C000012344E0281C2C4909F0D9FE00230028FC
:1018D0003DD1E846336818680AF001FD051C3368FD
:1018E00058680AF0FCFC061C830707D0011DC217CC
:1018F000920F831803261E40B61A8E1BF31DDB08B9
:10190000DB006A46D31A9D4606AC7868211C2A1C67
:10191000331CFFF73DFF124B1B68DB0708D411484F
:10192000FCF700FF01220E4B1A600F480AF0CFFCB3
:101930000E4B0093114B01930294039604950948B2
:1019400001210C4AC423FCF709FEC5460123181CDB
:10195000BD4602B004BC9046F0BDC046D4E60200CD
:1019600018310020F42B0020ADE10100F8DA02006C
:1019700048E702001FE70200F8E6020060E7020005
:101980003ADF704730B583B0124B1C685D68AC42DB
:1019900011D02368181C0C380F4A904208D0043B21
:1019A0001A68511E1960002A02DC01A909F07AFFA9
:1019B0000434A542EDD1074B1868002801D009F086
:1019C00003FE064B18680C38694609F0A7FE03B001
:1019D00030BDC046782A00208835002024320020FF
:1019E000044A054B1A60054B00221A605A609A603F
:1019F0007047C0469435002024320020782A002009
:101A0000074B1B68DA889988914207D91968002921
:101A100004D092005050DA880132DA807047C04614
:101A20002031002070B52E4B1B68002B54D1542060
:101A300009F0B8FD041C012606704670002585706B
:101A4000C8234360783B03814381858196239B00B3
:101A5000C381B93BFF3B0382438240228282FA2248
:101A60005201C282C822D2000283082242838383A9
:101A7000203BC3837B3B038405334384194A828420
:101A8000194AC284FA229200028542858385243352
:101A9000C6540133C5540133C5542D3B438634220B
:101AA000865401328354313A3333C2540133C5541E
:101AB0000133C5540133C5543A300C490C320AF095
:101AC0007FFC4A23E5520233E65209220233E252F6
:101AD000074B2365024B1C60014B186870BDC04664
:101AE0007C350020B80B00001027000000E7020042
:101AF0001927000010B580235B00C35C002B26D1A2
:101B0000A433C3589A8A002A21D00121802252008E
:101B100081549A8A002A0AD0DC682268002A05D1FA
:101B20001A69944202D91C68043400E00434238802
:101B3000002B05D1A16862686388FFF729FE06E0E3
:101B4000012B04D1A16862686388FFF7A7FD10BD6F
:101B5000F0B5474680B482B0041C744B0833036070
:101B6000FFF74EFF182009F01DFD231D0022828281
:101B70000360211CA4314160A0210181C360036185
:101B80006260A423E05000230132FF320021A154FF
:101B9000674803704370031DCC3000221A705A80CE
:101BA00001219960DA601A619A8014338342F4D17A
:101BB000604B1A80604B5869431C07D080235B053B
:101BC00019690904090C09F0ABFF02E080235B05E9
:101BD000586980235B051D6902382D042D0C45438F
:101BE000564B1D600023564A1360564A13601381FA
:101BF0005381554A00211170544A1360544A1360AE
:101C00000422544B1A60261CA836002E00D183E013
:101C100080235B051B699BB27F2B7DD9464B58699E
:101C2000431C07D080235B0519690904090C09F0DE
:101C300077FF02E080235B05586980235B051B6901
:101C40002A1C803201381B041B0C43439A4263D880
:101C50000022A823E250231CA8335D60394B5D604D
:101C60003D4A1A6080221A817F3A90465A81802329
:101C70005B0519691F690904090C7F2009F0E0FF61
:101C8000431C3F043F0C7B43ED182C4B1D60294B3C
:101C900042461A8012E03148FCF744FD0122304BE5
:101CA0001A6030480AF013FB2F4B00932F4B01931F
:101CB0002A4801212E4A3F23FCF750FC221CB03257
:101CC000002324490968490721D5002E1FD0002A86
:101CD0001DD0A8216158002919D11A490968002985
:101CE00015D0184F39898C461904090C654669438B
:101CF000AC2565598846A8447D8961464D437F6877
:101D0000ED19A84503D20025156041465160013305
:101D100008320A2BD5D104E0114B1B68DB07C3D472
:101D2000B9E7201C02B004BC9046F0BD90E8020068
:101D3000A034002018340020001000101C340020B3
:101D4000F833002004340020783500206C35002062
:101D5000FC33002074350020A11D0200F42B00206C
:101D600018310020ADE10100F8DA020080E702003E
:101D70001FE7020008B5074B1B68DB0708D40648BD
:101D8000FFF7E6FE0122034B1A6004480AF09FFAAF
:101D9000014808BDBC2B0020742900208D160200CC
:101DA000F0B5474680B486B00C1C151E00D11AE170
:101DB000AA4B1B68DB0716D4A948FCF7B3FCA74B5A
:101DC000984601271F60A7480AF081FA43461B681E
:101DD0003B4208D1A248FCF7A5FC01229F4B1A60A8
