:020000040000FA
:10000000C0070000D1060000D1000000B1060000CA
:1000100000000000000000000000000000000000E0
:100020000000000000000000000000005107000078
:100030000000000000000000DB000000E500000000
:10004000EF000000F9000000030100000D010000B6
:1000500017010000210100002B0100003501000004
:100060003F01000049010000530100005D01000054
:1000700067010000710100007B01000085010000A4
:100080008F01000099010000A3010000AD010000F4
:10009000B7010000C1010000CB010000D501000044
:1000A000DF010000E9010000F3010000FD01000094
:1000B00007020000110200001B02000025020000E0
:1000C0001FB5C046C04600F0EFFA04B00FB41FBD24
:1000D00008205A49096809580847382057490968CB
:1000E000095808473C2055490968095808474020E5
:1000F0005249096809580847442050490968095875
:10010000084748204D490968095808474C204B4981
:10011000096809580847502048490968095808479C
:100120005420464909680958084758204349096836
:10013000095808475C204149096809580847602068
:100140003E4909680958084764203C49096809582C
:100150000847682039490968095808476C20374919
:100160000968095808477020344909680958084740
:100170007420324909680958084778202F490968CE
:10018000095808477C202D490968095808478020EC
:100190002A490968095808478420284909680958E4
:1001A0000847882025490968095808478C202349B1
:1001B00009680958084790202049096809580847E4
:1001C00094201E4909680958084798201B49096866
:1001D000095808479C201949096809580847A02070
:1001E0001649096809580847A4201449096809589C
:1001F0000847A8201149096809580847AC200F4949
:10020000096809580847B0200C4909680958084787
:10021000B4200A49096809580847B82007490968FD
:1002200009580847BC2005490968095808470000D3
:1002300003480449024A034B7047000000000020B5
:10024000C0070000C00700000122D84B5A6000BF61
:10025000D74A1268002AFBD0016000BFD44A126856
:10026000002AFBD00022D14B5A6000BFD04A12684E
:10027000002AFBD07047F0B505460E46174600240D
:1002800006E0A200B158A2005019FFF7DDFF641C80
:10029000BC42F6D30020F0BD0120C043C549086030
:1002A000401048607047014601229204086890425D
:1002B00001D9102070470020FCE7F0B505460C4638
:1002C0001646002706E028462168FFF7BDFF2D1DD2
:1002D000241D7F1CB742F6D3F0BD70B505460C4611
:1002E0002E460BE0304600F075F9FF2C01D80024B3
:1002F00001E0FF3C013C012080023618002CF1D1C6
:1003000070BD0146012212044868904201D90920BB
:100310007047A9484069401C01D10F20F8E7002030
:10032000F6E7FEB504462068030000F037FA05043E
:100330002B4249598B00201DFFF7E3FF0546002D96
:1003400001D02846FEBDFFF7A7FF0120C00200F044
:1003500041F9042221469948FFF78DFF002801D07A
:100360000320EFE708222146944800F06DF90028A9
:1003700006D1002192480068FFF766FF00F00CF9F3
:100380000320DFE7A768E6686068019031463846D9
:10039000FFF7A3FF324638460199FFF78EFFB20000
:1003A0003846019900F050F9002800D1CAE703202F
:1003B000C8E700F0E3F9834800688349086041E03A
:1003C00060680190E668A0680090B200009901980A
:1003D00000F03AF90746002F00D1B3E70E20B1E74D
:1003E000201DFFF760FF0546002D01D02846A9E734
:1003F0006068002807D1FFF74FFF0320800200F05C
:10040000E9F800F0C9F8FFF747FF0120C00200F04B
:10041000E1F8042221466948FFF72DFF002801D0AA
:1004200003208FE708222146644800F00DF90028D8
:1004300006D1002162480068FFF706FF00F0ACF823
:1004400003207FE700BF00207CE770B505460C461F
:10045000182D04D12068FFF764FF206002E001201E
:10046000206000BF00BF70BDF0B589B05248406940
:1004700003905248806881000398081802900398FE
:10048000000B01900121090302984018401E000B47
:1004900000900124002520462946019A00F0C4F866
:1004A0000022401E91410791069001260027304608
:1004B0003946009A00F0B8F80022401E914105919B
:1004C0000490049BDB43059AD2430698184307998E
:1004D00011430791069037490698086007984860CD
:1004E00009B0F0BD70B53448446934488568466841
:1004F000AA003146204600F0A7F8002801D00020CD
:1005000070BD0120FCE72D484068002801D0012083
:1005100000E000200546FFF7E5FF002807D0FFF7C1
:10052000BBFE0320800200F055F800F035F8FFF71D
:100530009BFF002D0ED020484669204884684768FC
:1005400021463046FFF7C9FE224639463046FFF7BE
:10055000B4FE00BF00F020F810B5184844681A48EF
:100560000460204600F0DCF810BD15480068006803
:10057000401C01D100BFFEE710480068002802D0EF
:10058000042806D101E0FFF7BEFFFFF7E5FF00BF3B
:10059000FEE700BF00BFFEE7BFF34F8F0B480C49DB
:1005A000C860BFF34F8F00BFFEE7000000E50140C9
:1005B00000E40140000600400010001000080000A8
:1005C000B8070000BC070000000000200400FA0586
:1005D00000ED00E010B50146104B1A6808460223F2
:1005E0000F4C636000BF0F4B1B68002BFBD0531CEC
:1005F00004D0904202D20A4B186101E0084B986087
:1006000000BF084B1B68002BFBD00023044C636029
:1006100000BF044B1B68002BFBD010BD0010001066
:1006200000E5014000E4014010B5202A04DB01464A
:10063000203A9140002010BD914020239C1A03468F
:10064000E3401943904010BD034610B50B439B0790
:100650000FD1042A0DD308C810C9121FA342F8D025
:1006600018BA21BA884201D9012010BD0020C04328
:1006700010BD002A03D0D30703D0521C07E000208E
:1006800010BD03780C78401C491C1B1B07D1037854
:100690000C78401C491C1B1B01D1921EF1D118463D
:1006A00010BD70477047704710B500F007F810BDD7
:1006B000014B1B68DB6818470000002019481A49E5
:1006C0007047FFF7FBFFFFF7FBFC00BD20BFFDE716
:1006D0001649174C24688C420BD1164B1B68994263
:1006E0000CD1154B154A1360186810498842EDD09B
:1006F0000AE0134880F30888124B18470F4A13602A
:1007000018680A498842E1D080F308880E49884277
:1007100004DD0E48026802210A4302605B68184744
:100720000346DFE7C0070000C0070000FFFFFFFF30
:10073000000C000014100010001000000000002049
:10074000000400206B05000000200020240500406C
:100750000D48704502D1EFF3098101E0EFF3088104
:10076000886902380078182802D1C046074A104725
:10077000074A12682C3212681047000000B5054B7A
:10078000054A9B58984700BDFDFFFFFF4B04000042
:1007900000000020001000000400000030B4744687
:1007A000641E2578641CAB4204D3635D5B00E318D0
:1007B00030BC18471D46F8E7000C00000010000090
:10100000801E002095BF0100E5210000FBBE01000D
:1010100000000000000000000000000000000000D0
:1010200000000000000000000000000005C00100FA
:101030000000000000000000E5210000E5210000A4
:1010400071C0010077C00100E5210000E52100002A
:10105000E5210000E5210000E5210000E521000078
:101060007DC00100E5210000E521000083C00100F2
:10107000E521000089C001008FC0010095C001007A
:10108000E5210000E5210000E5210000E521000048
:10109000E5210000E5210000E5210000E521000038
:1010A0009BC00100A1C00100E5210000E521000076
:1010B000E5210000E5210000E5210000E521000018
:1010C00000F002F81AF047FF0CA030C808382418C6
:1010D0002D18A246671EAB4654465D46AC4201D170
:1010E0001AF039FF7E460F3E0FCCB646012633423A
:1010F00000D0FB1AA246AB463343184728B1010083
:1011000058B10100103A02D378C878C1FAD8520712
:1011100001D330C830C101D504680C6070470000AD
:101120000023002400250026103A01D378C1FBD803
:10113000520700D330C100D50B6070471FB5C046C1
:10114000C0461AF0AAFE04B00FB41FBDF0B440466A
:10115000494652465B460FB402A0013001B506482D
:10116000004700BF01BC86460FBC804689469246B8
:101170009B46F0BC70470000C11000008269024924
:101180008161024810447047911100000100000085
:1011900001B41EB400B50BF0A4F801B40198864662
:1011A00001BC01B01EBD0000401E00BF00BF00BF5B
:1011B00000BF00BF00BF00BF00BF00BF00BF00BF37
:1011C00000BFF1D17047000070B505460C461646C9
:1011D00002E00FCC0FC5103E102EFAD2082E02D31B
:1011E00003CC03C5083E042E07D301CC01C5361F2E
:1011F00003E021782970641C6D1C761EF9D270BD45
:101200008307FF22DB0E9A408907090E99400028C8
:101210000BDA0007000F0838830828489B001818CD
:10122000C36993430B43C3617047830824489B0001
:101230001B181868904308431860704710B504469F
:1012400000210120FFF7DCFF00211820FFF7D8FF65
:1012500000210B20FFF7D4FF02211920FFF7D0FF58
:1012600002210D20FFF7CCFF02210E20FFF7C8FF5F
:1012700002210F20FFF7C4FF0221C81FFFF7C0FFA4
:1012800003211620FFF7BCFF03211520FFF7B8FF4D
:10129000204600F019F8002010BD6B210180704736
:1012A00010B500F028F810BD0648704710B500F0E2
:1012B0002AF810BD704770477047000000ED00E04D
:1012C00000E400E003F9004370B50546314C072007
:1012D0006070A01CFFF7E1FF5920A0802E492F4825
:1012E0001AF0D8FC2E492F481AF0D4FC2946204683
:1012F00000F0C6FB70BD10B500F0CBFB2549002007
:10130000891E087010BDF8B5224E0446B61E30780E
:1013100001270D46002807D0204660380B2808D842
:10132000204600F015FF2BE0602CF9D01E48086025
:10133000F8BD20466C38032803D8204600F049FF4A
:101340001EE0204670381F2803D8204600F04FF9D1
:1013500016E0204690380F2803D8204600F0F2F817
:101360000EE02046A0380F2803D8204600F07EF873
:1013700006E02046B0380F2804D8204600F0EAF9ED
:10138000286000E02F60602CD2D128680028CFD1DF
:101390003770F8BD1A00002060040000801E002095
:1013A00080090000801E0020013000000120254936
:1013B000C003086024490020087007202349C005A5
:1013C0008860704770B5204D04462878A04207D049
:1013D000002C05D0002803D01DA14D201AF087FD58
:1013E0002878A0420ED000211E4A18482C70002CEC
:1013F0001BD01D4B012C06D0022C0DD014A168204F
:101400001AF075FD70BD1160022111605361032156
:1014100009068160416070BD116003211160536154
:101420000121C9058160416070BD11601160072113
:10143000C905816070BD10B505A171201AF057FD76
:1014400010BD000080E100E02000002000F5014018
:101450007372635C68616C5F63636D5F6161722E60
:101460006300000000F500409001002010B5A03896
:1014700003001AF06AFE0B070E172028313A414B81
:10148000525C65004B6808788A68194603F0BDF91C
:1014900010BD88888A6883B20888194680B203F034
:1014A000C3F910BD08884C68CB688A6880B22146B1
:1014B00003F0BEF910BD08884B688A6880B21946EF
:1014C00003F0D2F910BD88888A6883B2088819466B
:1014D00080B203F0DEF910BD88888A6883B208887C
:1014E000194680B203F00CFA10BD08884A6880B231
:1014F000114603F03FFA10BD088982B2888883B292
:101500000888194680B203F040FA10BD08884A687E
:1015100080B2114603F05DFA10BD08894C6882B2B2
:101520000888CB6880B2214603F0D6FA10BD08883F
:101530004C68CB688A6880B2214603F0E7FB10BD97
:10154000012010BD10B5903803001AF0FEFD090609
:101550000F161D242C363F464E0088888A6883B2B9
:101560000888194680B204F0E5F810BD08884A687A
:1015700080B2114604F019F910BD08884A6880B29B
:10158000114604F01EF910BD08884A6880B2114661
:1015900004F024F910BD08884B688A6880B21946A7
:1015A00004F02FF910BD088982B2888883B20888B8
:1015B000194680B204F02EF910BD08894B6882B23A
:1015C0000888194680B204F044F910BD08884A68BA
:1015D00080B2114604F04FF910BD888882B20888A5
:1015E000114680B204F0A3F910BD012010BD10B562
:1015F000703803001AF0A9FD1B0F15192125282F9B
:10160000363B4044484C53585F68707881889095C9
:10161000999CA2A5AC004A680878114607F005FC21
:1016200010BD086807F051FC10BD0C790B7B8A686F
:101630000868214607F058FC10BD086807F01BFD3C
:1016400010BD07F052F910BD08884A6880B21146F3
:1016500007F053FE10BD0A790888114680B207F0E2
:10166000E3FE10BD087840B207F0ECFE10BD08881C
:1016700080B207F000FF10BD086807F00EFF10BD34
:10168000086801F0A5FB10BD086801F0D5FB10BD8E
:10169000088982B209C9194607F016FF10BD05C9AD
:1016A000114607F05DFF10BD08884A6880B21146F8
:1016B00009F0FEF810BD0C790888CB688A6880B202
:1016C000214609F019FA10BD0B7908888A6880B2A2
:1016D000194609F0C3FB10BD08884B688A6880B2C0
:1016E000194609F02BFC10BD08884C68CB688A6845
:1016F00080B2214609F08EFC10BD08884A6880B28D
:10170000114609F0D1FC10BD0B7908880A7A80B225
:10171000194607F047FF10BD088880B207F047FF61
:1017200010BD086807F058FF10BD07F0BAF810BDEB
:101730008A6809C9194607F0BEFF10BD07F093F883
:1017400010BD08884A6880B2114608F071F810BDD3
:10175000012010BD10B5B02805D0B12808D0B2289E
:101760000BD0012010BD088880B20AF02AF910BD04
:10177000088880B20AF044F910BD08884B688A686E
:1017800080B219460AF04DF910BD000010B50300F3
:101790001AF0DBFC0A0609060C0C0F0F06060612EF
:1017A00007F0D2F810BD09F0D6FE10BD01F0FCF92B
:1017B00010BD06F03DFA10BDFAA1FE481AF097FBE5
:1017C00010BD3EB5FC49054603C9009001912F208C
:1017D000400169460881F94A142310460A21283835
:1017E0000AF055FE0024F6480AF06FFE641CE4B2CD
:1017F0000A2CF8D30823012202A9F2480AF0CDF9F5
:10180000002804D0FF20E7A101301AF070FB372038
:101810000822ED49400104F020FD002804D0FF20FB
:10182000E0A104301AF063FB00211E22084604F0F8
:1018300001F9284607F0B8FA02222421E34801F012
:1018400039FBE24801222C214C3001F033FBDF4907
:101850000B20B03901F0B2F9002804D0FF20D1A14B
:1018600015301AF044FB28788007800F09F007FE36
:1018700002F05EF96B4600220821D5A007F04FF96F
:10188000002804D0FF20C7A11B301AF030FB681CD1
:1018900002F0A2FC002804D0FF20C2A11D301AF0E3
:1018A00026FBDB218900CD481AF0F6F9CB4801214F
:1018B0004171022181710621C1713EBD10B5C74C35
:1018C000A078092804D3FF20B6A154301AF00FFBEA
:1018D000207860214843001900210173417BF722E1
:1018E000C908C900C91C1140EF22114041730121F0
:1018F000E1700C3010BD70B50E4600211C461980F9
:10190000154603001AF021FC0723050B1711231DB0
:10191000230022462946304609F03AFE70BD224691
:101920002946304606F050FE70BD22462946304614
:1019300001F0A9FF70BD22462946304603F07BFD29
:1019400070BD22462946304600F0C7FB70BDFF201F
:1019500094A1B3301AF0CBFA032070BD70B59F4C40
:10196000E078002818D02078602148430019407B97
:1019700000254007400F01190879401E08712078A2
:10198000401CC0B22070092800D12570A078401CEE
:10199000A0700AF020FFE57070BD9048C079002863
:1019A00000D08BE7704770B58C4DA86800280CD02C
:1019B000FFF7F3FF002862D06022A968FFF704FC5C
:1019C000FFF7CCFF0020A860EFE76879002856D029
:1019D000FFF774FF04467D484C3001F07BFA6060ED
:1019E000002804D173486FA14A301AF080FA606869
:1019F00001F0D3FA00280DD0204606F0C3FC607831
:101A0000010703D5C008C000401C2BE06F48616887
:101A10004C302DE06D4861684C3001F064FA00F004
:101A2000F5FA00282BD1FFF749FF0446674801F07B
:101A300051FA6060002804D1BD205AA180001AF03C
:101A400056FA606801F0ADFA002814D0606800888A
:101A50006080204609F0CFFD6078010706D5C008F8
:101A6000C000801C6070FFF779FF9EE757486168EF
:101A700001F039FA99E75548616801F034FA70BD10
:101A800010B5574CA1606060564800F0DDFB207037
:101A900010BD534900204870704770B5524E05463E
:101AA000706A94B00C46401C04D1B06AC043000474
:101AB000000C0BD0306AC007C00F2870706A1AF093
:101AC000EDF8B06A2071000A607114E02B206946BD
:101AD000087009A9684601F034FA002804D0354896
:101AE00030A17E381AF003FA0120287006220AA9D4
:101AF00020461AF072F82878002803D06079C021B7
:101B00000843607114B070BDF0B5374C06462068CC
:101B100095B00D4637460837401C08D16068401C18
:101B200005D1A068401C02D1E068401C11D020689B
:101B300031461AF0B3F86068311D1AF0AFF8A068AA
:101B400039461AF0ABF8E06831460C311AF0A6F8C5
:101B500025E02B206946087009A9684601F0F1F9D3
:101B6000002804D013480FA155381AF0C0F90822F4
:101B70000AA930461AF031F82B206946087009A9E5
:101B8000684601F0DEF9002804D00A4805A14E3865
:101B90001AF0ADF908220AA938461AF01EF8206991
:101BA0002E4623E07372635C686F73745F636F72B9
:101BB000652E63008702000064C10100E40100207B
:101BC0008D170000040A00202403002000140020C8
:101BD0006E5246353138323200000000E40F0020EA
:101BE00024000020A7190000800000100836401CC7
:101BF00008D16069401C05D1A069401C02D1E06990
:101C0000401C12D0206929461AF048F86069291D45
:101C10001AF044F8A06931461AF040F8E069294604
:101C20000C311AF03BF815B0F0BD2B246846047057
:101C300009A901F086F9002803D0FE49FE481AF0F0
:101C400056F9082209AF28460AA919F0C6FF6846C6
:101C5000047009A901F075F9002804D0F648F54987
:101C6000C01D1AF044F90822391D304619F0B5FF9D
:101C7000D9E770B5F14C0546A068002804D0EE48BD
:101C8000EC4956301AF033F9A56070BD10B5014625
:101C9000EB4801F028F9E9498879401CC0B2887105
:101CA000012803D1E748007800F0F2FA10BD70B5C2
:101CB0000446E54816460D46814204D1DE48DD491A
:101CC000CB301AF014F9012E05D0DB48D949DA30AF
:101CD0001AF00DF970BD6620207000202072A581D9
:101CE0000120A07370BD70B515460C460646FFF77F
:101CF00054FE00280CD0662101704680012101723B
:101D000021680161A18881820573FFF727FE70BDFC
:101D10001321304607F088FB70BD70B5C94C0546ED
:101D2000607894B0002801D00820EBE6C7488542CF
:101D300006D301208004854204D3C548854201D2E0
:101D40001020DFE6287801268007800F012803D0C5
:101D5000022805D00720D5E661680020087001E060
:101D60006068067000F012FF217860680CF066FA77
:101D7000A068401E07280BD8302269460A70887078
:101D800068460CF07DFA002802D009A80CF083FA0E
:101D90002846FFF716FD66700020B3E6F8B5044646
:101DA000AB480F46814208D3002C01D0844204D3B3
:101DB000E01C80088000A04201D01020F8BD9F48A0
:101DC0008178002911D039880091417860225143EF
:101DD0000D18287B0C350007000F3B4600222946D2
:101DE000FFF789FD060004D015E0002038800520AB
:101DF000F8BD002C13D039880098814201D90C26F7
:101E00000DE028783B460007000F22462946FFF7E1
:101E100072FD060005D00C2E01D00020388030461F
:101E2000F8BD864C6078401CC0B26070092801D1B2
:101E300000206070A078401EA07068784107490FAC
:101E400001290ED0022906D003291AD079498148E8
:101E50001AF04DF8E3E7C006E1D46868FFF716FF13
:101E6000DDE7774869684C3001F03DF86079401C47
:101E7000C0B260710128D2D17248007800F008FA2F
:101E8000CDE7E079401CE071C9E7704A10B5904297
:101E900008D30124A4046E4AA04201D3904201D386
:101EA000914201D2102010BD00F0C1FE10BD674B61
:101EB00010B5994208D30124A404654BA14201D373
:101EC000994201D39A4201D2102010BD022803D0BA
:101ED000102801D0092010BD00F0CFFE0028FAD054
:101EE000052010BD594B10B598420CD30124A40411
:101EF000574BA04201D3984205D3994203D3002AFD
:101F000003D09A4201D2102010BD00F0DCFE002860
:101F1000FAD0072010BD10B504464D4894B0844255
:101F200002D2102014B010BD0F2008A90873694612
:101F30000BA801F006F80028F4D16846007A20705A
:101F400068464089608068468089A0800020E9E773
:101F500010B500290AD03E4A914202D30B68934241
:101F600001D2102010BD8A88002A02D001F032FE72
:101F700010BD092010BD10B5344A94B091420DD364
:101F800001229204324B914201D3994206D3441E5E
:101F90001E2C25D8914203D3994201D21020C1E7CB
:101FA00001281BD108780024C007C00F002803D0E7
:101FB00003206946887001E06846847038206946CD
:101FC000087009A9684600F0BCFF002804D0FF2073
:101FD00021A1CD3019F08BFF2046A3E70720A1E710
:101FE0000246203A1F2AF9D806F011FE9AE7184A4D
:101FF00010B5914201D2102010BD0246203A1F2A8E
:1020000002D806F07CFE10BD072010BDF0B595B0DB
:102010003B2008A9087369460BA800F092FF00282E
:1020200004D0FF200CA12F3019F061FF0E4E0024C8
:102030006D464CE0A41B000057020000E40F002096
:102040000014002024000020FFFF000000D0010049
:1020500000280020C20300007372635C686F737411
:102060005F636F72652E6300043000002F19B87D26
:10207000C10706D0400704D460004019C08809F0A9
:10208000C7FB3148807900281FD0B87D80071CD558
:1020900060004019C0880022062109F0CDFB00280D
:1020A00013D03C2108A8017360004019C18868461C
:1020B000C18569460BA800F044FF06000BD0FF2045
:1020C0002249433019F013FF05E0641CE4B268466E
:1020D0000079A042CAD83046A5E5F7B50546007894
:1020E000002700090C463E46062804D0FF20174969
:1020F0006C3019F0FCFE287A00280ED0012814D08C
:10210000FF2012498D3019F0F2FE0298002C068053
:1021100001D0278066800020FEBD02270926002C02
:102120000ED0A889A080A87B08E003271426002CE5
:1021300006D02869E060A88A2082287B2072E4E724
:1021400002980680E7E70000E40F00205820000016
:1021500010B56038030019F0F8FF0A060A0F1318CB
:102160001F252930353A0868FFF7D7FD10BD05C98E
:102170001146FFF713FE10BD086809F018FC10BDEA
:1021800005C91146FFF781FE10BD4B6808788A68C3
:102190001946FFF78CFE10BD8A6809C91946FFF77A
:1021A000A1FE10BD0868FFF7B6FE10BD08884A689A
:1021B00080B21146FFF7CCFE10BD05C91146FFF7EE
:1021C000DAFE10BD05C91146FFF711FF10BD012051
:1021D00010BD0120704700000E4A12680C498A4267
:1021E0000AD118470B4A1268094B9A4204D101B52B
:1021F0000AF06EF803BC8E4607490968095808477B
:1022000006480749054A064B7047000000000000D9
:10221000BEBAFECA6000002004000020801E00201C
:10222000801E002001203F49400608603E490860AA
:102230003E490A68FF231B029A4383121A430A602D
:10224000384980390860704710B502460420384983
:1022500004E0C3005B181B79002B0AD00346401E24
:10226000C0B2002BF5D133A1432019F040FEFF206E
:1022700010BDC300CA50002259184A718A71012248
:102280000A7110BD2A4A0021C000801801717047F0
:1022900010B50446042803D326A1522019F027FEC6
:1022A0002348E1000C182079012803D021A15320F4
:1022B00019F01DFE6079A179401CC0B2814200D0A6
:1022C00060710120174940068031086010BD70B56B
:1022D000164800680004800F022803D015A1692069
:1022E00019F005FE124E194C03252078C1008819FB
:1022F0000279012A07D1427983799A4203D042793F
:102300008271705880472078401CC0B22070042829
:1023100001D30020207028466D1EEDB20028E4D1C4
:1023200070BD000080E100E080E200E018E400E021
:102330007C1400207372635C736F635F7369676EF4
:10234000616C6C696E672E63000000003000002035
:1023500010B5EFF31080C407E40F72B6DA48417885
:10236000491C41704078012801D10AF059FA002C2B
:1023700000D162B610BD70B5D34CE07800280AD108
:102380000125E570FFF7E4FF0AF052FA002804D0B7
:1023900000200AF025FA002070BDCC486571456028
:1023A000F9E770B5EFF31080C507ED0F72B6C64CB4
:1023B0006078002803D1C6A18F2019F098FD6078BD
:1023C000401E60706078002801D10AF02DFA002DBF
:1023D00000D162B670BD10B5BB48C178002904D0E9
:1023E00000214171C170FFF7DCFF002010BD10B566
:1023F00004460AF01DFAB449C978084000D001200B
:102400002060002010BDF8B50246AF4C0026A67132
:102410000820042101251027130019F096FE0D084D
:102420000A0C0E101214161E2621232528002571D1
:1024300022E0022001E021711EE020711CE02771E2
:102440001AE02020F9E7012616E0FFF781FF0AF0E5
:10245000EFF90028FBD002260EE02171A5710BE0F8
:102460002771FBE7202000E040202071F6E7FF20E5
:1024700097A17E3019F03BFD0AF0E6F9002809D05B
:102480000AF0E8F9B04205D130460AF0E6F9002832
:10249000FAD02CE001208007C560914900224A60F3
:1024A000904A9661894B02225A6085608E48026983
:1024B000D243D206D51702696D1C10231A4302615C
:1024C0000F4600E020BF78680028FBD030460AF0B5
:1024D000C4F90028FAD0002D04D1834802691021E4
:1024E0008A43026179490220886000207860A079DF
:1024F00000280CD00AF09CF905460AF0F9F87B4A4E
:10250000002D02D0A260E06001E0E260A060002E39
:1025100001D100F0B1F8F8BD10B504460AF08EF90B
:10252000002805D068490120C8704A78521C4A70BA
:102530002046FFF768FF10BDF8B5694FB868002561
:10254000012802D1BD600AF04BF97868012800D15A
:102550007D60386801265C4C012814D13D606079AB
:10256000002803D000200AF03BF96571207800288C
:1025700009D00AF05DF9002805D05948C0388663B3
:1025800000060661A670386901282CD13D6100F073
:1025900068F8012080074661A079002815D00AF06C
:1025A00047F900900AF0A4F80099002901D0E168E9
:1025B00000E0A168411A022901DA8A1C13DC0099A3
:1025C000002901D0E06000E0A060FFF7C1FE0AF042
:1025D0002FF9002806D04248C038866300060661FD
:1025E000A67000E02670F868012819D100F039F8CB
:1025F00000F037F800F035F8A078002804D1FF206B
:1026000033A1053019F073FCFD60A5702570FFF74C
:10261000C8FE09F0BCFC002802D03148C038C663AF
:10262000F8BD10B5284CE078002801D10AF0FCF87C
:1026300001208107886100F014F8A07800280BD0F1
:10264000274CE068002803D10AF007F90028F8D1E8
:102650000020E06000F005F800201C49C0438860BD
:1026600010BD08B55020694608806A461088411E92
:1026700011800028F9D108BDF8B5144819278760E2
:10268000174900200860C8600AF0D2F8BD0701248D
:102690000D4E002805D01248C03884632C61B470F8
:1026A00000E03470FFF754FE084847600D49307968
:1026B0008863FFF7D6FFAC61FFF7D3FF084900201E
:1026C00008616C61F8BD0000340000200003004088
:1026D0007372635C736F635F636C6F636B2E630015
:1026E000000100400005004000ED00E0FFFFFF7F1B
:1026F0008107C90E002808DA0007000F0838800893
:102700002C4A80008018C06904E080082A4A8000B2
:1027100080180068C8400006800F704710B50D2073
:10272000FFF7E6FFC4B20420C043FFF7E1FFC0B2E9
:10273000844203D021A11A2019F0D9FB10BD012138
:10274000234A48031060234B00221A60224A51603A
:10275000224A1060224A11601D4980390860704782
:1027600001211B4A480310601D4A5160194A00218B
:1027700011601A490860704710B5164908680128A9
:1027800004D00EA1562019F0B2FB10BD1548806888
:102790000022C0B20A6009F00BFD10BD10B50D4853
:1027A00001680029FCD0FFF7E7FF01200B49400337
:1027B000086010BD00ED00E000E400E07372635CAF
:1027C000736F635F68616C5F726E672E63000000F9
:1027D00080E100E000D1004000D3004080E200E052
:1027E00000D0004000D5004030B40121BC48C902EF
:1027F0000160CD1005604A030260BA4803681B02FD
:102800001B0A036004680023240A24020460B648FB
:102810000468240A24020460B448012444608460EB
:10282000B34C23606360A360B24B19601D601A60F3
:10283000B14B19601A600121016030BC704710B4BF
:102840000121A748CA0202600B0203600C06046063
:10285000A64841608160A94841680029FCD1A4498B
:102860000020086048608860A2480260036004603D
:1028700010BC704701219F48C9020160C910016066
:102880007047002805D0012805D0022805D19C48B2
:1028900070479C4870479C48704710B59BA18B209F
:1028A00019F025FB002010BD70B500219E4C9F4DF6
:1028B0009F4A8F4B002808D001281DD0022822D023
:1028C00092A1B32019F013FB70BD01200004A06099
:1028D000A86011601960974BC2039A60964A906095
:1028E0007F4A001210609548016086480160944854
:1028F00001609448017070BD01204004A060A86090
:102900005160596070BD01208004A060A860916092
:10291000996070BDF8B59446834A754F834D002485
:102920000126002808D0012832D0022840D077A103
:10293000E82019F0DCFAF8BD891E0902090A012015
:10294000000490603C606860794A1160012B1DD0E2
:1029500000217C4A7C4B517061463D31DC63DE6373
:102960007A4B5C6002249C6004241C61734B1960E8
:1029700073490E605F4B891519606F4B58605E4854
:1029800001606C49C00548601670F8BD0121E0E7A0
:1029900001205D4E40046E4F012B04D13460506025
:1029A00068603960F8BD9060346068603960F8BD77
:1029B0000120534E8004674F012BF4D1EEE74F48BE
:1029C0004068704770B54A4D28680026564C01286B
:1029D00006D1A068C00303D501200004A0602E60CA
:1029E0006868012809D1A068800306D50120400449
:1029F000A0606E6001200AF0FEFEA868012809D1DF
:102A0000A068400306D501208004A060AE600220CB
:102A10000AF0F1FE70BD10B54A490878002818D0B8
:102A20000120444AC0079060434AC00B90602C4A82
:102A300000121060414A00201060324A1060404A83
:102A4000106008704A78002A02D048700AF0D3FE5D
:102A500010BD0320FAE701203F49000608607047D7
:102A60000120244900060860704701203A494005CA
:102A70000860704701201F494005086070473249CF
:102A80000020C86388151B4908607047410A334A13
:102A9000C005C00D5043801C5143400A08187047C0
:102AA00010B42F4C430B63431B0C5C020C602B4C8B
:102AB0006343C31A2B485C025843284B400D4343E1
:102AC000E31A0124DB0324041B191B1613700A6884
:102AD0001018086010BC704710B50AF05FFF10BDF9
:102AE00080E100E008E400E018E400E000B000400D
:102AF00040B1004080E200E000E100E000B50040AD
:102B000048B100404081004044B100407372635CB2
:102B100072656D5F68616C5F6576656E745F746920
:102B20006D65722E6300000000B3004040B30040AA
:102B300040B5004000F50140008300404085004062
:102B40000082004044000020C08F0040008500400B
:102B500044B5004048B5004000E200E0093D0000F7
:102B6000378600006F0C010010B50AF003FF10BD9E
:102B700000200449C863012001218140024A1160FC
:102B800000BF7047C01F004080E200E010B50BF0AE
:102B9000A5FB09F04BFAFEF709FC0DF01FFD0CF048
:102BA000B5F90CF041F910BD70B50C46054603F0BF
:102BB000B5FA214628460DF0E8F970BD70B50D460E
:102BC000040012D0002D10D02101284619F062F81F
:102BD00010225449284619F000F8524801210838BB
:102BE000018044804560002070BD012070BD70B53B
:102BF0004C4E00240546083E11E071682001401843
:102C0000817BAA7B914209D1C17BEA7B914205D1AC
:102C10000C22294618F0B4FF002806D0641C308826
:102C20008442EADB0020C04370BD204670BD70B511
:102C30000D4606000AD0002D08D03A4C083C2088EA
:102C40006188401C884203D9042070BD102070BDEB
:102C50003046FFF7CCFF002801DB401C0AE020884B
:102C60006168000140181022314618F0B6FF208834
:102C7000401C20802870002070BD70B514460D00E7
:102C80001FD0002C1DD00021A170022802D01028D6
:102C900017D108E0687829780002084311D0012193
:102CA000A17010800BE02846FFF7A1FF002808DB89
:102CB000401CA070687B297B000208432080002014
:102CC00070BD012070BD70B5054614460E000AD0D7
:102CD00000203070A878012807D004D9114908399C
:102CE0000A8890420BD9012070BD002C04D02878AE
:102CF00020702888000A50700220087010E0002C14
:102D00000CD049680001411810222046103918F0F3
:102D100064FF287820732888000A607310203070C0
:102D2000002070BD500000205D4910B5884206D3D8
:102D300001218904884204D35A49884201D21020D3
:102D400010BD0146012005F0D5F810BD30B5044690
:102D500093B000200D46079014210BA818F09CFF9B
:102D60001C21684618F098FF6A4611201077002051
:102D70005077107802210843107007A80C900120AA
:102D800008AA907248486A4610850AA80B902088C5
:102D9000108460885084A0889084E088D084907FDC
:102DA000F9210840801C4008400090770820908658
:102DB000108708A80F9010AA0BA9684600F094FF8E
:102DC000002803D110A800882880002013B030BD4F
:102DD00030B585B0044608206946088105F09CFEA0
:102DE00005000CD02E48844206D301208004844282
:102DF00007D32C48844204D2102005B030BD2B48A4
:102E0000FBE72146012005F075F80028F5D1208860
:102E10006946088060884880A0888880E088C880EB
:102E20006B4602AA0021284601F0DDFB69460989AC
:102E30000829E2D00320E0E71FB5044605F06CFE48
:102E4000010012D00020029008206A461081144828
:102E50000392844206D301208004844207D31148A0
:102E6000844204D2102004B010BD1048FBE702AA2F
:102E70000F4801F045FD0028F5D169460989082968
:102E800001D00320EFE76946098821806946498817
:102E9000618069468988A1806946C988E180E2E746
:102EA00000D0010000280020042A000005300000A6
:102EB000FFFF000010B5031D03600020521E04E058
:102EC0005C181C60401C2346C0B29042F8DB002016
:102ED000186010BD01460A680020002A02D0104682
:102EE00012680A60704702680A600160704700005B
:102EF00000B51E2823D00BDC0C281CD01FDC0300DF
:102F000019F023F9090F1D111D1D171713151D00A9
:102F1000302814DD3A38030019F017F9030F1109AE
:102F20001100002000BD214800BD042000BD0D207F
:102F300000BD0F2000BD082000BD112000BD0320F2
:102F400000BD10B50C460BF09BF900281ED02046A2
:102F50000BF0A1F9002816D022780E2A0DD00F2AE6
:102F60000BD0022A09D0032A07D0102A09D010A1B9
:102F70007C2018F0BCFF002010BDA078FFF7B8FF40
:102F800010BD112010BD0AA18220F2E708A18820FF
:102F9000EFE710B50BF05EF910BD10B50BF07BF943
:102FA00010BD10B50BF061F910BD0000023000003B
:102FB0007372635C686F73745F6863692E6300008B
:102FC00010B501462022094818F007FE07490020E5
:102FD000C877084610BD0649012048610548064AE1
:102FE0000168914201D1002101607047B0160020B4
:102FF0000005004060000020BEBAFECA704770475E
:1030000010FFFFFFDBE5B15100D001006B00FFFFB7
:1030100003B40148019001BD09000020002803D03D
:103020008178012939D101E0102070470188FC4ADC
:10303000881A914233D01BDCFA4A881A91422ED06A
:103040000BDC00292BD00320C002081A27D001284E
:1030500025D001210903401A07E001281FD00228CA
:103060001DD0FF281BD0FF380138002815D116E0ED
:10307000FF220132811A904211D008DC01280ED0C3
:1030800002280CD0FE280AD0FF2806D107E001292B
:1030900005D0022903D0032901D0002070470F205A
:1030A000704700B50A2821D008DC030019F04DF85C
:1030B0000A1C2024241A24282224261A102819D075
:1030C00008DC0B2816D00C2814D00D281AD00F2895
:1030D00008D111E011280FD0822807D084280DD004
:1030E00085280DD0032000BD002000BD052000BDB7
:1030F000CD4800BD072000BD0F2000BD042000BD4D
:10310000062000BD0C2000BD70B500290BD0CB1FE0
:10311000FA3B81241E46CDB2112B1BD2012805D0CB
:10312000022806D009E0002010701DE0FF200430C6
:1031300001E0FF200330814218D0330019F005F878
:10314000111613131613161613161616131313133C
:10315000161316000846FF3881381F2803D9FF3997
:10316000FE39022902D81570002070BD14700720A6
:1031700070BD00B5030018F0E8FF060406040C0853
:103180000A0C002000BD112000BD072000BD082052
:1031900000BD032000BD00780207120F04D0012AF1
:1031A00005D0022A0AD10EE0000907D108E0000983
:1031B000012805D0022803D0032801D0072070473A
:1031C00008700020704706207047002807D00128AB
:1031D00007D0022807D0032807D007207047002017
:1031E00004E0112002E0212000E0312008700020DE
:1031F000704738B50C4605004FD06946FFF7CBFF46
:10320000002822D120880321890288436946097851
:103210008907090D084320806946681CFFF7BBFF3A
:10322000002812D1218803200003814368460078DA
:103230008007800C01432180A8784007820F20205E
:10324000012A03D0022A03D0072038BD814300E0C1
:103250000143218088B20105890F08D0012189032B
:103260008843A9780907C90F89030843208080B2E1
:103270008104890F0AD0A9784004C906C90F400CFF
:10328000C903084320808004800F02D120884004B5
:1032900003D52088402108432080002038BD70B528
:1032A00004460020088015466068FFF7A2FF00284A
:1032B00015D12189A089814210D861688978C90710
:1032C00008D001214902884208D8491C18F0EEFCB8
:1032D000298009E0FF21FF31884201D90C2070BD0F
:1032E000FF30FF3003302880002070BD10B5137808
:1032F00004785B08E4075B00E40F23431370FD24AC
:1033000023400478A407E40F640023431370FB24D4
:10331000234004786407E40FA40023431370F724C8
:10332000234004782407E40FE40023431370EF24C0
:1033300023400478E406E40F240123431370DF24C0
:1033400023400478A406E40F64012343137000783B
:10335000BF244006C00F234080010343137000299F
:1033600006D00878C10701D1800701D5012000E00F
:103370000020C0015906490E0843107010BD30B539
:103380000A8803239B0204889A4323059D0F02D1D8
:10339000A3049C0F01D09B0F00E001239B021A4362
:1033A00003230A801B039A4303889804840F02D1E5
:1033B0001805830F01D0800F00E0012000030243B5
:1033C0000A8030BDF3B593B00D000FD013980028DC
:1033D0000FD01221284618F05DFC03AAFF2101201E
:1033E00003F0B1F80024264637467AE0102015B0E5
:1033F000F0BD0720FBE76846807D01280BD16846B9
:10340000818A0520C002081A10D0012810D0022895
:1034100012D0032812D0042C14D0052C15D113E09F
:10342000022900000128000003300000012400E010
:1034300002246846468A08E0032406E0684604241D
:10344000478A02E0052400E006246846418A139872
:10345000814246D12C74002E41D00DAA0EA9052020
:1034600002920191009010230022FF21304603F0C8
:103470000BF9002823D16846808E2A46C0B20EA9D7
:10348000FFF7FBFB00281AD1AE81002F27D00DA932
:10349000052008AE02910090132300220196FF211F
:1034A000384603F0F1F8002809D16846808EF11CF7
:1034B000C01EC0B22A1DFFF7E0FB002801D0032088
:1034C00095E708A88178427808021043E881062C25
:1034D00005D16846807DA8726846808A28810020D0
:1034E00085E703A803F038F8002884D0FFF7D9FD5A
:1034F0007DE7002805D0FA4A012903D0022903D02C
:1035000003207047518800E09188814201D100205A
:1035100070470720704770B50C4605461C212046B1
:1035200018F0B8FB00202080002D08D0012D04D019
:10353000ECA1F14818F0DBFC70BD062000E005208E
:10354000A07070BD70B592B01546064601206A465F
:10355000107110745374084608300395029048881F
:103560009082FEF71AFA040019D065801720694688
:103570008883203600940AAB7178023307AA01A829
:103580000CF00BFB06466078000701D5FEF7E6F964
:10359000002E0AD03046FFF7ECFD12B070BD1321AB
:1035A000284605F041FF0320F7E708A80090684689
:1035B000838B04220121284607F028FEEDE770B531
:1035C00006468AB000200D4607900590069003A994
:1035D000049005240246029101901023009429468C
:1035E000304603F051F800280DD108A804A9009135
:1035F000029001946846838900222946304602F0F1
:103600005FFE002801D0FFF74CFD0AB070BD10B579
:103610000CF0C9FC10BDF0B589B000260546059632
:1036200000780C460827030018F08FFD0CFD070CEE
:103630003A0B77779EC2FCD8E8FD68680A38FEF737
:1036400025FB0DE1A888002380B201220321009010
:1036500008F0E7FA0290002C04D0A748A1A16E3030
:1036600018F045FC0298002804D15B209DA1C00001
:1036700018F03DFC0298009908300BF0C3FEFEF7ED
:103680008CF9040007D0607838436070009860803F
:10369000FEF764F9E6E01321009805F0C5FEEFE0BF
:1036A000002C04D194488FA1853018F020FC60884C
:1036B00000230122032108F0B4FA0090002804D16D
:1036C0008D4888A1883018F012FC009900200880ED
:1036D0002A7994461EE0C3005B199B6807936B46EA
:1036E0009B8B1A0708D5DA0606D56046C20050192A
:1036F0004038C08F088006E05B0409D50871C2001D
:103700005019C08848806078384360700226A7E06E
:10371000401CC0B28445DED8A2E0E8886946088033
:103720000090002C04D174486EA1983018F0DFFB93
:103730002878062814D10098C00B11D06088002387
:103740000122032108F06DFA060004D16A4865A140
:10375000A23018F0CCFB00203071A88870803BE0CC
:103760006078384360707BE0002C04D162485DA132
:10377000B43018F0BCFB608800230122032108F05C
:1037800050FA0090002804D1192056A1400118F0E9
:10379000AEFB009808300CF058FC0121484002D1E3
:1037A000E888C00B5CD0009861880226C180D7E70A
:1037B000002C04D150484BA1D03018F098FB608801
:1037C00000230122032108F02CFA002804D1CF2085
:1037D00044A1800018F08BFB0226C1E7002C04D125
:1037E000454840A1DC3018F082FB022661880122A6
:1037F0002046FEF75CFA01200590B1E7A889002376
:1038000080B201220321009008F00BFA0746002C39
:1038100004D0394833A1EE3018F069FB002F07D1EE
:1038200030A101E00FE016E06B20C00018F05FFB54
:1038300068680290288969468881012202A9009857
:10384000FEF751FA0CE0002C8AD12B4825A1F93063
:1038500018F04DFB84E7284822A1FE3018F047FB02
:10386000002C0DD0607800070AD50598002807D1F4
:10387000842020702046582229460830FDF7A4FCF9
:10388000304609B0F0BDF7B50C460546007A224631
:1038900088B00A320292921C04920027811E1632CE
:1038A0003E4601920B0018F050FC08F605F548481A
:1038B0008DD2F4F5688800230122032108F0B1F9C4
:1038C0000190002804D1072006A1C00118F00FFBC9
:1038D00001980088002811D05227072600E1000037
:1038E0009C1400207372635C67617474735F636F10
:1038F00072652E63000000006902000051271E2639
:10390000002C7DD06888A0800120A07101980299C8
:103910000079C0004019C089FFF754FD002870D11C
:1039200001980079C0004019C08920810198007970
:10393000C0004019408AA083F2E0698A00910628FD
:1039400020D1E889C00B1DD008462230512786B20D
:10395000002CD6D0A8890499FFF734FD002874D133
:103960006888A0800220A071A88920810120A0720F
:10397000288AE083009820846969009A019818F0E9
:103980002CF9CDE008462030502786B2002CB8D064
:10399000A8890299FFF716FD002856D16888A080F3
:1039A000A889E080287A06280AD002202072288A76
:1039B000A0830098E083204669692030009ADEE702
:1039C0000120F3E7688800230122032108F029F988
:1039D0000690688A00900698002804D17D20FD4951
:1039E000C00018F084FA069808300CF02EFB012174
:1039F000484002D1E889C00B26D00098223001E06F
:103A000073E022E0512786B2002C78D06888A0802D
:103A1000A8890499FFF7D6FC002816D10220A071CE
:103A2000A88920810420A072288AE083009820843D
:103A30006969009A019818F0D0F806990020087179
:103A40000698A98941806BE003200BB0F0BD68881F
:103A500004F0AFF90190688800230122032108F0E7
:103A6000E0F800900198002803D1DA49DA4818F00C
:103A70003EFA0098002804D1D748D649401C18F0D7
:103A800036FA0098D549C088884205D051272226A9
:103A900004E01EE03FE035E050272026002C2ED029
:103AA0006888A080502F07D00220A0712146287B73
:103AB0000831FFF730FD33E0287BA11DFFF72BFD18
:103AC0006A88002300990198FFF73CFD0028BCD1CB
:103AD00026E0C349A889C988814207D15427062610
:103AE000002C0CD06888A0801AE008E05327082634
:103AF000002C04D06888A080A889E08010E00A9893
:103B0000068013E055270726002CF8D0A889A0804E
:103B10000020A07104E0B048AE494E3018F0E7F93B
:103B20000A98002C068001D02780668000208CE750
:103B3000AB4900200870704730B585B00C4601F0E5
:103B4000ACF905460020208020716080401EE08096
:103B50002046294608300BF049FC6A4629460120D8
:103B600002F0F1FC102412E06846808800070ED5B0
:103B70006846C0882946FFF722FD68468188FF23F2
:103B800021438180C0882946019A02F007FE6846D9
:103B900002F0E2FC0028E7D005B030BD0A4601463D
:103BA00010B5104608300BF035FC10BD70B5002381
:103BB00005461A46032108F034F8040004D186486B
:103BC00084498A3018F093F92046294608300BF0D2
:103BD00019FC70BDF0B591B00C46074604F0E9F849
:103BE000050005D02878222804D2082011B0F0BDA5
:103BF0007C48FBE700231A460321384608F011F8F9
:103C00000646002C02D0A08800280CD0012069466E
:103C100008710220087400204874002C05D0A08888
:103C20000883206802E00920E0E708830590304619
:103C3000083003970290FDF7B0FE040018D06780AB
:103C4000172069468883203500940AAB69780233CF
:103C500007AA01A80BF0A1FF05466078000701D56F
:103C6000FDF77CFE002D09D02846FFF782FABDE75C
:103C70001321384605F0D8FB0320B7E708A80090C9
:103C80006846838B04220121384607F0BFFA0021E1
:103C9000C943F180AAE7FFB585B00E9E7788384604
:103CA00004F087F8054600231A460321384607F03A
:103CB000B8FF0446002D04D147484649F13018F0BA
:103CC00016F9002C04D144484249F23018F00FF99B
:103CD0000834089869460394C1C105A80DC8203569
:103CE00069780BF0C9FBCCE5F0B50446002099B02B
:103CF0000D4601460D9010A88181164601818180F4
:103D0000374A68469180018510A80180684601877E
:103D1000818581841078012808D0022806D00328E4
:103D200004D0042802D0082019B0F0BD2E488442E7
:103D300079D3012189042D4F8C4201D3BC4272D327
:103D4000294885426FD301208004854201D3BD42BA
:103D500069D36068002813D02349884263D30121C6
:103D60008904884201D3B8425DD3608921898842A1
:103D700003D801225202914201D90C20D4E70D90C0
:103D800016AA0EA92846FFF78AFA0028CCD168683F
:103D900080784007800F022809D16846008F800490
:103DA000800F04D02869002801D0B8423BD30AA96B
:103DB0002069FFF71EFA0028B6D1206900281AD022
:103DC000607880076846008D12D58004800F74D01B
:103DD00011E00000E438000014040000FFFF0000C0
:103DE0009C1400200230000000D0010000280020B8
:103DF0008004800F61D16846008D810615D580044E
:103E0000800F606804D000280FD0B8420BD301E0C7
:103E100000280AD0FE49884205D30121890488423E
:103E200003D3B84201D210207EE709A96069FFF7E9
:103E3000E0F90028A2D16069002808D06846808C8B
:103E40000105890F012938D18004800F35D00BA9D5
:103E5000A069FFF7CEF9002890D16846808C8006D3
:103E60002BD46846808D810627D4A169002906D00D
:103E70000105890F012920D18004800F1DD0E06841
:103E8000002804D00078002817D01C2815D204AAD6
:103E9000611C2046FFF72AFA0120800210A9088041
:103EA000012769468F73DB48888104AA033217A96A
:103EB0002868FEF708FF002801D0072034E710A883
:103EC000007F15A9C01CC2B200200C920190FF32E5
:103ED000009003460291FF3203A80332109902F0CA
:103EE0008AFA002828D110A9888A0F902A8929697E
:103EF000C94801910092029010A90A8B6B89286829
:103F00000E9902F078FA002801D001464DE0C2482F
:103F10000025001F818868464174090A81740521C3
:103F200004A86A4623C210A82A46FF21808A0C9B57
:103F300002F0C6F9002802D0FFF7B3F8F4E66846AD
:103F4000007C0322C10900209202904301229202C8
:103F50008018149000292CD0014610A801806846D2
:103F60002921877309028181058608A8007C002326
:103F7000410860784900C007C00F014308A80174D8
:103F8000FD2001406078A54A8007C00F4000014332
:103F900008A801740CA9022001910090029503A8C1
:103FA000109902F028FA010003D00F9800F079FF71
:103FB000BAE66068002829D0206900280DD10AA936
:103FC0000EA8FFF7DCF96078800706D46946088DF3
:103FD000032109038843694608858E49684687732B
:103FE000FE3181818D492089891E17F05FFE62684C
:103FF0000D9811AB0192009002930A46002303A88A
:104000000A9902F0F8F9002800D07EE72078C1066E
:1040100001D480062AD568460586606900280DD13E
:1040200009A90EA8FFF7ABF96846818C032080022E
:104030008143012080020918684681846946888C82
:10404000C82108436946888472488F73FF3088818D
:1040500012AA0CA9022002920191009000236F4A3B
:1040600003A8099902F0C7F90028CED12078C0072B
:1040700029D068460586A06900280DD10BA90EA895
:10408000FFF77DF96846808D03218902884301216D
:1040900089024118684681856846818D4020014328
:1040A0006846818587735E49818113AA0CA9022025
:1040B0000292019100900023584A03A80B9902F044
:1040C0009AF90028A1D1E068002829D010A81499F5
:1040D0000180534968468773491C8181E16808A8BB
:1040E0000A78027449784174E06841224188684640
:1040F0004186E0680023017908A80175E068D200D4
:10410000C18808A84175090A81750CA8072101908A
:104110000091029503A8109902F06DF90028A4D12E
:104120003D480321001F0170002E0AD08088308096
:1041300010A88088708010A80089B08010A880899D
:10414000F0800020F0E530B501248BB015460B4619
:10415000012802D002281CD104E06846052184739E
:10416000C90203E02B4968468473891E8181002BB4
:1041700012D00321002089028843012189024018BE
:104180006946888405AA04A91846FEF79CFD002804
:1041900004D007200BB030BD1020FBE76A46127C2C
:1041A0001D480092801E05A9FF3201910290FF3246
:1041B000002303A80332099902F01DF9002802D058
:1041C000FEF76FFFE6E71448001F002D01D041887D
:1041D000298004700020DDE770B592B00446012606
:1041E00008A886700F4968460184002208A9304655
:1041F000FFF7A9FF00284BD12078074DC007002406
:104200002D1F002842D01C21684617F045FD0BE009
:1042100000D0010003280000A014002003020000C9
:10422000032900000118000068460178202001439E
:104230006846017008A88670FE496846018411949A
:104240000794817FF92001406846891C817700200E
:1042500001466846017700200146684641770421FF
:104260008185C485018607A80A9011A80D9008A829
:1042700009900EAA09A96846FFF736FD002807D164
:104280006846008FE8806846808F28812C70002067
:1042900012B070BDF7B5E84900260A789EB0012A31
:1042A00004D0022A02D0082021B0F0BD4A88824200
:1042B00001D00620F8E71F98824201D10720F3E7DA
:1042C000012210A98A75DD488882002003239B0201
:1042D000014699439302CB1810A90B8669468A813F
:1042E000D74ACA8118A9887110A9888419A904918C
:1042F0006946CA820690FF20087503A802F04FF9AC
:1043000000242546274608AA052103A802F04AF9F9
:10431000002810D082286FD1002C6FD0002D6DD0D6
:1043200010A88480C5800021017418A8807B11AC7E
:10433000012865D06DE008A88079002F21D00128E0
:1043400057D16846818CBD4881421CD113AA0DA962
:1043500005206B4607C36846408C10230022FF21CE
:1043600002F092F9002868D110A88089042801D0B1
:1043700006284CD16846818E1F98814239D10F2082
:1043800092E7012835D16846808C0521C902884210
:1043900002D0491C88422CD1A74841886846408CED
:1043A000814201D1012700E00027002C01D0002D1F
:1043B00010D01F9988421CD113AB0DAA05216E465F
:1043C0000EC6044610230022FF2102F05DF90028EA
:1043D00033D101E035460CE010A88089022801D0D5
:1043E000102814D1C0B21BAA0DA9FEF746FC002864
:1043F0000DD16846468C86E71FE0FFE7052053E7AE
:1044000014A91BA8221DFEF75EFC002801D0032082
:104410004AE710A8007C0023001DC2B210A8027455
:10442000209802900194009215A81C9901F0E3FFD6
:10443000002802D1804902220A70FEF732FE33E7DB
:1044400010B50B46401E86B084B203AA0021184660
:10445000FEF74CFF04AA052103A8029201910090E7
:1044600001230022FF21204601F02AFF044668466E
:10447000008A012803D07349734817F038FD20469D
:10448000FEF70FFE06B010BDF0B56B4F044638784E
:1044900087B00E46032804D0042802D0082007B0B5
:1044A000F0BD04AA03A92046FEF7F9FE0500F6D1E7
:1044B000606880784007800F02280CD168468089A8
:1044C0008004800F07D02069002804D05F4988420B
:1044D00001D21020E3E7208905AA6B46216907C3B2
:1044E00069460A8A63892068039901F084FF0028DD
:1044F00002D0FEF7D6FDD2E7002E02D06846808AB1
:104500003080042038702846C9E738B50C000546CD
:1045100009D000236A46FF2102F018F9002804D0D0
:10452000FEF7BFFD38BD102038BD69462046FEF7B6
:1045300060FE0028F8D1A078FF21C307DB0F2846D2
:10454000009A02F02BF9EBE73EB50C0009D002AB64
:104550006A46FF2102F0FAF8002804D0FEF7A1FD18
:104560003EBD10203EBD0321204617F093FB684658
:10457000008801A90005800FFEF727FE00280BD157
:104580006846007920706846008801A98004800F81
:10459000FEF71BFE002801D003203EBD68460079CF
:1045A0006070A278EF20024068460088C10B0901C4
:1045B0000A43F7210A404104C90FC9000A43A27007
:1045C000F9210A40800601D5022000E001204000C8
:1045D00069460243097A50084000C907C90F0843D9
:1045E000A07000203EBD7FB514460522019203ADA8
:1045F000029500930A462388FF2101F061FE694677
:1046000089892180FEF74DFD04B070BDF3B5002708
:1046100099B068460C4607873D4600292DD0E068D2
:10462000002806D0A068002827D001886A46118794
:1046300007800DE0052A00009C14002002280000DD
:10464000FFFF0000E4380000BF0600000028002043
:10465000199803F0AEFB002812D0007822286FD3FF
:10466000199800F01AFC002300901A4603211998AB
:1046700007F0D7FA06000AD104E010201BB0F0BD05
:10468000FE48FBE78D20FE49000117F030FCA078C2
:10469000012803D0022801D00720EFE72088002856
:1046A00008D0401E80B203AA009901F04CFF0028F8
:1046B00058D11DE0F148401CE0E76946498A22884C
:1046C00091420BD26846807D0025012810D16846B2
:1046D000808AEC4988420BD1012509E0914203D13F
:1046E000002D2AD06D1C01E0022D0BD0032D04D229
:1046F00003A801F031FF0028DFD082281BD000285A
:1047000030D11EE06946897D0129F1D16946DD4B32
:104710008A8A5B1ED11A9A420FD005DCDA48101A39
:104720000BD00128E4D108E0012906D0FF39012986
:10473000DED10325E1E7022D14D10D2080029DE793
:104740002DE0E068002814D00EA905220291019204
:10475000009069460B8FA2882088FF2101F0B0FDF0
:10476000002802D0FEF79DFC88E76846A168008F0C
:1047700008806846008AC00601D5C4487EE70798CD
:10478000002803D06846008B022801D0032075E77B
:104790000798A1780078012903D0800710D4082059
:1047A0006CE7C007FBD000220721199807F044F8F6
:1047B000002802D00725022004E0B048801C5DE7F5
:1047C0000225032008A90870218868468185199868
:1047D00008360A90099617216846818712AB023382
:1047E0000FAA052108A800970BF0D7F9002802D0DE
:1047F000FEF7BFFC42E710A800906846838F0422B2
:104800002946199806F002FD38E770B506461546A8
:104810000C460846FEF702FC002804D12A46214631
:104820003046FFF790FC70BD10B5FFF733FD10BDAB
:1048300070B51E4614460D0014D0002C12D06168CD
:1048400000290FD00121FEF754FE002809D120686D
:10485000FEF7E4FB002804D1324621462846FFF744
:1048600043FA70BD102070BD70B515460C000ED017
:104870000221FEF73EFE002808D12068FEF7CEFB9D
:10488000002803D129462046FFF7FEFD70BD102009
:1048900070BDF8B50D4614467D4902468C4226D3BC
:1048A0006068002808D07B4B984220D301239B04EA
:1048B000984201D388421AD3104600F0EEFA064619
:1048C000284600F0A6FA00280CD16068002810D114
:1048D00000236A463146284601F038FF002802D0FE
:1048E000FEF7DFFBF8BD68460088800601D4102083
:1048F000F8BD6188224628466368FFF774FEF8BD5C
:10490000F7B5634D86B01446AA4202D2102009B012
:10491000F0BD00F0C2FA01460390002305AA0798F3
:1049200001F014FF002822D16846808AC00601D514
:104930005648ECE704A80026052702900097019648
:104940006288554B0399079801F09EFE00280ED10E
:104950006168A94208D30296019100972388628872
:104960000399079801F090FE6946098A2180FEF7B5
:1049700098FBCCE7002907D0484B0A881B899A424C
:1049800002D83E48401C704740E610B586B004236C
:104990006C46A382414BDC88002C07D01B898B42DC
:1049A00001D2914204D93548401C6BE5062069E5E7
:1049B0006B4619825A820021009101911C800221CC
:1049C000997005A9029104A903916946FFF71EFE9B
:1049D00058E5F3B50C4685B0812069460873002C74
:1049E0001BD0059803F0E5F9070018D03878222885
:1049F00068D3059800F051FA04900022012105982F
:104A000006F01AFF00280CD000231A46032105984F
:104A100007F007F905000AD105E010203FE5174827
:104A20003DE511203BE516491D4817F060FA284680
:104A300008300AF009FD06462078012803D0022834
:104A400037D007202BE5A18803AAFEF75DFB0028DD
:104A5000E4D1B00736D56846007B002834D1A07970
:104A6000C00731D0E068002205216B4607C3638987
:104A700022896888049901F023FC13E002300000C9
:104A8000E438000003280000002800000134000082
:104A90000028002000D00100FFFF00009C1400202F
:104AA000670A00006946087300280DD0FEF7F9FA7E
:104AB000F5E4A18803AAFEF727FB0028AED1342035
:104AC000064201D10820EAE46846037B29463846BD
:104AD000059AFEF737FDE2E4FFB597B0002001909C
:104AE0001F4615460C460E46179803F062F900283B
:104AF00004D00078222803D20820BFE5F048BDE5A5
:104B0000B80801D00720B9E5032F00D10027179876
:104B100000F0C3F90890002C1AD0022D7FD3E94889
:104B200084427CD361190091012902D0491E81423F
:104B300075D3AD1EAAB22146E3480BF005FB0099E0
:104B40001E394B7F0A7F19021143884267D1ADB2EB
:104B5000DE48B90702D50189491C00E0012189B26C
:104B60000091F90701D0078900E0D74F03AA0899FF
:104B7000009801F0E8FC0DE0F078B17800020843FD
:104B800010284CD80199091D401880B20190A84204
:104B900045D82618002E60D070783178000208437E
:104BA00000998842E8D358E06946098A0A0754D533
:104BB000002C3FD0019AA618121D92B20992F378E8
:104BC000B2781B0213439C46102B28D8099A6244E2
:104BD000AA4224D87278337812021A4390421ED126
:104BE000C8061ED509980AAA052120186B4607C3D6
:104BF000707831780002084363460022089901F07A
:104C00005FFB002803D0FEF74CFA37E507E0F078A9
:104C1000B178000208436946098D884201D00B2013
:104C20002CE5F078B178000208430999401880B269
:104C3000019006E0C90604D50899FEF7C0FC0028DB
:104C4000E3D16946088A1021884369460882488A68
:104C5000FF23049A089901F0A1FD03A801F07CFC50
:104C6000002803D16846408AB8429DD900231A46DD
:104C70000321179806F0D5FF040003D19449954805
:104C800017F035F920880028BFD0012108A801704D
:104C90000173002646732188684601862046083045
:104CA000099017980A90FCF778FE05001BD017981A
:104CB000688017206946888010AB023301AA05215D
:104CC00008A800950AF069FF07466878000704D530
:104CD00080487F49223017F00AF9002F09D0384662
:104CE000FEF747FACAE41321179804F09DFB03204E
:104CF000C4E40EA800906846838804220121179816
:104D000006F084FA00288BD12680B7E4F0B50024A1
:104D10008DB01F4615460E46002A04D0B90804D0AF
:104D200007200DB0F0BD1020FBE7032F00D10027B6
:104D300000F0B3F803906549B80702D50889401C14
:104D400000E0012080B2FA0701D00F8900E05E4F39
:104D500006AA039901F0F7FB38E06946898B090739
:104D600034D504AB05210022029300910192564BE9
:104D7000039901F089FC002821D1002E21D06A4638
:104D8000128A2988A2183019121D914232D369461D
:104D9000CA8B0270120A42700A8A8270120AC270AA
:104DA00004A90522001D0092029101906946C88B5A
:104DB0000B8A0022039901F067FC002801D0032030
:104DC000AFE76846008A2018001D84B206A801F0EB
:104DD000C3FB002804D0822806D0FEF762F9A0E7C2
:104DE0006846C08BB842B8D9002E0ED02988A01CC6
:104DF000814201D20C2094E72246314632480BF022
:104E0000A3F931190870000A4870A41C2C800020F6
:104E100087E700B585B06946FEF7D4FA00280AD1C5
:104E20006846007C030017F090F908052F2F2F2FFC
:104E300008080531032005B000BD684680780128C8
:104E400007D1684600880321C902401A1CD00128F6
:104E50001AD068468079012806D1684680881521D5
:104E60004902401A05280FD96846807A012812D1D4
:104E70006846018929200002081A05D0022803D0BB
:104E8000032801D0042806D10F20D4E7872012A1DF
:104E9000800017F02CF80020CDE710B506F0B4FE26
:104EA00010BD10B50C4601F021FB002803D00AA16B
:104EB0000E4817F01CF82046FEF7F3F810BD00006E
:104EC0000230000000280020FFFF00009C1400209A
:104ED000E4380000220B00007372635C6761747435
:104EE000735F636F72652E6300000000AA06000006
:104EF000F8B500780C46164610340E36069F022888
:104F000009D0032836D005287ED0FF20F6A1E53051
:104F100016F0EDFFF8BDCD890A2068430E301880E9
:104F200031203880002AF5D0087B9581801FC7B2D8
:104F30001AE020886168308048780A7800021043BF
:104F4000F080C8788A78000210433081B21C38465D
:104F5000091DFDF792FE002F01D0002802D000208D
:104F60003071708008340A3628466D1EADB20028B4
:104F7000DFD1F8BDCD890A2068430E301880322079
:104F80003880002AF5D0087B9581401FC7B243E0E6
:104F9000616822880878F2803279C307520852008B
:104FA000DB0F1A43FD231A408307DB0F5B001A4314
:104FB000FB231A404307DB0F9B001A43F7231A40D9
:104FC0000307DB0FDB001A43EF231A40C306DB0F96
:104FD0001B011A43DF231A408306DB0F5B011A43D0
:104FE000BF231A404306DB0F9B011A433271C009ED
:104FF00070718A784B7810021843308132463846F7
:10500000C91CFDF73AFE00E00CE0002802D00020A9
:10501000B070308008340A3628466D1EADB20028C4
:10502000B6D1F8BD087BCD89801E86B230460830E7
:1050300068431030188034203880002AF1D0174699
:1050400095811037E800D681C01900900DE02088C6
:1050500038800098786032466168009816F0BDFD8F
:105060000098083480190837009028466D1EADB2AC
:105070000028ECD1F8BDFFB581B00A9D1E460C4654
:10508000002A05D0607AFF300130D080E08910819D
:1050900001980E270078030017F057F80B7E0719C8
:1050A000293541536C7878787E000092087B082877
:1050B00005D0032803D091A1954816F018FF37803A
:1050C00030200FE000990020888105B0F0BD0092EB
:1050D000087B042804D08E4888A1143016F007FFFE
:1050E00037803120288000980028EBD1EDE700922E
:1050F000087B042804D0932080A1800016F0F7FEDE
:1051000037803220EEE70092087B022804D08048E6
:105110007AA13A3016F0EBFE37803320E2E7087BC5
:105120001746042804D07A4874A14C3016F0DFFEEC
:105130001020308034202880002FC6D00020B88175
:1051400016E0207B1746052806D0062804D07048B4
:105150006AA1603016F0CBFE122030803520288006
:10516000002FB2D0E089B8810020388201984088B1
:10517000F881AAE70092087B072804D064485FA161
:10518000713016F0B4FE37803620ABE73346009519
:10519000019800F00EFC98E72F2053A1000116F0B3
:1051A000A6FE92E770B50C46054602F002FE002806
:1051B00004D00078222803D2082070BD554870BD65
:1051C00000231A460421284606F02BFD2060002803
:1051D00001D0002070BD032070BDFFB58BB00D461F
:1051E00007461720694608850E98032614460028AE
:1051F00005D10EA93846FFF7D5FF002834D1002D80
:105200000BD000220321384606F016FB002834D0CC
:105210000E980078002830D108E02078092819D0AD
:105220000F2823D030A13C4816F061FE0E98A760ED
:10523000801D03AA606002320AA9204600F00FFC1C
:10524000002827D0030016F080FF071A1823232117
:105250001C1E2300072600223146384606F0ECFAD1
:105260000028E3D12B48801C0FB0F0BD00220321A1
:10527000384606F0E1FA0028D8D11120F4E70020E2
:10528000F2E70820F0E72348401CEDE70720EBE7B2
:105290000320E9E701A800906846038D0422314607
:1052A000384605F0B3FF0028DED1002DDCD00E9982
:1052B0000D70D9E730B587B01D460C46002A11D0D5
:1052C000042369460B7013888B815288CA81A278A7
:1052D0008A7422880A8200236A462946FFF77DFFE6
:1052E00007B030BD1020FBE77372635C67617474B4
:1052F000635F636F72652E63000000007372635C0E
:1053000067617474635F636F72652E6300000000F1
:1053100025020000023000004F030000F3B581B009
:1053200001980C4600780826030016F00EFF125F65
:1053300047471B134B0A0A0A0A0A0A0A0A0A0A0AF8
:105340000A5F002C02D1F849F84808E06078304341
:1053500060703CE0002CF9D1F448F349083016F0B5
:10536000C6FDF3E7019800238088012287B204215B
:10537000384606F056FC0546002C04D07520EA4954
:10538000C00016F0B4FD002D04D1E848E649143001
:1053900016F0ADFD3946A81D00F058FBFCF7FDFAEC
:1053A000040006D06078304360706780FCF7D6FA5E
:1053B0000FE01321384604F037F815E0DB48DA49EE
:1053C000283002E0D948D8492D3016F090FD002C45
:1053D0000AD06078000707D5932020702046582215
:1053E00008300199FBF7F0FE0020FEBDCF48CE4902
:1053F0003130EAE710B500210170801D00F023FB79
:1054000010BD0A4610B50146901D00F027FB10BDE7
:1054100070B5002305461A46042106F002FC04007C
:1054200004D1F920C049800016F061FD2946A01D75
:1054300000F00CFB70BDF7B5054684B00C460020AB
:105440006946088188806F88034601220421384616
:1054500006F0E7FB060004D1FD20B349800016F0FA
:1054600046FD002C03D0A7800020E0802081297A0F
:1054700020461230C91E142700900B0016F065FE5E
:105480000FFEFDFC3809A95E657A2FB2C9E991913A
:10549000FC003078012804D0A3497020143116F0A4
:1054A00026FDA9896A46C8000E3090803020108100
:1054B000002C13D0A18100200DE0C1003279091920
:1054C0000A747288CA8182005319DA894A821A8A58
:1054D000401C8A8280B2A1898142EED8F1E002A804
:1054E000009001AB22462946304600F02BFAE8E056
:1054F0003078042804D08C49BD20143116F0F7FC14
:10550000A8890622014650436A460E309080332017
:105510001081002CE2D0A18100200BE00621414344
:105520004F190919FA89CA81BA7C8A743A8A401CCF
:105530000A8280B2A1898142F0D8C2E03078062880
:105540000BD079491431D72005E03078062804D0F3
:105550007549EB20143116F0CAFCE889694612300F
:10556000888035200881002CB8D0A989A181718854
:10557000E18126E03078072804D06B49FF20143100
:1055800016F0B5FCA8896A4601460E309080362098
:105590001081002CA2D0A1812046AA890E30296951
:1055A00054E0E8896946123080B2382288800A8146
:1055B000002C7ED0A989A181287A102807D0022149
:1055C000A173E9892182EA89296900983EE00121D5
:1055D000F6E702A8009001AB224629463046FFF7C5
:1055E00087FC6EE03078082805D04F49FF20143141
:1055F000EE3016F07CFC6846372187800181002C54
:105600005FD0A989A1810020608220820120A0733F
:1056100057E03078092805D04349FF201431FF3086
:1056200016F065FC288A6946143088803720088186
:10563000002C46D00421A173A989A181E989218286
:10564000298A618220462A8A1430696916F0C5FACF
:1056500037E030780A2804D033493548143116F041
:1056600046FC6846372187800181002C29D005211E
:10567000A1730020A08102E01EE003E00CE0208284
:1056800060821EE002A8009001AB22462946304607
:10569000FFF7F1FC15E00CE00D2069463922888007
:1056A0000A81002C05D00120E08000202081207399
:1056B00007E00699088019E01C481B49A43016F041
:1056C00016FC6846069980880880002C0ED0684633
:1056D00000892080684680886080287A032805D069
:1056E000102803D0112801D000203070002007B00E
:1056F000F0BDF7B5568815460F46002382B01A460E
:105700000421304606F08DFA040004D1074806490A
:10571000C43016F0ECFBA41D33462A4639460094EB
:10572000029800F022FBD0E4E8520000950300004C
:1057300013020000F7B58CB00D46144607A90C986B
:10574000FFF730FD002812D1B64E0127002C0FD0F4
:105750000321684601701021818208A80246069044
:10576000204605A9FDF7AFFA00280BD007207BE5FE
:105770000821684601708581C68105218774C902A8
:1057800001820BE00798A178017121884180684669
:1057900005218774C90201828581C68102460121E3
:1057A000079B0C98FFF719FD5EE508B501236A46D3
:1057B00093709D4B13800A4602236946FFF77AFDDA
:1057C00008BD08B501236A469370974B5B1C138094
:1057D0000A4603236946FFF76DFD08BD00B587B093
:1057E00000290CD002236A4613700B8893814988E4
:1057F000D18100230421FFF7F0FC07B000BD102089
:10580000FBE710B5002903D00523FFF753FD10BDBA
:10581000072010BD70B588B00D461446064607A98E
:10582000FFF7C0FC00280DD1002C0DD006216846E2
:1058300001708581C481079B02465C800621304649
:10584000FFF7CBFC08B070BD05216846017085816B
:10585000F1E710B588B000290BD007246B461C7007
:105860009A81049100236A462146FFF7B6FC08B0EE
:1058700010BD1020FBE770B50024172288B0002966
:1058800014D00D782B0016F060FC062305051904D2
:105890001B231522D21E93B2CA88002A02D08E681A
:1058A000002E03D09A4203D90C20CBE71020C9E781
:1058B000042D05D08A88002A0AD101E00620C1E71C
:1058C000012D11D0022D05D0042D18D0052D23D087
:1058D0000720B7E709236A4613704B889381CB886A
:1058E000D381896804911DE00C236A4613704B88AC
:1058F0009381CB88D38189680824049112E00D2319
:105900006A4613704B8893818B88D381CB8813822E
:1059100089680924059105E00E236A4613704978C9
:1059200011730A2400232146FFF757FC8AE700B5CC
:1059300087B00F236A461370918100231946FFF741
:105940004CFC5AE7FEB50078089D1C4616460F46EB
:10595000012803D03549912016F0C9FAF889C00012
:105960000E30208030202880387B001FC0B201908C
:10597000002E1DD0F889B081002516E0E8008419BA
:10598000C0190090224641690E320198FDF775F961
:10599000002802D000202074E08100986D1C008A4D
:1059A00060820098ADB2408AA082B089A842E5D852
:1059B000FEBD70B514461425049A1D80372313804C
:1059C000002C0ED0CA89A2810022628200780828A9
:1059D00008D0092810D00A2819D01449144816F004
:1059E00086FA70BD087B0C2804D011480F490C388A
:1059F00016F07DFA012008E0087B0D2804D00C4841
:105A00000A49083816F073FA0420A07370BD087BA9
:105A10000E2804D006480549001F16F068FA052034
:105A2000F3E70000FFFF000002280000FC52000026
:105A3000BB02000010B5FE4B586019721A80C900F5
:105A400016F02AF910BD00210180704710B5002220
:105A5000D2430280032006F0F0FD10BD7047F0B580
:105A60000E460446017801208840F24999B008406A
:105A70000090616815460888EF4A904206D0009A67
:105A8000002A06D0EB4A521E104202D0012019B063
:105A9000F0BD009A10430880002D12D0002028701D
:105AA0002178EA1C0027681C01920B0016F04DFBC0
:105AB00010F30E16233A59616F3CB4B08AB8F2F174
:105AC000F0F320780B28EBD00420E0E702212970C6
:105AD000A1890170090A4170032097E0042129700F
:105AE000A1890170090A41700198E1890170090AD0
:105AF000417005208AE006212970A1890170090AF8
:105B000041700199E2890A70120A4A70218A017172
:105B1000090A4171A28AE81DA16916F05EF8A08AFF
:105B2000C01D73E0082129702178082901D11021B6
:105B30002970A1890170090A41700198E1890170F9
:105B4000090A41700520308020466A1D02A91030E4
:105B5000FDF7B9F800287DD169463088097A4018E8
:105B600054E00A212970A1890170090A41700320BB
:105B70000BE00C212970A1890170090A417001987C
:105B8000E1890170090A4170052030809CE0A089FC
:105B900084464000401C81B2308888425AD305298F
:105BA00058D30E202870002008E0236942009B5A39
:105BB000521953701B0A401C937080B26045F4D395
:105BC0003180B9E09A48417A002973D0491E417268
:105BD000217B4068C9004518A98828680822401818
:105BE0000838216915F0F9FF02216846017100218A
:105BF000417128680390A98868460181002101A8A5
:105C0000FFF78CFB0020A880002E00D0308093E0AE
:105C10002978802211432970297840221143297064
:105C200029788909890112312970A1890170090A2D
:105C30004170E289E81C216915F0CFFFE089C01CA2
:105C40003080287841063FD5C00975D001216846CB
:105C5000017200E02CE0002141723188091D818130
:105C60000495E189019808180590001D0690704878
:105C7000017A68460177002102A8FFF74FFB07462B
:105C800030880C303080022F06D0002F54D065E0D1
:105C90003DE033E01CE05EE065486946097F42680C
:105CA000CB00D218037A994202D29188002902D0FF
:105CB000042753E02FE0417A491C41721560308877
:105CC00090800020308049E06168A089888033E0BE
:105CD00029788909890116312970A1890170090A79
:105CE00041700198E1890170090A4170228A681D9A
:105CF000616915F072FF208A401D46E72878800907
:105D0000800118302870207B687002207EE7606870
:105D10000188090401D4052720E0C088A1898842B0
:105D200001D006271AE01E2028700120308060680C
:105D300001884904490C0180009800280ED03C4895
:105D400000220088A1688300032006F0D1FB61686F
:105D50002078887007E00020308003276068009971
:105D600002888A430280384691E6FFB59FB0289D9D
:105D70000E46002805D0172803D82A882E4B9A42B1
:105D800002D1072023B0F0BD3278530601D4D209E6
:105D900001D00820F6E700226B461A715A711446AA
:105DA0003278431E1D939BB2189303AB1A93970648
:105DB000CB1CBF0E1B93821E711C3B0016F0C5F955
:105DC000209011EE66EE74EEB0EED4EEEDEEECEE59
:105DD000EBEEEAEEE9EEEEEEE8EEE7EEE6EEE5EE0D
:105DE00090EE05287CD1042168460171A9780172E2
:105DF000F078B278010211436846418131794171EE
:105E000070788006800E0C282ED009DC801E0300DE
:105E100016F09BF90919661C662166246627660040
:105E200012282AD00ADC0E2821D01028DAD121E04D
:105E3000A8140020FF710000FFFF000016281FD0EB
:105E40001828CFD11FE02878800701E02878400784
:105E5000002845DA45E128780007F9E72878C006E8
:105E6000F6E728788006F3E728784006F0E72878F8
:105E70000006EDE72888C005EAE72888C004E7E7C0
:105E800028888004E4E728884004E1E72A7892071C
:105E900026D50328A6D105206A46107148780978CE
:105EA0000002084310811CE129784907F0D5062833
:105EB00016D3717890B2012902D0022992D101E063
:105EC000022100E01021189106216A46117100217B
:105ED000118102AF189AB11C0237921C1B921AE072
:105EE000B3E04A780B7812021A433A80801E891C6C
:105EF0001790BA1C1A911898FCF7BFFE1A991898B7
:105F0000189A091817986B46801A1A8980B2521C81
:105F10001A811B9ABF1D8242E3D9002886D1E0E096
:105F200028780007B4D51D98694682B20720087109
:105F300000200881701C0A3111E0437807781B02A9
:105F40003B430B80C37887781B023B434B806F46F3
:105F50003B89121F5B1C001D92B23B81091D042A64
:105F6000EBD2002A71D1BCE02978C9066DD5022890
:105F70006BD3082069460871002048817078087248
:105F8000844692B2B01C1A9919E089E090E07EE054
:105F900067E05BE030E025E019E013E0BCE0437827
:105FA00007781B023B430B80831C4B606346D21A6D
:105FB0006F467B8960445B1C92B27B8108319445BB
:105FC000EDD9CEE7287880063FD5092203E028786E
:105FD00040063AD50A2268460271AA880281189AB8
:105FE000428107E0287800062FD50B206A46107101
:105FF00018981081039174E02988C90525D50228D5
:1060000023D30C20694608710020488170780872FB
:10601000844692B2B01C1A9914E0437807781B02A8
:106020003B430B80C37887781B023B434B80031DA7
:106030004B606346D21A6F467B8960445B1C92B208
:106040007B8108319445E8D98BE763E02988C9044E
:1060500060D501285ED10D2168460171A9880181B2
:106060003FE02988890455D5052853D30E22694677
:106070000A71AA880A811B99401F4A78097812027E
:106080000A4369464A818881701D049029E0298865
:1060900049043FD501283DD10F206946087120E011
:1060A0002A88120436D44A780B7812021A43EA80FE
:1060B00003282FD332789206920E1B2A26D0112263
:1060C0006B461A712A880123DB031A432A804A7817
:1060D000097812020A4369460A81C01E48811B984A
:1060E000039030788006800E1B2809D01D2807D029
:1060F0000320229906F0A1FA2888C00BC00328804B
:1061000001A82199FFF70AF920463BE610226B46C9
:106110001A71DCE70724F7E70824F5E700B597B024
:10612000032806D16A461070019100216846FFF7E6
:10613000F5F817B000BD000010B58B78002B11D01A
:1061400082789A4207D10B88002B0BD003E08B7921
:10615000091D002B08D08B789A42F8D103880C884F
:10616000A342F4D1002010BD812010BD052826D007
:10617000002A02D0012A0DD102E00988090501E0B8
:1061800009888904890F07D0012918D0022909D06C
:1061900003290ED081207047002A01D003207047C8
:1061A0000220704703280AD0042808D0002804D011
:1061B00007E0042803D0022803D005207047002000
:1061C00070470F20704770B51388054614460B8042
:1061D00018061DD5FE481022807AA84203D8134322
:1061E0000B80002070BDA06893430078E840C00792
:1061F000C00E03430B802078A1788007800D0843F0
:10620000F44915F053FDA06869430818401C70BD9F
:10621000906870BD37B569468B88138019061BD509
:10622000EB4C0125A47A9168844209D8FE280FD14D
:10623000D80602D5A5406D1E00E000250D7007E0D0
:1062400085400C78DB06DB0FAC4383401C430C70AD
:1062500010881021884310803EBDF8B50746C81C41
:1062600080080E468000B04201D08620F8BD082A82
:1062700001D90E20F8BDD64D00202E60AF802881B8
:10628000AA723446E88016E0E988491CE980810654
:1062900010D48007A178800D0843CE4915F006FD83
:1062A000206800F0BAFA2989401880B22881381A8B
:1062B0008019A0600C3420884107E5D40020F8BD87
:1062C000FFB589B09F041646139DBF0C0193099832
:1062D00000F095FA04000AD02078000609D5BC48E1
:1062E000817A0A98814204D80E200DB0F0BD0120B9
:1062F000FBE7224669460A98FFF765FF06900020F3
:1063000069460872052D14D0012221462846FFF760
:106310002DFF0028E9D1207840060AD502216846E1
