:020000021000EC
:10C000000080002009C4010029830200191D0200DC
:10C010000000000000000000000000000000000020
:10C020000000000000000000000000002983020062
:10C0300000000000000000002983020029830200A4
:10C040002983020029830200298302002983020038
:10C0500029830200000000002983020029830200D6
:10C060002983020029830200298302002983020018
:10C070002983020029830200298302002983020008
:10C0800029830200F19A0200298302002983020019
:10C090005D9A0200A595020001BC020029830200FE
:10C0A0002983020029830200000000000000000034
:10C0B0000000000000000000000000000000000080
:10C0C000FFFFFFFFFFFFFFFFFFFFFFFFFFFFFFFF80
:10C0D000FFFFFFFFFFFFFFFFFFFFFFFFFFFFFFFF70
:10C0E000FFFFFFFFFFFFFFFFFFFFFFFFFFFFFFFF60
:04C400000000000038
:10C4080080B500AF1BF062F80B4A0C4B9A4207D07C
:10C418000B4B0949094A081C111C1A1C19F04EF942
:10C42800084B094A101C00211A1C19F064F91BF06A
:10C4380035F800F047F8FEE700280020C0CF0300D9
:10C448005C010000800D00005C290020F8B5C046A2
:10C45800F8BC08BC9E467047F8B5C046F8BC08BC96
:10C468009E46704710B5064C2378002B07D1054B24
:10C47800002B02D0044800E000BF0123237010BD48
:10C488005C29002000000000C0CF030008B5084B5D
:10C49800002B03D00748084900E000BF074803689D
:10C4A800002B00D108BD064B002BFBD09847F9E7BD
:10C4B80000000000C0CF0300602900205C29002094
:10C4C80000000000164B002B00D1144B9D46402263
:10C4D80092029A1A924600218B460F461348144A34
:10C4E800121A19F008F90F4B002B00D098470E4B81
:10C4F800002B00D098470020002104000D000D48B3
:10C50800002802D00C4819F000F819F083F8200030
:10C51800290006F05FF919F007F8C0460000080086
:10C528000080002000000000000000005C290020BE
:10C53800DC360020135503000000000008B5038A0C
:10C548000386012333228354013A8354002343632F
:10C55800383002492B3A19F0B1F808BD6876030063
:10C5680070B58AB03323C35C002B77D0151C041C2C
:10C57800101CFA2189001AF0F7FB002920D1E36A80
:10C58800002B02D1A36A002B1AD0354B1B68DB079E
:10C5980008D4344807F04CFF0122314B1A60324866
:10C5A80018F0B3FF314B0093314B0193A36A029308
:10C5B800E36A03932B4801212E4A492307F09AFE88
:10C5C8002623E35C002B2DD130E0A36A0133A3625C
:10C5D80005AA137801210B4066210B431370A1684B
:10C5E80015236B442E268E5D1E702F26895D59708B
:10C5F80017236B4432211970433159700223137287
:10C6080017336B44217C1970617C59700123537274
:10C618002533E35C013B5E425E410096002109231D
:10C6280005F00AFBE0684389052BCED9636B002B24
:10C6380014D09D4212D902F09DF80C4B00930E4B7A
:10C64800019301210B4A622307F054FEBFF34F8F79
:10C658000A4A0B4BDA60BFF34F8FFEE70AB070BD92
:10C66800C82C0020CC2C0020BDE10100B8760300C6
:10C67800C4760300A8760300E47603000400FA05F4
:10C6880000ED00E008B50EF0B3FD08BD10B5041CC0
:10C69800064B1A1C083202604C3343600EF0D2FE7F
:10C6A800201C0FF08BFF201C10BDC0461076030025
:10C6B80008B4024B9C46043808BC604795C6010084
:10C6C80010B5041C044B1A1C083202604C3343603A
:10C6D8000EF0B8FE201C10BD1076030008B4024B03
:10C6E8009C46043808BC6047C9C60100F0B583B051
:10C6F8004B7A002B6BD00191061C364B1B68002B24
:10C7080057D154200FF05EFF051C012707704770B2
:10C71800002400238470C8224260783A0281428152
:10C72800848196229200C281B93AFF3A02824282FB
:10C7380040218182FA214901C182C821C9000183AF
:10C74800082141838283203AC2837B3A02840532DE
:10C758004284214981842149C184FA2189000185C3
:10C768004185828524328754013200218154013267
:10C7780083542D3A42863132875401320321815441
:10C788000421013281540132835401328754013229
:10C7980083543A301249293A18F090FF4A23EC5250
:10C7A8000233EF5209220233EA520E4B2B65094B32
:10C7B8001D60084B1A683823D35C002B07D02E2342
:10C7C800F35C032B03D1301C019909F03BFA03B049
:10C7D800F0BDC04678290020B80B000010270000E3
:10C7E800FC75030019270000F0B54F464646C0B453
:10C7F80091B0051C1C1C18AB1E880096231C08F061
:10C80800E5FF237801229343662B32D16279A3791D
:10C818001B0213432A8A93422BD1237A012B08D176
:10C828006378A17809021943281C342209F0E0FB37
:10C838001FE0022B08D16378A17809021943281C4C
:10C84800342209F007FB14E0032B08D16378A178A0
:10C8580009021943281C342209F034FA09E0042B90
:10C8680007D16378A17809021943281C342209F0FA
:10C878008DFA237801229343682B00D08CE26279E9
:10C88800A3791B0213432A8A934200D084E2237AB5
:10C89800032B43D1984B1B68DB0708D4974807F054
:10C8A800C7FD0122944B1A60954818F02EFE637854
:10C8B800A67836021E432F8A637AA57A2D021D4375
:10C8C800E37A207B00021843637BA17B09021943AA
:10C8D800E27B237C1B0213431122A25691461222AB
:10C8E800A25690461322A25694461422A256854C6C
:10C8F80000940196029703950490059106934B4680
:10C90800079343460893634609930A927B4800219C
:10C918007D4AD0235B0007F053FD3DE2022B00D097
:10C9280002E1754B1B68DB0708D4744807F080FDEB
:10C938000122714B1A60724818F0E7FD6278A378FB
:10C948001B0213432A8A71490091019302926B4892
:10C9580000216D4AAA23FF3307F032FD664B1B689E
:10C96800DB0708D4654807F063FD0122624B1A60B3
:10C97800634818F0CAFD231C09331A7F5B7F64499A
:10C988000091019202935D4800215F4AD5235B0024
:10C9980007F016FD584B1B68DB0708D4574807F00B
:10C9A80047FD0122544B1A60554818F0AEFD231C70
:10C9B8000933997F627A5B781B021343554A0092C8
:10C9C800019102934D4800214F4AAC23FF3307F0F1
:10C9D800F7FC494B1B68DB0708D4484807F028FDDB
:10C9E8000122454B1A60464818F08FFD251CE37F4D
:10C9F8000935EE7D36021E43287E6A7E1202024306
:10CA0800AB7E1B0413431A1CEB7E1B061343424ADE
:10CA1800009201960293394800213B4AD6235B00D5
:10CA280007F0CEFC344B1B68DB0708D4334807F00B
:10CA3800FFFC0122304B1A60314818F066FD231CB8
:10CA4800227C9446677CA67CE57C207D617DA27D66
:10CA580009339B7B9946314B0093634601930297B8
:10CA6800039604950590069107924B460893234830
:10CA78000021254AAE23FF3307F0A2FC1E4B1B689A
:10CA8800DB0708D41D4807F0D3FC01221A4B1A60B3
:10CA98001B4818F03AFD271C0B37A67F657F207FBF
:10CAA800E17EA27E637E1E4C0094052401940297C9
:10CAB8000396049505900691079208930F48002164
:10CAC800114AD7235B0007F07BFC0B4B1B68DB0785
:10CAD80008D40A4807F0ACFC0122074B1A60084842
:10CAE80018F013FD0F4B009304480021064AB023A9
:10CAF800FF3307F065FC4FE1C82C0020CC2C002048
:10CB0800BDE101004477030028770300AC770300F8
:10CB1800DC770300F47703001C78030040780300F7
:10CB280074780300A4820300012B00D0ABE09D4B76
:10CB38001B68DB0708D49C4807F07AFC0122994B54
:10CB48001A609A4818F0E1FC6278A3781B02134334
:10CB58002A8A974900910193029293480021954AA5
:10CB6800B823FF3307F02CFC8E4B1B68DB0708D477
:10CB78008D4807F05DFC01228A4B1A608B4818F03B
:10CB8800C4FC231CE17B0933627A5B781B021343E4
:10CB98001B041B14884A00920191029382480021C9
:10CBA800844ADC235B0007F00BFC7E4B1B68DB0729
:10CBB80008D47D4807F03CFC01227A4B1A607B4878
:10CBC80018F0A3FC231C227C09335B799B079B0F7D
:10CBD8007A4900910192029373480021754ABA2359
:10CBE800FF3307F0EDFB6F4B1B68DB0708D46E487B
:10CBF80007F01EFC01226B4B1A606C4818F085FC8C
:10CC0800231CA17B8908E27A0933DB781B021343D2
:10CC18006B4A00920191029363480021654ADD2323
:10CC28005B0007F0CDFB5F4B1B68DB0708D45E4851
:10CC380007F0FEFB01225B4B1A605C4818F065FCAC
:10CC48000D23E3565F4A0092019357480021594A41
:10CC5800BC23FF3307F0B4FB524B1B68DB0708D437
:10CC6800514807F0E5FB01224E4B1A604F4818F077
:10CC78004CFC554B00934C4800214E4ADE235B0088
:10CC880007F09EFB88E0042B00D085E0454B1B682D
:10CC9800DB0708D4444807F0CBFB0122414B1A605C
:10CCA800424818F032FC6278A3781B0213432A8AA0
:10CCB80046490091019302923B4800213D4AC22314
:10CCC800FF3307F07DFB301C093803211AF056F8B2
:10CCD8000D900027012645E07D00ED19211C093142
:10CCE8004919362002AB9C466044022218F0E6FC43
:10CCF8006519ED7A002E15D12A4B1B68DB0708D47D
:10CD0800294807F095FB0122264B1A60274818F09E
:10CD1800FCFB2F4B009324480021264AE6235B00A6
:10CD280007F04EFB1F4B1B68DB0708D41E4807F0B3
:10CD38007FFB01221B4B1A601C4818F0E6FB3623C8
:10CD480002AA944663441B886DB2224A009201935A
:10CD5800029515480021174AE7235B0007F030FBCE
:10CD6800013700266B469B8EBB42B5DC0D4B1B681A
:10CD7800DB0708D40C4807F05BFB0122094B1A605B
:10CD88000A4818F0C2FB144B009307480021094ACF
:10CD9800E9235B0007F014FB11B00CBC90469946E0
:10CDA800F0BDC046C82C0020CC2C0020BDE10100FD
:10CDB800BC78030028770300E87803000C790300A7
:10CDC800347903005C790300A482030074790300BA
:10CDD800E4780300B0790300A477030038B50B8822
:10CDE8001A2B17D10C1CC068898804F0BBFB051CE2
:10CDF800A079E989013189B2E98140B2AB89C018CB
:10CE080080B2A881322905D919F028FF2874002397
:10CE1800EB81AB8138BDC04630B585B00B7A002BAD
:10CE280025D00C1C9D239B00C85A09F0A9F9051EA2
:10CE380003D0F1210F4A05F0FBF80F4B1B68DB0705
:10CE480008D40E4807F0F4FA01220B4B1A600C487C
:10CE580018F05BFBA37A0B4A00920B4A01920293EB
:10CE6800039506480121094AF32307F043FA05B060
:10CE780030BDC046F0760300C82C0020CC2C002022
:10CE8800BDE10100C8790300D479030028770300C5
:10CE9800F0B54F464646C0B48BB0061C0C1C171C98
:10CEA800081CD8490FF0FBFB00280CD071E02B1CA4
:10CEB80008339B00F268944663445968301C08F0B4
:10CEC800C1FE013500E00025CF4B1B68002B58D16F
:10CED80054200FF077FB041C0127077047700023CC
:10CEE8009846A370C8224260783A02814281A381A1
:10CEF80096229200C281B93AFF3A028242824021C8
:10CF08008182FA214901C182C821C900018308210F
:10CF180041838283203AC2837B3A02840532428469
:10CF2800BA498184BA49C184FA21890001854185B9
:10CF3800828524328754013200218154013283547E
:10CF48002D3A42863132875401320321815404211B
:10CF5800013281540132835401328754013283549F
:10CF68003A30AC49293A18F0A9FB4A234246E25222
:10CF78000233E75209220233E252A74B2365A24B40
:10CF88001C60A14B1A683623D35C9D428FDB0125B8
:10CF98008AE1201CA1490FF082FB00280CD071E027
:10CFA8002B1C08339B00F268944663445968301C74
:10CFB800FFF732FF013500E00025934B1B68002B7B
:10CFC80058D154200FF0FEFA041C0127077047704F
:10CFD80000239846A370C8224260783A02814281B1
:10CFE800A38196229200C281B93AFF3A0282428214
:10CFF80040218182FA214901C182C821C9000183E7
:10D00800082141838283203AC2837B3A0284053215
:10D0180042847E4981847E49C184FA218900018540
:10D02800418582852432875401320021815401329E
:10D0380083542D3A42863132875401320321815478
:10D048000421013281540132835401328754013260
:10D0580083543A306F49293A18F030FB4A23424644
:10D06800E2520233E75209220233E2526A4B236545
:10D07800654B1C60644B1A683623D35C9D428FDB7A
:10D08800012511E138687B681B1A072B09D9043080
:10D09800311C14310FF003FB002805D101239846F9
:10D0A80004E00023984601E0002398464346002BFD
:10D0B80000D186E0201C5A490FF0F1FA002800D070
:10D0C8007FE0386857490FF0EAFA002803D1B368BF
:10D0D800DB8D994605E03B68186818F01EFA83B2A4
:10D0E800994638687B681B1A9B10032B07D10830B8
:10D0F8004D490FF0D4FA002803D1454602E0002537
:10D1080000E00025002D0BD000230093019302932B
:10D118000393301C33214A4601330EF0CFFBC3E0A2
:10D1280038687B681B1A9B10032B06D108303F49CF
:10D138000FF0B5FA002800D14546002D0BD000238A
:10D148000093019302930393301C33214A46023320
:10D158000EF0B4FBA8E038687B681B1A9B10032B01
:10D1680006D1083032490FF09AFA002800D1454616
:10D17800002D0BD000230093019302930393301CDE
:10D1880033214A4603330EF099FB8DE038687B68FB
:10D198001B1A9B10032B06D1083026490FF07FFA83
:10D1A800002800D14546002D0BD0002300930193A1
:10D1B80002930393301C33214A4604330EF07EFB5E
:10D1C80072E004A8211C0FF0B0FB7B683A689D1A36
:10D1D800AD100023059306930793002D09D0164B35
:10D1E8009D4201D90FF00AFAA8000FF0EBF9041CD0
:10D1F80000E0002405940694AD00651907953D6884
:10D208007F6823E00C7A030078290020B80B00001F
:10D2180010270000FC75030019270000187A030086
:10D22800247A0300C8C803002C7A0300387A030064
:10D23800487A0300587A0300FFFFFF3F002C03D011
:10D24800201C291C0FF071FB04350434AF42F5D1C2
:10D258000694301C04A905AA0DF05CFE051C059C6B
:10D26800069E0DE020680C38124B984207D0836860
:10D278005A1E8260002B02DC09A90FF023FB04343C
:10D28800A642EFD10598002801D00FF097F904982D
:10D298000C38084B984207D083685A1E8260002BCE
:10D2A80002DC08A90FF00EFB281C0BB00CBC904642
:10D2B8009946F0BD9035002008B4024B9C460438CE
:10D2C80008BC604799CE010030B587B0041C0AA895
:10D2D80020C8008800950190201C0EF041FB1D4BD2
:10D2E8002360443363601C4B1B68DB0708D41B486E
:10D2F80007F09EF80122184B1A60194818F005F932
:10D3080003A8184904AA0FF041FB144803A906F022
:10D31800ABFF03980C38144B984207D083685A1E09
:10D328008260002B02DC05A90FF0CCFA231C3033F5
:10D3380023621423A38400232622A354A362E36256
:10D34800201CFFF7FBF8201C0DF0C6FF201C07B0BF
:10D3580030BDC046707A0300C82C0020CC2C0020B9
:10D36800BDE10100B8760300903500207047C04643
:10D3780008B4024B9C46043808BC604775D30100CA
:10D38800038AC38400222923C2540132013BC254B8
:10D398007047C0467047C04600B583B00B4B1B684A
:10D3A800DB0708D40A4807F043F80122074B1A6044
:10D3B800084818F0AAF8084B009305480121074AC5
:10D3C800922306F0FDFF03B000BDC046C82C002024
:10D3D800CC2C0020BDE10100E89A0300F57A030097
:10D3E80008B4024B9C46043808BC6047A1D301002E
:10D3F80000B583B00B4B1B68DB0708D40A4807F05D
:10D4080017F80122074B1A60084818F07EF8084BF5
:10D41800009305480121074A8B2306F0D1FF03B08A
:10D4280000BDC046C82C0020CC2C0020BDE1010066
:10D43800E4990300F57A030008B4024B9C460438CB
:10D4480008BC6047F9D3010000B583B00B4B1B68DB
:10D45800DB0708D40A4806F0EBFF0122074B1A60E5
:10D46800084818F052F8084B009305480121074A6C
:10D47800872306F0A5FF03B000BDC046C82C0020D6
:10D48800CC2C0020BDE10100047B0300F57A0300E9
:10D4980008B4024B9C46043808BC604751D40100CC
:10D4A80010B5041C064B1A1C083202604C3343604A
:10D4B8000DF0C8FF201C0FF081F8201C10BDC046DD
:10D4C800187D030008B4024B9C46043808BC60472A
:10D4D800A9D4010010B5041C044B1A1C08320260C0
:10D4E8004C3343600DF0AEFF201C10BD187D0300C7
:10D4F80008B4024B9C46043808BC6047DDD40100E0
:10D5080010B5041C064B1A1C083202604C334360E9
:10D518000DF098FF201C0FF051F8201C10BDC046DC
:10D52800687A030008B4024B9C46043808BC60477C
:10D5380009D5010010B5041C044B1A1C08320260FE
:10D548004C3343600DF07EFF201C10BD687A030049
:10D5580008B4024B9C46043808BC60473DD501001E
:10D56800F0B55F4656464D464446F0B485B0051CB6
:10D578001C1C0EAB1E880096231C08F027F9237884
:10D5880001229343662B00D091E0311C09398BB2FC
:10D598009B466279A3791B0213432A8A934200D0DF
:10D5A80085E0237A002B59D10022AD33A968CA54EB
:10D5B800002742E0381C08302018431C9C4643785A
:10D5C800DA069246624652785106890F090489465E
:10D5D800D106490F09028846494646463143920713
:10D5E800120F0A435906C90F49000A439B06DB0F6D
:10D5F80013435246560EE022D20090464644A022DB
:10D60800D205B35063465B78DB090BD04378DB0661
:10D61800DB0E01229A40131CA122D200A020C005D3
:10D62800835009E04378DB06DB0E01229A40131C85
:10D63800644AA020C00583500237BB45BADC637832
:10D64800A27812021A43E37900930023019302930C
:10D658000393281C34210EF031F928E0032B26D13E
:10D66800637A002B10D00022AD23A968CA54AB6896
:10D67800186907F097F8AB68586907F093F8AB6832
:10D68800986907F08FF803E00122AD23A968CA540E
:10D698006378A27812021A43E37900930023019376
:10D6A80002930393281C342103330EF007F92378DF
:10D6B80001229343682B7ED16279A3791B0213431D
:10D6C8002A8A934277D1237A002B38D13E4B1B68A4
:10D6D800DB0708D43D4806F0ABFE01223A4B1A603E
:10D6E8003B4817F012FF6378A17809021943627961
:10D6F800A3791B021343374A0092019102933348DE
:10D708000021354AFE2306F05BFE2F4B1B68DB0722
:10D7180008D42E4806F08CFE01222B4B1A602C48A8
:10D7280017F0F3FEE3792D4A009201930023029348
:10D7380026480021284AFF3306F042FE3BE0032B2F
:10D7480039D1214B1B68DB0708D4204806F070FE4E
:10D7580001221D4B1A601E4817F0D7FE6378A17886
:10D76800090219436279A3791B0213431C4A0092E8
:10D778000191029315480021174A0423FF3306F04C
:10D788001FFE114B1B68DB0708D4104806F050FE3B
:10D7980001220D4B1A600E4817F0B7FEE3790F4AC5
:10D7A8000092019300230293084800210A4A053396
:10D7B800FF3306F005FE05B03CBC90469946A246EC
:10D7C800AB46F0BD0C050000C82C0020CC2C002076
:10D7D800BDE10100587B0300487B0300947B0300F4
:10D7E800B47B0300F0B55F4656464D464446F0B458
:10D7F80093B004AF061C38610D1C141C10685368E4
:10D808001B1A072B08D90430311C14310EF047FFBE
:10D81800002803D1012602E0002600E00026002EA1
:10D8280000D1FAE0281CB6490EF039FF002800D0D4
:10D83800F3E02368181D396914310EF030FF002811
:10D8480000D051E12068AF490EF029FF002805D12A
:10D858003B699B687B61DB8DFB6005E0236818688A
:10D8680017F05BFE83B2FB60206863681B1A132BFA
:10D8780007D90830A4490EF012FF002804D17E61B0
:10D8880004E000237B6101E000237B617B69002BBE
:10D8980067D06B467B60216863685B1A9B10DA1E51
:10D8A800D2B25008B860D20707D5013B9B00C858D0
:10D8B80017F033FEC3B2994601E000239946BA68CF
:10D8C800924653000733DB08DB006A46D31A9D46AD
:10D8D80004AB98469B46002630E073005A46D5189C
:10D8E80003339B002268D05800210A2218F060FAFE
:10D8F8001F2318402B781F229343184320231843D3
:10D908004023184328706B781C3A93431932934389
:10D91800443293436B70B31CDB002268D0187B49F8
:10D928000EF0BDFE002801D1012300E00023DA013A
:10D938006B787F210B4013436B7001365645CCDB67
:10D94800BB685B004A46009242460192029300235C
:10D95800039338693321FA680DF0B0FF7B689D4660
:10D96800C4E0206863681B1A9B10032B06D108309B
:10D9780067490EF094FE002800D17E617B69002B78
:10D9880016D0636822689B1A172B04D9506917F0C0
:10D99800C4FDC0B200E00020009000230193029370
:10D9A800039338693321FA6801330DF087FF9DE04E
:10D9B800206863681B1A0F2B06D9083055490EF0EA
:10D9C8006EFE002800D17E617B69002B00D18DE0BE
:10D9D80020680C3050490EF062FE002801D1012366
:10D9E80000E00023FB77636822689B1A132B04D995
:10D9F800106917F092FDC0B200E0002000901F23CC
:10DA0800FB18019301230293002303933869332100
:10DA1800FA6803330DF052FF68E008231822BA1899
:10DA2800D018291C0EF081FF636822689B1A9E108B
:10DA380000237B62BB62FB62002E09D0374B9E42FB
:10DA480001D90EF0DBFDB0000EF0BCFD051C00E0B6
:10DA580000257D62BD62B300EB18FB62266864682E
:10DA680007E0002D03D0281C311C0EF05EFF0436A1
:10DA78000435B442F5D1BD62386908231822BA18B2
:10DA8800D11804331822BA18D2180DF043FA786165
:10DA98007C6ABE6A10E020680C38214B98420AD094
:10DAA80083685A1E8260002B05DC1C231822BA18D2
:10DAB800D1180EF007FF0434A642ECD1786A00288A
:10DAC80001D00EF07BFD386A0C38154B98420DD00A
:10DAD80083685A1E8260002B08DC18231822BA18A3
:10DAE800D1180EF0EFFE01E000237B617869BD4696
:10DAF8000FB03CBC90469946A246AB46F0BDC04626
:10DB0800247A0300C8C80300E87B0300F07B030005
:10DB1800F87B0300FC7B0300287A0300FFFFFF3F2C
:10DB28009035002008B4024B9C46043808BC604776
:10DB3800EDD7010008B50DF05BFB08BD30B583B02B
:10DB4800051C1C1C06AB1B880093231C07F03EFE1B
:10DB5800237801229343662B4BD16279A3791B0268
:10DB680013432A8A934244D1237A022B03D1EB6AC6
:10DB78000133EB623DE0002B1ED11F4B1B68DB0716
:10DB880008D41E4806F054FC01221B4B1A601C489E
:10DB980017F0BBFC1B4B00931B4B0193174801214B
:10DBA8001A4AD62306F0A6FB9423AA68D358184A23
:10DBB800944663446B631CE0012B1AD10E4B1B681F
:10DBC800DB0708D40D4806F033FC01220A4B1A6023
:10DBD8000B4817F09AFC0B4B00930E4B0193074828
:10DBE80001210A4ADE2306F085FBAA6800214823A2
:10DBF800D15203B030BDC046C82C0020CC2C002028
:10DC0800BDE10100B8760300007C0300A87603009C
:10DC180010270000207C0300F0B54F464646C0B4EC
:10DC28009DB0071C0C1C161C106853681B1A072B88
:10DC380008D90430391C14310EF031FD002803D105
:10DC4800012502E0002500E00025002D00D1AAE012
:10DC58003068A8490EF023FD002803D1BB68DB8D8E
:10DC6800984605E03368186817F057FC83B2984661
:10DC7800201CA1490EF013FD002800D093E0306865
:10DC880073681B1A0B2B07D908309C490EF007FD47
:10DC9800002804D1A94604E00023994601E00023A6
:10DCA80099464B46002B0BD0002300930193029317
:10DCB8000393381C332142460DF000FE4D4612E115
:10DCC800306808308E490EF0EAFC00280BD100239A
:10DCD8000093019302930393381C33214246013386
:10DCE8000DF0ECFDFFE03068083086490EF0D7FCF7
:10DCF800002858D12624385D0130032119F024F971
:10DD0800C9B23955002916D17F4B1B68DB0708D4E7
:10DD18007E4806F08DFB01227B4B1A607C4817F089
:10DD2800F4FB7C4B00937C4B0193784801217B4AA0
:10DD38009E2306F0DFFA2623FB5C012B16D1724BDB
:10DD48001B68DB0708D4714806F072FB01226E4B92
:10DD58001A606F4817F0D9FB6E4B0093704B019314
:10DD68006A4801216D4A9F2306F0C4FA2623FB5C0A
:10DD7800022B00D0B7E0644B1B68DB0708D463486C
:10DD880006F056FB0122604B1A60614817F0BDFB94
:10DD9800604B0093634B01935C4801215F4AA023C9
:10DDA80006F0A8FA9FE0201C5F490EF078FC0028D6
:10DDB80036D1554B1B68DB0708D4544806F038FBAE
:10DDC8000122514B1A60524817F09FFB391C303121
:10DDD8004E48142204AB05F045FF544B7B634A4B75
:10DDE8001B68DB0708D4494806F022FB0122464B92
:10DDF8001A60474817F089FB464B00934C4B019338
:10DE080004AB02931423039340480121434A9E33F1
:10DE180006F070FA3B68DB68381C9847012562E019
:10DE2800201C44490EF03BFC002805D13B681B69C7
:10DE3800381C9847012556E016A8211C0EF075FDE0
:10DE4800736832689D1AAD100023179318931993BD
:10DE5800002D09D0384B9D4201D90EF0CFFBA80008
:10DE68000EF0B0FB041C00E0002417941894AD00D9
:10DE7800651919953568766807E0002C03D0201CD1
:10DE8800291C0EF052FD04350434AE42F5D1189425
:10DE9800381C16A917AA0DF03DF8051C179C189EEA
:10DEA8000DE020680C38254B984207D083685A1E2D
:10DEB8008260002B02DC1BA90EF004FD0434A6428C
:10DEC800EFD11798002801D00EF078FB16980C387F
:10DED8001A4B984207D083685A1E8260002B02DCD6
:10DEE8001AA90EF0EFFC281C1DB00CBC90469946F0
:10DEF800F0BDC046C8C80300247A0300447C030070
:10DF08004C7C03006C7C0300C82C0020CC2C002027
:10DF1800BDE10100B8760300747C0300A876030015
:10DF2800847C0300A47C0300C87C0300E02E00006E
:10DF3800D47C0300EC7C0300FFFFFF3F90350020FA
:10DF480008B4024B9C46043808BC604721DC010039
:10DF580030B58BB0041C0AF04DFA201D0AF0FCFD08
:10DF6800454B236024336360444B1C600023E3600B
:10DF7800434B1B68DA8D434B1A60201C0AF040FAA9
:10DF8800414B1B68DB0708D4404806F051FA0122D0
:10DF98003D4B1A603E4817F0B8FA01A83D4902AA5D
:10DFA8000EF0F4FC394801A906F05EF901980C3826
:10DFB800394B984207D083685A1E8260002B02DCD6
:10DFC80007A90EF07FFC304B1B68DB0708D42F48ED
:10DFD80006F02EFA01222C4B1A602D4817F095FAFC
:10DFE80003A82E4904AA0EF0D1FC284803A906F07C
:10DFF8003BF903980C38284B984207D083685A1E7F
:10E008008260002B02DC08A90EF05CFC1E4B1B682A
:10E01800DB0708D41D4806F00BFA01221A4B1A60D8
:10E028001B4817F072FA05A81D4906AA0EF0AEFCA7
:10E03800164805A906F018F905980C38164B9842A9
:10E0480007D083685A1E8260002B02DC09A90EF0F3
:10E0580039FC144B1B68002B07D134200EF0B2FAA0
:10E06800051C01F007FF0F4B1D600E4B1B68A360DA
:10E07800201C0BB030BDC046908F030084290020BF
:10E088007C290020BC2B0020C82C0020CC2C002090
:10E09800BDE10100F87C030090350020047B0300FB
:10E0A800047D03008029002035DF704730B587B034
:10E0B800041C0AA820C8008800950190201C0DF0B7
:10E0C8004FFC1A4B1A1C083222604C336360184B01
:10E0D8001B68DB0708D4174806F0AAF90122144B7D
:10E0E8001A60154817F011FA03A8144904AA0EF08B
:10E0F8004DFC104803A906F0B7F803980C38104BEC
:10E10800984207D083685A1E8260002B02DC05A95A
:10E118000EF0D8FB231C263323620423A384201C7F
:10E128000DF0DAF8201C07B030BDC046187D03009A
:10E13800C82C0020CC2C0020BDE101000C7D030080
:10E14800903500207CDF70477ADF704778DF7047B2
:10E1580074DF704773DF704772DF704770B582B045
:10E16800061C031C114A04C344685D680DE020685E
:10E178000C380F4B984207D083685A1E8260002BD8
:10E1880002DC01A90EF09EFB0434A542EFD17068B1
:10E19800002801D00EF012FA301C0AF025F9301CC4
:10E1A8000EF00CFA301C02B070BDC04618A1030076
:10E1B8009035002030B583B0104B114A1A605C6866
:10E1C8009D680DE020680C380E4B984207D0836894
:10E1D8005A1E8260002B02DC01A90EF073FB043486
:10E1E800A542EFD1054B5868002801D00EF0E6F99A
:10E1F80002480AF0F9F803B030BDC046CC2C002024
:10E2080018A103009035002010B5074B1B68002BA0
:10E2180007D134200EF0D6F9041C01F02BFE024B76
:10E228001C60014B186810BD8029002070B584B0AF
:10E2380001A803780F229343012213430F221340AE
:10E24800102213430370CF490622FFF77BFF0028F3
:10E2580003D04521CC4A03F0EBFE8020FFF776FF80
:10E26800002803D04921C84A03F0E2FE00230293A4
:10E278000393C64B1B68002B57D154200EF0A2F90C
:10E28800041C012505704570002600238670C822ED
:10E298004260783A02814281868196229200C28148
:10E2A800B93AFF3A0282428240218182FA21490129
:10E2B800C182C821C9000183082141838283203A91
:10E2C800C2837B3A028405324284B1498184B149D0
:10E2D800C184FA21890001854185828524328554CB
:10E2E800013200218154013283542D3A4286313261
:10E2F80085540132032181540421013281540132B1
:10E30800835401328554013283543A30A249293A60
:10E3180017F0D4F94A23E6520233E55209220233B0
:10E32800E2529E4B2365994B1C60984B1B681989D8
:10E3380002AA1180002B57D154200EF043F9041C77
:10E34800012505704570002600238670C8224260AA
:10E35800783A02814281868196229200C281B93A36
:10E36800FF3A0282428240218182FA214901C18218
:10E37800C821C9000183082141838283203AC283CE
:10E388007B3A028405324284814981848149C1846F
:10E39800FA2189000185418582852432855401321C
:10E3A80000218154013283542D3A428631328554FA
:10E3B80001320321815404210132815401328354F2
:10E3C80001328554013283543A307349293A17F09F
:10E3D80075F94A23E6520233E55209220233E25222
:10E3E8006E4B2365694B1C60684B1B68598902AAF0
:10E3F8005180002B57D154200EF0E4F8041C01255D
:10E4080005704570002600238670C8224260783A5D
:10E4180002814281868196229200C281B93AFF3AEE
:10E428000282428240218182FA214901C182C821A7
:10E43800C9000183082141838283203AC2837B3A41
:10E44800028405324284524981845249C184FA21A6
:10E458008900018541858285243285540132002155
:10E468008154013283542D3A428631328554013227
:10E478000321815404210132815401328354013231
:10E488008554013283543A304349293A17F016F932
:10E498004A23E6520233E55209220233E2523F4B45
:10E4A80023653A4B1C60394B1B68998902AA9180F5
:10E4B800002B57D154200EF085F8041C0125057057
:10E4C8004570002600238670C8224260783A02818F
:10E4D8004281868196229200C281B93AFF3A02822D
:10E4E800428240218182FA214901C182C821C900A2
:10E4F8000183082141838283203AC2837B3A0284C4
:10E5080005324284224981842249C184FA21890042
:10E518000185418582852432855401320021815448
:10E52800013283542D3A4286313285540132032117
:10E5380081540421013281540132835401328554BB
:10E54800013283543A301449293A17F0B7F84A236C
:10E55800E6520233E55209220233E2520F4B236599
:10E568000A4B1C60094B1B6802A8DB89C380FFF7B4
:10E57800EBFD002803D05321034A03F059FD04B0F2
:10E5880070BDC046807D0300887D03007829002087
:10E59800B80B000010270000707D03001927000049
:10E5A80070B52E4B1B68002B54D154200EF00AF87E
:10E5B800041C01260670467000258570C823436038
:10E5C800783B03814381858196239B00C381B93BB6
:10E5D800FF3B0382438240228282FA225201C28296
:10E5E800C822D2000283082242838383203BC3834C
:10E5F8007B3B038405334384194A8284194AC284C5
:10E60800FA2292000285428583852433C654013359
:10E61800C5540133C5542D3B4386342286540132F8
:10E628008354313A3333C2540133C5540133C65489
:10E638000133C5543A300C490C3217F03FF84A23DD
:10E64800E5520233E65209220233E252074B2365B0
:10E65800024B1C60014B186870BDC0467829002029
:10E66800B80B000010270000707D03001927000078
:10E6780088DF704782DF704781DF704776DF704739
:10E6880070B582B0061C046845680DE020680C3837
:10E698000A4B984207D083685A1E8260002B02DC1E
:10E6A80001A90EF00FF90434A542EFD13068002813
:10E6B80001D00DF083FF301C02B070BD90350020F2
:10E6C80070B582B0061C031C0F4A04C344685D6819
:10E6D8000DE020680C380D4B984207D083685A1E0D
:10E6E8008260002B02DC01A90EF0ECF80434A5428C
:10E6F800EFD17068002801D00DF060FF301C09F0E0
:10E7080073FE301C02B070BD18A1030090350020C4
:10E7180000B583B00F4B1B68DB0708D40E4805F023
:10E7280087FE01220B4B1A600C4816F0EEFE0C4BCC
:10E7380000930C4B0193084801210B4AF22305F082
:10E74800D9FD0022094B1A800232094B1A7003B016
:10E7580000BDC046C82C0020CC2C0020BDE1010023
:10E76800207E0300247E0300057E0300B2290020DA
:10E77800E829002008B5074B1B68DB0708D40648C2
:10E7880005F056FE0122034B1A60044816F0BDFE40
:10E79800014808BDC82C0020CC2C0020BDE1010098
:10E7A800F0B583B0041C984B1B88984200D129E12E
:10E7B800002B20D0FFF7CCFC051E03D0CF21934AB5
:10E7C80003F036FC002D16D1914B1B68DB0708D4EB
:10E7D800904805F02DFE01228D4B1A608E4816F0E8
:10E7E80094FE8E4B00938E4B01938A4801218D4AEB
:10E7F800D12305F07FFD8023DB009C4261D18A4B49
:10E808001B68002B57D154200DF0DCFE051C012697
:10E8180006704670002700238770C8224260783A45
:10E8280002814281878196229200C281B93AFF3AD9
:10E838000282428240218182FA214901C182C82193
:10E84800C9000183082141838283203AC2837B3A2D
:10E85800028405324284754981847549C184FA214C
:10E868008900018541858285243286540132002140
:10E878008154013283542D3A428631328654013212
:10E88800032181540421013281540132835401321D
:10E898008654013283543A306649293A16F00EFFFD
:10E8A8004A23EF520233EE5209220233EA52624BF4
:10E8B8002B655D4B1D605C4B1B681A8A5F4B1A8287
:10E8C80064E0F0231B019C4260D1574B1B68002B6E
:10E8D80057D154200DF076FE051C012606704670AF
:10E8E800002700238770C8224260783A028142815B
:10E8F800878196229200C281B93AFF3A0282428207
:10E9080040218182FA214901C182C821C9000183BD
:10E91800082141838283203AC2837B3A02840532EC
:10E928004284424981844249C184FA21890001858F
:10E938004185828524328654013200218154013276
:10E9480083542D3A42863132865401320321815450
:10E958000421013281540132835401328654013238
:10E9680083543A303349293A16F0A8FE4A23EF5225
:10E978000233EE5209220233EA522F4B2B652A4BFF
:10E988001D60294B1B68DA8A2C4B1A822C4B1B788A
:10E99800002B11D02B4B19782B4800220023FFF7AE
:10E9A800DBFB051E03D0DD21184A03F041FB002DD7
:10E9B80002D10022224B1A70002C21D01F48FFF7E9
:10E9C800C9FB051E03D0E621104A03F031FB002DD8
:10E9D80016D10F4B1B68DB0708D40E4805F028FD3D
:10E9E80001220B4B1A600C4816F08FFD0B4B00935D
:10E9F800164B0193074801210A4AE82305F07AFCDF
:10EA0800014B1C8003B0F0BDB2290020D07D03006B
:10EA1800C82C0020CC2C0020BDE10100207E030082
:10EA28003C7E0300057E030078290020B80B000017
:10EA380010270000707D030019270000E829002036
:10EA4800B0290020E0290020B8290020507E0300CA
:10EA5800F0B589B0041C0D1C03AA117801230B40E2
:10EA68005E2149420B4313700D236B4400228C3105
:10EA7800415C19702F21415C59700F236B441A7047
:10EA88005A7029680B1C0C3B1A68002A03D0142AF8
:10EA980003D9012302E0012300E00023002B06D064
:10EAA800FFF768FE022105F0F5FD00201AE0D2B25A
:10EAB80003AE72711220684416F000FEFFF7A4FB43
:10EAC800012700970021321C142303F009F8296854
:10EAD8007279201C0BF0FCFCFFF74CFE002105F0BE
:10EAE800D9FD381C09B0F0BD38B5041C0D4B1A68A7
:10EAF80083880333137182880B4D281C08302168E2
:10EB080016F0DCFDA3880833DBB2002000212A1CA4
:10EB1800FFF722FB002803D0A821044A03F088FA53
:10EB280038BDC046B429002088290020D07D0300C4
:10EB380070B582B0061C0C1C002A1FD0394B1B78FC
:10EB4800002B1BD0384B1B68DB0708D4374805F06F
:10EB58006FFC0122344B1A60354816F0D6FC354B51
:10EB68000093354B019331480121344A802305F045
:10EB7800C1FB00222B4B1A70012524E0002A1FD16B
:10EB8800284B1B78022B1DD0274B1B68DB0708D4AA
:10EB9800264805F04DFC0122234B1A60244816F044
:10EBA800B4FC244B0093264B019320480121234AAF
:10EBB800862305F09FFB02221A4B1A70012502E0FA
:10EBC800002500E00025A3880B331E4A13701E4B56
:10EBD80018688672A3880733C3700B30A28821682F
:10EBE80016F06CFDA1880B31C9B218480022002329
:10EBF800FFF7B2FA041E03D09321154A03F018FA5E
:10EC0800002D07D0134B1D880020FFF7C9FD281CD5
:10EC1800FFF7C6FD002C02D001220F4B1A7002B07C
:10EC280070BDC046E8290020C82C0020CC2C00204C
:10EC3800BDE10100207E0300647E0300057E030021
:10EC48008C7E0300E0290020E4290020B829002058
:10EC5800D07D0300B2290020B02900200322014BF7
:10EC68001A707047E8290020F8B5041C0022B44B3C
:10EC78001A70B44B1A70B44B022119705A601A7288
:10EC8800DA60FF31FF3119825A82B04B1B68002BC2
:10EC980057D154200DF096FC051C012606704670CD
:10ECA800002700238770C8224260783A0281428197
:10ECB800878196229200C281B93AFF3A0282428243
:10ECC80040218182FA214901C182C821C9000183FA
:10ECD800082141838283203AC2837B3A0284053229
:10ECE80042849B4981849B49C184FA21890001851A
:10ECF80041858285243286540132002181540132B3
:10ED080083542D3A4286313286540132032181548C
:10ED18000421013281540132835401328654013274
:10ED280083543A308C49293A16F0C8FC4A23EF52EA
:10ED38000233EE5209220233EA52884B2B65834B89
:10ED48001D60824B196880482E23CB5C5A425A4179
:10ED5800037D0125AB4313430375002957D1542084
:10ED68000DF030FC051C01260670467000270023B4
:10ED78008770C8224260783A028142818781962250
:10ED88009200C281B93AFF3A0282428240218182CE
:10ED9800FA214901C182C821C900018308214183A0
:10EDA8008283203AC2837B3A0284053242846849CE
:10EDB80081846849C184FA21890001854185828559
:10EDC80024328654013200218154013283542D3A71
:10EDD80042863132865401320321815404210132A2
:10EDE80081540132835401328654013283543A30BB
:10EDF8005949293A16F062FC4A23EF520233EE527F
:10EE080009220233EA52554B2B65504B1D604F4B7C
:10EE180019684D482F23CB5C5A4253415A00037D51
:10EE28000225AB4313430375002957D154200DF035
:10EE3800C9FB051C01260670467000270023877051
:10EE4800C8224260783A02814281878196229200E4
:10EE5800C281B93AFF3A0282428240218182FA2174
:10EE68004901C182C821C9000183082141838283E5
:10EE7800203AC2837B3A0284053242843449818431
:10EE88003449C184FA21890001854185828524326B
:10EE98008654013200218154013283542D3A42862E
:10EEA80031328654013203218154042101328154C4
:10EEB8000132835401328654013283543A30264950
:10EEC800293A16F0FBFB4A23EF520233EE5209228D
:10EED8000233EA52214B2B651C4B1D601B4B1A68F1
:10EEE80019493023D35C5A4253419A000B7D0420C0
:10EEF800834313430B750022194B1A80194B1A4A86
:10EF0800136002221A70013A5A7005329A70F93267
:10EF18001A714D21597102219971F021D9711C8101
:10EF2800124B13490B6003211970053058703D309E
:10EF380098700730D87019715A710E4ADA80F8BD86
:10EF4800B0290020E0290020E829002078290020A5
:10EF5800B80B000010270000707D0300192700007F
:10EF6800B2290020B8290020E4290020882900209F
:10EF7800B42900204D0200007047C046F0B55F4636
:10EF880056464D464446F0B48DB0041C234B1B68CE
:10EF9800DB0708D4224805F04BFA01221F4B1A6000
:10EFA800204816F0B2FAE38D9C46A023E758023BAE
:10EFB800E35E98461C4B196808691C4A865AA123C7
:10EFC8009B00C05E81464869855AC05E8246886952
:10EFD800845AA346C05EC9698A5ACB5E1449009117
:10EFE800614601910297414603910496494605916D
:10EFF8000695514607915946089109900A920B9334
:10F00800074800210B4A0C4B05F0DAF90DB03CBC5F
:10F0180090469946A246AB46F0BDC046C82C002093
:10F02800CC2C0020BDE10100002A00207202000063
:10F03800087F0300FD7E030056040000F0B55F461C
:10F0480056464D464446F0B48BB083465E4B1B682B
:10F05800DB0708D45D4805F0EBF901225A4B1A602A
:10F068005B4816F052FA5B4B0093584800215A4A05
:10F078005A4B05F0A5F9002582E0A9B205F01AFE61
:10F08800041C514B1B68DB0708D4504805F0D0F925
:10F0980001224D4B1A604E4816F037FA238A9846DB
:10F0A800638AA78A3F041F431622A35E9C46227EDA
:10F0B8005007400FD208E37F2021615C0902194301
:10F0C800236A1B021B0C0826A657B146444E00961D
:10F0D8004646019602976646039604900592069165
:10F0E80007934B460893394800213B4A3D4B05F0AE
:10F0F80067F9E379002B15D1334B1B68DB0708D47C
:10F10800324805F095F901222F4B1A60304816F065
:10F11800FCF9354B00932D4800212F4A334B05F05D
:10F128004FF92CE0032B15D1274B1B68DB0708D4BC
:10F13800264805F07DF90122234B1A60244816F071
:10F14800E4F92B4B009321480021234A294B05F071
:10F1580037F914E01C4B1B68DB0708D41B4805F083
:10F1680067F90122184B1A60194816F0CEF9224B9C
:10F17800009316480021184A204B05F021F9013563
:10F188005B46D869038AAB4200DD76E70E4B1B6805
:10F19800DB0708D40D4805F04BF901220A4B1A6029
:10F1A8000B4816F0B2F9164B0093084800210A4A9A
:10F1B8008A23DB0005F004F90BB03CBC9046994665
:10F1C800A246AB46F0BDC046C82C0020CC2C00207F
:10F1D800BDE10100507F0300FD7E030042040000F2
:10F1E800647F030047040000C07F03004904000057
:10F1F800CC7F03004B040000D87F03004D040000BF
:10F20800E47F0300F0B58BB0041C874B1B68DB0759
:10F2180008D4864805F00CF90122834B1A6084480B
:10F2280016F073F9834B009380480021824A834B80
:10F2380005F0C6F87C4B1B68DB0708D47B4805F053
:10F24800F7F80122784B1A60794816F05EF9E18DDB
:10F25800A023E35802939E23E25EA38D7848009092
:10F2680001910392049371480021734A754B05F08C
:10F27800A7F86D4B1B68DB0708D46C4805F0D8F875
:10F288000122694B1A606A4816F03FF9A589802364
:10F298005B05186E596E4823E25A0233E35C6A4EE6
:10F2A8000096019502900391049205935F4800210E
:10F2B800614A8623DB0005F083F808A809F092FA72
:10F2C800594B1B68DB0708D4584805F0B1F80122F0
:10F2D800554B1A60564816F018F908AB9E795D79B7
:10F2E8001879D9789A785B783234584F0097019614
:10F2F8000295039004910592069307944B480021C8
:10F308004D4A534B05F05CF8474B1B68DB0708D4A4
:10F31800464805F08DF80122434B1A60444816F020
:10F32800F4F84C4C2368597B9A7B5B894A480090D7
:10F338000191029203933D4800213F4A474B05F053
:10F348003FF82368186900F039FF002508E0414BB1
:10F358001A682B1D9B00D318586800F02FFF013541
:10F368003F4B1B68002B57D154200DF02BF9041C80
:10F37800012606704670002700238770C822426065
:10F38800783A02814281878196229200C281B93AF5
:10F39800FF3A0282428240218182FA214901C182D8
:10F3A800C821C9000183082141838283203AC2838E
:10F3B8007B3A0284053242842A4981842A49C184DD
:10F3C800FA218900018541858285243286540132DB
:10F3D80000218154013283542D3A428631328654B9
:10F3E80001320321815404210132815401328354B2
:10F3F80001328654013283543A301C49293A16F0B6
:10F408005DF94A23E7520233E65209220233E252F7
:10F41800174B2365124B1C60114B1A683523D35CBC
:10F428009D4294DB0BB0F0BDC82C0020CC2C0020F2
:10F43800BDE10100E47F0300FD7E03002E0400000F
:10F44800F87F03002F0400003C8003008C80030039
:10F4580034040000002A0020C8800300370400009C
:10F4680078290020B80B000010270000B87E0300A0
:10F478001927000010B584B0C48D4823C35AE41876
:10F4880024040E4B1B68DB0708D40D4804F0D0FF9A
:10F4980001220A4B1A600B4816F037F80A4B009302
:10F4A8000A4B0193029406480121094A8523DB008F
:10F4B80004F020FF201C04B010BDC046C82C00205A
:10F4C800CC2C0020BDE1010000810300088103006D
:10F4D800FD7E0300F0B595B0051C0C1C161C081C1D
:10F4E800CE490DF0DCF8002803D109F079F90124A0
:10F4F800F9E2201CCA490DF0D2F8002804D10122F3
:10F50800C84B1A700124EEE2201CC7490DF0C7F859
:10F51800002814D10022C34B1A70C44B1B68DB07A8
:10F5280008D4C34804F084FF0122C04B1A60C148C4
:10F5380015F0EBFFBE4804F06DFB0124D3E2201C5C
:10F54800BD490DF0ACF8002804D1281CFFF75AFE7D
:10F558000124C8E2201CB9490DF0A1F8002804D103
:10F56800281CFFF76BFD0124BDE2201CB4490DF0F7
:10F5780096F8002804D1281CFFF700FD0124B2E208
:10F58800201CB0490DF08BF8002840D13068736812
:10F598001B1A9B100CD0AC490DF081F8002809D03B
:10F5A8003068AA490DF07BF8002805D1A84904E085
:10F5B800002102E0A74900E0002105AA13780120F4
:10F5C800034061380343137015236B448E30285C65
:10F5D80018702F20285C587017236B441970090A7B
:10F5E800597007235371063B93710233D371137219
:10F5F800736831685B1A9B10591E8B4196490868DD
:10F6080000930021142302F017FB01246BE2201C55
:10F6180092490DF044F8002827D105AA1378012152
:10F628000B4061390B43137017236B4400221A7087
:10F638005A7015236B442E32AA5C1A702F22AA5CCA
:10F648005A70002304E05A1D581C05A98854031C4D
:10F65800272BF8D9804B186801230093002105AAAD
:10F668002C3302F0E9FA01243DE2201C7C490DF01C
:10F6780016F800280ED14822AB5A0133AB52281C89
:10F68800FFF7F8FEA023E850281C00210AF02AFF03
:10F69800012428E2201C73490DF001F8002812D13A
:10F6A8003368186815F039FFC317420CDB0313439E
:10F6B800C0032A1C803210605360281C88300AF06E
:10F6C8000FFD01240FE2201C67490CF0E8FF002819
:10F6D8001DD104A80AF004FDFFF74CF82B1C803359
:10F6E8001A685B6805AC009404F0D6FAFFF742F894
:10F6F8008823EB5802935D4B00930194049B03937A
:10F7080000215B4A5B4B04F05BFE0124EBE1201C0B
:10F7180059490CF0C4FF00281AD105AA137801240E
:10F7280023403C210B43137015236B4400212E30DA
:10F73800285C18702F20285C587017236B441970A8
:10F748005970454B186800940D2302F075FACAE108
:10F75800201C4A490CF0A3FF002834D13068736894
:10F768001B1A9B1006D046490CF099FF002803D0BD
:10F77800002402E0012400E00124002C07D000222C
:10F788009C23EA54281C03210BF020F8ABE13068D5
:10F798003C490CF084FF002808D132229C23EA540B
:10F7A800281C04210BF012F801249CE1306836492A
:10F7B8000CF075FF002800D092E1281C09210BF0FD
:10F7C80005F801248FE1201C30490CF068FF00285F
:10F7D8000BD102F0F9FC291C2031083500953022A4
:10F7E800002305F069F801247DE1201C28490CF06C
:10F7F80056FF002805D1281C01210AF0C5FD012467
:10F8080071E1201C23490CF04AFF002844D1281C30
:10F8180000210AF0B9FD012465E1C046447C0300DB
:10F8280024810300E428002030810300C82C002034
:10F83800CC2C0020BDE10100307A03003C8103009C
:10F848004881030050810300588103006081030050
:10F858003175000019790000002A00206481030036
:10F868006C810300748103007C81030084810300A0
:10F87800FD7E0300C1040000B0810300BC810300C9
:10F88800F07B0300C8810300807C0300CC81030067
:10F898001C7A0300107A0300201C94490CF0FFFE28
:10F8A80000280ED101235B422B6202F08DFC291C3B
:10F8B8002031083500953022002304F0FDFF012493
:10F8C80011E1201C8A490CF0EAFE002809D1FEF754
:10F8D80067FE051CFEF764FE837801246340AB7065
:10F8E80001E1201C83490CF0DAFE002826D02AE02A
:10F8F8003368186814246C437F4BE4180734211CC0
:10F9080016F0AEF8002817D1FEF734FF7B4B0093B2
:10F91800019400217A4A7B4B04F052FD7A4B186817
:10F92800754A14210B1C6B43D1188988D3180B33E3
:10F938001A1C0E2301F0A8FD013500E00025092D51
:10F94800D6DD0124CFE0201C70490CF0A8FE002869
:10F9580013D1736832689B1A9B1000D1C2E01068FB
:10F9680015F0DBFD684B1A68C3B208339B00D31847
:10F97800586802F0DDFA0124B5E0201C64490CF057
:10F988008EFE002803D108F0CDFC0124ABE0201C3A
:10F9980060490CF084FE002813D1336818680021F0
:10F9A8000A2216F075F9584B1A6883B208339B007F
:10F9B800D3185A689D239B00D05A03F023FB0124D7
:10F9C80091E0201C54490CF06AFE002804D1022260
:10F9D8004A23EA54012486E0201C50490CF05FFEBB
:10F9E800002806D13368186815F097FDE8850124CA
:10F9F80079E0201C4A490CF052FE002819D173689E
:10FA080031685B1A9B100DD012A80CF08EFF281CD1
:10FA180012A9FFF71DF812980C3813A90CF08EFEE6
:10FA2800012460E0FEF7A6FE022104F033FE012463
:10FA380059E0201C3B490CF032FE00280ED1FEF79D
:10FA480099FEEB8D3235384A0092019302950021D8
:10FA58002B4A364B04F0B4FC012444E0201C344902
:10FA68000CF01DFE002807D1736832689B1A9B10A2
:10FA7800012B03D0002402E0002400E00124002C24
:10FA880031D030682B490CF00AFE002801D1E88DEE
:10FA980004E03368186815F040FD80B205AA1378B1
:10FAA8000126334064210B43137015236B44002156
:10FAB8002E27EF5D1F702F27ED5D5D7017236B44B8
:10FAC8001870000A587019236B441970597006236E
:10FAD80013720D4B18680096092302F0ADF802E086
:10FAE800012400E00124201C15B0F0BDD8810300DA
:10FAF800E8810300F08103001C280020F88103003E
:10FB0800FD7E030009050000002A0020188203007A
:10FB1800248203002C820300388203004082030001
:10FB28004C82030060820300708203003E050000DF
:10FB3800A8820300C8C80300F0B557464E4645469C
:10FB4800E0B482B0041C8C23C152942283585B1801
:10FB580083509023C258511AC15068460AF0C0FA1F
:10FB68008823E158009801AA0AF0B4FA211C8031D0
:10FB7800019A00230D684E68521973410A604B6060
:10FB8800201C88300AF0ACFA7923E15C002906D001
:10FB98001733E358002B02DC201C0AF017FEAD23B4
:10FBA800E35C012B00D046E1A64B1A6817697B7A03
:10FBB800002B01D0012100E000215569687A002856
:10FBC80001D0012300E00023C9189069437A002B73
:10FBD80001D0012300E00023CB18DBB2D1694A7AB7
:10FBE800002A01D0012600E000269B19DEB23B7AEC
:10FBF800002B01D0012700E000272A7A002A01D033
:10FC0800012300E00023FB18027A002A01D0012218
:10FC180000E000229B18DBB20A7A002A01D00122F8
:10FC280000E000229B18DBB29846AC23E55C6D0827
:10FC3800854B1B68002B5DD154200CF0C3FC071CBE
:10FC4800012399460370437000239A46BB70C8226B
:10FC58004260783A02814281BB8196229200C28139
:10FC6800B93AFF3A0282428240218182FA2149014F
:10FC7800C182C821C9000183082141838283203AB7
:10FC8800C2837B3A02840532428470498184704978
:10FC9800C184FA218900018541858285243249463B
:10FCA8008154013200218154013283542D3A428615
:10FCB80031324946815401320321815404210132F1
:10FCC80081540132835401324946815401328354AC
:10FCD8003A306049293A15F0F1FC4A235246FA5263
:10FCE80002334A46FA5209220233FA525A4B3B650A
:10FCF800554B1F60544B1A683623D35C9D422FD254
:10FD0800AC23E35CDB0722D44E4B1A682B1C083368
:10FD18009B00D3185B685B7A002B02D0A06904F0C3
:10FD280041FD484B1B680835AD005D196B685A7A70
:10FD3800002A05D11B7A002B02D0606904F032FD3D
:10FD4800434633430CD1206904F02CFD08E02069B8
:10FD580004F012FD606904F00FFDA06904F00CFDC9
:10FD6800AC23E65C0136384B1B68002B58D1542075
:10FD78000CF028FC051C01270770477000239846E3
:10FD8800AB70C8224260783A02814281AB819622E8
:10FD98009200C281B93AFF3A0282428240218182AE
:10FDA800FA214901C182C821C90001830821418380
:10FDB8008283203AC2837B3A0284053242842349F3
:10FDC80081842349C184FA2189000185418582857E
:10FDD80024328754013200218154013283542D3A50
:10FDE8004286313287540132032181540421013281
:10FDF80081540132835401328754013283543A309A
:10FE08001449293A15F05AFC4A234246EA52023369
:10FE1800EF5209220233EA520F4B2B650A4B1D6041
:10FE2800094B1A683623D15C02314900301C17F09F
:10FE38008BF8AC23E15402B01CBC90469946A2460C
:10FE4800F0BDC046002A002078290020B80B000029
:10FE580010270000B87E03001927000010B5041C05
:10FE680009210AF0B3FC201C01210AF08DFA10BD0B
:10FE780062DF7047F0B5474680B482B0041C0025A5
:10FE88004560FEF7D3F902F0A9FF012323726581CB
:10FE98002560B84B1B68002B57D154200CF092FBFF
:10FEA800051C012606704670002700238770C822AB
:10FEB8004260783A02814281878196229200C2810B
:10FEC800B93AFF3A0282428240218182FA214901ED
:10FED800C182C821C9000183082141838283203A55
:10FEE800C2837B3A028405324284A3498184A349B0
:10FEF800C184FA218900018541858285243286548E
:10FF0800013200218154013283542D3A4286313224
:10FF18008654013203218154042101328154013273
:10FF2800835401328654013283543A309449293A31
:10FF380015F0C4FB4A23EF520233EE520922023372
:10FF4800EA52904B2B658B4B1D608A4B1B68352200
:10FF58009A5CA273002B57D154200CF033FB051C7C
:10FF6800012606704670002700238770C822426069
:10FF7800783A02814281878196229200C281B93AF9
:10FF8800FF3A0282428240218182FA214901C182DC
:10FF9800C821C9000183082141838283203AC28392
:10FFA8007B3A028405324284734981847349C1844F
:10FFB800FA218900018541858285243286540132DF
:10FFC80000218154013283542D3A428631328654BD
:10FFD80001320321815404210132815401328354B6
:10FFE80001328654013283543A306549293A15F072
:08FFF80065FB4A23EF520233BE
:020000022000DC
:10000000EE5209220233EA52604B2B655B4B1D60B6
:100010005A4B1A683423D35C6373201C0C30FFF7EF
:100020002BFF002803D04121594A02F005F8594B13
:100030001E68A32080000CF0C9FA051C0023009361
:100040000021221C331C01F0C9FF656225610125D6
:1000500017E0504B1F68A32080000CF0B7FA061C75
:10006000E9B201230093221C3B1C01F0B7FFEB1CFB
:100070009B00E3185E602B1C08339B00E3185E6056
:1000800001353E4B1B68002B58D154200CF09EFAD2
:10009000061C01270770477000239846B370C822DA
:1000A0004260783A02814281B38196229200C281F5
:1000B000B93AFF3A0282428240218182FA21490103
:1000C000C182C821C9000183082141838283203A6B
:1000D000C2837B3A028405324284294981842949BA
:1000E000C184FA21890001854185828524328754A3
:1000F000013200218154013283542D3A428631323B
:100100008754013203218154042101328154013288
:10011000835401328754013283543A301A49293AC0
:1001200015F0D0FA4A234246F2520233F75209221E
:100130000233F252154B3365104B1E600F4B1A6899
:100140003523D35C9D4284DD134802F0B9FF134888
:1001500002F0C2FF124802F0B9FF124802F0C2FFDB
:10016000114802F039FE114802F030FE104802F04A
:1001700027FE201C02B004BC9046F0BD7829002068
:10018000B80B000010270000B482030019270000FC
:10019000C48203007C29002081190200B50F0200EF
:1001A000411A0200790F02008D160200ED190200BB
:1001B00045930200037A002B01D0007C00E0002070
:1001C00040B27047F0B557464E464546E0B48CB055
:1001D000041CC37A002B01D1234D00E0234D244B96
:1001E0001B68DB0708D4234804F026F90122204BC2
:1001F0001A60214815F08DF9204BE35A9946637A2D
:100200009846A0239B00E3589C46A1239B00E75EF1
:100210001B4BE65ED2235B00E3585A681969891AC2
:100220005869821A1B8B9A46A07C637C154C0094FB
:1002300001954C4602944446039464460494059701
:10024000069607910892524609920A900B93094824
:1002500000210D4AD423FF3304F0B6F80CB01CBCC7
:1002600090469946A246F0BD108303001883030010
:10027000C82C0020CC2C0020BDE10100720200003F
:10028000860200006483030055830300F0B587B045
:10029000041C8D79144B1B68DB0708D4134804F049
:1002A000CBF80122104B1A60114815F032F9114BAE
:1002B000E75AA67A281C03F035FE0F4B00930F4B2C
:1002C00001930297039604950590084801210C4A72
:1002D000AE2304F013F80022A1239B00E252201C5D
:1002E00001F032FE07B0F0BDC82C0020CC2C00205D
:1002F000BDE1010072020000047B0300CC83030017
:100300005583030030B58BB0041C437A002B19D001
:100310004D4B1B68DB0708D44C4804F08DF80122D4
:10032000494B1A604A4815F0F4F8A37A494A0092FA
:10033000494A0192029345480121484A7E2303F02D
:10034000DDFF7EE0404B1B68DB0708D43F4804F02C
:1003500073F801223C4B1A603D4815F0DAF83D4B2A
:1003600000933F4B0193394801213C4A832303F01A
:10037000C5FF06A90B7801221340282213430B70F6
:10038000236819226A442E21595C11702F21595C6F
:1003900051701B226A4431211170443151701D2269
:1003A0006A442B31595C1170191CA0314878507087
:1003B00088789070C978D17021226A449E21595C56
:1003C00011709E335B78537002F0F4FC23236B446E
:1003D0001870000A58706068211C08F00BFA252379
:1003E0006B4480B21870000A5870174B1B68DB070B
:1003F00008D4164804F020F80122134B1A60144860
:1004000015F087F8A17A06AD079B1B0A2A7A120617
:100410001A43089B1B021B140E48009011480190C0
:10042000029103920493094801210C4A962303F098
:1004300065FF012300936068211C2A1C0E3301F024
:10044000EFFB0BB030BDC046C82C0020CC2C0020E8
:10045000BDE10100F87C0300F8830300558303002D
:100460002484030054840300F0B5474680B48EB062
:10047000051C0E1C4C680F898B789846DF4B1B6857
:10048000DB0708D4DE4803F0D7FF0122DB4B1A60FC
:10049000DC4815F03EF823785B08DB4A0092DB4A23
:1004A000019202930397D6480121D94AC42303F04D
:1004B00025FFE27823791B0213432A68D18D8B42F2
:1004C00042D0D4498B423FD0D3498B4203D14A21F9
:1004D000525C022A38D0D04A93420DD1686800217C
:1004E00008F08EFA011E2FD0434600936868221C44
:1004F0003B1C01F095FB27E02378012293432E2B30
:100500000BD1E27B237C1B0213431AB2002A04DBCB
:1005100001339BB2E3731B0A23746278A3781B0236
:100520001343BE4A9A1892B2BD498A4204D8013B8D
:100530009BB263701B0AA370434600936868291C32
:10054000221C3B1C01F0D0FA237801229343282B74
:1005500000D098E10F2F00D07CE1E27A237B1B02D0
:100560001343B04AAB52A54B1B68DB0708D4A44821
:1005700003F062FF0122A14B1A60A24814F0C9FFE8
:10058000A94B0093A94B01939D480121A04A8323C5
:100590005B0003F0B3FE994B1B68DB0708D4984857
:1005A00003F04AFF0122954B1A60964814F0B1FF00
:1005B0006378A67836021E436179A3791B020B4348
:1005C0001A1CE0790004031C1343207A0006184328
:1005D000637AA17A0902194309040914627BA37B97
:1005E0001B0213431B041B148F4A0092904A019272
:1005F000029603900491059381480121844A0A23BD
:10060000FF3303F07BFE6079A27912020243E379A3
:100610001B0413431A1C237A1B0613432968A022C8
:10062000885883421DD1754B1B68DB0708D474487A
:1006300003F002FF0122714B1A60724814F069FF47
:10064000AB7A794A00927B4A019202936C4801216D
:100650006F4A87235B0003F051FE281C01F06CFCFD
:10066000E9E3667AA27A120232439E26895B17B2C8
:100670000EB2B74202DB21D183421FD25F4B1B680F
:10068000DB0708D45E4803F0D7FE01225B4B1A60FB
:100690005C4814F03EFF644B0093674B019358484D
:1006A00001215B4A1623FF3303F028FEEB7A002B6F
:1006B00000D0C0E3281CFFF725FEBCE34F4B1B68AE
:1006C000DB0708D44E4803F0B7FE01224B4B1A60FB
:1006D0004C4814F01EFF544B0093584B019348486C
:1006E00001214B4A8F235B0003F008FE6868291C38
:1006F00000F042FE6278A3781B021343504AAB52CB
:10070000627BA37B1B0213431AB2002A02DB013374
:100710009BB200E04B4B4C4AAB52384B1B68DB079B
:1007200008D4374803F088FE0122344B1A6035485C
:1007300014F0EFFE9E232A68D25EA1239B00EB5E9D
:1007400001333949009141490191029203932C48A8
:1007500001212F4A2A23FF3303F0D0FD09AC23786F
:10076000012213402A22134323702A6825236B4455
:100770002E21515C19702F21525C5A7027236B4433
:100780002F4AAA5C1A702E4AAA1852785A706868C2
:10079000291C08F02FF829236B4480B21870000A36
:1007A00058700023E371154B1B68DB0708D414480D
:1007B00003F042FE0122114B1A60124814F0A9FE08
:1007C00009ACE378227912021A430A9B1B021B141C
:1007D000154900911E490191029203930848012195
:1007E0000B4A3C23FF3303F089FD01230093686823
:1007F000291C221C073301F013FA1CE3C82C00202B
:10080000CC2C0020BDE1010088840300908403000B
:10081000558303003175000019790000CF8AFFFF6E
:10082000167900007E020000F87C03002484030097
:10083000B0840300F084030038850300448503007E
:1008400072020000FFFF00008602000054850300D2
:1008500078850300E44B1B68DB0708D4E34803F00A
:10086000EBFD0122E04B1A60E14814F052FEE14B2F
:100870000093E14B0193DD480121E04AA4235B0092
:1008800003F03CFDD7E22A2B00D0EEE1082F00D088
:10089000D2E1D54B1B68DB0708D4D44803F0CCFD6C
:1008A0000122D14B1A60D24814F033FE6378A1784C
:1008B000090219436279A3791B0213431B041B1419
:1008C000CF4A0092CF4A019202910393C748012177
:1008D000CA4A5423FF3303F011FD29689E228B5A24
:1008E00001338B526279A3791B0213431AB2002A97
:1008F00002DB01339BB200E0C34BC44AAB52BA4B9C
:100900001B68DB0708D4B94803F096FD0122B64BFB
:100910001A60B74814F0FDFD9E232A68D35E5A1E64
:10092000B7490091BA49019102920393AF4801215E
:10093000B24AAD235B0003F0E1FC2B68A020A022AB
:1009400092001958A9506178A27812020A43B1495D
:100950006A5212316A5A01326A5201266E7209AC29
:10096000227801210A402E210A43227025226A445E
:100970002E21595C11702F21595C517027226A4435
:1009800000211170517031226A440121117000213F
:10099000517029226A44195C1170A0335978517042
:1009A00099789170DB78D3702D236B4400221A70F4
:1009B0005A709A70DA708C4B1B68334208D18B489E
:1009C00003F03AFD0122884B1A60894814F0A1FD1A
:1009D0008B4B0093904B019384480121874A6E23EF
:1009E000FF3303F08BFC002621E06868331C0833DA
:1009F0009B00C3185968A94218D04B7A002B15D018
:100A000007F0F8FE33236B4480B21870000A587068
:100A1000331C08339B006A68944663445968012379
:100A20000093686809AA103301F0FAF801367B4B8D
:100A30001B68002B58D154200BF0C8FD041C012763
:100A40000770477000239846A370C8224260783A26
:100A500002814281A38196229200C281B93AFF3A73
:100A60000282428240218182FA214901C182C82149
:100A7000C9000183082141838283203AC2837B3AE3
:100A8000028405324284664981846649C184FA2120
:100A900089000185418582852432875401320021F5
:100AA0008154013283542D3A4286313287540132C7
:100AB00003218154042101328154013283540132D3
:100AC0008754013283543A305749293A14F0FAFDD9
:100AD0004A234246E2520233E75209220233E252EB
:100AE000524B23654D4B1C604C4B1A683623D35C2C
:100AF0009E4200DA79E706A90B78012213402C22E6
:100B000013430B702B6819226A442E21595C117013
:100B10002F21595C51701B226A443E49695C117057
:100B20003C496918497851701D226A44A021595CDA
:100B30001170191CA0314878507088789070C9786D
:100B4000D17021226A449E21595C11709E335B78DA
:100B50005370254B1B68DB0708D4244803F06CFC5A
:100B60000122214B1A60224814F0D3FC294BE95A88
:100B70002B68A0229A589E201B5E214800902C488A
:100B80000190029103920493184801211B4AC0234B
:100B90005B0003F0B3FB012400946868291C06AADB
:100BA0000B2301F03DF82868002109F09FFC0E4B53
:100BB0001B68234208D10D4803F03EFC01220A4B7A
:100BC0001A600B4814F0A5FC0D4B0093194B0193D0
:100BD00006480121094AC4235B0003F08FFB286803
:100BE000291C06F00BFA26E1C82C0020CC2C002092
:100BF000BDE10100888403009C8503005583030048
:100C0000F87C0300BC850300FFFF000086020000A3
:100C10005485030072020000E0850300782900205B
:100C2000B80B000010270000B48203001927000051
:100C30001C86030050860300814B1B68DB0708D429
:100C4000804803F0F9FB01227D4B1A607E4814F0C6
:100C500060FC7E4B00937E4B01937A4801217D4AD4
:100C6000C8235B0003F04AFBE5E02C2B00D0C5E075
:100C70000B2F00D0A9E0724B1B68DB0708D471482A
:100C800003F0DAFB01226E4B1A606F4814F041FC4E
:100C90006378A67836021E436079A3791B0203436A
:100CA0001A1CE17909040B1C1343217A0906194324
:100CB000627AA37A1B0213431B041B14664A009238
:100CC000664A01920296039104935E480121614AAB
:100CD000CE235B0003F012FB594B1B68DB0708D4E3
:100CE000584803F0A9FB0122554B1A60564814F0EE
:100CF00010FC9E262B68995F627AA37A1B0213432D
:100D00001B041B14544A0092554A0192029103930A
:100D10004C4801214F4ACF235B0003F0EFFA607982
:100D2000A27912020243E3791B0413431A1C237AAB
:100D30001B061343A0229200AB50A1218900627AC6
:100D4000A37A1B0213431B041B146A5AD318013BDA
:100D50006B526079A27912020243E3791B041343B8
:100D60001A1C237A1B061343A02229688B502A6879
:100D7000617AA37A1B020B431B041B14915BCB18F3
:100D8000013B935301246C722868002109F0AEFBEB
:100D90002B4B1B68234208D12A4803F04DFB01224C
:100DA000274B1A60284814F0B4FB2B4B00932D4BB3
:100DB000019324480121274AAE23FF3303F09EFA12
:100DC0002868291C06F01AF935E01D4B1B68DB0763
:100DD00008D41C4803F030FB0122194B1A601A4852
:100DE00014F097FB194B00931F4B019315480121F9
:100DF000184AB623FF3303F081FA1CE0E278237926
:100E00001B0213432A68D18D8B420ED0002B0CD0CD
:100E10001649591889B21648814206D915498B429C
:100E200009D14A23D35C022B05D16B68586803684B
:100E30005B69311C98470EB004BC9046F0BDC046BB
:100E4000C82C0020CC2C0020BDE1010088840300C8
:100E50007C86030055830300F87C03009086030022
:100E60005485030050860300C4860300D08AFFFF28
:100E7000E703000019790000F0B5474680B4061C6E
:100E8000002507E02B1D9B00F3185868037A002B00
:100E900064D00135334B1B68002B58D154200BF024
:100EA00095FB041C01270770477000239846A37028
:100EB000C8224260783A02814281A3819622920040
:100EC000C281B93AFF3A0282428240218182FA21EC
:100ED0004901C182C821C90001830821418382835D
:100EE000203AC2837B3A0284053242841E498184BF
:100EF0001E49C184FA2189000185418582852432F9
:100F00008754013200218154013283542D3A4286A4
:100F1000313287540132032181540421013281543A
:100F20000132835401328754013283543A301049DC
:100F3000293A14F0C7FB4A234246E2520233E752F1
:100F400009220233E2520B4B2365064B1C60054B12
:100F50001A683523D35C9D4294DB002004BC904684
:100F6000F0BDC04678290020B80B00001027000013
:100F7000D88603001927000038B5041C0C4B1B68E9
:100F8000002B07D134200BF021FB051CFEF776FF68
:100F9000074B1D60064B1B6800221A609A7B0132CA
:100FA0009A73586803681B69211C984738BDC0466E
:100FB00080290020F0B54F464646C0B483B0051CDA
:100FC000A34B1B68DB0708D4A24803F035FA0122C3
:100FD0009F4B1A60A04814F09CFAA04B0093A04BC2
:100FE00001939C4801219F4A81235B0003F086F90D
:100FF0009D4B1A687823D35C062B17D1944B1B6842
:10100000DB0708D4934803F017FA0122904B1A60CB
:10101000914814F07EFA954B0093954B01938D48BF
:101020000121904A0A23FF3303F068F9914B1B68B2
:10103000002B07D134200BF0C9FA041CFEF71EFF69
:101040008C4B1C608B4B1C682B7D012B77D1266948
:10105000637B013B6373301C291C00F017FF606841
:101060000368DB68291C9847834B1B68002B58D109
:1010700054200BF0ABFA051C0127077047700023C2
:101080009846AB70C8224260783A02814281AB81B7
:1010900096229200C281B93AFF3A028242824021EE
:1010A0008182FA214901C182C821C9000183082136
:1010B00041838283203AC2837B3A02840532428490
:1010C0006E4981846E49C184FA2189000185418578
:1010D00082852432875401320021815401328354A5
:1010E0002D3A428631328754013203218154042142
:1010F00001328154013283540132875401328354C6
:101100003A306049293A14F0DDFA4A234246EA525D
:101110000233EF5209220233EA525B4B2B65564BE6
:101120001D60554B1A683923D35C002B00D087E033
:10113000237A002B00D083E00133737280E0022B0E
:101140007ED12768381C291C00F0A0FE6068036867
:10115000DB68291C9847484B1B68002B5DD1542045
:101160000BF034FA061C01239846037043700023E9
:101170009946B370C8224260783A02814281B381B5
:1011800096229200C281B93AFF3A028242824021FD
:101190008182FA214901C182C821C9000183082145
:1011A00041838283203AC2837B3A0284053242849F
:1011B000324981843249C184FA21890001854185FF
:1011C000828524324146815401320021815401320A
:1011D00083542D3A428631324146815401320321F3
:1011E0008154042101328154013283540132414639
:1011F0008154013283543A302249293A14F062FA78
:101200004A234A46F25202334246F252092202333C
:10121000F2521D4B3365184B1E60174B1A68392369
:10122000D35C002B03D0A88801F0F0FE08E0237AFD
:10123000002B03D0381CFFF765F801E001237B7217
:101240000023236003B00CBC90469946F0BDC04615
:10125000C82C0020CC2C0020BDE10100E886030052
:10126000EC860300F98203007C290020349F0300F0
:10127000008703008029002078290020B80B000097
:1012800010270000D886030019270000F0B5474654
:1012900080B4B8B0071C0E1C151C1C1C3EAB1B7880
:1012A00098462D4B1B68DB0708D42C4803F0C4F884
:1012B0000122294B1A602A4814F02BF92748291CCF
:1012C000221C06AB02F0D2FC234B1B68DB0708D4C0
:1012D000224803F0B1F801221F4B1A60204814F095
:1012E00018F9B27A2B781F4900911F490191029297
:1012F0000394049306AB0593184801211B4A9B23D2
:1013000002F0FCFFD2235B00F058E2B2291C4346F6
:1013100003F082FD002803D07B8901337B8116E036
:101320000D4B1B68DB0708D40C4803F085F801223D
:10133000094B1A600A4814F0ECF80D4B00930D4B62
:10134000019306480121094AA52302F0D7FF38B0CE
:1013500004BC9046F0BDC046C82C0020CC2C002018
:10136000BDE101002487030030870300F9820300F8
:10137000349F030058870300F8B54F464646C0B473
:10138000071C0E1C00250CE02B1C08339B00FB18CF
:101390005868B04204D0037A002B01D000F0CCFD95
:1013A0000135364B1B68002B5DD154200BF00EF934
:1013B000041C012398460370437000239946A370D0
:1013C000C8224260783A02814281A381962292002B
:1013D000C281B93AFF3A0282428240218182FA21D7
:1013E0004901C182C821C900018308214183828348
:1013F000203AC2837B3A02840532428420498184A8
:101400002049C184FA2189000185418582852432E1
:1014100041468154013200218154013283542D3AD6
:1014200042863132414681540132032181540421E4
:1014300001328154013283540132414681540132D8
:1014400083543A301049293A14F03CF94A234A4669
:10145000E25202334246E25209220233E2520B4B7D
:101460002365064B1C60054B1A683523D35C01339A
:101470009D4289DB0CBC90469946F8BD7829002036
:10148000B80B000010270000D886030019270000C1
:10149000F0B58DB0041C0F1C151C1E1C837B002B8B
:1014A0004BD00268002A4AD1013B8373FFF7E4FC6A
:1014B0002060244BC6522068291C321C00F074FDA9
:1014C000214B1B68DB0708D4204802F0B5FF01223E
:1014D0001D4B1A601E4814F01CF823681D4A9446E0
:1014E0006344191C1948062207AB02F0BFFB281CF5
:1014F00001F0F2FE051C144B1B68DB0708D41348EF
:1015000002F09AFF0122104B1A60114814F001F802
:10151000002D01D0104B00E0104B114A0092114AEF
:101520000192029707AA03920493084801210E4AE8
:10153000DE2302F0E3FE206802E0002000E000204D
:101540000DB0F0BD7E020000C82C0020CC2C002085
:10155000BDE1010077020000A4C803009CC803009D
:101560008884030074870300F9820300F8B54F46AE
:101570004646C0B403699D2292009A5A8A4276D0A8
:101580000F1C061C002509E02B1D9B00F3185B684F
:101590009D2292009A5ABA4269D00135364B1B6897
:1015A000002B5DD154200BF011F8041C0123984648
:1015B0000370437000239946A370C8224260783AB2
:1015C00002814281A38196229200C281B93AFF3AF8
:1015D0000282428240218182FA214901C182C821CE
:1015E000C9000183082141838283203AC2837B3A68
:1015F000028405324284214981842149C184FA212F
:101600008900018541858285243241468154013219
:1016100000218154013283542D3A428631324146B1
:101620008154013203218154042101328154013259
:101630008354013241468154013283543A30114976
:10164000293A14F03FF84A234A46E252023342460E
:10165000E25209220233E2520B4B2365064B1C6017
:10166000054B1A683523D35C9D428DDB0023181C83
:101670000CBC90469946F8BD78290020B80B0000B4
:1016800010270000D886030019270000F0B5A3B08A
:10169000041CAB4B1B68002B07D134200AF096FFCB
:1016A000051CFEF7EBFBA64B1D60A54B1868A18837
:1016B000FFF75CFF051E00D140E12023E35C01221F
:1016C00093433C2B48D19F4E3068883008F00CFD86
:1016D00037682523E15C0133E35C1B020B431A1CD2
:1016E0002723E65C3604331C13432822A65C360607
:1016F0001E432923E05C0133E25C12020243013302
:10170000E35C1B0413431A1C2C23E35C1B061343EA
:101710003A1C8032166053608B4B1B68DB0708D481
:101720008A4802F089FE0122874B1A60884813F02C
:10173000F0FE844B1B6888229A5880331B68039301
:10174000844B0093844B0193029280480121834A89
:10175000AC23FF3302F0D2FD7B4B1B68DB0708D4C0
:101760007A4802F069FE0122774B1A60784813F03C
:10177000D0FE261C2036E28B7448311C09AB02F0E7
:1017800075FA714B1B68DB0708D4704802F054FEF1
:1017900001226D4B1A606E4813F0BBFE2023E35C00
:1017A0005808DB07DB0FDBB2E18B227A6C4F009726
:1017B0006C4F0197029003930491059263480121B5
:1017C000664AD9235B0002F099FD5F4B1B68DB077B
:1017D00008D45E4802F030FE01225B4B1A605C4880
:1017E00013F097FE5E4B00935F4B019309AB02939E
:1017F00056480121594AB423FF3302F07FFD5B4B69
:10180000E85C002812D12023E35CDB070ED406A994
:10181000A3880B804E60E38B0B81237A023B5A1E18
:1018200093418B70281CFEF71FFE87E0002828D10B
:101830002023E35CDB0724D5281CAA30FF30E28B91
:10184000311C13F03FFF494AE18BAB5CCB18AB5422
:101850003D4B1B68DB0708D43C4802F0EDFD01223C
:10186000394B1A603A4813F054FE414B0093414BF8
:10187000019336480121394AE8235B0002F03EFD1E
:101880005CE000285AD02818AA30FF30E28B013AD9
:10189000211C213113F016FF2023E35CDB071ED54A
:1018A000324AE18BAB5CCB18013BAB54264B1B6837
:1018B000DB0708D4254802F0BFFD0122224B1A6045
:1018C000234813F026FE2A4B00932B4B01931F480D
:1018D0000121224AE023FF3302F010FD2EE01A4BD3
:1018E0001B68DB0708D4194802F0A6FD0122164B3D
:1018F0001A60174813F00DFE1D4B00931F4B019308
:1019000012480121154AE423FF3302F0F7FC06A92F
:10191000A3880B802B1CAA33FF334B60134AA85CAF
:10192000E38BC318013B0B81237A023B581E834192
:101930008B700023AB54281CFEF796FD23B0F0BD3E
:10194000802900207C290020C82C0020CC2C0020DD
:10195000BDE101000081030094870300F9820300C8
:1019600024870300BC870300548703007102000032
:10197000E8860300F487030014880300348803001A
:1019800070B5061C184B1B68002B07D134200AF0D9
:101990001DFE041CFEF772FA134B1C60124B1C68F0
:1019A000B188201CFFF7E2FD051E1BD0C37A002B77
:1019B00003D1637B0133637302E0A37B0133A37321
:1019C000D2235B00EA586389128B9B1A6381002340
:1019D0002B72606803689B68311C9847281C311C77
:1019E000FEF754FC70BDC0468029002070B5051C70
:1019F0000E1C114B1B68002B07D134200AF0E6FDAA
:101A0000041CFEF73BFA0C4B1C600B4B1C68201CA3
:101A1000291CFFF7ABFD00280CD0084BC652237AD7
:101A2000002B02D0FEF76EFC04E060680368DB6800
:101A30000021984770BDC046802900207E0200002A
:101A400030B585B0041C214B1B68002B07D1342016
:101A50000AF0BCFD051CFEF711FA1C4B1D601B4B68
:101A60001D68A188281CFFF781FD041C184B1B680A
:101A7000DB0708D4174802F0DFFC0122144B1A6080
:101A8000154813F046FDA37A144A0092144A0192B5
:101A9000029310480121134A4623FF3302F02EFC23
:101AA000E37A002B05D12B7A002B0DD10133637221
:101AB0000AE0012B08D12B7A002B03D0201CFEF763
:101AC00021FC01E00123637205B030BD80290020B4
:101AD000C82C0020CC2C0020BDE10100E8860300CA
:101AE00054880300F9820300F0B557464E46454638
:101AF000E0B484B0061C0F1C029203930CAB1B785D
:101B00009846002511E02B1C08339B00F3185968F8
:101B1000B94209D04B7A002B06D043460093301CC3
:101B2000029A039BFFF7B2FB0135384B1B68002B71
:101B30005DD154200AF04AFD041C0123994603702C
:101B4000437000239A46A370C8224260783A02810B
:101B50004281A38196229200C281B93AFF3A028261
:101B6000428240218182FA214901C182C821C900F3
:101B70000183082141838283203AC2837B3A028415
:101B800005324284224981842249C184FA21890094
:101B900001854185828524324946815401320021E4
:101BA0008154013283542D3A428631324946815460
:101BB00001320321815404210132815401328354C2
:101BC000013249468154013283543A301249293A4C
:101BD00013F078FD4A235246E25202334A46E2525B
:101BE00009220233E2520D4B2365084B1C60074B60
:101BF0001A683623D35C9D4285DB301C07F0CEF992
:101C000004B01CBC90469946A246F0BD782900203D
:101C1000B80B000010270000D88603001927000029
:101C200010B582B0041C04A800780090201CFFF7B7
:101C30002DFB201C07F0B2F9012002B010BDC046F8
:101C4000F0B589B003900D1C141C1E1C0EAB1F7840
:101C5000D27823791B0213431E4A1068C28D934227
:101C600005D0002905D1002B05D0002304E0012375
:101C700002E0002300E00123002B08D005A9002387
:101C80000B804C600E818F700368DB699847E278A7
:101C900023791B021343104A93420CD1039800216D
:101CA00006F0AEFE011E12D000970398221C331CD2
:101CB000FFF7B6FF0BE0074A1268D28D934206D0B9
:101CC00000970398291C221C331CFFF70DFF09B055
:101CD000F0BDC0467C2900201979000070B5061CB3
:101CE0000D1C002413E00B4B1A68002A0ED0231C95
:101CF00014339B009858002808D0036ADB78002B27
:101D000004D003685B6A311C2A1C98470134092CF3
:101D1000E9DD70BD6C2B0020FEE7C04648DF704750
:101D200047DF70473BDF704732DF704761DF704746
:101D300060DF704770B5334B1B68002B57D15420C0
:101D40000AF044FC041C01250570457000260023A0
:101D50008670C8224260783A02814281868196224A
:101D60009200C281B93AFF3A0282428240218182C6
:101D7000FA214901C182C821C90001830821418398
:101D80008283203AC2837B3A0284053242841E4910
:101D900081841E49C184FA2189000185418582859B
:101DA00024328554013200218154013283542D3A6A
:101DB000428631328554013203218154042101329B
:101DC00081540132835401328554013283543A30B4
:101DD0000F49293A13F076FC4A23E6520233E552C2
